{
  "_format": "hh-sol-artifact-1",
  "contractName": "Lance",
  "sourceName": "contracts/Lance.sol",
  "abi": [
    {
      "inputs": [],
      "name": "createBid",
      "outputs": [],
      "stateMutability": "nonpayable",
      "type": "function"
    },
    {
      "inputs": [],
      "name": "createJob",
      "outputs": [],
      "stateMutability": "nonpayable",
      "type": "function"
    },
    {
      "inputs": [],
      "name": "evaluateJob",
      "outputs": [],
      "stateMutability": "nonpayable",
      "type": "function"
    },
    {
      "inputs": [],
      "name": "getJobBids",
      "outputs": [],
      "stateMutability": "nonpayable",
      "type": "function"
    },
    {
      "inputs": [],
      "name": "getJobPosts",
      "outputs": [],
      "stateMutability": "nonpayable",
      "type": "function"
    },
    {
      "inputs": [],
      "name": "getJobState",
      "outputs": [],
      "stateMutability": "nonpayable",
      "type": "function"
    },
    {
      "inputs": [],
      "name": "getSingleJob",
      "outputs": [],
      "stateMutability": "nonpayable",
      "type": "function"
    },
    {
      "inputs": [],
      "name": "getTestsLink",
      "outputs": [],
      "stateMutability": "nonpayable",
      "type": "function"
    },
    {
      "inputs": [],
      "name": "getUserJobPosts",
      "outputs": [],
      "stateMutability": "nonpayable",
      "type": "function"
    },
    {
      "inputs": [],
      "name": "submitEvaluatorScore",
      "outputs": [],
      "stateMutability": "nonpayable",
      "type": "function"
    },
    {
      "inputs": [],
      "name": "submitJob",
      "outputs": [],
      "stateMutability": "nonpayable",
      "type": "function"
    },
    {
      "inputs": [],
      "name": "submitSupervisorScore",
      "outputs": [],
      "stateMutability": "nonpayable",
      "type": "function"
    }
  ],
  "bytecode": "0x608060405234801561001057600080fd5b5061017f806100206000396000f3fe608060405234801561001057600080fd5b50600436106100b45760003560e01c8063b2dddf5611610071578063b2dddf56146100f5578063bda84971146100ff578063c1f6878914610109578063c3d9378414610113578063de0a983b1461011d578063eeba212c14610127576100b4565b8063164576d4146100b95780634646fc58146100c35780634a4d0048146100cd5780634aa5800d146100d75780635b6b5710146100e157806383624074146100eb575b600080fd5b6100c1610131565b005b6100cb610133565b005b6100d5610135565b005b6100df610137565b005b6100e9610139565b005b6100f361013b565b005b6100fd61013d565b005b61010761013f565b005b610111610141565b005b61011b610143565b005b610125610145565b005b61012f610147565b005b565b565b565b565b565b565b565b565b565b565b565b56fea26469706673582212206b040074e717dc192d3d4c140ab1f257a19b72f096fe974b0c8a355d10a438f564736f6c63430008180033",
  "linkReferences": {},
  "deployedLinkReferences": {}
}