{"contracts/Evaluation.sol":{"Evaluation":{"abi":[{"inputs":[{"internalType":"address","name":"evaluatorContractAddress","type":"address"},{"internalType":"contract IERC20","name":"lanceToken_","type":"address"},{"internalType":"contract IERC20","name":"bidToken_","type":"address"},{"internalType":"uint256","name":"fees_","type":"uint256"}],"stateMutability":"nonpayable","type":"constructor"},{"inputs":[{"internalType":"uint256[]","name":"_data","type":"uint256[]"}],"name":"UintArray","outputs":[],"stateMutability":"nonpayable","type":"function"},{"inputs":[],"name":"evaluate","outputs":[],"stateMutability":"nonpayable","type":"function"},{"inputs":[],"name":"evaluateAlgorithmicTests","outputs":[{"internalType":"uint256","name":"","type":"uint256"}],"stateMutability":"nonpayable","type":"function"},{"inputs":[],"name":"evaluateHeuristicTests","outputs":[{"internalType":"uint256","name":"","type":"uint256"}],"stateMutability":"nonpayable","type":"function"},{"inputs":[],"name":"getEvaluators","outputs":[{"internalType":"address[]","name":"","type":"address[]"}],"stateMutability":"view","type":"function"},{"inputs":[{"internalType":"uint256[]","name":"arr","type":"uint256[]"}],"name":"getIQR","outputs":[{"internalType":"uint256","name":"","type":"uint256"},{"internalType":"uint256","name":"","type":"uint256"}],"stateMutability":"nonpayable","type":"function"},{"inputs":[{"internalType":"uint256","name":"seed","type":"uint256"},{"internalType":"uint256","name":"amount","type":"uint256"}],"name":"populateEvaluators","outputs":[],"stateMutability":"nonpayable","type":"function"},{"inputs":[],"name":"rewardEvaluators","outputs":[],"stateMutability":"nonpayable","type":"function"},{"inputs":[],"name":"selectRandomEvaluators","outputs":[],"stateMutability":"nonpayable","type":"function"},{"inputs":[],"name":"sort","outputs":[],"stateMutability":"nonpayable","type":"function"},{"inputs":[],"name":"submitEvaluatorScore","outputs":[],"stateMutability":"nonpayable","type":"function"},{"inputs":[],"name":"submitOwnerScore","outputs":[],"stateMutability":"nonpayable","type":"function"}],"evm":{"bytecode":{"linkReferences":{},"object":"60806040526040518061016001604052806101f461ffff16815260200161032061ffff1681526020016105dc61ffff168152602001610a2861ffff1681526020016103e861ffff16815260200161070861ffff16815260200161012c61ffff1681526020016104b061ffff16815260200161025861ffff16815260200161057861ffff16815260200161044c61ffff16815250600490600b620000a492919062000245565b50604051806101600160405280600560ff168152602001600860ff168152602001600f60ff168152602001601a60ff168152602001600a60ff168152602001601260ff168152602001600360ff168152602001600c60ff168152602001600660ff168152602001600e60ff168152602001600b60ff16815250600590600b6200012f9291906200029d565b506032600c556046600f55601e6010553480156200014c57600080fd5b5060405162004c0038038062004c008339818101604052810190620001729190620003fd565b836000806101000a81548173ffffffffffffffffffffffffffffffffffffffff021916908373ffffffffffffffffffffffffffffffffffffffff16021790555082600d60006101000a81548173ffffffffffffffffffffffffffffffffffffffff021916908373ffffffffffffffffffffffffffffffffffffffff16021790555081600e60006101000a81548173ffffffffffffffffffffffffffffffffffffffff021916908373ffffffffffffffffffffffffffffffffffffffff16021790555080600c81905550505050506200046f565b8280548282559060005260206000209081019282156200028a579160200282015b8281111562000289578251829061ffff1690559160200191906001019062000266565b5b509050620002999190620002f4565b5090565b828054828255906000526020600020908101928215620002e1579160200282015b82811115620002e0578251829060ff16905591602001919060010190620002be565b5b509050620002f09190620002f4565b5090565b5b808211156200030f576000816000905550600101620002f5565b5090565b600080fd5b600073ffffffffffffffffffffffffffffffffffffffff82169050919050565b6000620003458262000318565b9050919050565b620003578162000338565b81146200036357600080fd5b50565b60008151905062000377816200034c565b92915050565b60006200038a8262000338565b9050919050565b6200039c816200037d565b8114620003a857600080fd5b50565b600081519050620003bc8162000391565b92915050565b6000819050919050565b620003d781620003c2565b8114620003e357600080fd5b50565b600081519050620003f781620003cc565b92915050565b600080600080608085870312156200041a576200041962000313565b5b60006200042a8782880162000366565b94505060206200043d87828801620003ab565b93505060406200045087828801620003ab565b92505060606200046387828801620003e6565b91505092959194509250565b614781806200047f6000396000f3fe60806040523480156200001157600080fd5b5060043610620000c45760003560e01c8063a8f69115116200007b578063a8f69115146200013d578063aa3482fa1462000149578063b14275e61462000169578063b2e669a51462000189578063eeba212c14620001ab578063f345b4a714620001b757620000c4565b80636a22b34214620000c95780637daa9efc14620000d55780637e1cce0c14620000e15780638cdc86a614620001035780639c5e8771146200010f578063a07955ad1462000131575b600080fd5b620000d3620001ee565b005b620000df620001f0565b005b620000eb62000292565b604051620000fa919062001a98565b60405180910390f35b6200010d62000322565b005b620001196200035e565b60405162000128919062001ad7565b60405180910390f35b6200013b62000433565b005b6200014762000435565b005b62000167600480360381019062000161919062001cae565b62000ae0565b005b62000187600480360381019062000181919062001cff565b62000ba8565b005b6200019362000cee565b604051620001a2919062001ad7565b60405180910390f35b620001b562000dc3565b005b620001d56004803603810190620001cf919062001cae565b62000dc5565b604051620001e592919062001d46565b60405180910390f35b565b6000620001fc62000cee565b905060006200020a6200035e565b90506200024d6040518060400160405280601181526020017f4176657261676520416c676f2069733a200000000000000000000000000000008152508362000f6d565b6200028e6040518060400160405280601681526020017f41766572616765204865757269737469632069733a20000000000000000000008152508262000f6d565b5050565b606060018054806020026020016040519081016040528092919081815260200182805480156200031857602002820191906000526020600020905b8160009054906101000a900473ffffffffffffffffffffffffffffffffffffffff1673ffffffffffffffffffffffffffffffffffffffff1681526020019060010190808311620002cd575b5050505050905090565b60005b600160118054905062000339919062001da2565b8110156200035b576200034c816200100d565b50808060010191505062000325565b50565b6000620003bd6005805480602002602001604051908101604052809291908181526020018280548015620003b257602002820191906000526020600020905b8154815260200190600101908083116200039d575b505050505062000dc5565b600a6000600b60008491905055839190505550506200042e60058054806020026020016040519081016040528092919081815260200182805480156200042357602002820191906000526020600020905b8154815260200190600101908083116200040e575b505050505062001137565b905090565b565b600060058054905067ffffffffffffffff81111562000459576200045862001b1e565b5b604051908082528060200260200182016040528015620004885781602001602082028036833780820191505090505b509050600060058054905067ffffffffffffffff811115620004af57620004ae62001b1e565b5b604051908082528060200260200182016040528015620004de5781602001602082028036833780820191505090505b509050600060058054905067ffffffffffffffff81111562000505576200050462001b1e565b5b604051908082528060200260200182016040528015620005345781602001602082028036833780820191505090505b50905060005b6005805490508110156200073b57600181815481106200055f576200055e62001ddd565b5b9060005260206000200160009054906101000a900473ffffffffffffffffffffffffffffffffffffffff16848281518110620005a0576200059f62001ddd565b5b602002602001019073ffffffffffffffffffffffffffffffffffffffff16908173ffffffffffffffffffffffffffffffffffffffff1681525050600a5460058281548110620005f457620005f362001ddd565b5b90600052602060002001541180156200062f5750600b546005828154811062000622576200062162001ddd565b5b9060005260206000200154105b15620006b757600654600582815481106200064f576200064e62001ddd565b5b9060005260206000200154036200068b57600f5483828151811062000679576200067862001ddd565b5b602002602001018181525050620006b1565b601054838281518110620006a457620006a362001ddd565b5b6020026020010181815250505b6200072d565b6001838281518110620006cf57620006ce62001ddd565b5b6020026020010181815250506200070a60065460058381548110620006f957620006f862001ddd565b5b90600052602060002001546200119e565b82828151811062000720576200071f62001ddd565b5b6020026020010181815250505b80806001019150506200053a565b5060005b60048054905081101562000902576008546004828154811062000767576200076662001ddd565b5b9060005260206000200154118015620007a257506009546004828154811062000795576200079462001ddd565b5b9060005260206000200154105b15620008f45760075460048281548110620007c257620007c162001ddd565b5b9060005260206000200154036200082857600f54838281518110620007ec57620007eb62001ddd565b5b602002602001015162000800919062001e0c565b83828151811062000816576200081562001ddd565b5b602002602001018181525050620008f3565b60105483828151811062000841576200084062001ddd565b5b602002602001015162000855919062001e0c565b8382815181106200086b576200086a62001ddd565b5b602002602001018181525050620008a66006546005838154811062000895576200089462001ddd565b5b90600052602060002001546200119e565b828281518110620008bc57620008bb62001ddd565b5b6020026020010151620008d0919062001e0c565b828281518110620008e657620008e562001ddd565b5b6020026020010181815250505b5b80806001019150506200073f565b506000838360405162000915906200190b565b6200092292919062001f15565b604051809103906000f0801580156200093f573d6000803e3d6000fd5b5090506200095081600c54620011d6565b6200095e81600c546200136c565b60005b845181101562000ad9578173ffffffffffffffffffffffffffffffffffffffff166348b75044600d60009054906101000a900473ffffffffffffffffffffffffffffffffffffffff16878481518110620009c057620009bf62001ddd565b5b60200260200101516040518363ffffffff1660e01b8152600401620009e792919062001fcc565b600060405180830381600087803b15801562000a0257600080fd5b505af115801562000a17573d6000803e3d6000fd5b505050508173ffffffffffffffffffffffffffffffffffffffff166348b75044600e60009054906101000a900473ffffffffffffffffffffffffffffffffffffffff1687848151811062000a705762000a6f62001ddd565b5b60200260200101516040518363ffffffff1660e01b815260040162000a9792919062001fcc565b600060405180830381600087803b15801562000ab257600080fd5b505af115801562000ac7573d6000803e3d6000fd5b50505050808060010191505062000961565b5050505050565b805167ffffffffffffffff81111562000afe5762000afd62001b1e565b5b60405190808252806020026020018201604052801562000b2d5781602001602082028036833780820191505090505b506011908051906020019062000b4592919062001919565b5060005b815181101562000ba45781818151811062000b695762000b6862001ddd565b5b60200260200101516011828154811062000b885762000b8762001ddd565b5b9060005260206000200181905550808060010191505062000b49565b5050565b60008060009054906101000a900473ffffffffffffffffffffffffffffffffffffffff1673ffffffffffffffffffffffffffffffffffffffff1663603da88184846040518363ffffffff1660e01b815260040162000c0892919062001d46565b6202710060405180830381865afa15801562000c28573d6000803e3d6000fd5b505050506040513d601f19601f8201168201806040525081019062000c4e9190620020ef565b905060005b8281101562000ce85760018282611388811062000c755762000c7462001ddd565b5b60200201519080600181540180825580915050600190039060005260206000200160009091909190916101000a81548173ffffffffffffffffffffffffffffffffffffffff021916908373ffffffffffffffffffffffffffffffffffffffff160217905550808060010191505062000c53565b50505050565b600062000d4d600480548060200260200160405190810160405280929190818152602001828054801562000d4257602002820191906000526020600020905b81548152602001906001019080831162000d2d575b505050505062000dc5565b600860006009600084919050558391905055505062000dbe600480548060200260200160405190810160405280929190818152602001828054801562000db357602002820191906000526020600020905b81548152602001906001019080831162000d9e575b505050505062001137565b905090565b565b60008062000dd38362000ae0565b62000ddd62000322565b600062000e3c601180548060200260200160405190810160405280929190818152602001828054801562000e3157602002820191906000526020600020905b81548152602001906001019080831162000e1c575b505050505062001502565b9050600062000e9d601180548060200260200160405190810160405280929190818152602001828054801562000e9257602002820191906000526020600020905b81548152602001906001019080831162000e7d575b50505050506200168b565b9050600062000eac8362001798565b9050600062000ebb8362001798565b90506000818362000ecd919062001da2565b90506000600260038362000ee2919062002123565b62000eee91906200219d565b8462000efb919062001e0c565b90506000600260038462000f10919062002123565b62000f1c91906200219d565b84101562000f2e576000905062000f5b565b600260038462000f3f919062002123565b62000f4b91906200219d565b8462000f58919062001da2565b90505b80829850985050505050505050915091565b62001009828260405160240162000f869291906200225e565b6040516020818303038152906040527fb60e72cc000000000000000000000000000000000000000000000000000000007bffffffffffffffffffffffffffffffffffffffffffffffffffffffff19166020820180517bffffffffffffffffffffffffffffffffffffffffffffffffffffffff8381831617835250505050620018c0565b5050565b60008082905060008390505b6011805490508110156200108457601182815481106200103e576200103d62001ddd565b5b90600052602060002001546011828154811062001060576200105f62001ddd565b5b9060005260206000200154101562001076578091505b808060010191505062001019565b508281036200109857600091505062001132565b600060118481548110620010b157620010b062001ddd565b5b9060005260206000200154905060118281548110620010d557620010d462001ddd565b5b906000526020600020015460118581548110620010f757620010f662001ddd565b5b906000526020600020018190555080601183815481106200111d576200111c62001ddd565b5b90600052602060002001819055506001925050505b919050565b6000806000905060005b8351811015620011865783818151811062001161576200116062001ddd565b5b60200260200101518262001176919062001e0c565b9150808060010191505062001141565b508251816200119691906200219d565b915050919050565b600081831115620011bf578183620011b7919062001da2565b9050620011d0565b8282620011cd919062001da2565b90505b92915050565b6000600e60009054906101000a900473ffffffffffffffffffffffffffffffffffffffff1673ffffffffffffffffffffffffffffffffffffffff166370a08231306040518263ffffffff1660e01b815260040162001235919062002292565b602060405180830381865afa15801562001253573d6000803e3d6000fd5b505050506040513d601f19601f82011682018060405250810190620012799190620022c6565b905080821115620012c1576040517f08c379a0000000000000000000000000000000000000000000000000000000008152600401620012b89062002348565b60405180910390fd5b600e60009054906101000a900473ffffffffffffffffffffffffffffffffffffffff1673ffffffffffffffffffffffffffffffffffffffff1663a9059cbb84846040518363ffffffff1660e01b8152600401620013209291906200236a565b6020604051808303816000875af115801562001340573d6000803e3d6000fd5b505050506040513d601f19601f82011682018060405250810190620013669190620023d4565b50505050565b6000600d60009054906101000a900473ffffffffffffffffffffffffffffffffffffffff1673ffffffffffffffffffffffffffffffffffffffff166370a08231306040518263ffffffff1660e01b8152600401620013cb919062002292565b602060405180830381865afa158015620013e9573d6000803e3d6000fd5b505050506040513d601f19601f820116820180604052508101906200140f9190620022c6565b90508082111562001457576040517f08c379a00000000000000000000000000000000000000000000000000000000081526004016200144e9062002348565b60405180910390fd5b600d60009054906101000a900473ffffffffffffffffffffffffffffffffffffffff1673ffffffffffffffffffffffffffffffffffffffff1663a9059cbb84846040518363ffffffff1660e01b8152600401620014b69291906200236a565b6020604051808303816000875af1158015620014d6573d6000803e3d6000fd5b505050506040513d601f19601f82011682018060405250810190620014fc9190620023d4565b50505050565b60606000600283516200151691906200219d565b905060008167ffffffffffffffff81111562001537576200153662001b1e565b5b604051908082528060200260200182016040528015620015665781602001602082028036833780820191505090505b5090506000600285516200157b919062002406565b03620015f85760008290505b8451811015620015ec57848181518110620015a757620015a662001ddd565b5b6020026020010151828483620015be919062001da2565b81518110620015d257620015d162001ddd565b5b602002602001018181525050808060010191505062001587565b50809250505062001686565b600060018362001609919062001e0c565b90505b84518110156200167f578481815181106200162c576200162b62001ddd565b5b6020026020010151826001858462001645919062001da2565b62001651919062001da2565b8151811062001665576200166462001ddd565b5b60200260200101818152505080806001019150506200160c565b5080925050505b919050565b60606000600283516200169f91906200219d565b9050620016e26040518060400160405280600f81526020017f4172724c656e67746820697320257300000000000000000000000000000000008152508262000f6d565b60008167ffffffffffffffff81111562001701576200170062001b1e565b5b604051908082528060200260200182016040528015620017305781602001602082028036833780820191505090505b50905060005b828110156200178d5784818151811062001755576200175462001ddd565b5b602002602001015182828151811062001773576200177262001ddd565b5b602002602001018181525050808060010191505062001736565b508092505050919050565b600080825103620017ad5760009050620018bb565b620017b88262000ae0565b620017c262000322565b60006002601180549050620017d8919062002406565b036200187d5760006002601180549050620017f491906200219d565b9050600060018262001807919062001da2565b905060006011838154811062001822576200182162001ddd565b5b9060005260206000200154905060006011838154811062001848576200184762001ddd565b5b906000526020600020015490506002818362001865919062001e0c565b6200187191906200219d565b945050505050620018bb565b600060026011805490506200189391906200219d565b905060118181548110620018ac57620018ab62001ddd565b5b90600052602060002001549150505b919050565b620018db81620018d3620018de620018ff565b63ffffffff16565b50565b60006a636f6e736f6c652e6c6f679050600080835160208501845afa505050565b6200196b819050919050565b6122de806200246e83390190565b82805482825590600052602060002090810192821562001958579160200282015b82811115620019575782518255916020019190600101906200193a565b5b50905062001967919062001977565b5090565b620019756200243e565b565b5b808211156200199257600081600090555060010162001978565b5090565b600081519050919050565b600082825260208201905092915050565b6000819050602082019050919050565b600073ffffffffffffffffffffffffffffffffffffffff82169050919050565b6000620019ef82620019c2565b9050919050565b62001a0181620019e2565b82525050565b600062001a158383620019f6565b60208301905092915050565b6000602082019050919050565b600062001a3b8262001996565b62001a478185620019a1565b935062001a5483620019b2565b8060005b8381101562001a8b57815162001a6f888262001a07565b975062001a7c8362001a21565b92505060018101905062001a58565b5085935050505092915050565b6000602082019050818103600083015262001ab4818462001a2e565b905092915050565b6000819050919050565b62001ad18162001abc565b82525050565b600060208201905062001aee600083018462001ac6565b92915050565b6000604051905090565b600080fd5b600080fd5b600080fd5b6000601f19601f8301169050919050565b7f4e487b7100000000000000000000000000000000000000000000000000000000600052604160045260246000fd5b62001b588262001b0d565b810181811067ffffffffffffffff8211171562001b7a5762001b7962001b1e565b5b80604052505050565b600062001b8f62001af4565b905062001b9d828262001b4d565b919050565b600067ffffffffffffffff82111562001bc05762001bbf62001b1e565b5b602082029050602081019050919050565b600080fd5b62001be18162001abc565b811462001bed57600080fd5b50565b60008135905062001c018162001bd6565b92915050565b600062001c1e62001c188462001ba2565b62001b83565b9050808382526020820190506020840283018581111562001c445762001c4362001bd1565b5b835b8181101562001c71578062001c5c888262001bf0565b84526020840193505060208101905062001c46565b5050509392505050565b600082601f83011262001c935762001c9262001b08565b5b813562001ca584826020860162001c07565b91505092915050565b60006020828403121562001cc75762001cc662001afe565b5b600082013567ffffffffffffffff81111562001ce85762001ce762001b03565b5b62001cf68482850162001c7b565b91505092915050565b6000806040838503121562001d195762001d1862001afe565b5b600062001d298582860162001bf0565b925050602062001d3c8582860162001bf0565b9150509250929050565b600060408201905062001d5d600083018562001ac6565b62001d6c602083018462001ac6565b9392505050565b7f4e487b7100000000000000000000000000000000000000000000000000000000600052601160045260246000fd5b600062001daf8262001abc565b915062001dbc8362001abc565b925082820390508181111562001dd75762001dd662001d73565b5b92915050565b7f4e487b7100000000000000000000000000000000000000000000000000000000600052603260045260246000fd5b600062001e198262001abc565b915062001e268362001abc565b925082820190508082111562001e415762001e4062001d73565b5b92915050565b600081519050919050565b600082825260208201905092915050565b6000819050602082019050919050565b62001e7e8162001abc565b82525050565b600062001e92838362001e73565b60208301905092915050565b6000602082019050919050565b600062001eb88262001e47565b62001ec4818562001e52565b935062001ed18362001e63565b8060005b8381101562001f0857815162001eec888262001e84565b975062001ef98362001e9e565b92505060018101905062001ed5565b5085935050505092915050565b6000604082019050818103600083015262001f31818562001a2e565b9050818103602083015262001f47818462001eab565b90509392505050565b6000819050919050565b600062001f7b62001f7562001f6f84620019c2565b62001f50565b620019c2565b9050919050565b600062001f8f8262001f5a565b9050919050565b600062001fa38262001f82565b9050919050565b62001fb58162001f96565b82525050565b62001fc681620019e2565b82525050565b600060408201905062001fe3600083018562001faa565b62001ff2602083018462001fbb565b9392505050565b600067ffffffffffffffff82111562002017576200201662001b1e565b5b602082029050919050565b6200202d81620019e2565b81146200203957600080fd5b50565b6000815190506200204d8162002022565b92915050565b60006200206a620020648462001ff9565b62001b83565b9050806020840283018581111562002087576200208662001bd1565b5b835b81811015620020b457806200209f88826200203c565b84526020840193505060208101905062002089565b5050509392505050565b600082601f830112620020d657620020d562001b08565b5b611388620020e684828562002053565b91505092915050565b60006202710082840312156200210a576200210962001afe565b5b60006200211a84828501620020be565b91505092915050565b6000620021308262001abc565b91506200213d8362001abc565b92508282026200214d8162001abc565b9150828204841483151762002167576200216662001d73565b5b5092915050565b7f4e487b7100000000000000000000000000000000000000000000000000000000600052601260045260246000fd5b6000620021aa8262001abc565b9150620021b78362001abc565b925082620021ca57620021c96200216e565b5b828204905092915050565b600081519050919050565b600082825260208201905092915050565b60005b8381101562002211578082015181840152602081019050620021f4565b60008484015250505050565b60006200222a82620021d5565b620022368185620021e0565b935062002248818560208601620021f1565b620022538162001b0d565b840191505092915050565b600060408201905081810360008301526200227a81856200221d565b90506200228b602083018462001ac6565b9392505050565b6000602082019050620022a9600083018462001fbb565b92915050565b600081519050620022c08162001bd6565b92915050565b600060208284031215620022df57620022de62001afe565b5b6000620022ef84828501620022af565b91505092915050565b7f62616c616e6365206973206c6f77000000000000000000000000000000000000600082015250565b600062002330600e83620021e0565b91506200233d82620022f8565b602082019050919050565b60006020820190508181036000830152620023638162002321565b9050919050565b600060408201905062002381600083018562001fbb565b62002390602083018462001ac6565b9392505050565b60008115159050919050565b620023ae8162002397565b8114620023ba57600080fd5b50565b600081519050620023ce81620023a3565b92915050565b600060208284031215620023ed57620023ec62001afe565b5b6000620023fd84828501620023bd565b91505092915050565b6000620024138262001abc565b9150620024208362001abc565b9250826200243357620024326200216e565b5b828206905092915050565b7f4e487b7100000000000000000000000000000000000000000000000000000000600052605160045260246000fdfe6080604052604051620022de380380620022de83398181016040528101906200002991906200065f565b805182511462000070576040517f08c379a000000000000000000000000000000000000000000000000000000000815260040162000067906200076b565b60405180910390fd5b6000825111620000b7576040517f08c379a0000000000000000000000000000000000000000000000000000000008152600401620000ae90620007dd565b60405180910390fd5b60005b82518110156200011e5762000110838281518110620000de57620000dd620007ff565b5b6020026020010151838381518110620000fc57620000fb620007ff565b5b60200260200101516200012760201b60201c565b8080600101915050620000ba565b50505062000a89565b600073ffffffffffffffffffffffffffffffffffffffff168273ffffffffffffffffffffffffffffffffffffffff160362000199576040517f08c379a00000000000000000000000000000000000000000000000000000000081526004016200019090620008a4565b60405180910390fd5b60008111620001df576040517f08c379a0000000000000000000000000000000000000000000000000000000008152600401620001d69062000916565b60405180910390fd5b6000600260008473ffffffffffffffffffffffffffffffffffffffff1673ffffffffffffffffffffffffffffffffffffffff168152602001908152602001600020541462000264576040517f08c379a00000000000000000000000000000000000000000000000000000000081526004016200025b90620009ae565b60405180910390fd5b6004829080600181540180825580915050600190039060005260206000200160009091909190916101000a81548173ffffffffffffffffffffffffffffffffffffffff021916908373ffffffffffffffffffffffffffffffffffffffff16021790555080600260008473ffffffffffffffffffffffffffffffffffffffff1673ffffffffffffffffffffffffffffffffffffffff16815260200190815260200160002081905550806000546200031b9190620009ff565b6000819055507f40c340f65e17194d14ddddb073d3c9f888e3cb52b5aae0c6c7706b4fbc905fac82826040516200035492919062000a5c565b60405180910390a15050565b6000604051905090565b600080fd5b600080fd5b600080fd5b6000601f19601f8301169050919050565b7f4e487b7100000000000000000000000000000000000000000000000000000000600052604160045260246000fd5b620003c48262000379565b810181811067ffffffffffffffff82111715620003e657620003e56200038a565b5b80604052505050565b6000620003fb62000360565b9050620004098282620003b9565b919050565b600067ffffffffffffffff8211156200042c576200042b6200038a565b5b602082029050602081019050919050565b600080fd5b600073ffffffffffffffffffffffffffffffffffffffff82169050919050565b60006200046f8262000442565b9050919050565b620004818162000462565b81146200048d57600080fd5b50565b600081519050620004a18162000476565b92915050565b6000620004be620004b8846200040e565b620003ef565b90508083825260208201905060208402830185811115620004e457620004e36200043d565b5b835b81811015620005115780620004fc888262000490565b845260208401935050602081019050620004e6565b5050509392505050565b600082601f83011262000533576200053262000374565b5b815162000545848260208601620004a7565b91505092915050565b600067ffffffffffffffff8211156200056c576200056b6200038a565b5b602082029050602081019050919050565b6000819050919050565b62000592816200057d565b81146200059e57600080fd5b50565b600081519050620005b28162000587565b92915050565b6000620005cf620005c9846200054e565b620003ef565b90508083825260208201905060208402830185811115620005f557620005f46200043d565b5b835b818110156200062257806200060d8882620005a1565b845260208401935050602081019050620005f7565b5050509392505050565b600082601f83011262000644576200064362000374565b5b815162000656848260208601620005b8565b91505092915050565b600080604083850312156200067957620006786200036a565b5b600083015167ffffffffffffffff8111156200069a57620006996200036f565b5b620006a8858286016200051b565b925050602083015167ffffffffffffffff811115620006cc57620006cb6200036f565b5b620006da858286016200062c565b9150509250929050565b600082825260208201905092915050565b7f5061796d656e7453706c69747465723a2070617965657320616e64207368617260008201527f6573206c656e677468206d69736d617463680000000000000000000000000000602082015250565b600062000753603283620006e4565b91506200076082620006f5565b604082019050919050565b60006020820190508181036000830152620007868162000744565b9050919050565b7f5061796d656e7453706c69747465723a206e6f20706179656573000000000000600082015250565b6000620007c5601a83620006e4565b9150620007d2826200078d565b602082019050919050565b60006020820190508181036000830152620007f881620007b6565b9050919050565b7f4e487b7100000000000000000000000000000000000000000000000000000000600052603260045260246000fd5b7f5061796d656e7453706c69747465723a206163636f756e74206973207468652060008201527f7a65726f20616464726573730000000000000000000000000000000000000000602082015250565b60006200088c602c83620006e4565b915062000899826200082e565b604082019050919050565b60006020820190508181036000830152620008bf816200087d565b9050919050565b7f5061796d656e7453706c69747465723a20736861726573206172652030000000600082015250565b6000620008fe601d83620006e4565b91506200090b82620008c6565b602082019050919050565b600060208201905081810360008301526200093181620008ef565b9050919050565b7f5061796d656e7453706c69747465723a206163636f756e7420616c726561647960008201527f2068617320736861726573000000000000000000000000000000000000000000602082015250565b600062000996602b83620006e4565b9150620009a38262000938565b604082019050919050565b60006020820190508181036000830152620009c98162000987565b9050919050565b7f4e487b7100000000000000000000000000000000000000000000000000000000600052601160045260246000fd5b600062000a0c826200057d565b915062000a19836200057d565b925082820190508082111562000a345762000a33620009d0565b5b92915050565b62000a458162000462565b82525050565b62000a56816200057d565b82525050565b600060408201905062000a73600083018562000a3a565b62000a82602083018462000a4b565b9392505050565b6118458062000a996000396000f3fe6080604052600436106100a05760003560e01c80639852595c116100645780639852595c146101e3578063a3f8eace14610220578063c45ac0501461025d578063ce7c2ac21461029a578063d79779b2146102d7578063e33b7de314610314576100e7565b806319165587146100ec5780633a98ef3914610115578063406072a91461014057806348b750441461017d5780638b83209b146101a6576100e7565b366100e7577f6ef95f06320e7a25a04a175ca677b7052bdd97131872c2192525a629f51be7706100ce61033f565b346040516100dd929190610e4f565b60405180910390a1005b600080fd5b3480156100f857600080fd5b50610113600480360381019061010e9190610ebb565b610347565b005b34801561012157600080fd5b5061012a6104c6565b6040516101379190610ee8565b60405180910390f35b34801561014c57600080fd5b5061016760048036038101906101629190610f6d565b6104cf565b6040516101749190610ee8565b60405180910390f35b34801561018957600080fd5b506101a4600480360381019061019f9190610f6d565b610556565b005b3480156101b257600080fd5b506101cd60048036038101906101c89190610fd9565b610769565b6040516101da9190611006565b60405180910390f35b3480156101ef57600080fd5b5061020a60048036038101906102059190611021565b6107b1565b6040516102179190610ee8565b60405180910390f35b34801561022c57600080fd5b5061024760048036038101906102429190611021565b6107fa565b6040516102549190610ee8565b60405180910390f35b34801561026957600080fd5b50610284600480360381019061027f9190610f6d565b61082d565b6040516102919190610ee8565b60405180910390f35b3480156102a657600080fd5b506102c160048036038101906102bc9190611021565b6108dc565b6040516102ce9190610ee8565b60405180910390f35b3480156102e357600080fd5b506102fe60048036038101906102f9919061104e565b610925565b60405161030b9190610ee8565b60405180910390f35b34801561032057600080fd5b5061032961096e565b6040516103369190610ee8565b60405180910390f35b600033905090565b6000600260008373ffffffffffffffffffffffffffffffffffffffff1673ffffffffffffffffffffffffffffffffffffffff16815260200190815260200160002054116103c9576040517f08c379a00000000000000000000000000000000000000000000000000000000081526004016103c0906110fe565b60405180910390fd5b60006103d4826107fa565b905060008103610419576040517f08c379a000000000000000000000000000000000000000000000000000000000815260040161041090611190565b60405180910390fd5b806001600082825461042b91906111df565b9250508190555080600360008473ffffffffffffffffffffffffffffffffffffffff1673ffffffffffffffffffffffffffffffffffffffff168152602001908152602001600020600082825401925050819055506104898282610978565b7fdf20fd1e76bc69d672e4814fafb2c449bba3a5369d8359adf9e05e6fde87b05682826040516104ba929190611272565b60405180910390a15050565b60008054905090565b6000600660008473ffffffffffffffffffffffffffffffffffffffff1673ffffffffffffffffffffffffffffffffffffffff16815260200190815260200160002060008373ffffffffffffffffffffffffffffffffffffffff1673ffffffffffffffffffffffffffffffffffffffff16815260200190815260200160002054905092915050565b6000600260008373ffffffffffffffffffffffffffffffffffffffff1673ffffffffffffffffffffffffffffffffffffffff16815260200190815260200160002054116105d8576040517f08c379a00000000000000000000000000000000000000000000000000000000081526004016105cf906110fe565b60405180910390fd5b60006105e4838361082d565b905060008103610629576040517f08c379a000000000000000000000000000000000000000000000000000000000815260040161062090611190565b60405180910390fd5b80600560008573ffffffffffffffffffffffffffffffffffffffff1673ffffffffffffffffffffffffffffffffffffffff168152602001908152602001600020600082825461067891906111df565b9250508190555080600660008573ffffffffffffffffffffffffffffffffffffffff1673ffffffffffffffffffffffffffffffffffffffff16815260200190815260200160002060008473ffffffffffffffffffffffffffffffffffffffff1673ffffffffffffffffffffffffffffffffffffffff16815260200190815260200160002060008282540192505081905550610714838383610a6c565b8273ffffffffffffffffffffffffffffffffffffffff167f3be5b7a71e84ed12875d241991c70855ac5817d847039e17a9d895c1ceb0f18a838360405161075c929190610e4f565b60405180910390a2505050565b60006004828154811061077f5761077e61129b565b5b9060005260206000200160009054906101000a900473ffffffffffffffffffffffffffffffffffffffff169050919050565b6000600360008373ffffffffffffffffffffffffffffffffffffffff1673ffffffffffffffffffffffffffffffffffffffff168152602001908152602001600020549050919050565b60008061080561096e565b4761081091906111df565b90506108258382610820866107b1565b610af2565b915050919050565b60008061083984610925565b8473ffffffffffffffffffffffffffffffffffffffff166370a08231306040518263ffffffff1660e01b81526004016108729190611006565b602060405180830381865afa15801561088f573d6000803e3d6000fd5b505050506040513d601f19601f820116820180604052508101906108b391906112df565b6108bd91906111df565b90506108d383826108ce87876104cf565b610af2565b91505092915050565b6000600260008373ffffffffffffffffffffffffffffffffffffffff1673ffffffffffffffffffffffffffffffffffffffff168152602001908152602001600020549050919050565b6000600560008373ffffffffffffffffffffffffffffffffffffffff1673ffffffffffffffffffffffffffffffffffffffff168152602001908152602001600020549050919050565b6000600154905090565b804710156109bb576040517f08c379a00000000000000000000000000000000000000000000000000000000081526004016109b290611358565b60405180910390fd5b60008273ffffffffffffffffffffffffffffffffffffffff16826040516109e1906113a9565b60006040518083038185875af1925050503d8060008114610a1e576040519150601f19603f3d011682016040523d82523d6000602084013e610a23565b606091505b5050905080610a67576040517f08c379a0000000000000000000000000000000000000000000000000000000008152600401610a5e90611430565b60405180910390fd5b505050565b610aed8363a9059cbb60e01b8484604051602401610a8b929190610e4f565b604051602081830303815290604052907bffffffffffffffffffffffffffffffffffffffffffffffffffffffff19166020820180517bffffffffffffffffffffffffffffffffffffffffffffffffffffffff8381831617835250505050610b60565b505050565b600081600054600260008773ffffffffffffffffffffffffffffffffffffffff1673ffffffffffffffffffffffffffffffffffffffff1681526020019081526020016000205485610b439190611450565b610b4d91906114c1565b610b5791906114f2565b90509392505050565b6000610bc2826040518060400160405280602081526020017f5361666545524332303a206c6f772d6c6576656c2063616c6c206661696c65648152508573ffffffffffffffffffffffffffffffffffffffff16610c289092919063ffffffff16565b9050600081511480610be4575080806020019051810190610be3919061155e565b5b610c23576040517f08c379a0000000000000000000000000000000000000000000000000000000008152600401610c1a906115fd565b60405180910390fd5b505050565b6060610c378484600085610c40565b90509392505050565b606082471015610c85576040517f08c379a0000000000000000000000000000000000000000000000000000000008152600401610c7c9061168f565b60405180910390fd5b6000808673ffffffffffffffffffffffffffffffffffffffff168587604051610cae9190611715565b60006040518083038185875af1925050503d8060008114610ceb576040519150601f19603f3d011682016040523d82523d6000602084013e610cf0565b606091505b5091509150610d0187838387610d0d565b92505050949350505050565b60608315610d6f576000835103610d6757610d2785610d82565b610d66576040517f08c379a0000000000000000000000000000000000000000000000000000000008152600401610d5d90611778565b60405180910390fd5b5b829050610d7a565b610d798383610da5565b5b949350505050565b6000808273ffffffffffffffffffffffffffffffffffffffff163b119050919050565b600082511115610db85781518083602001fd5b806040517f08c379a0000000000000000000000000000000000000000000000000000000008152600401610dec91906117ed565b60405180910390fd5b600073ffffffffffffffffffffffffffffffffffffffff82169050919050565b6000610e2082610df5565b9050919050565b610e3081610e15565b82525050565b6000819050919050565b610e4981610e36565b82525050565b6000604082019050610e646000830185610e27565b610e716020830184610e40565b9392505050565b600080fd5b6000610e8882610df5565b9050919050565b610e9881610e7d565b8114610ea357600080fd5b50565b600081359050610eb581610e8f565b92915050565b600060208284031215610ed157610ed0610e78565b5b6000610edf84828501610ea6565b91505092915050565b6000602082019050610efd6000830184610e40565b92915050565b6000610f0e82610e15565b9050919050565b610f1e81610f03565b8114610f2957600080fd5b50565b600081359050610f3b81610f15565b92915050565b610f4a81610e15565b8114610f5557600080fd5b50565b600081359050610f6781610f41565b92915050565b60008060408385031215610f8457610f83610e78565b5b6000610f9285828601610f2c565b9250506020610fa385828601610f58565b9150509250929050565b610fb681610e36565b8114610fc157600080fd5b50565b600081359050610fd381610fad565b92915050565b600060208284031215610fef57610fee610e78565b5b6000610ffd84828501610fc4565b91505092915050565b600060208201905061101b6000830184610e27565b92915050565b60006020828403121561103757611036610e78565b5b600061104584828501610f58565b91505092915050565b60006020828403121561106457611063610e78565b5b600061107284828501610f2c565b91505092915050565b600082825260208201905092915050565b7f5061796d656e7453706c69747465723a206163636f756e7420686173206e6f2060008201527f7368617265730000000000000000000000000000000000000000000000000000602082015250565b60006110e860268361107b565b91506110f38261108c565b604082019050919050565b60006020820190508181036000830152611117816110db565b9050919050565b7f5061796d656e7453706c69747465723a206163636f756e74206973206e6f742060008201527f647565207061796d656e74000000000000000000000000000000000000000000602082015250565b600061117a602b8361107b565b91506111858261111e565b604082019050919050565b600060208201905081810360008301526111a98161116d565b9050919050565b7f4e487b7100000000000000000000000000000000000000000000000000000000600052601160045260246000fd5b60006111ea82610e36565b91506111f583610e36565b925082820190508082111561120d5761120c6111b0565b5b92915050565b6000819050919050565b600061123861123361122e84610df5565b611213565b610df5565b9050919050565b600061124a8261121d565b9050919050565b600061125c8261123f565b9050919050565b61126c81611251565b82525050565b60006040820190506112876000830185611263565b6112946020830184610e40565b9392505050565b7f4e487b7100000000000000000000000000000000000000000000000000000000600052603260045260246000fd5b6000815190506112d981610fad565b92915050565b6000602082840312156112f5576112f4610e78565b5b6000611303848285016112ca565b91505092915050565b7f416464726573733a20696e73756666696369656e742062616c616e6365000000600082015250565b6000611342601d8361107b565b915061134d8261130c565b602082019050919050565b6000602082019050818103600083015261137181611335565b9050919050565b600081905092915050565b50565b6000611393600083611378565b915061139e82611383565b600082019050919050565b60006113b482611386565b9150819050919050565b7f416464726573733a20756e61626c6520746f2073656e642076616c75652c207260008201527f6563697069656e74206d61792068617665207265766572746564000000000000602082015250565b600061141a603a8361107b565b9150611425826113be565b604082019050919050565b600060208201905081810360008301526114498161140d565b9050919050565b600061145b82610e36565b915061146683610e36565b925082820261147481610e36565b9150828204841483151761148b5761148a6111b0565b5b5092915050565b7f4e487b7100000000000000000000000000000000000000000000000000000000600052601260045260246000fd5b60006114cc82610e36565b91506114d783610e36565b9250826114e7576114e6611492565b5b828204905092915050565b60006114fd82610e36565b915061150883610e36565b92508282039050818111156115205761151f6111b0565b5b92915050565b60008115159050919050565b61153b81611526565b811461154657600080fd5b50565b60008151905061155881611532565b92915050565b60006020828403121561157457611573610e78565b5b600061158284828501611549565b91505092915050565b7f5361666545524332303a204552433230206f7065726174696f6e20646964206e60008201527f6f74207375636365656400000000000000000000000000000000000000000000602082015250565b60006115e7602a8361107b565b91506115f28261158b565b604082019050919050565b60006020820190508181036000830152611616816115da565b9050919050565b7f416464726573733a20696e73756666696369656e742062616c616e636520666f60008201527f722063616c6c0000000000000000000000000000000000000000000000000000602082015250565b600061167960268361107b565b91506116848261161d565b604082019050919050565b600060208201905081810360008301526116a88161166c565b9050919050565b600081519050919050565b60005b838110156116d85780820151818401526020810190506116bd565b60008484015250505050565b60006116ef826116af565b6116f98185611378565b93506117098185602086016116ba565b80840191505092915050565b600061172182846116e4565b915081905092915050565b7f416464726573733a2063616c6c20746f206e6f6e2d636f6e7472616374000000600082015250565b6000611762601d8361107b565b915061176d8261172c565b602082019050919050565b6000602082019050818103600083015261179181611755565b9050919050565b600081519050919050565b6000601f19601f8301169050919050565b60006117bf82611798565b6117c9818561107b565b93506117d98185602086016116ba565b6117e2816117a3565b840191505092915050565b6000602082019050818103600083015261180781846117b4565b90509291505056fea26469706673582212202f4018828304bfb087c7d73345adb0cbc5b315961812db1b95ca0cf8239f356064736f6c63430008180033a26469706673582212204d60fdc7e1b598b3398e509bc66aa77d814c730806994646fa8a2b0d81bc91ef64736f6c63430008180033","opcodes":"PUSH1 0x80 PUSH1 0x40 MSTORE PUSH1 0x40 MLOAD DUP1 PUSH2 0x160 ADD PUSH1 0x40 MSTORE DUP1 PUSH2 0x1F4 PUSH2 0xFFFF AND DUP2 MSTORE PUSH1 0x20 ADD PUSH2 0x320 PUSH2 0xFFFF AND DUP2 MSTORE PUSH1 0x20 ADD PUSH2 0x5DC PUSH2 0xFFFF AND DUP2 MSTORE PUSH1 0x20 ADD PUSH2 0xA28 PUSH2 0xFFFF AND DUP2 MSTORE PUSH1 0x20 ADD PUSH2 0x3E8 PUSH2 0xFFFF AND DUP2 MSTORE PUSH1 0x20 ADD PUSH2 0x708 PUSH2 0xFFFF AND DUP2 MSTORE PUSH1 0x20 ADD PUSH2 0x12C PUSH2 0xFFFF AND DUP2 MSTORE PUSH1 0x20 ADD PUSH2 0x4B0 PUSH2 0xFFFF AND DUP2 MSTORE PUSH1 0x20 ADD PUSH2 0x258 PUSH2 0xFFFF AND DUP2 MSTORE PUSH1 0x20 ADD PUSH2 0x578 PUSH2 0xFFFF AND DUP2 MSTORE PUSH1 0x20 ADD PUSH2 0x44C PUSH2 0xFFFF AND DUP2 MSTORE POP PUSH1 0x4 SWAP1 PUSH1 0xB PUSH3 0xA4 SWAP3 SWAP2 SWAP1 PUSH3 0x245 JUMP JUMPDEST POP PUSH1 0x40 MLOAD DUP1 PUSH2 0x160 ADD PUSH1 0x40 MSTORE DUP1 PUSH1 0x5 PUSH1 0xFF AND DUP2 MSTORE PUSH1 0x20 ADD PUSH1 0x8 PUSH1 0xFF AND DUP2 MSTORE PUSH1 0x20 ADD PUSH1 0xF PUSH1 0xFF AND DUP2 MSTORE PUSH1 0x20 ADD PUSH1 0x1A PUSH1 0xFF AND DUP2 MSTORE PUSH1 0x20 ADD PUSH1 0xA PUSH1 0xFF AND DUP2 MSTORE PUSH1 0x20 ADD PUSH1 0x12 PUSH1 0xFF AND DUP2 MSTORE PUSH1 0x20 ADD PUSH1 0x3 PUSH1 0xFF AND DUP2 MSTORE PUSH1 0x20 ADD PUSH1 0xC PUSH1 0xFF AND DUP2 MSTORE PUSH1 0x20 ADD PUSH1 0x6 PUSH1 0xFF AND DUP2 MSTORE PUSH1 0x20 ADD PUSH1 0xE PUSH1 0xFF AND DUP2 MSTORE PUSH1 0x20 ADD PUSH1 0xB PUSH1 0xFF AND DUP2 MSTORE POP PUSH1 0x5 SWAP1 PUSH1 0xB PUSH3 0x12F SWAP3 SWAP2 SWAP1 PUSH3 0x29D JUMP JUMPDEST POP PUSH1 0x32 PUSH1 0xC SSTORE PUSH1 0x46 PUSH1 0xF SSTORE PUSH1 0x1E PUSH1 0x10 SSTORE CALLVALUE DUP1 ISZERO PUSH3 0x14C JUMPI PUSH1 0x0 DUP1 REVERT JUMPDEST POP PUSH1 0x40 MLOAD PUSH3 0x4C00 CODESIZE SUB DUP1 PUSH3 0x4C00 DUP4 CODECOPY DUP2 DUP2 ADD PUSH1 0x40 MSTORE DUP2 ADD SWAP1 PUSH3 0x172 SWAP2 SWAP1 PUSH3 0x3FD JUMP JUMPDEST DUP4 PUSH1 0x0 DUP1 PUSH2 0x100 EXP DUP2 SLOAD DUP2 PUSH20 0xFFFFFFFFFFFFFFFFFFFFFFFFFFFFFFFFFFFFFFFF MUL NOT AND SWAP1 DUP4 PUSH20 0xFFFFFFFFFFFFFFFFFFFFFFFFFFFFFFFFFFFFFFFF AND MUL OR SWAP1 SSTORE POP DUP3 PUSH1 0xD PUSH1 0x0 PUSH2 0x100 EXP DUP2 SLOAD DUP2 PUSH20 0xFFFFFFFFFFFFFFFFFFFFFFFFFFFFFFFFFFFFFFFF MUL NOT AND SWAP1 DUP4 PUSH20 0xFFFFFFFFFFFFFFFFFFFFFFFFFFFFFFFFFFFFFFFF AND MUL OR SWAP1 SSTORE POP DUP2 PUSH1 0xE PUSH1 0x0 PUSH2 0x100 EXP DUP2 SLOAD DUP2 PUSH20 0xFFFFFFFFFFFFFFFFFFFFFFFFFFFFFFFFFFFFFFFF MUL NOT AND SWAP1 DUP4 PUSH20 0xFFFFFFFFFFFFFFFFFFFFFFFFFFFFFFFFFFFFFFFF AND MUL OR SWAP1 SSTORE POP DUP1 PUSH1 0xC DUP2 SWAP1 SSTORE POP POP POP POP POP PUSH3 0x46F JUMP JUMPDEST DUP3 DUP1 SLOAD DUP3 DUP3 SSTORE SWAP1 PUSH1 0x0 MSTORE PUSH1 0x20 PUSH1 0x0 KECCAK256 SWAP1 DUP2 ADD SWAP3 DUP3 ISZERO PUSH3 0x28A JUMPI SWAP2 PUSH1 0x20 MUL DUP3 ADD JUMPDEST DUP3 DUP2 GT ISZERO PUSH3 0x289 JUMPI DUP3 MLOAD DUP3 SWAP1 PUSH2 0xFFFF AND SWAP1 SSTORE SWAP2 PUSH1 0x20 ADD SWAP2 SWAP1 PUSH1 0x1 ADD SWAP1 PUSH3 0x266 JUMP JUMPDEST JUMPDEST POP SWAP1 POP PUSH3 0x299 SWAP2 SWAP1 PUSH3 0x2F4 JUMP JUMPDEST POP SWAP1 JUMP JUMPDEST DUP3 DUP1 SLOAD DUP3 DUP3 SSTORE SWAP1 PUSH1 0x0 MSTORE PUSH1 0x20 PUSH1 0x0 KECCAK256 SWAP1 DUP2 ADD SWAP3 DUP3 ISZERO PUSH3 0x2E1 JUMPI SWAP2 PUSH1 0x20 MUL DUP3 ADD JUMPDEST DUP3 DUP2 GT ISZERO PUSH3 0x2E0 JUMPI DUP3 MLOAD DUP3 SWAP1 PUSH1 0xFF AND SWAP1 SSTORE SWAP2 PUSH1 0x20 ADD SWAP2 SWAP1 PUSH1 0x1 ADD SWAP1 PUSH3 0x2BE JUMP JUMPDEST JUMPDEST POP SWAP1 POP PUSH3 0x2F0 SWAP2 SWAP1 PUSH3 0x2F4 JUMP JUMPDEST POP SWAP1 JUMP JUMPDEST JUMPDEST DUP1 DUP3 GT ISZERO PUSH3 0x30F JUMPI PUSH1 0x0 DUP2 PUSH1 0x0 SWAP1 SSTORE POP PUSH1 0x1 ADD PUSH3 0x2F5 JUMP JUMPDEST POP SWAP1 JUMP JUMPDEST PUSH1 0x0 DUP1 REVERT JUMPDEST PUSH1 0x0 PUSH20 0xFFFFFFFFFFFFFFFFFFFFFFFFFFFFFFFFFFFFFFFF DUP3 AND SWAP1 POP SWAP2 SWAP1 POP JUMP JUMPDEST PUSH1 0x0 PUSH3 0x345 DUP3 PUSH3 0x318 JUMP JUMPDEST SWAP1 POP SWAP2 SWAP1 POP JUMP JUMPDEST PUSH3 0x357 DUP2 PUSH3 0x338 JUMP JUMPDEST DUP2 EQ PUSH3 0x363 JUMPI PUSH1 0x0 DUP1 REVERT JUMPDEST POP JUMP JUMPDEST PUSH1 0x0 DUP2 MLOAD SWAP1 POP PUSH3 0x377 DUP2 PUSH3 0x34C JUMP JUMPDEST SWAP3 SWAP2 POP POP JUMP JUMPDEST PUSH1 0x0 PUSH3 0x38A DUP3 PUSH3 0x338 JUMP JUMPDEST SWAP1 POP SWAP2 SWAP1 POP JUMP JUMPDEST PUSH3 0x39C DUP2 PUSH3 0x37D JUMP JUMPDEST DUP2 EQ PUSH3 0x3A8 JUMPI PUSH1 0x0 DUP1 REVERT JUMPDEST POP JUMP JUMPDEST PUSH1 0x0 DUP2 MLOAD SWAP1 POP PUSH3 0x3BC DUP2 PUSH3 0x391 JUMP JUMPDEST SWAP3 SWAP2 POP POP JUMP JUMPDEST PUSH1 0x0 DUP2 SWAP1 POP SWAP2 SWAP1 POP JUMP JUMPDEST PUSH3 0x3D7 DUP2 PUSH3 0x3C2 JUMP JUMPDEST DUP2 EQ PUSH3 0x3E3 JUMPI PUSH1 0x0 DUP1 REVERT JUMPDEST POP JUMP JUMPDEST PUSH1 0x0 DUP2 MLOAD SWAP1 POP PUSH3 0x3F7 DUP2 PUSH3 0x3CC JUMP JUMPDEST SWAP3 SWAP2 POP POP JUMP JUMPDEST PUSH1 0x0 DUP1 PUSH1 0x0 DUP1 PUSH1 0x80 DUP6 DUP8 SUB SLT ISZERO PUSH3 0x41A JUMPI PUSH3 0x419 PUSH3 0x313 JUMP JUMPDEST JUMPDEST PUSH1 0x0 PUSH3 0x42A DUP8 DUP3 DUP9 ADD PUSH3 0x366 JUMP JUMPDEST SWAP5 POP POP PUSH1 0x20 PUSH3 0x43D DUP8 DUP3 DUP9 ADD PUSH3 0x3AB JUMP JUMPDEST SWAP4 POP POP PUSH1 0x40 PUSH3 0x450 DUP8 DUP3 DUP9 ADD PUSH3 0x3AB JUMP JUMPDEST SWAP3 POP POP PUSH1 0x60 PUSH3 0x463 DUP8 DUP3 DUP9 ADD PUSH3 0x3E6 JUMP JUMPDEST SWAP2 POP POP SWAP3 SWAP6 SWAP2 SWAP5 POP SWAP3 POP JUMP JUMPDEST PUSH2 0x4781 DUP1 PUSH3 0x47F PUSH1 0x0 CODECOPY PUSH1 0x0 RETURN INVALID PUSH1 0x80 PUSH1 0x40 MSTORE CALLVALUE DUP1 ISZERO PUSH3 0x11 JUMPI PUSH1 0x0 DUP1 REVERT JUMPDEST POP PUSH1 0x4 CALLDATASIZE LT PUSH3 0xC4 JUMPI PUSH1 0x0 CALLDATALOAD PUSH1 0xE0 SHR DUP1 PUSH4 0xA8F69115 GT PUSH3 0x7B JUMPI DUP1 PUSH4 0xA8F69115 EQ PUSH3 0x13D JUMPI DUP1 PUSH4 0xAA3482FA EQ PUSH3 0x149 JUMPI DUP1 PUSH4 0xB14275E6 EQ PUSH3 0x169 JUMPI DUP1 PUSH4 0xB2E669A5 EQ PUSH3 0x189 JUMPI DUP1 PUSH4 0xEEBA212C EQ PUSH3 0x1AB JUMPI DUP1 PUSH4 0xF345B4A7 EQ PUSH3 0x1B7 JUMPI PUSH3 0xC4 JUMP JUMPDEST DUP1 PUSH4 0x6A22B342 EQ PUSH3 0xC9 JUMPI DUP1 PUSH4 0x7DAA9EFC EQ PUSH3 0xD5 JUMPI DUP1 PUSH4 0x7E1CCE0C EQ PUSH3 0xE1 JUMPI DUP1 PUSH4 0x8CDC86A6 EQ PUSH3 0x103 JUMPI DUP1 PUSH4 0x9C5E8771 EQ PUSH3 0x10F JUMPI DUP1 PUSH4 0xA07955AD EQ PUSH3 0x131 JUMPI JUMPDEST PUSH1 0x0 DUP1 REVERT JUMPDEST PUSH3 0xD3 PUSH3 0x1EE JUMP JUMPDEST STOP JUMPDEST PUSH3 0xDF PUSH3 0x1F0 JUMP JUMPDEST STOP JUMPDEST PUSH3 0xEB PUSH3 0x292 JUMP JUMPDEST PUSH1 0x40 MLOAD PUSH3 0xFA SWAP2 SWAP1 PUSH3 0x1A98 JUMP JUMPDEST PUSH1 0x40 MLOAD DUP1 SWAP2 SUB SWAP1 RETURN JUMPDEST PUSH3 0x10D PUSH3 0x322 JUMP JUMPDEST STOP JUMPDEST PUSH3 0x119 PUSH3 0x35E JUMP JUMPDEST PUSH1 0x40 MLOAD PUSH3 0x128 SWAP2 SWAP1 PUSH3 0x1AD7 JUMP JUMPDEST PUSH1 0x40 MLOAD DUP1 SWAP2 SUB SWAP1 RETURN JUMPDEST PUSH3 0x13B PUSH3 0x433 JUMP JUMPDEST STOP JUMPDEST PUSH3 0x147 PUSH3 0x435 JUMP JUMPDEST STOP JUMPDEST PUSH3 0x167 PUSH1 0x4 DUP1 CALLDATASIZE SUB DUP2 ADD SWAP1 PUSH3 0x161 SWAP2 SWAP1 PUSH3 0x1CAE JUMP JUMPDEST PUSH3 0xAE0 JUMP JUMPDEST STOP JUMPDEST PUSH3 0x187 PUSH1 0x4 DUP1 CALLDATASIZE SUB DUP2 ADD SWAP1 PUSH3 0x181 SWAP2 SWAP1 PUSH3 0x1CFF JUMP JUMPDEST PUSH3 0xBA8 JUMP JUMPDEST STOP JUMPDEST PUSH3 0x193 PUSH3 0xCEE JUMP JUMPDEST PUSH1 0x40 MLOAD PUSH3 0x1A2 SWAP2 SWAP1 PUSH3 0x1AD7 JUMP JUMPDEST PUSH1 0x40 MLOAD DUP1 SWAP2 SUB SWAP1 RETURN JUMPDEST PUSH3 0x1B5 PUSH3 0xDC3 JUMP JUMPDEST STOP JUMPDEST PUSH3 0x1D5 PUSH1 0x4 DUP1 CALLDATASIZE SUB DUP2 ADD SWAP1 PUSH3 0x1CF SWAP2 SWAP1 PUSH3 0x1CAE JUMP JUMPDEST PUSH3 0xDC5 JUMP JUMPDEST PUSH1 0x40 MLOAD PUSH3 0x1E5 SWAP3 SWAP2 SWAP1 PUSH3 0x1D46 JUMP JUMPDEST PUSH1 0x40 MLOAD DUP1 SWAP2 SUB SWAP1 RETURN JUMPDEST JUMP JUMPDEST PUSH1 0x0 PUSH3 0x1FC PUSH3 0xCEE JUMP JUMPDEST SWAP1 POP PUSH1 0x0 PUSH3 0x20A PUSH3 0x35E JUMP JUMPDEST SWAP1 POP PUSH3 0x24D PUSH1 0x40 MLOAD DUP1 PUSH1 0x40 ADD PUSH1 0x40 MSTORE DUP1 PUSH1 0x11 DUP2 MSTORE PUSH1 0x20 ADD PUSH32 0x4176657261676520416C676F2069733A20000000000000000000000000000000 DUP2 MSTORE POP DUP4 PUSH3 0xF6D JUMP JUMPDEST PUSH3 0x28E PUSH1 0x40 MLOAD DUP1 PUSH1 0x40 ADD PUSH1 0x40 MSTORE DUP1 PUSH1 0x16 DUP2 MSTORE PUSH1 0x20 ADD PUSH32 0x41766572616765204865757269737469632069733A2000000000000000000000 DUP2 MSTORE POP DUP3 PUSH3 0xF6D JUMP JUMPDEST POP POP JUMP JUMPDEST PUSH1 0x60 PUSH1 0x1 DUP1 SLOAD DUP1 PUSH1 0x20 MUL PUSH1 0x20 ADD PUSH1 0x40 MLOAD SWAP1 DUP2 ADD PUSH1 0x40 MSTORE DUP1 SWAP3 SWAP2 SWAP1 DUP2 DUP2 MSTORE PUSH1 0x20 ADD DUP3 DUP1 SLOAD DUP1 ISZERO PUSH3 0x318 JUMPI PUSH1 0x20 MUL DUP3 ADD SWAP2 SWAP1 PUSH1 0x0 MSTORE PUSH1 0x20 PUSH1 0x0 KECCAK256 SWAP1 JUMPDEST DUP2 PUSH1 0x0 SWAP1 SLOAD SWAP1 PUSH2 0x100 EXP SWAP1 DIV PUSH20 0xFFFFFFFFFFFFFFFFFFFFFFFFFFFFFFFFFFFFFFFF AND PUSH20 0xFFFFFFFFFFFFFFFFFFFFFFFFFFFFFFFFFFFFFFFF AND DUP2 MSTORE PUSH1 0x20 ADD SWAP1 PUSH1 0x1 ADD SWAP1 DUP1 DUP4 GT PUSH3 0x2CD JUMPI JUMPDEST POP POP POP POP POP SWAP1 POP SWAP1 JUMP JUMPDEST PUSH1 0x0 JUMPDEST PUSH1 0x1 PUSH1 0x11 DUP1 SLOAD SWAP1 POP PUSH3 0x339 SWAP2 SWAP1 PUSH3 0x1DA2 JUMP JUMPDEST DUP2 LT ISZERO PUSH3 0x35B JUMPI PUSH3 0x34C DUP2 PUSH3 0x100D JUMP JUMPDEST POP DUP1 DUP1 PUSH1 0x1 ADD SWAP2 POP POP PUSH3 0x325 JUMP JUMPDEST POP JUMP JUMPDEST PUSH1 0x0 PUSH3 0x3BD PUSH1 0x5 DUP1 SLOAD DUP1 PUSH1 0x20 MUL PUSH1 0x20 ADD PUSH1 0x40 MLOAD SWAP1 DUP2 ADD PUSH1 0x40 MSTORE DUP1 SWAP3 SWAP2 SWAP1 DUP2 DUP2 MSTORE PUSH1 0x20 ADD DUP3 DUP1 SLOAD DUP1 ISZERO PUSH3 0x3B2 JUMPI PUSH1 0x20 MUL DUP3 ADD SWAP2 SWAP1 PUSH1 0x0 MSTORE PUSH1 0x20 PUSH1 0x0 KECCAK256 SWAP1 JUMPDEST DUP2 SLOAD DUP2 MSTORE PUSH1 0x20 ADD SWAP1 PUSH1 0x1 ADD SWAP1 DUP1 DUP4 GT PUSH3 0x39D JUMPI JUMPDEST POP POP POP POP POP PUSH3 0xDC5 JUMP JUMPDEST PUSH1 0xA PUSH1 0x0 PUSH1 0xB PUSH1 0x0 DUP5 SWAP2 SWAP1 POP SSTORE DUP4 SWAP2 SWAP1 POP SSTORE POP POP PUSH3 0x42E PUSH1 0x5 DUP1 SLOAD DUP1 PUSH1 0x20 MUL PUSH1 0x20 ADD PUSH1 0x40 MLOAD SWAP1 DUP2 ADD PUSH1 0x40 MSTORE DUP1 SWAP3 SWAP2 SWAP1 DUP2 DUP2 MSTORE PUSH1 0x20 ADD DUP3 DUP1 SLOAD DUP1 ISZERO PUSH3 0x423 JUMPI PUSH1 0x20 MUL DUP3 ADD SWAP2 SWAP1 PUSH1 0x0 MSTORE PUSH1 0x20 PUSH1 0x0 KECCAK256 SWAP1 JUMPDEST DUP2 SLOAD DUP2 MSTORE PUSH1 0x20 ADD SWAP1 PUSH1 0x1 ADD SWAP1 DUP1 DUP4 GT PUSH3 0x40E JUMPI JUMPDEST POP POP POP POP POP PUSH3 0x1137 JUMP JUMPDEST SWAP1 POP SWAP1 JUMP JUMPDEST JUMP JUMPDEST PUSH1 0x0 PUSH1 0x5 DUP1 SLOAD SWAP1 POP PUSH8 0xFFFFFFFFFFFFFFFF DUP2 GT ISZERO PUSH3 0x459 JUMPI PUSH3 0x458 PUSH3 0x1B1E JUMP JUMPDEST JUMPDEST PUSH1 0x40 MLOAD SWAP1 DUP1 DUP3 MSTORE DUP1 PUSH1 0x20 MUL PUSH1 0x20 ADD DUP3 ADD PUSH1 0x40 MSTORE DUP1 ISZERO PUSH3 0x488 JUMPI DUP2 PUSH1 0x20 ADD PUSH1 0x20 DUP3 MUL DUP1 CALLDATASIZE DUP4 CALLDATACOPY DUP1 DUP3 ADD SWAP2 POP POP SWAP1 POP JUMPDEST POP SWAP1 POP PUSH1 0x0 PUSH1 0x5 DUP1 SLOAD SWAP1 POP PUSH8 0xFFFFFFFFFFFFFFFF DUP2 GT ISZERO PUSH3 0x4AF JUMPI PUSH3 0x4AE PUSH3 0x1B1E JUMP JUMPDEST JUMPDEST PUSH1 0x40 MLOAD SWAP1 DUP1 DUP3 MSTORE DUP1 PUSH1 0x20 MUL PUSH1 0x20 ADD DUP3 ADD PUSH1 0x40 MSTORE DUP1 ISZERO PUSH3 0x4DE JUMPI DUP2 PUSH1 0x20 ADD PUSH1 0x20 DUP3 MUL DUP1 CALLDATASIZE DUP4 CALLDATACOPY DUP1 DUP3 ADD SWAP2 POP POP SWAP1 POP JUMPDEST POP SWAP1 POP PUSH1 0x0 PUSH1 0x5 DUP1 SLOAD SWAP1 POP PUSH8 0xFFFFFFFFFFFFFFFF DUP2 GT ISZERO PUSH3 0x505 JUMPI PUSH3 0x504 PUSH3 0x1B1E JUMP JUMPDEST JUMPDEST PUSH1 0x40 MLOAD SWAP1 DUP1 DUP3 MSTORE DUP1 PUSH1 0x20 MUL PUSH1 0x20 ADD DUP3 ADD PUSH1 0x40 MSTORE DUP1 ISZERO PUSH3 0x534 JUMPI DUP2 PUSH1 0x20 ADD PUSH1 0x20 DUP3 MUL DUP1 CALLDATASIZE DUP4 CALLDATACOPY DUP1 DUP3 ADD SWAP2 POP POP SWAP1 POP JUMPDEST POP SWAP1 POP PUSH1 0x0 JUMPDEST PUSH1 0x5 DUP1 SLOAD SWAP1 POP DUP2 LT ISZERO PUSH3 0x73B JUMPI PUSH1 0x1 DUP2 DUP2 SLOAD DUP2 LT PUSH3 0x55F JUMPI PUSH3 0x55E PUSH3 0x1DDD JUMP JUMPDEST JUMPDEST SWAP1 PUSH1 0x0 MSTORE PUSH1 0x20 PUSH1 0x0 KECCAK256 ADD PUSH1 0x0 SWAP1 SLOAD SWAP1 PUSH2 0x100 EXP SWAP1 DIV PUSH20 0xFFFFFFFFFFFFFFFFFFFFFFFFFFFFFFFFFFFFFFFF AND DUP5 DUP3 DUP2 MLOAD DUP2 LT PUSH3 0x5A0 JUMPI PUSH3 0x59F PUSH3 0x1DDD JUMP JUMPDEST JUMPDEST PUSH1 0x20 MUL PUSH1 0x20 ADD ADD SWAP1 PUSH20 0xFFFFFFFFFFFFFFFFFFFFFFFFFFFFFFFFFFFFFFFF AND SWAP1 DUP2 PUSH20 0xFFFFFFFFFFFFFFFFFFFFFFFFFFFFFFFFFFFFFFFF AND DUP2 MSTORE POP POP PUSH1 0xA SLOAD PUSH1 0x5 DUP3 DUP2 SLOAD DUP2 LT PUSH3 0x5F4 JUMPI PUSH3 0x5F3 PUSH3 0x1DDD JUMP JUMPDEST JUMPDEST SWAP1 PUSH1 0x0 MSTORE PUSH1 0x20 PUSH1 0x0 KECCAK256 ADD SLOAD GT DUP1 ISZERO PUSH3 0x62F JUMPI POP PUSH1 0xB SLOAD PUSH1 0x5 DUP3 DUP2 SLOAD DUP2 LT PUSH3 0x622 JUMPI PUSH3 0x621 PUSH3 0x1DDD JUMP JUMPDEST JUMPDEST SWAP1 PUSH1 0x0 MSTORE PUSH1 0x20 PUSH1 0x0 KECCAK256 ADD SLOAD LT JUMPDEST ISZERO PUSH3 0x6B7 JUMPI PUSH1 0x6 SLOAD PUSH1 0x5 DUP3 DUP2 SLOAD DUP2 LT PUSH3 0x64F JUMPI PUSH3 0x64E PUSH3 0x1DDD JUMP JUMPDEST JUMPDEST SWAP1 PUSH1 0x0 MSTORE PUSH1 0x20 PUSH1 0x0 KECCAK256 ADD SLOAD SUB PUSH3 0x68B JUMPI PUSH1 0xF SLOAD DUP4 DUP3 DUP2 MLOAD DUP2 LT PUSH3 0x679 JUMPI PUSH3 0x678 PUSH3 0x1DDD JUMP JUMPDEST JUMPDEST PUSH1 0x20 MUL PUSH1 0x20 ADD ADD DUP2 DUP2 MSTORE POP POP PUSH3 0x6B1 JUMP JUMPDEST PUSH1 0x10 SLOAD DUP4 DUP3 DUP2 MLOAD DUP2 LT PUSH3 0x6A4 JUMPI PUSH3 0x6A3 PUSH3 0x1DDD JUMP JUMPDEST JUMPDEST PUSH1 0x20 MUL PUSH1 0x20 ADD ADD DUP2 DUP2 MSTORE POP POP JUMPDEST PUSH3 0x72D JUMP JUMPDEST PUSH1 0x1 DUP4 DUP3 DUP2 MLOAD DUP2 LT PUSH3 0x6CF JUMPI PUSH3 0x6CE PUSH3 0x1DDD JUMP JUMPDEST JUMPDEST PUSH1 0x20 MUL PUSH1 0x20 ADD ADD DUP2 DUP2 MSTORE POP POP PUSH3 0x70A PUSH1 0x6 SLOAD PUSH1 0x5 DUP4 DUP2 SLOAD DUP2 LT PUSH3 0x6F9 JUMPI PUSH3 0x6F8 PUSH3 0x1DDD JUMP JUMPDEST JUMPDEST SWAP1 PUSH1 0x0 MSTORE PUSH1 0x20 PUSH1 0x0 KECCAK256 ADD SLOAD PUSH3 0x119E JUMP JUMPDEST DUP3 DUP3 DUP2 MLOAD DUP2 LT PUSH3 0x720 JUMPI PUSH3 0x71F PUSH3 0x1DDD JUMP JUMPDEST JUMPDEST PUSH1 0x20 MUL PUSH1 0x20 ADD ADD DUP2 DUP2 MSTORE POP POP JUMPDEST DUP1 DUP1 PUSH1 0x1 ADD SWAP2 POP POP PUSH3 0x53A JUMP JUMPDEST POP PUSH1 0x0 JUMPDEST PUSH1 0x4 DUP1 SLOAD SWAP1 POP DUP2 LT ISZERO PUSH3 0x902 JUMPI PUSH1 0x8 SLOAD PUSH1 0x4 DUP3 DUP2 SLOAD DUP2 LT PUSH3 0x767 JUMPI PUSH3 0x766 PUSH3 0x1DDD JUMP JUMPDEST JUMPDEST SWAP1 PUSH1 0x0 MSTORE PUSH1 0x20 PUSH1 0x0 KECCAK256 ADD SLOAD GT DUP1 ISZERO PUSH3 0x7A2 JUMPI POP PUSH1 0x9 SLOAD PUSH1 0x4 DUP3 DUP2 SLOAD DUP2 LT PUSH3 0x795 JUMPI PUSH3 0x794 PUSH3 0x1DDD JUMP JUMPDEST JUMPDEST SWAP1 PUSH1 0x0 MSTORE PUSH1 0x20 PUSH1 0x0 KECCAK256 ADD SLOAD LT JUMPDEST ISZERO PUSH3 0x8F4 JUMPI PUSH1 0x7 SLOAD PUSH1 0x4 DUP3 DUP2 SLOAD DUP2 LT PUSH3 0x7C2 JUMPI PUSH3 0x7C1 PUSH3 0x1DDD JUMP JUMPDEST JUMPDEST SWAP1 PUSH1 0x0 MSTORE PUSH1 0x20 PUSH1 0x0 KECCAK256 ADD SLOAD SUB PUSH3 0x828 JUMPI PUSH1 0xF SLOAD DUP4 DUP3 DUP2 MLOAD DUP2 LT PUSH3 0x7EC JUMPI PUSH3 0x7EB PUSH3 0x1DDD JUMP JUMPDEST JUMPDEST PUSH1 0x20 MUL PUSH1 0x20 ADD ADD MLOAD PUSH3 0x800 SWAP2 SWAP1 PUSH3 0x1E0C JUMP JUMPDEST DUP4 DUP3 DUP2 MLOAD DUP2 LT PUSH3 0x816 JUMPI PUSH3 0x815 PUSH3 0x1DDD JUMP JUMPDEST JUMPDEST PUSH1 0x20 MUL PUSH1 0x20 ADD ADD DUP2 DUP2 MSTORE POP POP PUSH3 0x8F3 JUMP JUMPDEST PUSH1 0x10 SLOAD DUP4 DUP3 DUP2 MLOAD DUP2 LT PUSH3 0x841 JUMPI PUSH3 0x840 PUSH3 0x1DDD JUMP JUMPDEST JUMPDEST PUSH1 0x20 MUL PUSH1 0x20 ADD ADD MLOAD PUSH3 0x855 SWAP2 SWAP1 PUSH3 0x1E0C JUMP JUMPDEST DUP4 DUP3 DUP2 MLOAD DUP2 LT PUSH3 0x86B JUMPI PUSH3 0x86A PUSH3 0x1DDD JUMP JUMPDEST JUMPDEST PUSH1 0x20 MUL PUSH1 0x20 ADD ADD DUP2 DUP2 MSTORE POP POP PUSH3 0x8A6 PUSH1 0x6 SLOAD PUSH1 0x5 DUP4 DUP2 SLOAD DUP2 LT PUSH3 0x895 JUMPI PUSH3 0x894 PUSH3 0x1DDD JUMP JUMPDEST JUMPDEST SWAP1 PUSH1 0x0 MSTORE PUSH1 0x20 PUSH1 0x0 KECCAK256 ADD SLOAD PUSH3 0x119E JUMP JUMPDEST DUP3 DUP3 DUP2 MLOAD DUP2 LT PUSH3 0x8BC JUMPI PUSH3 0x8BB PUSH3 0x1DDD JUMP JUMPDEST JUMPDEST PUSH1 0x20 MUL PUSH1 0x20 ADD ADD MLOAD PUSH3 0x8D0 SWAP2 SWAP1 PUSH3 0x1E0C JUMP JUMPDEST DUP3 DUP3 DUP2 MLOAD DUP2 LT PUSH3 0x8E6 JUMPI PUSH3 0x8E5 PUSH3 0x1DDD JUMP JUMPDEST JUMPDEST PUSH1 0x20 MUL PUSH1 0x20 ADD ADD DUP2 DUP2 MSTORE POP POP JUMPDEST JUMPDEST DUP1 DUP1 PUSH1 0x1 ADD SWAP2 POP POP PUSH3 0x73F JUMP JUMPDEST POP PUSH1 0x0 DUP4 DUP4 PUSH1 0x40 MLOAD PUSH3 0x915 SWAP1 PUSH3 0x190B JUMP JUMPDEST PUSH3 0x922 SWAP3 SWAP2 SWAP1 PUSH3 0x1F15 JUMP JUMPDEST PUSH1 0x40 MLOAD DUP1 SWAP2 SUB SWAP1 PUSH1 0x0 CREATE DUP1 ISZERO DUP1 ISZERO PUSH3 0x93F JUMPI RETURNDATASIZE PUSH1 0x0 DUP1 RETURNDATACOPY RETURNDATASIZE PUSH1 0x0 REVERT JUMPDEST POP SWAP1 POP PUSH3 0x950 DUP2 PUSH1 0xC SLOAD PUSH3 0x11D6 JUMP JUMPDEST PUSH3 0x95E DUP2 PUSH1 0xC SLOAD PUSH3 0x136C JUMP JUMPDEST PUSH1 0x0 JUMPDEST DUP5 MLOAD DUP2 LT ISZERO PUSH3 0xAD9 JUMPI DUP2 PUSH20 0xFFFFFFFFFFFFFFFFFFFFFFFFFFFFFFFFFFFFFFFF AND PUSH4 0x48B75044 PUSH1 0xD PUSH1 0x0 SWAP1 SLOAD SWAP1 PUSH2 0x100 EXP SWAP1 DIV PUSH20 0xFFFFFFFFFFFFFFFFFFFFFFFFFFFFFFFFFFFFFFFF AND DUP8 DUP5 DUP2 MLOAD DUP2 LT PUSH3 0x9C0 JUMPI PUSH3 0x9BF PUSH3 0x1DDD JUMP JUMPDEST JUMPDEST PUSH1 0x20 MUL PUSH1 0x20 ADD ADD MLOAD PUSH1 0x40 MLOAD DUP4 PUSH4 0xFFFFFFFF AND PUSH1 0xE0 SHL DUP2 MSTORE PUSH1 0x4 ADD PUSH3 0x9E7 SWAP3 SWAP2 SWAP1 PUSH3 0x1FCC JUMP JUMPDEST PUSH1 0x0 PUSH1 0x40 MLOAD DUP1 DUP4 SUB DUP2 PUSH1 0x0 DUP8 DUP1 EXTCODESIZE ISZERO DUP1 ISZERO PUSH3 0xA02 JUMPI PUSH1 0x0 DUP1 REVERT JUMPDEST POP GAS CALL ISZERO DUP1 ISZERO PUSH3 0xA17 JUMPI RETURNDATASIZE PUSH1 0x0 DUP1 RETURNDATACOPY RETURNDATASIZE PUSH1 0x0 REVERT JUMPDEST POP POP POP POP DUP2 PUSH20 0xFFFFFFFFFFFFFFFFFFFFFFFFFFFFFFFFFFFFFFFF AND PUSH4 0x48B75044 PUSH1 0xE PUSH1 0x0 SWAP1 SLOAD SWAP1 PUSH2 0x100 EXP SWAP1 DIV PUSH20 0xFFFFFFFFFFFFFFFFFFFFFFFFFFFFFFFFFFFFFFFF AND DUP8 DUP5 DUP2 MLOAD DUP2 LT PUSH3 0xA70 JUMPI PUSH3 0xA6F PUSH3 0x1DDD JUMP JUMPDEST JUMPDEST PUSH1 0x20 MUL PUSH1 0x20 ADD ADD MLOAD PUSH1 0x40 MLOAD DUP4 PUSH4 0xFFFFFFFF AND PUSH1 0xE0 SHL DUP2 MSTORE PUSH1 0x4 ADD PUSH3 0xA97 SWAP3 SWAP2 SWAP1 PUSH3 0x1FCC JUMP JUMPDEST PUSH1 0x0 PUSH1 0x40 MLOAD DUP1 DUP4 SUB DUP2 PUSH1 0x0 DUP8 DUP1 EXTCODESIZE ISZERO DUP1 ISZERO PUSH3 0xAB2 JUMPI PUSH1 0x0 DUP1 REVERT JUMPDEST POP GAS CALL ISZERO DUP1 ISZERO PUSH3 0xAC7 JUMPI RETURNDATASIZE PUSH1 0x0 DUP1 RETURNDATACOPY RETURNDATASIZE PUSH1 0x0 REVERT JUMPDEST POP POP POP POP DUP1 DUP1 PUSH1 0x1 ADD SWAP2 POP POP PUSH3 0x961 JUMP JUMPDEST POP POP POP POP POP JUMP JUMPDEST DUP1 MLOAD PUSH8 0xFFFFFFFFFFFFFFFF DUP2 GT ISZERO PUSH3 0xAFE JUMPI PUSH3 0xAFD PUSH3 0x1B1E JUMP JUMPDEST JUMPDEST PUSH1 0x40 MLOAD SWAP1 DUP1 DUP3 MSTORE DUP1 PUSH1 0x20 MUL PUSH1 0x20 ADD DUP3 ADD PUSH1 0x40 MSTORE DUP1 ISZERO PUSH3 0xB2D JUMPI DUP2 PUSH1 0x20 ADD PUSH1 0x20 DUP3 MUL DUP1 CALLDATASIZE DUP4 CALLDATACOPY DUP1 DUP3 ADD SWAP2 POP POP SWAP1 POP JUMPDEST POP PUSH1 0x11 SWAP1 DUP1 MLOAD SWAP1 PUSH1 0x20 ADD SWAP1 PUSH3 0xB45 SWAP3 SWAP2 SWAP1 PUSH3 0x1919 JUMP JUMPDEST POP PUSH1 0x0 JUMPDEST DUP2 MLOAD DUP2 LT ISZERO PUSH3 0xBA4 JUMPI DUP2 DUP2 DUP2 MLOAD DUP2 LT PUSH3 0xB69 JUMPI PUSH3 0xB68 PUSH3 0x1DDD JUMP JUMPDEST JUMPDEST PUSH1 0x20 MUL PUSH1 0x20 ADD ADD MLOAD PUSH1 0x11 DUP3 DUP2 SLOAD DUP2 LT PUSH3 0xB88 JUMPI PUSH3 0xB87 PUSH3 0x1DDD JUMP JUMPDEST JUMPDEST SWAP1 PUSH1 0x0 MSTORE PUSH1 0x20 PUSH1 0x0 KECCAK256 ADD DUP2 SWAP1 SSTORE POP DUP1 DUP1 PUSH1 0x1 ADD SWAP2 POP POP PUSH3 0xB49 JUMP JUMPDEST POP POP JUMP JUMPDEST PUSH1 0x0 DUP1 PUSH1 0x0 SWAP1 SLOAD SWAP1 PUSH2 0x100 EXP SWAP1 DIV PUSH20 0xFFFFFFFFFFFFFFFFFFFFFFFFFFFFFFFFFFFFFFFF AND PUSH20 0xFFFFFFFFFFFFFFFFFFFFFFFFFFFFFFFFFFFFFFFF AND PUSH4 0x603DA881 DUP5 DUP5 PUSH1 0x40 MLOAD DUP4 PUSH4 0xFFFFFFFF AND PUSH1 0xE0 SHL DUP2 MSTORE PUSH1 0x4 ADD PUSH3 0xC08 SWAP3 SWAP2 SWAP1 PUSH3 0x1D46 JUMP JUMPDEST PUSH3 0x27100 PUSH1 0x40 MLOAD DUP1 DUP4 SUB DUP2 DUP7 GAS STATICCALL ISZERO DUP1 ISZERO PUSH3 0xC28 JUMPI RETURNDATASIZE PUSH1 0x0 DUP1 RETURNDATACOPY RETURNDATASIZE PUSH1 0x0 REVERT JUMPDEST POP POP POP POP PUSH1 0x40 MLOAD RETURNDATASIZE PUSH1 0x1F NOT PUSH1 0x1F DUP3 ADD AND DUP3 ADD DUP1 PUSH1 0x40 MSTORE POP DUP2 ADD SWAP1 PUSH3 0xC4E SWAP2 SWAP1 PUSH3 0x20EF JUMP JUMPDEST SWAP1 POP PUSH1 0x0 JUMPDEST DUP3 DUP2 LT ISZERO PUSH3 0xCE8 JUMPI PUSH1 0x1 DUP3 DUP3 PUSH2 0x1388 DUP2 LT PUSH3 0xC75 JUMPI PUSH3 0xC74 PUSH3 0x1DDD JUMP JUMPDEST JUMPDEST PUSH1 0x20 MUL ADD MLOAD SWAP1 DUP1 PUSH1 0x1 DUP2 SLOAD ADD DUP1 DUP3 SSTORE DUP1 SWAP2 POP POP PUSH1 0x1 SWAP1 SUB SWAP1 PUSH1 0x0 MSTORE PUSH1 0x20 PUSH1 0x0 KECCAK256 ADD PUSH1 0x0 SWAP1 SWAP2 SWAP1 SWAP2 SWAP1 SWAP2 PUSH2 0x100 EXP DUP2 SLOAD DUP2 PUSH20 0xFFFFFFFFFFFFFFFFFFFFFFFFFFFFFFFFFFFFFFFF MUL NOT AND SWAP1 DUP4 PUSH20 0xFFFFFFFFFFFFFFFFFFFFFFFFFFFFFFFFFFFFFFFF AND MUL OR SWAP1 SSTORE POP DUP1 DUP1 PUSH1 0x1 ADD SWAP2 POP POP PUSH3 0xC53 JUMP JUMPDEST POP POP POP POP JUMP JUMPDEST PUSH1 0x0 PUSH3 0xD4D PUSH1 0x4 DUP1 SLOAD DUP1 PUSH1 0x20 MUL PUSH1 0x20 ADD PUSH1 0x40 MLOAD SWAP1 DUP2 ADD PUSH1 0x40 MSTORE DUP1 SWAP3 SWAP2 SWAP1 DUP2 DUP2 MSTORE PUSH1 0x20 ADD DUP3 DUP1 SLOAD DUP1 ISZERO PUSH3 0xD42 JUMPI PUSH1 0x20 MUL DUP3 ADD SWAP2 SWAP1 PUSH1 0x0 MSTORE PUSH1 0x20 PUSH1 0x0 KECCAK256 SWAP1 JUMPDEST DUP2 SLOAD DUP2 MSTORE PUSH1 0x20 ADD SWAP1 PUSH1 0x1 ADD SWAP1 DUP1 DUP4 GT PUSH3 0xD2D JUMPI JUMPDEST POP POP POP POP POP PUSH3 0xDC5 JUMP JUMPDEST PUSH1 0x8 PUSH1 0x0 PUSH1 0x9 PUSH1 0x0 DUP5 SWAP2 SWAP1 POP SSTORE DUP4 SWAP2 SWAP1 POP SSTORE POP POP PUSH3 0xDBE PUSH1 0x4 DUP1 SLOAD DUP1 PUSH1 0x20 MUL PUSH1 0x20 ADD PUSH1 0x40 MLOAD SWAP1 DUP2 ADD PUSH1 0x40 MSTORE DUP1 SWAP3 SWAP2 SWAP1 DUP2 DUP2 MSTORE PUSH1 0x20 ADD DUP3 DUP1 SLOAD DUP1 ISZERO PUSH3 0xDB3 JUMPI PUSH1 0x20 MUL DUP3 ADD SWAP2 SWAP1 PUSH1 0x0 MSTORE PUSH1 0x20 PUSH1 0x0 KECCAK256 SWAP1 JUMPDEST DUP2 SLOAD DUP2 MSTORE PUSH1 0x20 ADD SWAP1 PUSH1 0x1 ADD SWAP1 DUP1 DUP4 GT PUSH3 0xD9E JUMPI JUMPDEST POP POP POP POP POP PUSH3 0x1137 JUMP JUMPDEST SWAP1 POP SWAP1 JUMP JUMPDEST JUMP JUMPDEST PUSH1 0x0 DUP1 PUSH3 0xDD3 DUP4 PUSH3 0xAE0 JUMP JUMPDEST PUSH3 0xDDD PUSH3 0x322 JUMP JUMPDEST PUSH1 0x0 PUSH3 0xE3C PUSH1 0x11 DUP1 SLOAD DUP1 PUSH1 0x20 MUL PUSH1 0x20 ADD PUSH1 0x40 MLOAD SWAP1 DUP2 ADD PUSH1 0x40 MSTORE DUP1 SWAP3 SWAP2 SWAP1 DUP2 DUP2 MSTORE PUSH1 0x20 ADD DUP3 DUP1 SLOAD DUP1 ISZERO PUSH3 0xE31 JUMPI PUSH1 0x20 MUL DUP3 ADD SWAP2 SWAP1 PUSH1 0x0 MSTORE PUSH1 0x20 PUSH1 0x0 KECCAK256 SWAP1 JUMPDEST DUP2 SLOAD DUP2 MSTORE PUSH1 0x20 ADD SWAP1 PUSH1 0x1 ADD SWAP1 DUP1 DUP4 GT PUSH3 0xE1C JUMPI JUMPDEST POP POP POP POP POP PUSH3 0x1502 JUMP JUMPDEST SWAP1 POP PUSH1 0x0 PUSH3 0xE9D PUSH1 0x11 DUP1 SLOAD DUP1 PUSH1 0x20 MUL PUSH1 0x20 ADD PUSH1 0x40 MLOAD SWAP1 DUP2 ADD PUSH1 0x40 MSTORE DUP1 SWAP3 SWAP2 SWAP1 DUP2 DUP2 MSTORE PUSH1 0x20 ADD DUP3 DUP1 SLOAD DUP1 ISZERO PUSH3 0xE92 JUMPI PUSH1 0x20 MUL DUP3 ADD SWAP2 SWAP1 PUSH1 0x0 MSTORE PUSH1 0x20 PUSH1 0x0 KECCAK256 SWAP1 JUMPDEST DUP2 SLOAD DUP2 MSTORE PUSH1 0x20 ADD SWAP1 PUSH1 0x1 ADD SWAP1 DUP1 DUP4 GT PUSH3 0xE7D JUMPI JUMPDEST POP POP POP POP POP PUSH3 0x168B JUMP JUMPDEST SWAP1 POP PUSH1 0x0 PUSH3 0xEAC DUP4 PUSH3 0x1798 JUMP JUMPDEST SWAP1 POP PUSH1 0x0 PUSH3 0xEBB DUP4 PUSH3 0x1798 JUMP JUMPDEST SWAP1 POP PUSH1 0x0 DUP2 DUP4 PUSH3 0xECD SWAP2 SWAP1 PUSH3 0x1DA2 JUMP JUMPDEST SWAP1 POP PUSH1 0x0 PUSH1 0x2 PUSH1 0x3 DUP4 PUSH3 0xEE2 SWAP2 SWAP1 PUSH3 0x2123 JUMP JUMPDEST PUSH3 0xEEE SWAP2 SWAP1 PUSH3 0x219D JUMP JUMPDEST DUP5 PUSH3 0xEFB SWAP2 SWAP1 PUSH3 0x1E0C JUMP JUMPDEST SWAP1 POP PUSH1 0x0 PUSH1 0x2 PUSH1 0x3 DUP5 PUSH3 0xF10 SWAP2 SWAP1 PUSH3 0x2123 JUMP JUMPDEST PUSH3 0xF1C SWAP2 SWAP1 PUSH3 0x219D JUMP JUMPDEST DUP5 LT ISZERO PUSH3 0xF2E JUMPI PUSH1 0x0 SWAP1 POP PUSH3 0xF5B JUMP JUMPDEST PUSH1 0x2 PUSH1 0x3 DUP5 PUSH3 0xF3F SWAP2 SWAP1 PUSH3 0x2123 JUMP JUMPDEST PUSH3 0xF4B SWAP2 SWAP1 PUSH3 0x219D JUMP JUMPDEST DUP5 PUSH3 0xF58 SWAP2 SWAP1 PUSH3 0x1DA2 JUMP JUMPDEST SWAP1 POP JUMPDEST DUP1 DUP3 SWAP9 POP SWAP9 POP POP POP POP POP POP POP POP SWAP2 POP SWAP2 JUMP JUMPDEST PUSH3 0x1009 DUP3 DUP3 PUSH1 0x40 MLOAD PUSH1 0x24 ADD PUSH3 0xF86 SWAP3 SWAP2 SWAP1 PUSH3 0x225E JUMP JUMPDEST PUSH1 0x40 MLOAD PUSH1 0x20 DUP2 DUP4 SUB SUB DUP2 MSTORE SWAP1 PUSH1 0x40 MSTORE PUSH32 0xB60E72CC00000000000000000000000000000000000000000000000000000000 PUSH28 0xFFFFFFFFFFFFFFFFFFFFFFFFFFFFFFFFFFFFFFFFFFFFFFFFFFFFFFFF NOT AND PUSH1 0x20 DUP3 ADD DUP1 MLOAD PUSH28 0xFFFFFFFFFFFFFFFFFFFFFFFFFFFFFFFFFFFFFFFFFFFFFFFFFFFFFFFF DUP4 DUP2 DUP4 AND OR DUP4 MSTORE POP POP POP POP PUSH3 0x18C0 JUMP JUMPDEST POP POP JUMP JUMPDEST PUSH1 0x0 DUP1 DUP3 SWAP1 POP PUSH1 0x0 DUP4 SWAP1 POP JUMPDEST PUSH1 0x11 DUP1 SLOAD SWAP1 POP DUP2 LT ISZERO PUSH3 0x1084 JUMPI PUSH1 0x11 DUP3 DUP2 SLOAD DUP2 LT PUSH3 0x103E JUMPI PUSH3 0x103D PUSH3 0x1DDD JUMP JUMPDEST JUMPDEST SWAP1 PUSH1 0x0 MSTORE PUSH1 0x20 PUSH1 0x0 KECCAK256 ADD SLOAD PUSH1 0x11 DUP3 DUP2 SLOAD DUP2 LT PUSH3 0x1060 JUMPI PUSH3 0x105F PUSH3 0x1DDD JUMP JUMPDEST JUMPDEST SWAP1 PUSH1 0x0 MSTORE PUSH1 0x20 PUSH1 0x0 KECCAK256 ADD SLOAD LT ISZERO PUSH3 0x1076 JUMPI DUP1 SWAP2 POP JUMPDEST DUP1 DUP1 PUSH1 0x1 ADD SWAP2 POP POP PUSH3 0x1019 JUMP JUMPDEST POP DUP3 DUP2 SUB PUSH3 0x1098 JUMPI PUSH1 0x0 SWAP2 POP POP PUSH3 0x1132 JUMP JUMPDEST PUSH1 0x0 PUSH1 0x11 DUP5 DUP2 SLOAD DUP2 LT PUSH3 0x10B1 JUMPI PUSH3 0x10B0 PUSH3 0x1DDD JUMP JUMPDEST JUMPDEST SWAP1 PUSH1 0x0 MSTORE PUSH1 0x20 PUSH1 0x0 KECCAK256 ADD SLOAD SWAP1 POP PUSH1 0x11 DUP3 DUP2 SLOAD DUP2 LT PUSH3 0x10D5 JUMPI PUSH3 0x10D4 PUSH3 0x1DDD JUMP JUMPDEST JUMPDEST SWAP1 PUSH1 0x0 MSTORE PUSH1 0x20 PUSH1 0x0 KECCAK256 ADD SLOAD PUSH1 0x11 DUP6 DUP2 SLOAD DUP2 LT PUSH3 0x10F7 JUMPI PUSH3 0x10F6 PUSH3 0x1DDD JUMP JUMPDEST JUMPDEST SWAP1 PUSH1 0x0 MSTORE PUSH1 0x20 PUSH1 0x0 KECCAK256 ADD DUP2 SWAP1 SSTORE POP DUP1 PUSH1 0x11 DUP4 DUP2 SLOAD DUP2 LT PUSH3 0x111D JUMPI PUSH3 0x111C PUSH3 0x1DDD JUMP JUMPDEST JUMPDEST SWAP1 PUSH1 0x0 MSTORE PUSH1 0x20 PUSH1 0x0 KECCAK256 ADD DUP2 SWAP1 SSTORE POP PUSH1 0x1 SWAP3 POP POP POP JUMPDEST SWAP2 SWAP1 POP JUMP JUMPDEST PUSH1 0x0 DUP1 PUSH1 0x0 SWAP1 POP PUSH1 0x0 JUMPDEST DUP4 MLOAD DUP2 LT ISZERO PUSH3 0x1186 JUMPI DUP4 DUP2 DUP2 MLOAD DUP2 LT PUSH3 0x1161 JUMPI PUSH3 0x1160 PUSH3 0x1DDD JUMP JUMPDEST JUMPDEST PUSH1 0x20 MUL PUSH1 0x20 ADD ADD MLOAD DUP3 PUSH3 0x1176 SWAP2 SWAP1 PUSH3 0x1E0C JUMP JUMPDEST SWAP2 POP DUP1 DUP1 PUSH1 0x1 ADD SWAP2 POP POP PUSH3 0x1141 JUMP JUMPDEST POP DUP3 MLOAD DUP2 PUSH3 0x1196 SWAP2 SWAP1 PUSH3 0x219D JUMP JUMPDEST SWAP2 POP POP SWAP2 SWAP1 POP JUMP JUMPDEST PUSH1 0x0 DUP2 DUP4 GT ISZERO PUSH3 0x11BF JUMPI DUP2 DUP4 PUSH3 0x11B7 SWAP2 SWAP1 PUSH3 0x1DA2 JUMP JUMPDEST SWAP1 POP PUSH3 0x11D0 JUMP JUMPDEST DUP3 DUP3 PUSH3 0x11CD SWAP2 SWAP1 PUSH3 0x1DA2 JUMP JUMPDEST SWAP1 POP JUMPDEST SWAP3 SWAP2 POP POP JUMP JUMPDEST PUSH1 0x0 PUSH1 0xE PUSH1 0x0 SWAP1 SLOAD SWAP1 PUSH2 0x100 EXP SWAP1 DIV PUSH20 0xFFFFFFFFFFFFFFFFFFFFFFFFFFFFFFFFFFFFFFFF AND PUSH20 0xFFFFFFFFFFFFFFFFFFFFFFFFFFFFFFFFFFFFFFFF AND PUSH4 0x70A08231 ADDRESS PUSH1 0x40 MLOAD DUP3 PUSH4 0xFFFFFFFF AND PUSH1 0xE0 SHL DUP2 MSTORE PUSH1 0x4 ADD PUSH3 0x1235 SWAP2 SWAP1 PUSH3 0x2292 JUMP JUMPDEST PUSH1 0x20 PUSH1 0x40 MLOAD DUP1 DUP4 SUB DUP2 DUP7 GAS STATICCALL ISZERO DUP1 ISZERO PUSH3 0x1253 JUMPI RETURNDATASIZE PUSH1 0x0 DUP1 RETURNDATACOPY RETURNDATASIZE PUSH1 0x0 REVERT JUMPDEST POP POP POP POP PUSH1 0x40 MLOAD RETURNDATASIZE PUSH1 0x1F NOT PUSH1 0x1F DUP3 ADD AND DUP3 ADD DUP1 PUSH1 0x40 MSTORE POP DUP2 ADD SWAP1 PUSH3 0x1279 SWAP2 SWAP1 PUSH3 0x22C6 JUMP JUMPDEST SWAP1 POP DUP1 DUP3 GT ISZERO PUSH3 0x12C1 JUMPI PUSH1 0x40 MLOAD PUSH32 0x8C379A000000000000000000000000000000000000000000000000000000000 DUP2 MSTORE PUSH1 0x4 ADD PUSH3 0x12B8 SWAP1 PUSH3 0x2348 JUMP JUMPDEST PUSH1 0x40 MLOAD DUP1 SWAP2 SUB SWAP1 REVERT JUMPDEST PUSH1 0xE PUSH1 0x0 SWAP1 SLOAD SWAP1 PUSH2 0x100 EXP SWAP1 DIV PUSH20 0xFFFFFFFFFFFFFFFFFFFFFFFFFFFFFFFFFFFFFFFF AND PUSH20 0xFFFFFFFFFFFFFFFFFFFFFFFFFFFFFFFFFFFFFFFF AND PUSH4 0xA9059CBB DUP5 DUP5 PUSH1 0x40 MLOAD DUP4 PUSH4 0xFFFFFFFF AND PUSH1 0xE0 SHL DUP2 MSTORE PUSH1 0x4 ADD PUSH3 0x1320 SWAP3 SWAP2 SWAP1 PUSH3 0x236A JUMP JUMPDEST PUSH1 0x20 PUSH1 0x40 MLOAD DUP1 DUP4 SUB DUP2 PUSH1 0x0 DUP8 GAS CALL ISZERO DUP1 ISZERO PUSH3 0x1340 JUMPI RETURNDATASIZE PUSH1 0x0 DUP1 RETURNDATACOPY RETURNDATASIZE PUSH1 0x0 REVERT JUMPDEST POP POP POP POP PUSH1 0x40 MLOAD RETURNDATASIZE PUSH1 0x1F NOT PUSH1 0x1F DUP3 ADD AND DUP3 ADD DUP1 PUSH1 0x40 MSTORE POP DUP2 ADD SWAP1 PUSH3 0x1366 SWAP2 SWAP1 PUSH3 0x23D4 JUMP JUMPDEST POP POP POP POP JUMP JUMPDEST PUSH1 0x0 PUSH1 0xD PUSH1 0x0 SWAP1 SLOAD SWAP1 PUSH2 0x100 EXP SWAP1 DIV PUSH20 0xFFFFFFFFFFFFFFFFFFFFFFFFFFFFFFFFFFFFFFFF AND PUSH20 0xFFFFFFFFFFFFFFFFFFFFFFFFFFFFFFFFFFFFFFFF AND PUSH4 0x70A08231 ADDRESS PUSH1 0x40 MLOAD DUP3 PUSH4 0xFFFFFFFF AND PUSH1 0xE0 SHL DUP2 MSTORE PUSH1 0x4 ADD PUSH3 0x13CB SWAP2 SWAP1 PUSH3 0x2292 JUMP JUMPDEST PUSH1 0x20 PUSH1 0x40 MLOAD DUP1 DUP4 SUB DUP2 DUP7 GAS STATICCALL ISZERO DUP1 ISZERO PUSH3 0x13E9 JUMPI RETURNDATASIZE PUSH1 0x0 DUP1 RETURNDATACOPY RETURNDATASIZE PUSH1 0x0 REVERT JUMPDEST POP POP POP POP PUSH1 0x40 MLOAD RETURNDATASIZE PUSH1 0x1F NOT PUSH1 0x1F DUP3 ADD AND DUP3 ADD DUP1 PUSH1 0x40 MSTORE POP DUP2 ADD SWAP1 PUSH3 0x140F SWAP2 SWAP1 PUSH3 0x22C6 JUMP JUMPDEST SWAP1 POP DUP1 DUP3 GT ISZERO PUSH3 0x1457 JUMPI PUSH1 0x40 MLOAD PUSH32 0x8C379A000000000000000000000000000000000000000000000000000000000 DUP2 MSTORE PUSH1 0x4 ADD PUSH3 0x144E SWAP1 PUSH3 0x2348 JUMP JUMPDEST PUSH1 0x40 MLOAD DUP1 SWAP2 SUB SWAP1 REVERT JUMPDEST PUSH1 0xD PUSH1 0x0 SWAP1 SLOAD SWAP1 PUSH2 0x100 EXP SWAP1 DIV PUSH20 0xFFFFFFFFFFFFFFFFFFFFFFFFFFFFFFFFFFFFFFFF AND PUSH20 0xFFFFFFFFFFFFFFFFFFFFFFFFFFFFFFFFFFFFFFFF AND PUSH4 0xA9059CBB DUP5 DUP5 PUSH1 0x40 MLOAD DUP4 PUSH4 0xFFFFFFFF AND PUSH1 0xE0 SHL DUP2 MSTORE PUSH1 0x4 ADD PUSH3 0x14B6 SWAP3 SWAP2 SWAP1 PUSH3 0x236A JUMP JUMPDEST PUSH1 0x20 PUSH1 0x40 MLOAD DUP1 DUP4 SUB DUP2 PUSH1 0x0 DUP8 GAS CALL ISZERO DUP1 ISZERO PUSH3 0x14D6 JUMPI RETURNDATASIZE PUSH1 0x0 DUP1 RETURNDATACOPY RETURNDATASIZE PUSH1 0x0 REVERT JUMPDEST POP POP POP POP PUSH1 0x40 MLOAD RETURNDATASIZE PUSH1 0x1F NOT PUSH1 0x1F DUP3 ADD AND DUP3 ADD DUP1 PUSH1 0x40 MSTORE POP DUP2 ADD SWAP1 PUSH3 0x14FC SWAP2 SWAP1 PUSH3 0x23D4 JUMP JUMPDEST POP POP POP POP JUMP JUMPDEST PUSH1 0x60 PUSH1 0x0 PUSH1 0x2 DUP4 MLOAD PUSH3 0x1516 SWAP2 SWAP1 PUSH3 0x219D JUMP JUMPDEST SWAP1 POP PUSH1 0x0 DUP2 PUSH8 0xFFFFFFFFFFFFFFFF DUP2 GT ISZERO PUSH3 0x1537 JUMPI PUSH3 0x1536 PUSH3 0x1B1E JUMP JUMPDEST JUMPDEST PUSH1 0x40 MLOAD SWAP1 DUP1 DUP3 MSTORE DUP1 PUSH1 0x20 MUL PUSH1 0x20 ADD DUP3 ADD PUSH1 0x40 MSTORE DUP1 ISZERO PUSH3 0x1566 JUMPI DUP2 PUSH1 0x20 ADD PUSH1 0x20 DUP3 MUL DUP1 CALLDATASIZE DUP4 CALLDATACOPY DUP1 DUP3 ADD SWAP2 POP POP SWAP1 POP JUMPDEST POP SWAP1 POP PUSH1 0x0 PUSH1 0x2 DUP6 MLOAD PUSH3 0x157B SWAP2 SWAP1 PUSH3 0x2406 JUMP JUMPDEST SUB PUSH3 0x15F8 JUMPI PUSH1 0x0 DUP3 SWAP1 POP JUMPDEST DUP5 MLOAD DUP2 LT ISZERO PUSH3 0x15EC JUMPI DUP5 DUP2 DUP2 MLOAD DUP2 LT PUSH3 0x15A7 JUMPI PUSH3 0x15A6 PUSH3 0x1DDD JUMP JUMPDEST JUMPDEST PUSH1 0x20 MUL PUSH1 0x20 ADD ADD MLOAD DUP3 DUP5 DUP4 PUSH3 0x15BE SWAP2 SWAP1 PUSH3 0x1DA2 JUMP JUMPDEST DUP2 MLOAD DUP2 LT PUSH3 0x15D2 JUMPI PUSH3 0x15D1 PUSH3 0x1DDD JUMP JUMPDEST JUMPDEST PUSH1 0x20 MUL PUSH1 0x20 ADD ADD DUP2 DUP2 MSTORE POP POP DUP1 DUP1 PUSH1 0x1 ADD SWAP2 POP POP PUSH3 0x1587 JUMP JUMPDEST POP DUP1 SWAP3 POP POP POP PUSH3 0x1686 JUMP JUMPDEST PUSH1 0x0 PUSH1 0x1 DUP4 PUSH3 0x1609 SWAP2 SWAP1 PUSH3 0x1E0C JUMP JUMPDEST SWAP1 POP JUMPDEST DUP5 MLOAD DUP2 LT ISZERO PUSH3 0x167F JUMPI DUP5 DUP2 DUP2 MLOAD DUP2 LT PUSH3 0x162C JUMPI PUSH3 0x162B PUSH3 0x1DDD JUMP JUMPDEST JUMPDEST PUSH1 0x20 MUL PUSH1 0x20 ADD ADD MLOAD DUP3 PUSH1 0x1 DUP6 DUP5 PUSH3 0x1645 SWAP2 SWAP1 PUSH3 0x1DA2 JUMP JUMPDEST PUSH3 0x1651 SWAP2 SWAP1 PUSH3 0x1DA2 JUMP JUMPDEST DUP2 MLOAD DUP2 LT PUSH3 0x1665 JUMPI PUSH3 0x1664 PUSH3 0x1DDD JUMP JUMPDEST JUMPDEST PUSH1 0x20 MUL PUSH1 0x20 ADD ADD DUP2 DUP2 MSTORE POP POP DUP1 DUP1 PUSH1 0x1 ADD SWAP2 POP POP PUSH3 0x160C JUMP JUMPDEST POP DUP1 SWAP3 POP POP POP JUMPDEST SWAP2 SWAP1 POP JUMP JUMPDEST PUSH1 0x60 PUSH1 0x0 PUSH1 0x2 DUP4 MLOAD PUSH3 0x169F SWAP2 SWAP1 PUSH3 0x219D JUMP JUMPDEST SWAP1 POP PUSH3 0x16E2 PUSH1 0x40 MLOAD DUP1 PUSH1 0x40 ADD PUSH1 0x40 MSTORE DUP1 PUSH1 0xF DUP2 MSTORE PUSH1 0x20 ADD PUSH32 0x4172724C656E6774682069732025730000000000000000000000000000000000 DUP2 MSTORE POP DUP3 PUSH3 0xF6D JUMP JUMPDEST PUSH1 0x0 DUP2 PUSH8 0xFFFFFFFFFFFFFFFF DUP2 GT ISZERO PUSH3 0x1701 JUMPI PUSH3 0x1700 PUSH3 0x1B1E JUMP JUMPDEST JUMPDEST PUSH1 0x40 MLOAD SWAP1 DUP1 DUP3 MSTORE DUP1 PUSH1 0x20 MUL PUSH1 0x20 ADD DUP3 ADD PUSH1 0x40 MSTORE DUP1 ISZERO PUSH3 0x1730 JUMPI DUP2 PUSH1 0x20 ADD PUSH1 0x20 DUP3 MUL DUP1 CALLDATASIZE DUP4 CALLDATACOPY DUP1 DUP3 ADD SWAP2 POP POP SWAP1 POP JUMPDEST POP SWAP1 POP PUSH1 0x0 JUMPDEST DUP3 DUP2 LT ISZERO PUSH3 0x178D JUMPI DUP5 DUP2 DUP2 MLOAD DUP2 LT PUSH3 0x1755 JUMPI PUSH3 0x1754 PUSH3 0x1DDD JUMP JUMPDEST JUMPDEST PUSH1 0x20 MUL PUSH1 0x20 ADD ADD MLOAD DUP3 DUP3 DUP2 MLOAD DUP2 LT PUSH3 0x1773 JUMPI PUSH3 0x1772 PUSH3 0x1DDD JUMP JUMPDEST JUMPDEST PUSH1 0x20 MUL PUSH1 0x20 ADD ADD DUP2 DUP2 MSTORE POP POP DUP1 DUP1 PUSH1 0x1 ADD SWAP2 POP POP PUSH3 0x1736 JUMP JUMPDEST POP DUP1 SWAP3 POP POP POP SWAP2 SWAP1 POP JUMP JUMPDEST PUSH1 0x0 DUP1 DUP3 MLOAD SUB PUSH3 0x17AD JUMPI PUSH1 0x0 SWAP1 POP PUSH3 0x18BB JUMP JUMPDEST PUSH3 0x17B8 DUP3 PUSH3 0xAE0 JUMP JUMPDEST PUSH3 0x17C2 PUSH3 0x322 JUMP JUMPDEST PUSH1 0x0 PUSH1 0x2 PUSH1 0x11 DUP1 SLOAD SWAP1 POP PUSH3 0x17D8 SWAP2 SWAP1 PUSH3 0x2406 JUMP JUMPDEST SUB PUSH3 0x187D JUMPI PUSH1 0x0 PUSH1 0x2 PUSH1 0x11 DUP1 SLOAD SWAP1 POP PUSH3 0x17F4 SWAP2 SWAP1 PUSH3 0x219D JUMP JUMPDEST SWAP1 POP PUSH1 0x0 PUSH1 0x1 DUP3 PUSH3 0x1807 SWAP2 SWAP1 PUSH3 0x1DA2 JUMP JUMPDEST SWAP1 POP PUSH1 0x0 PUSH1 0x11 DUP4 DUP2 SLOAD DUP2 LT PUSH3 0x1822 JUMPI PUSH3 0x1821 PUSH3 0x1DDD JUMP JUMPDEST JUMPDEST SWAP1 PUSH1 0x0 MSTORE PUSH1 0x20 PUSH1 0x0 KECCAK256 ADD SLOAD SWAP1 POP PUSH1 0x0 PUSH1 0x11 DUP4 DUP2 SLOAD DUP2 LT PUSH3 0x1848 JUMPI PUSH3 0x1847 PUSH3 0x1DDD JUMP JUMPDEST JUMPDEST SWAP1 PUSH1 0x0 MSTORE PUSH1 0x20 PUSH1 0x0 KECCAK256 ADD SLOAD SWAP1 POP PUSH1 0x2 DUP2 DUP4 PUSH3 0x1865 SWAP2 SWAP1 PUSH3 0x1E0C JUMP JUMPDEST PUSH3 0x1871 SWAP2 SWAP1 PUSH3 0x219D JUMP JUMPDEST SWAP5 POP POP POP POP POP PUSH3 0x18BB JUMP JUMPDEST PUSH1 0x0 PUSH1 0x2 PUSH1 0x11 DUP1 SLOAD SWAP1 POP PUSH3 0x1893 SWAP2 SWAP1 PUSH3 0x219D JUMP JUMPDEST SWAP1 POP PUSH1 0x11 DUP2 DUP2 SLOAD DUP2 LT PUSH3 0x18AC JUMPI PUSH3 0x18AB PUSH3 0x1DDD JUMP JUMPDEST JUMPDEST SWAP1 PUSH1 0x0 MSTORE PUSH1 0x20 PUSH1 0x0 KECCAK256 ADD SLOAD SWAP2 POP POP JUMPDEST SWAP2 SWAP1 POP JUMP JUMPDEST PUSH3 0x18DB DUP2 PUSH3 0x18D3 PUSH3 0x18DE PUSH3 0x18FF JUMP JUMPDEST PUSH4 0xFFFFFFFF AND JUMP JUMPDEST POP JUMP JUMPDEST PUSH1 0x0 PUSH11 0x636F6E736F6C652E6C6F67 SWAP1 POP PUSH1 0x0 DUP1 DUP4 MLOAD PUSH1 0x20 DUP6 ADD DUP5 GAS STATICCALL POP POP POP JUMP JUMPDEST PUSH3 0x196B DUP2 SWAP1 POP SWAP2 SWAP1 POP JUMP JUMPDEST PUSH2 0x22DE DUP1 PUSH3 0x246E DUP4 CODECOPY ADD SWAP1 JUMP JUMPDEST DUP3 DUP1 SLOAD DUP3 DUP3 SSTORE SWAP1 PUSH1 0x0 MSTORE PUSH1 0x20 PUSH1 0x0 KECCAK256 SWAP1 DUP2 ADD SWAP3 DUP3 ISZERO PUSH3 0x1958 JUMPI SWAP2 PUSH1 0x20 MUL DUP3 ADD JUMPDEST DUP3 DUP2 GT ISZERO PUSH3 0x1957 JUMPI DUP3 MLOAD DUP3 SSTORE SWAP2 PUSH1 0x20 ADD SWAP2 SWAP1 PUSH1 0x1 ADD SWAP1 PUSH3 0x193A JUMP JUMPDEST JUMPDEST POP SWAP1 POP PUSH3 0x1967 SWAP2 SWAP1 PUSH3 0x1977 JUMP JUMPDEST POP SWAP1 JUMP JUMPDEST PUSH3 0x1975 PUSH3 0x243E JUMP JUMPDEST JUMP JUMPDEST JUMPDEST DUP1 DUP3 GT ISZERO PUSH3 0x1992 JUMPI PUSH1 0x0 DUP2 PUSH1 0x0 SWAP1 SSTORE POP PUSH1 0x1 ADD PUSH3 0x1978 JUMP JUMPDEST POP SWAP1 JUMP JUMPDEST PUSH1 0x0 DUP2 MLOAD SWAP1 POP SWAP2 SWAP1 POP JUMP JUMPDEST PUSH1 0x0 DUP3 DUP3 MSTORE PUSH1 0x20 DUP3 ADD SWAP1 POP SWAP3 SWAP2 POP POP JUMP JUMPDEST PUSH1 0x0 DUP2 SWAP1 POP PUSH1 0x20 DUP3 ADD SWAP1 POP SWAP2 SWAP1 POP JUMP JUMPDEST PUSH1 0x0 PUSH20 0xFFFFFFFFFFFFFFFFFFFFFFFFFFFFFFFFFFFFFFFF DUP3 AND SWAP1 POP SWAP2 SWAP1 POP JUMP JUMPDEST PUSH1 0x0 PUSH3 0x19EF DUP3 PUSH3 0x19C2 JUMP JUMPDEST SWAP1 POP SWAP2 SWAP1 POP JUMP JUMPDEST PUSH3 0x1A01 DUP2 PUSH3 0x19E2 JUMP JUMPDEST DUP3 MSTORE POP POP JUMP JUMPDEST PUSH1 0x0 PUSH3 0x1A15 DUP4 DUP4 PUSH3 0x19F6 JUMP JUMPDEST PUSH1 0x20 DUP4 ADD SWAP1 POP SWAP3 SWAP2 POP POP JUMP JUMPDEST PUSH1 0x0 PUSH1 0x20 DUP3 ADD SWAP1 POP SWAP2 SWAP1 POP JUMP JUMPDEST PUSH1 0x0 PUSH3 0x1A3B DUP3 PUSH3 0x1996 JUMP JUMPDEST PUSH3 0x1A47 DUP2 DUP6 PUSH3 0x19A1 JUMP JUMPDEST SWAP4 POP PUSH3 0x1A54 DUP4 PUSH3 0x19B2 JUMP JUMPDEST DUP1 PUSH1 0x0 JUMPDEST DUP4 DUP2 LT ISZERO PUSH3 0x1A8B JUMPI DUP2 MLOAD PUSH3 0x1A6F DUP9 DUP3 PUSH3 0x1A07 JUMP JUMPDEST SWAP8 POP PUSH3 0x1A7C DUP4 PUSH3 0x1A21 JUMP JUMPDEST SWAP3 POP POP PUSH1 0x1 DUP2 ADD SWAP1 POP PUSH3 0x1A58 JUMP JUMPDEST POP DUP6 SWAP4 POP POP POP POP SWAP3 SWAP2 POP POP JUMP JUMPDEST PUSH1 0x0 PUSH1 0x20 DUP3 ADD SWAP1 POP DUP2 DUP2 SUB PUSH1 0x0 DUP4 ADD MSTORE PUSH3 0x1AB4 DUP2 DUP5 PUSH3 0x1A2E JUMP JUMPDEST SWAP1 POP SWAP3 SWAP2 POP POP JUMP JUMPDEST PUSH1 0x0 DUP2 SWAP1 POP SWAP2 SWAP1 POP JUMP JUMPDEST PUSH3 0x1AD1 DUP2 PUSH3 0x1ABC JUMP JUMPDEST DUP3 MSTORE POP POP JUMP JUMPDEST PUSH1 0x0 PUSH1 0x20 DUP3 ADD SWAP1 POP PUSH3 0x1AEE PUSH1 0x0 DUP4 ADD DUP5 PUSH3 0x1AC6 JUMP JUMPDEST SWAP3 SWAP2 POP POP JUMP JUMPDEST PUSH1 0x0 PUSH1 0x40 MLOAD SWAP1 POP SWAP1 JUMP JUMPDEST PUSH1 0x0 DUP1 REVERT JUMPDEST PUSH1 0x0 DUP1 REVERT JUMPDEST PUSH1 0x0 DUP1 REVERT JUMPDEST PUSH1 0x0 PUSH1 0x1F NOT PUSH1 0x1F DUP4 ADD AND SWAP1 POP SWAP2 SWAP1 POP JUMP JUMPDEST PUSH32 0x4E487B7100000000000000000000000000000000000000000000000000000000 PUSH1 0x0 MSTORE PUSH1 0x41 PUSH1 0x4 MSTORE PUSH1 0x24 PUSH1 0x0 REVERT JUMPDEST PUSH3 0x1B58 DUP3 PUSH3 0x1B0D JUMP JUMPDEST DUP2 ADD DUP2 DUP2 LT PUSH8 0xFFFFFFFFFFFFFFFF DUP3 GT OR ISZERO PUSH3 0x1B7A JUMPI PUSH3 0x1B79 PUSH3 0x1B1E JUMP JUMPDEST JUMPDEST DUP1 PUSH1 0x40 MSTORE POP POP POP JUMP JUMPDEST PUSH1 0x0 PUSH3 0x1B8F PUSH3 0x1AF4 JUMP JUMPDEST SWAP1 POP PUSH3 0x1B9D DUP3 DUP3 PUSH3 0x1B4D JUMP JUMPDEST SWAP2 SWAP1 POP JUMP JUMPDEST PUSH1 0x0 PUSH8 0xFFFFFFFFFFFFFFFF DUP3 GT ISZERO PUSH3 0x1BC0 JUMPI PUSH3 0x1BBF PUSH3 0x1B1E JUMP JUMPDEST JUMPDEST PUSH1 0x20 DUP3 MUL SWAP1 POP PUSH1 0x20 DUP2 ADD SWAP1 POP SWAP2 SWAP1 POP JUMP JUMPDEST PUSH1 0x0 DUP1 REVERT JUMPDEST PUSH3 0x1BE1 DUP2 PUSH3 0x1ABC JUMP JUMPDEST DUP2 EQ PUSH3 0x1BED JUMPI PUSH1 0x0 DUP1 REVERT JUMPDEST POP JUMP JUMPDEST PUSH1 0x0 DUP2 CALLDATALOAD SWAP1 POP PUSH3 0x1C01 DUP2 PUSH3 0x1BD6 JUMP JUMPDEST SWAP3 SWAP2 POP POP JUMP JUMPDEST PUSH1 0x0 PUSH3 0x1C1E PUSH3 0x1C18 DUP5 PUSH3 0x1BA2 JUMP JUMPDEST PUSH3 0x1B83 JUMP JUMPDEST SWAP1 POP DUP1 DUP4 DUP3 MSTORE PUSH1 0x20 DUP3 ADD SWAP1 POP PUSH1 0x20 DUP5 MUL DUP4 ADD DUP6 DUP2 GT ISZERO PUSH3 0x1C44 JUMPI PUSH3 0x1C43 PUSH3 0x1BD1 JUMP JUMPDEST JUMPDEST DUP4 JUMPDEST DUP2 DUP2 LT ISZERO PUSH3 0x1C71 JUMPI DUP1 PUSH3 0x1C5C DUP9 DUP3 PUSH3 0x1BF0 JUMP JUMPDEST DUP5 MSTORE PUSH1 0x20 DUP5 ADD SWAP4 POP POP PUSH1 0x20 DUP2 ADD SWAP1 POP PUSH3 0x1C46 JUMP JUMPDEST POP POP POP SWAP4 SWAP3 POP POP POP JUMP JUMPDEST PUSH1 0x0 DUP3 PUSH1 0x1F DUP4 ADD SLT PUSH3 0x1C93 JUMPI PUSH3 0x1C92 PUSH3 0x1B08 JUMP JUMPDEST JUMPDEST DUP2 CALLDATALOAD PUSH3 0x1CA5 DUP5 DUP3 PUSH1 0x20 DUP7 ADD PUSH3 0x1C07 JUMP JUMPDEST SWAP2 POP POP SWAP3 SWAP2 POP POP JUMP JUMPDEST PUSH1 0x0 PUSH1 0x20 DUP3 DUP5 SUB SLT ISZERO PUSH3 0x1CC7 JUMPI PUSH3 0x1CC6 PUSH3 0x1AFE JUMP JUMPDEST JUMPDEST PUSH1 0x0 DUP3 ADD CALLDATALOAD PUSH8 0xFFFFFFFFFFFFFFFF DUP2 GT ISZERO PUSH3 0x1CE8 JUMPI PUSH3 0x1CE7 PUSH3 0x1B03 JUMP JUMPDEST JUMPDEST PUSH3 0x1CF6 DUP5 DUP3 DUP6 ADD PUSH3 0x1C7B JUMP JUMPDEST SWAP2 POP POP SWAP3 SWAP2 POP POP JUMP JUMPDEST PUSH1 0x0 DUP1 PUSH1 0x40 DUP4 DUP6 SUB SLT ISZERO PUSH3 0x1D19 JUMPI PUSH3 0x1D18 PUSH3 0x1AFE JUMP JUMPDEST JUMPDEST PUSH1 0x0 PUSH3 0x1D29 DUP6 DUP3 DUP7 ADD PUSH3 0x1BF0 JUMP JUMPDEST SWAP3 POP POP PUSH1 0x20 PUSH3 0x1D3C DUP6 DUP3 DUP7 ADD PUSH3 0x1BF0 JUMP JUMPDEST SWAP2 POP POP SWAP3 POP SWAP3 SWAP1 POP JUMP JUMPDEST PUSH1 0x0 PUSH1 0x40 DUP3 ADD SWAP1 POP PUSH3 0x1D5D PUSH1 0x0 DUP4 ADD DUP6 PUSH3 0x1AC6 JUMP JUMPDEST PUSH3 0x1D6C PUSH1 0x20 DUP4 ADD DUP5 PUSH3 0x1AC6 JUMP JUMPDEST SWAP4 SWAP3 POP POP POP JUMP JUMPDEST PUSH32 0x4E487B7100000000000000000000000000000000000000000000000000000000 PUSH1 0x0 MSTORE PUSH1 0x11 PUSH1 0x4 MSTORE PUSH1 0x24 PUSH1 0x0 REVERT JUMPDEST PUSH1 0x0 PUSH3 0x1DAF DUP3 PUSH3 0x1ABC JUMP JUMPDEST SWAP2 POP PUSH3 0x1DBC DUP4 PUSH3 0x1ABC JUMP JUMPDEST SWAP3 POP DUP3 DUP3 SUB SWAP1 POP DUP2 DUP2 GT ISZERO PUSH3 0x1DD7 JUMPI PUSH3 0x1DD6 PUSH3 0x1D73 JUMP JUMPDEST JUMPDEST SWAP3 SWAP2 POP POP JUMP JUMPDEST PUSH32 0x4E487B7100000000000000000000000000000000000000000000000000000000 PUSH1 0x0 MSTORE PUSH1 0x32 PUSH1 0x4 MSTORE PUSH1 0x24 PUSH1 0x0 REVERT JUMPDEST PUSH1 0x0 PUSH3 0x1E19 DUP3 PUSH3 0x1ABC JUMP JUMPDEST SWAP2 POP PUSH3 0x1E26 DUP4 PUSH3 0x1ABC JUMP JUMPDEST SWAP3 POP DUP3 DUP3 ADD SWAP1 POP DUP1 DUP3 GT ISZERO PUSH3 0x1E41 JUMPI PUSH3 0x1E40 PUSH3 0x1D73 JUMP JUMPDEST JUMPDEST SWAP3 SWAP2 POP POP JUMP JUMPDEST PUSH1 0x0 DUP2 MLOAD SWAP1 POP SWAP2 SWAP1 POP JUMP JUMPDEST PUSH1 0x0 DUP3 DUP3 MSTORE PUSH1 0x20 DUP3 ADD SWAP1 POP SWAP3 SWAP2 POP POP JUMP JUMPDEST PUSH1 0x0 DUP2 SWAP1 POP PUSH1 0x20 DUP3 ADD SWAP1 POP SWAP2 SWAP1 POP JUMP JUMPDEST PUSH3 0x1E7E DUP2 PUSH3 0x1ABC JUMP JUMPDEST DUP3 MSTORE POP POP JUMP JUMPDEST PUSH1 0x0 PUSH3 0x1E92 DUP4 DUP4 PUSH3 0x1E73 JUMP JUMPDEST PUSH1 0x20 DUP4 ADD SWAP1 POP SWAP3 SWAP2 POP POP JUMP JUMPDEST PUSH1 0x0 PUSH1 0x20 DUP3 ADD SWAP1 POP SWAP2 SWAP1 POP JUMP JUMPDEST PUSH1 0x0 PUSH3 0x1EB8 DUP3 PUSH3 0x1E47 JUMP JUMPDEST PUSH3 0x1EC4 DUP2 DUP6 PUSH3 0x1E52 JUMP JUMPDEST SWAP4 POP PUSH3 0x1ED1 DUP4 PUSH3 0x1E63 JUMP JUMPDEST DUP1 PUSH1 0x0 JUMPDEST DUP4 DUP2 LT ISZERO PUSH3 0x1F08 JUMPI DUP2 MLOAD PUSH3 0x1EEC DUP9 DUP3 PUSH3 0x1E84 JUMP JUMPDEST SWAP8 POP PUSH3 0x1EF9 DUP4 PUSH3 0x1E9E JUMP JUMPDEST SWAP3 POP POP PUSH1 0x1 DUP2 ADD SWAP1 POP PUSH3 0x1ED5 JUMP JUMPDEST POP DUP6 SWAP4 POP POP POP POP SWAP3 SWAP2 POP POP JUMP JUMPDEST PUSH1 0x0 PUSH1 0x40 DUP3 ADD SWAP1 POP DUP2 DUP2 SUB PUSH1 0x0 DUP4 ADD MSTORE PUSH3 0x1F31 DUP2 DUP6 PUSH3 0x1A2E JUMP JUMPDEST SWAP1 POP DUP2 DUP2 SUB PUSH1 0x20 DUP4 ADD MSTORE PUSH3 0x1F47 DUP2 DUP5 PUSH3 0x1EAB JUMP JUMPDEST SWAP1 POP SWAP4 SWAP3 POP POP POP JUMP JUMPDEST PUSH1 0x0 DUP2 SWAP1 POP SWAP2 SWAP1 POP JUMP JUMPDEST PUSH1 0x0 PUSH3 0x1F7B PUSH3 0x1F75 PUSH3 0x1F6F DUP5 PUSH3 0x19C2 JUMP JUMPDEST PUSH3 0x1F50 JUMP JUMPDEST PUSH3 0x19C2 JUMP JUMPDEST SWAP1 POP SWAP2 SWAP1 POP JUMP JUMPDEST PUSH1 0x0 PUSH3 0x1F8F DUP3 PUSH3 0x1F5A JUMP JUMPDEST SWAP1 POP SWAP2 SWAP1 POP JUMP JUMPDEST PUSH1 0x0 PUSH3 0x1FA3 DUP3 PUSH3 0x1F82 JUMP JUMPDEST SWAP1 POP SWAP2 SWAP1 POP JUMP JUMPDEST PUSH3 0x1FB5 DUP2 PUSH3 0x1F96 JUMP JUMPDEST DUP3 MSTORE POP POP JUMP JUMPDEST PUSH3 0x1FC6 DUP2 PUSH3 0x19E2 JUMP JUMPDEST DUP3 MSTORE POP POP JUMP JUMPDEST PUSH1 0x0 PUSH1 0x40 DUP3 ADD SWAP1 POP PUSH3 0x1FE3 PUSH1 0x0 DUP4 ADD DUP6 PUSH3 0x1FAA JUMP JUMPDEST PUSH3 0x1FF2 PUSH1 0x20 DUP4 ADD DUP5 PUSH3 0x1FBB JUMP JUMPDEST SWAP4 SWAP3 POP POP POP JUMP JUMPDEST PUSH1 0x0 PUSH8 0xFFFFFFFFFFFFFFFF DUP3 GT ISZERO PUSH3 0x2017 JUMPI PUSH3 0x2016 PUSH3 0x1B1E JUMP JUMPDEST JUMPDEST PUSH1 0x20 DUP3 MUL SWAP1 POP SWAP2 SWAP1 POP JUMP JUMPDEST PUSH3 0x202D DUP2 PUSH3 0x19E2 JUMP JUMPDEST DUP2 EQ PUSH3 0x2039 JUMPI PUSH1 0x0 DUP1 REVERT JUMPDEST POP JUMP JUMPDEST PUSH1 0x0 DUP2 MLOAD SWAP1 POP PUSH3 0x204D DUP2 PUSH3 0x2022 JUMP JUMPDEST SWAP3 SWAP2 POP POP JUMP JUMPDEST PUSH1 0x0 PUSH3 0x206A PUSH3 0x2064 DUP5 PUSH3 0x1FF9 JUMP JUMPDEST PUSH3 0x1B83 JUMP JUMPDEST SWAP1 POP DUP1 PUSH1 0x20 DUP5 MUL DUP4 ADD DUP6 DUP2 GT ISZERO PUSH3 0x2087 JUMPI PUSH3 0x2086 PUSH3 0x1BD1 JUMP JUMPDEST JUMPDEST DUP4 JUMPDEST DUP2 DUP2 LT ISZERO PUSH3 0x20B4 JUMPI DUP1 PUSH3 0x209F DUP9 DUP3 PUSH3 0x203C JUMP JUMPDEST DUP5 MSTORE PUSH1 0x20 DUP5 ADD SWAP4 POP POP PUSH1 0x20 DUP2 ADD SWAP1 POP PUSH3 0x2089 JUMP JUMPDEST POP POP POP SWAP4 SWAP3 POP POP POP JUMP JUMPDEST PUSH1 0x0 DUP3 PUSH1 0x1F DUP4 ADD SLT PUSH3 0x20D6 JUMPI PUSH3 0x20D5 PUSH3 0x1B08 JUMP JUMPDEST JUMPDEST PUSH2 0x1388 PUSH3 0x20E6 DUP5 DUP3 DUP6 PUSH3 0x2053 JUMP JUMPDEST SWAP2 POP POP SWAP3 SWAP2 POP POP JUMP JUMPDEST PUSH1 0x0 PUSH3 0x27100 DUP3 DUP5 SUB SLT ISZERO PUSH3 0x210A JUMPI PUSH3 0x2109 PUSH3 0x1AFE JUMP JUMPDEST JUMPDEST PUSH1 0x0 PUSH3 0x211A DUP5 DUP3 DUP6 ADD PUSH3 0x20BE JUMP JUMPDEST SWAP2 POP POP SWAP3 SWAP2 POP POP JUMP JUMPDEST PUSH1 0x0 PUSH3 0x2130 DUP3 PUSH3 0x1ABC JUMP JUMPDEST SWAP2 POP PUSH3 0x213D DUP4 PUSH3 0x1ABC JUMP JUMPDEST SWAP3 POP DUP3 DUP3 MUL PUSH3 0x214D DUP2 PUSH3 0x1ABC JUMP JUMPDEST SWAP2 POP DUP3 DUP3 DIV DUP5 EQ DUP4 ISZERO OR PUSH3 0x2167 JUMPI PUSH3 0x2166 PUSH3 0x1D73 JUMP JUMPDEST JUMPDEST POP SWAP3 SWAP2 POP POP JUMP JUMPDEST PUSH32 0x4E487B7100000000000000000000000000000000000000000000000000000000 PUSH1 0x0 MSTORE PUSH1 0x12 PUSH1 0x4 MSTORE PUSH1 0x24 PUSH1 0x0 REVERT JUMPDEST PUSH1 0x0 PUSH3 0x21AA DUP3 PUSH3 0x1ABC JUMP JUMPDEST SWAP2 POP PUSH3 0x21B7 DUP4 PUSH3 0x1ABC JUMP JUMPDEST SWAP3 POP DUP3 PUSH3 0x21CA JUMPI PUSH3 0x21C9 PUSH3 0x216E JUMP JUMPDEST JUMPDEST DUP3 DUP3 DIV SWAP1 POP SWAP3 SWAP2 POP POP JUMP JUMPDEST PUSH1 0x0 DUP2 MLOAD SWAP1 POP SWAP2 SWAP1 POP JUMP JUMPDEST PUSH1 0x0 DUP3 DUP3 MSTORE PUSH1 0x20 DUP3 ADD SWAP1 POP SWAP3 SWAP2 POP POP JUMP JUMPDEST PUSH1 0x0 JUMPDEST DUP4 DUP2 LT ISZERO PUSH3 0x2211 JUMPI DUP1 DUP3 ADD MLOAD DUP2 DUP5 ADD MSTORE PUSH1 0x20 DUP2 ADD SWAP1 POP PUSH3 0x21F4 JUMP JUMPDEST PUSH1 0x0 DUP5 DUP5 ADD MSTORE POP POP POP POP JUMP JUMPDEST PUSH1 0x0 PUSH3 0x222A DUP3 PUSH3 0x21D5 JUMP JUMPDEST PUSH3 0x2236 DUP2 DUP6 PUSH3 0x21E0 JUMP JUMPDEST SWAP4 POP PUSH3 0x2248 DUP2 DUP6 PUSH1 0x20 DUP7 ADD PUSH3 0x21F1 JUMP JUMPDEST PUSH3 0x2253 DUP2 PUSH3 0x1B0D JUMP JUMPDEST DUP5 ADD SWAP2 POP POP SWAP3 SWAP2 POP POP JUMP JUMPDEST PUSH1 0x0 PUSH1 0x40 DUP3 ADD SWAP1 POP DUP2 DUP2 SUB PUSH1 0x0 DUP4 ADD MSTORE PUSH3 0x227A DUP2 DUP6 PUSH3 0x221D JUMP JUMPDEST SWAP1 POP PUSH3 0x228B PUSH1 0x20 DUP4 ADD DUP5 PUSH3 0x1AC6 JUMP JUMPDEST SWAP4 SWAP3 POP POP POP JUMP JUMPDEST PUSH1 0x0 PUSH1 0x20 DUP3 ADD SWAP1 POP PUSH3 0x22A9 PUSH1 0x0 DUP4 ADD DUP5 PUSH3 0x1FBB JUMP JUMPDEST SWAP3 SWAP2 POP POP JUMP JUMPDEST PUSH1 0x0 DUP2 MLOAD SWAP1 POP PUSH3 0x22C0 DUP2 PUSH3 0x1BD6 JUMP JUMPDEST SWAP3 SWAP2 POP POP JUMP JUMPDEST PUSH1 0x0 PUSH1 0x20 DUP3 DUP5 SUB SLT ISZERO PUSH3 0x22DF JUMPI PUSH3 0x22DE PUSH3 0x1AFE JUMP JUMPDEST JUMPDEST PUSH1 0x0 PUSH3 0x22EF DUP5 DUP3 DUP6 ADD PUSH3 0x22AF JUMP JUMPDEST SWAP2 POP POP SWAP3 SWAP2 POP POP JUMP JUMPDEST PUSH32 0x62616C616E6365206973206C6F77000000000000000000000000000000000000 PUSH1 0x0 DUP3 ADD MSTORE POP JUMP JUMPDEST PUSH1 0x0 PUSH3 0x2330 PUSH1 0xE DUP4 PUSH3 0x21E0 JUMP JUMPDEST SWAP2 POP PUSH3 0x233D DUP3 PUSH3 0x22F8 JUMP JUMPDEST PUSH1 0x20 DUP3 ADD SWAP1 POP SWAP2 SWAP1 POP JUMP JUMPDEST PUSH1 0x0 PUSH1 0x20 DUP3 ADD SWAP1 POP DUP2 DUP2 SUB PUSH1 0x0 DUP4 ADD MSTORE PUSH3 0x2363 DUP2 PUSH3 0x2321 JUMP JUMPDEST SWAP1 POP SWAP2 SWAP1 POP JUMP JUMPDEST PUSH1 0x0 PUSH1 0x40 DUP3 ADD SWAP1 POP PUSH3 0x2381 PUSH1 0x0 DUP4 ADD DUP6 PUSH3 0x1FBB JUMP JUMPDEST PUSH3 0x2390 PUSH1 0x20 DUP4 ADD DUP5 PUSH3 0x1AC6 JUMP JUMPDEST SWAP4 SWAP3 POP POP POP JUMP JUMPDEST PUSH1 0x0 DUP2 ISZERO ISZERO SWAP1 POP SWAP2 SWAP1 POP JUMP JUMPDEST PUSH3 0x23AE DUP2 PUSH3 0x2397 JUMP JUMPDEST DUP2 EQ PUSH3 0x23BA JUMPI PUSH1 0x0 DUP1 REVERT JUMPDEST POP JUMP JUMPDEST PUSH1 0x0 DUP2 MLOAD SWAP1 POP PUSH3 0x23CE DUP2 PUSH3 0x23A3 JUMP JUMPDEST SWAP3 SWAP2 POP POP JUMP JUMPDEST PUSH1 0x0 PUSH1 0x20 DUP3 DUP5 SUB SLT ISZERO PUSH3 0x23ED JUMPI PUSH3 0x23EC PUSH3 0x1AFE JUMP JUMPDEST JUMPDEST PUSH1 0x0 PUSH3 0x23FD DUP5 DUP3 DUP6 ADD PUSH3 0x23BD JUMP JUMPDEST SWAP2 POP POP SWAP3 SWAP2 POP POP JUMP JUMPDEST PUSH1 0x0 PUSH3 0x2413 DUP3 PUSH3 0x1ABC JUMP JUMPDEST SWAP2 POP PUSH3 0x2420 DUP4 PUSH3 0x1ABC JUMP JUMPDEST SWAP3 POP DUP3 PUSH3 0x2433 JUMPI PUSH3 0x2432 PUSH3 0x216E JUMP JUMPDEST JUMPDEST DUP3 DUP3 MOD SWAP1 POP SWAP3 SWAP2 POP POP JUMP JUMPDEST PUSH32 0x4E487B7100000000000000000000000000000000000000000000000000000000 PUSH1 0x0 MSTORE PUSH1 0x51 PUSH1 0x4 MSTORE PUSH1 0x24 PUSH1 0x0 REVERT INVALID PUSH1 0x80 PUSH1 0x40 MSTORE PUSH1 0x40 MLOAD PUSH3 0x22DE CODESIZE SUB DUP1 PUSH3 0x22DE DUP4 CODECOPY DUP2 DUP2 ADD PUSH1 0x40 MSTORE DUP2 ADD SWAP1 PUSH3 0x29 SWAP2 SWAP1 PUSH3 0x65F JUMP JUMPDEST DUP1 MLOAD DUP3 MLOAD EQ PUSH3 0x70 JUMPI PUSH1 0x40 MLOAD PUSH32 0x8C379A000000000000000000000000000000000000000000000000000000000 DUP2 MSTORE PUSH1 0x4 ADD PUSH3 0x67 SWAP1 PUSH3 0x76B JUMP JUMPDEST PUSH1 0x40 MLOAD DUP1 SWAP2 SUB SWAP1 REVERT JUMPDEST PUSH1 0x0 DUP3 MLOAD GT PUSH3 0xB7 JUMPI PUSH1 0x40 MLOAD PUSH32 0x8C379A000000000000000000000000000000000000000000000000000000000 DUP2 MSTORE PUSH1 0x4 ADD PUSH3 0xAE SWAP1 PUSH3 0x7DD JUMP JUMPDEST PUSH1 0x40 MLOAD DUP1 SWAP2 SUB SWAP1 REVERT JUMPDEST PUSH1 0x0 JUMPDEST DUP3 MLOAD DUP2 LT ISZERO PUSH3 0x11E JUMPI PUSH3 0x110 DUP4 DUP3 DUP2 MLOAD DUP2 LT PUSH3 0xDE JUMPI PUSH3 0xDD PUSH3 0x7FF JUMP JUMPDEST JUMPDEST PUSH1 0x20 MUL PUSH1 0x20 ADD ADD MLOAD DUP4 DUP4 DUP2 MLOAD DUP2 LT PUSH3 0xFC JUMPI PUSH3 0xFB PUSH3 0x7FF JUMP JUMPDEST JUMPDEST PUSH1 0x20 MUL PUSH1 0x20 ADD ADD MLOAD PUSH3 0x127 PUSH1 0x20 SHL PUSH1 0x20 SHR JUMP JUMPDEST DUP1 DUP1 PUSH1 0x1 ADD SWAP2 POP POP PUSH3 0xBA JUMP JUMPDEST POP POP POP PUSH3 0xA89 JUMP JUMPDEST PUSH1 0x0 PUSH20 0xFFFFFFFFFFFFFFFFFFFFFFFFFFFFFFFFFFFFFFFF AND DUP3 PUSH20 0xFFFFFFFFFFFFFFFFFFFFFFFFFFFFFFFFFFFFFFFF AND SUB PUSH3 0x199 JUMPI PUSH1 0x40 MLOAD PUSH32 0x8C379A000000000000000000000000000000000000000000000000000000000 DUP2 MSTORE PUSH1 0x4 ADD PUSH3 0x190 SWAP1 PUSH3 0x8A4 JUMP JUMPDEST PUSH1 0x40 MLOAD DUP1 SWAP2 SUB SWAP1 REVERT JUMPDEST PUSH1 0x0 DUP2 GT PUSH3 0x1DF JUMPI PUSH1 0x40 MLOAD PUSH32 0x8C379A000000000000000000000000000000000000000000000000000000000 DUP2 MSTORE PUSH1 0x4 ADD PUSH3 0x1D6 SWAP1 PUSH3 0x916 JUMP JUMPDEST PUSH1 0x40 MLOAD DUP1 SWAP2 SUB SWAP1 REVERT JUMPDEST PUSH1 0x0 PUSH1 0x2 PUSH1 0x0 DUP5 PUSH20 0xFFFFFFFFFFFFFFFFFFFFFFFFFFFFFFFFFFFFFFFF AND PUSH20 0xFFFFFFFFFFFFFFFFFFFFFFFFFFFFFFFFFFFFFFFF AND DUP2 MSTORE PUSH1 0x20 ADD SWAP1 DUP2 MSTORE PUSH1 0x20 ADD PUSH1 0x0 KECCAK256 SLOAD EQ PUSH3 0x264 JUMPI PUSH1 0x40 MLOAD PUSH32 0x8C379A000000000000000000000000000000000000000000000000000000000 DUP2 MSTORE PUSH1 0x4 ADD PUSH3 0x25B SWAP1 PUSH3 0x9AE JUMP JUMPDEST PUSH1 0x40 MLOAD DUP1 SWAP2 SUB SWAP1 REVERT JUMPDEST PUSH1 0x4 DUP3 SWAP1 DUP1 PUSH1 0x1 DUP2 SLOAD ADD DUP1 DUP3 SSTORE DUP1 SWAP2 POP POP PUSH1 0x1 SWAP1 SUB SWAP1 PUSH1 0x0 MSTORE PUSH1 0x20 PUSH1 0x0 KECCAK256 ADD PUSH1 0x0 SWAP1 SWAP2 SWAP1 SWAP2 SWAP1 SWAP2 PUSH2 0x100 EXP DUP2 SLOAD DUP2 PUSH20 0xFFFFFFFFFFFFFFFFFFFFFFFFFFFFFFFFFFFFFFFF MUL NOT AND SWAP1 DUP4 PUSH20 0xFFFFFFFFFFFFFFFFFFFFFFFFFFFFFFFFFFFFFFFF AND MUL OR SWAP1 SSTORE POP DUP1 PUSH1 0x2 PUSH1 0x0 DUP5 PUSH20 0xFFFFFFFFFFFFFFFFFFFFFFFFFFFFFFFFFFFFFFFF AND PUSH20 0xFFFFFFFFFFFFFFFFFFFFFFFFFFFFFFFFFFFFFFFF AND DUP2 MSTORE PUSH1 0x20 ADD SWAP1 DUP2 MSTORE PUSH1 0x20 ADD PUSH1 0x0 KECCAK256 DUP2 SWAP1 SSTORE POP DUP1 PUSH1 0x0 SLOAD PUSH3 0x31B SWAP2 SWAP1 PUSH3 0x9FF JUMP JUMPDEST PUSH1 0x0 DUP2 SWAP1 SSTORE POP PUSH32 0x40C340F65E17194D14DDDDB073D3C9F888E3CB52B5AAE0C6C7706B4FBC905FAC DUP3 DUP3 PUSH1 0x40 MLOAD PUSH3 0x354 SWAP3 SWAP2 SWAP1 PUSH3 0xA5C JUMP JUMPDEST PUSH1 0x40 MLOAD DUP1 SWAP2 SUB SWAP1 LOG1 POP POP JUMP JUMPDEST PUSH1 0x0 PUSH1 0x40 MLOAD SWAP1 POP SWAP1 JUMP JUMPDEST PUSH1 0x0 DUP1 REVERT JUMPDEST PUSH1 0x0 DUP1 REVERT JUMPDEST PUSH1 0x0 DUP1 REVERT JUMPDEST PUSH1 0x0 PUSH1 0x1F NOT PUSH1 0x1F DUP4 ADD AND SWAP1 POP SWAP2 SWAP1 POP JUMP JUMPDEST PUSH32 0x4E487B7100000000000000000000000000000000000000000000000000000000 PUSH1 0x0 MSTORE PUSH1 0x41 PUSH1 0x4 MSTORE PUSH1 0x24 PUSH1 0x0 REVERT JUMPDEST PUSH3 0x3C4 DUP3 PUSH3 0x379 JUMP JUMPDEST DUP2 ADD DUP2 DUP2 LT PUSH8 0xFFFFFFFFFFFFFFFF DUP3 GT OR ISZERO PUSH3 0x3E6 JUMPI PUSH3 0x3E5 PUSH3 0x38A JUMP JUMPDEST JUMPDEST DUP1 PUSH1 0x40 MSTORE POP POP POP JUMP JUMPDEST PUSH1 0x0 PUSH3 0x3FB PUSH3 0x360 JUMP JUMPDEST SWAP1 POP PUSH3 0x409 DUP3 DUP3 PUSH3 0x3B9 JUMP JUMPDEST SWAP2 SWAP1 POP JUMP JUMPDEST PUSH1 0x0 PUSH8 0xFFFFFFFFFFFFFFFF DUP3 GT ISZERO PUSH3 0x42C JUMPI PUSH3 0x42B PUSH3 0x38A JUMP JUMPDEST JUMPDEST PUSH1 0x20 DUP3 MUL SWAP1 POP PUSH1 0x20 DUP2 ADD SWAP1 POP SWAP2 SWAP1 POP JUMP JUMPDEST PUSH1 0x0 DUP1 REVERT JUMPDEST PUSH1 0x0 PUSH20 0xFFFFFFFFFFFFFFFFFFFFFFFFFFFFFFFFFFFFFFFF DUP3 AND SWAP1 POP SWAP2 SWAP1 POP JUMP JUMPDEST PUSH1 0x0 PUSH3 0x46F DUP3 PUSH3 0x442 JUMP JUMPDEST SWAP1 POP SWAP2 SWAP1 POP JUMP JUMPDEST PUSH3 0x481 DUP2 PUSH3 0x462 JUMP JUMPDEST DUP2 EQ PUSH3 0x48D JUMPI PUSH1 0x0 DUP1 REVERT JUMPDEST POP JUMP JUMPDEST PUSH1 0x0 DUP2 MLOAD SWAP1 POP PUSH3 0x4A1 DUP2 PUSH3 0x476 JUMP JUMPDEST SWAP3 SWAP2 POP POP JUMP JUMPDEST PUSH1 0x0 PUSH3 0x4BE PUSH3 0x4B8 DUP5 PUSH3 0x40E JUMP JUMPDEST PUSH3 0x3EF JUMP JUMPDEST SWAP1 POP DUP1 DUP4 DUP3 MSTORE PUSH1 0x20 DUP3 ADD SWAP1 POP PUSH1 0x20 DUP5 MUL DUP4 ADD DUP6 DUP2 GT ISZERO PUSH3 0x4E4 JUMPI PUSH3 0x4E3 PUSH3 0x43D JUMP JUMPDEST JUMPDEST DUP4 JUMPDEST DUP2 DUP2 LT ISZERO PUSH3 0x511 JUMPI DUP1 PUSH3 0x4FC DUP9 DUP3 PUSH3 0x490 JUMP JUMPDEST DUP5 MSTORE PUSH1 0x20 DUP5 ADD SWAP4 POP POP PUSH1 0x20 DUP2 ADD SWAP1 POP PUSH3 0x4E6 JUMP JUMPDEST POP POP POP SWAP4 SWAP3 POP POP POP JUMP JUMPDEST PUSH1 0x0 DUP3 PUSH1 0x1F DUP4 ADD SLT PUSH3 0x533 JUMPI PUSH3 0x532 PUSH3 0x374 JUMP JUMPDEST JUMPDEST DUP2 MLOAD PUSH3 0x545 DUP5 DUP3 PUSH1 0x20 DUP7 ADD PUSH3 0x4A7 JUMP JUMPDEST SWAP2 POP POP SWAP3 SWAP2 POP POP JUMP JUMPDEST PUSH1 0x0 PUSH8 0xFFFFFFFFFFFFFFFF DUP3 GT ISZERO PUSH3 0x56C JUMPI PUSH3 0x56B PUSH3 0x38A JUMP JUMPDEST JUMPDEST PUSH1 0x20 DUP3 MUL SWAP1 POP PUSH1 0x20 DUP2 ADD SWAP1 POP SWAP2 SWAP1 POP JUMP JUMPDEST PUSH1 0x0 DUP2 SWAP1 POP SWAP2 SWAP1 POP JUMP JUMPDEST PUSH3 0x592 DUP2 PUSH3 0x57D JUMP JUMPDEST DUP2 EQ PUSH3 0x59E JUMPI PUSH1 0x0 DUP1 REVERT JUMPDEST POP JUMP JUMPDEST PUSH1 0x0 DUP2 MLOAD SWAP1 POP PUSH3 0x5B2 DUP2 PUSH3 0x587 JUMP JUMPDEST SWAP3 SWAP2 POP POP JUMP JUMPDEST PUSH1 0x0 PUSH3 0x5CF PUSH3 0x5C9 DUP5 PUSH3 0x54E JUMP JUMPDEST PUSH3 0x3EF JUMP JUMPDEST SWAP1 POP DUP1 DUP4 DUP3 MSTORE PUSH1 0x20 DUP3 ADD SWAP1 POP PUSH1 0x20 DUP5 MUL DUP4 ADD DUP6 DUP2 GT ISZERO PUSH3 0x5F5 JUMPI PUSH3 0x5F4 PUSH3 0x43D JUMP JUMPDEST JUMPDEST DUP4 JUMPDEST DUP2 DUP2 LT ISZERO PUSH3 0x622 JUMPI DUP1 PUSH3 0x60D DUP9 DUP3 PUSH3 0x5A1 JUMP JUMPDEST DUP5 MSTORE PUSH1 0x20 DUP5 ADD SWAP4 POP POP PUSH1 0x20 DUP2 ADD SWAP1 POP PUSH3 0x5F7 JUMP JUMPDEST POP POP POP SWAP4 SWAP3 POP POP POP JUMP JUMPDEST PUSH1 0x0 DUP3 PUSH1 0x1F DUP4 ADD SLT PUSH3 0x644 JUMPI PUSH3 0x643 PUSH3 0x374 JUMP JUMPDEST JUMPDEST DUP2 MLOAD PUSH3 0x656 DUP5 DUP3 PUSH1 0x20 DUP7 ADD PUSH3 0x5B8 JUMP JUMPDEST SWAP2 POP POP SWAP3 SWAP2 POP POP JUMP JUMPDEST PUSH1 0x0 DUP1 PUSH1 0x40 DUP4 DUP6 SUB SLT ISZERO PUSH3 0x679 JUMPI PUSH3 0x678 PUSH3 0x36A JUMP JUMPDEST JUMPDEST PUSH1 0x0 DUP4 ADD MLOAD PUSH8 0xFFFFFFFFFFFFFFFF DUP2 GT ISZERO PUSH3 0x69A JUMPI PUSH3 0x699 PUSH3 0x36F JUMP JUMPDEST JUMPDEST PUSH3 0x6A8 DUP6 DUP3 DUP7 ADD PUSH3 0x51B JUMP JUMPDEST SWAP3 POP POP PUSH1 0x20 DUP4 ADD MLOAD PUSH8 0xFFFFFFFFFFFFFFFF DUP2 GT ISZERO PUSH3 0x6CC JUMPI PUSH3 0x6CB PUSH3 0x36F JUMP JUMPDEST JUMPDEST PUSH3 0x6DA DUP6 DUP3 DUP7 ADD PUSH3 0x62C JUMP JUMPDEST SWAP2 POP POP SWAP3 POP SWAP3 SWAP1 POP JUMP JUMPDEST PUSH1 0x0 DUP3 DUP3 MSTORE PUSH1 0x20 DUP3 ADD SWAP1 POP SWAP3 SWAP2 POP POP JUMP JUMPDEST PUSH32 0x5061796D656E7453706C69747465723A2070617965657320616E642073686172 PUSH1 0x0 DUP3 ADD MSTORE PUSH32 0x6573206C656E677468206D69736D617463680000000000000000000000000000 PUSH1 0x20 DUP3 ADD MSTORE POP JUMP JUMPDEST PUSH1 0x0 PUSH3 0x753 PUSH1 0x32 DUP4 PUSH3 0x6E4 JUMP JUMPDEST SWAP2 POP PUSH3 0x760 DUP3 PUSH3 0x6F5 JUMP JUMPDEST PUSH1 0x40 DUP3 ADD SWAP1 POP SWAP2 SWAP1 POP JUMP JUMPDEST PUSH1 0x0 PUSH1 0x20 DUP3 ADD SWAP1 POP DUP2 DUP2 SUB PUSH1 0x0 DUP4 ADD MSTORE PUSH3 0x786 DUP2 PUSH3 0x744 JUMP JUMPDEST SWAP1 POP SWAP2 SWAP1 POP JUMP JUMPDEST PUSH32 0x5061796D656E7453706C69747465723A206E6F20706179656573000000000000 PUSH1 0x0 DUP3 ADD MSTORE POP JUMP JUMPDEST PUSH1 0x0 PUSH3 0x7C5 PUSH1 0x1A DUP4 PUSH3 0x6E4 JUMP JUMPDEST SWAP2 POP PUSH3 0x7D2 DUP3 PUSH3 0x78D JUMP JUMPDEST PUSH1 0x20 DUP3 ADD SWAP1 POP SWAP2 SWAP1 POP JUMP JUMPDEST PUSH1 0x0 PUSH1 0x20 DUP3 ADD SWAP1 POP DUP2 DUP2 SUB PUSH1 0x0 DUP4 ADD MSTORE PUSH3 0x7F8 DUP2 PUSH3 0x7B6 JUMP JUMPDEST SWAP1 POP SWAP2 SWAP1 POP JUMP JUMPDEST PUSH32 0x4E487B7100000000000000000000000000000000000000000000000000000000 PUSH1 0x0 MSTORE PUSH1 0x32 PUSH1 0x4 MSTORE PUSH1 0x24 PUSH1 0x0 REVERT JUMPDEST PUSH32 0x5061796D656E7453706C69747465723A206163636F756E742069732074686520 PUSH1 0x0 DUP3 ADD MSTORE PUSH32 0x7A65726F20616464726573730000000000000000000000000000000000000000 PUSH1 0x20 DUP3 ADD MSTORE POP JUMP JUMPDEST PUSH1 0x0 PUSH3 0x88C PUSH1 0x2C DUP4 PUSH3 0x6E4 JUMP JUMPDEST SWAP2 POP PUSH3 0x899 DUP3 PUSH3 0x82E JUMP JUMPDEST PUSH1 0x40 DUP3 ADD SWAP1 POP SWAP2 SWAP1 POP JUMP JUMPDEST PUSH1 0x0 PUSH1 0x20 DUP3 ADD SWAP1 POP DUP2 DUP2 SUB PUSH1 0x0 DUP4 ADD MSTORE PUSH3 0x8BF DUP2 PUSH3 0x87D JUMP JUMPDEST SWAP1 POP SWAP2 SWAP1 POP JUMP JUMPDEST PUSH32 0x5061796D656E7453706C69747465723A20736861726573206172652030000000 PUSH1 0x0 DUP3 ADD MSTORE POP JUMP JUMPDEST PUSH1 0x0 PUSH3 0x8FE PUSH1 0x1D DUP4 PUSH3 0x6E4 JUMP JUMPDEST SWAP2 POP PUSH3 0x90B DUP3 PUSH3 0x8C6 JUMP JUMPDEST PUSH1 0x20 DUP3 ADD SWAP1 POP SWAP2 SWAP1 POP JUMP JUMPDEST PUSH1 0x0 PUSH1 0x20 DUP3 ADD SWAP1 POP DUP2 DUP2 SUB PUSH1 0x0 DUP4 ADD MSTORE PUSH3 0x931 DUP2 PUSH3 0x8EF JUMP JUMPDEST SWAP1 POP SWAP2 SWAP1 POP JUMP JUMPDEST PUSH32 0x5061796D656E7453706C69747465723A206163636F756E7420616C7265616479 PUSH1 0x0 DUP3 ADD MSTORE PUSH32 0x2068617320736861726573000000000000000000000000000000000000000000 PUSH1 0x20 DUP3 ADD MSTORE POP JUMP JUMPDEST PUSH1 0x0 PUSH3 0x996 PUSH1 0x2B DUP4 PUSH3 0x6E4 JUMP JUMPDEST SWAP2 POP PUSH3 0x9A3 DUP3 PUSH3 0x938 JUMP JUMPDEST PUSH1 0x40 DUP3 ADD SWAP1 POP SWAP2 SWAP1 POP JUMP JUMPDEST PUSH1 0x0 PUSH1 0x20 DUP3 ADD SWAP1 POP DUP2 DUP2 SUB PUSH1 0x0 DUP4 ADD MSTORE PUSH3 0x9C9 DUP2 PUSH3 0x987 JUMP JUMPDEST SWAP1 POP SWAP2 SWAP1 POP JUMP JUMPDEST PUSH32 0x4E487B7100000000000000000000000000000000000000000000000000000000 PUSH1 0x0 MSTORE PUSH1 0x11 PUSH1 0x4 MSTORE PUSH1 0x24 PUSH1 0x0 REVERT JUMPDEST PUSH1 0x0 PUSH3 0xA0C DUP3 PUSH3 0x57D JUMP JUMPDEST SWAP2 POP PUSH3 0xA19 DUP4 PUSH3 0x57D JUMP JUMPDEST SWAP3 POP DUP3 DUP3 ADD SWAP1 POP DUP1 DUP3 GT ISZERO PUSH3 0xA34 JUMPI PUSH3 0xA33 PUSH3 0x9D0 JUMP JUMPDEST JUMPDEST SWAP3 SWAP2 POP POP JUMP JUMPDEST PUSH3 0xA45 DUP2 PUSH3 0x462 JUMP JUMPDEST DUP3 MSTORE POP POP JUMP JUMPDEST PUSH3 0xA56 DUP2 PUSH3 0x57D JUMP JUMPDEST DUP3 MSTORE POP POP JUMP JUMPDEST PUSH1 0x0 PUSH1 0x40 DUP3 ADD SWAP1 POP PUSH3 0xA73 PUSH1 0x0 DUP4 ADD DUP6 PUSH3 0xA3A JUMP JUMPDEST PUSH3 0xA82 PUSH1 0x20 DUP4 ADD DUP5 PUSH3 0xA4B JUMP JUMPDEST SWAP4 SWAP3 POP POP POP JUMP JUMPDEST PUSH2 0x1845 DUP1 PUSH3 0xA99 PUSH1 0x0 CODECOPY PUSH1 0x0 RETURN INVALID PUSH1 0x80 PUSH1 0x40 MSTORE PUSH1 0x4 CALLDATASIZE LT PUSH2 0xA0 JUMPI PUSH1 0x0 CALLDATALOAD PUSH1 0xE0 SHR DUP1 PUSH4 0x9852595C GT PUSH2 0x64 JUMPI DUP1 PUSH4 0x9852595C EQ PUSH2 0x1E3 JUMPI DUP1 PUSH4 0xA3F8EACE EQ PUSH2 0x220 JUMPI DUP1 PUSH4 0xC45AC050 EQ PUSH2 0x25D JUMPI DUP1 PUSH4 0xCE7C2AC2 EQ PUSH2 0x29A JUMPI DUP1 PUSH4 0xD79779B2 EQ PUSH2 0x2D7 JUMPI DUP1 PUSH4 0xE33B7DE3 EQ PUSH2 0x314 JUMPI PUSH2 0xE7 JUMP JUMPDEST DUP1 PUSH4 0x19165587 EQ PUSH2 0xEC JUMPI DUP1 PUSH4 0x3A98EF39 EQ PUSH2 0x115 JUMPI DUP1 PUSH4 0x406072A9 EQ PUSH2 0x140 JUMPI DUP1 PUSH4 0x48B75044 EQ PUSH2 0x17D JUMPI DUP1 PUSH4 0x8B83209B EQ PUSH2 0x1A6 JUMPI PUSH2 0xE7 JUMP JUMPDEST CALLDATASIZE PUSH2 0xE7 JUMPI PUSH32 0x6EF95F06320E7A25A04A175CA677B7052BDD97131872C2192525A629F51BE770 PUSH2 0xCE PUSH2 0x33F JUMP JUMPDEST CALLVALUE PUSH1 0x40 MLOAD PUSH2 0xDD SWAP3 SWAP2 SWAP1 PUSH2 0xE4F JUMP JUMPDEST PUSH1 0x40 MLOAD DUP1 SWAP2 SUB SWAP1 LOG1 STOP JUMPDEST PUSH1 0x0 DUP1 REVERT JUMPDEST CALLVALUE DUP1 ISZERO PUSH2 0xF8 JUMPI PUSH1 0x0 DUP1 REVERT JUMPDEST POP PUSH2 0x113 PUSH1 0x4 DUP1 CALLDATASIZE SUB DUP2 ADD SWAP1 PUSH2 0x10E SWAP2 SWAP1 PUSH2 0xEBB JUMP JUMPDEST PUSH2 0x347 JUMP JUMPDEST STOP JUMPDEST CALLVALUE DUP1 ISZERO PUSH2 0x121 JUMPI PUSH1 0x0 DUP1 REVERT JUMPDEST POP PUSH2 0x12A PUSH2 0x4C6 JUMP JUMPDEST PUSH1 0x40 MLOAD PUSH2 0x137 SWAP2 SWAP1 PUSH2 0xEE8 JUMP JUMPDEST PUSH1 0x40 MLOAD DUP1 SWAP2 SUB SWAP1 RETURN JUMPDEST CALLVALUE DUP1 ISZERO PUSH2 0x14C JUMPI PUSH1 0x0 DUP1 REVERT JUMPDEST POP PUSH2 0x167 PUSH1 0x4 DUP1 CALLDATASIZE SUB DUP2 ADD SWAP1 PUSH2 0x162 SWAP2 SWAP1 PUSH2 0xF6D JUMP JUMPDEST PUSH2 0x4CF JUMP JUMPDEST PUSH1 0x40 MLOAD PUSH2 0x174 SWAP2 SWAP1 PUSH2 0xEE8 JUMP JUMPDEST PUSH1 0x40 MLOAD DUP1 SWAP2 SUB SWAP1 RETURN JUMPDEST CALLVALUE DUP1 ISZERO PUSH2 0x189 JUMPI PUSH1 0x0 DUP1 REVERT JUMPDEST POP PUSH2 0x1A4 PUSH1 0x4 DUP1 CALLDATASIZE SUB DUP2 ADD SWAP1 PUSH2 0x19F SWAP2 SWAP1 PUSH2 0xF6D JUMP JUMPDEST PUSH2 0x556 JUMP JUMPDEST STOP JUMPDEST CALLVALUE DUP1 ISZERO PUSH2 0x1B2 JUMPI PUSH1 0x0 DUP1 REVERT JUMPDEST POP PUSH2 0x1CD PUSH1 0x4 DUP1 CALLDATASIZE SUB DUP2 ADD SWAP1 PUSH2 0x1C8 SWAP2 SWAP1 PUSH2 0xFD9 JUMP JUMPDEST PUSH2 0x769 JUMP JUMPDEST PUSH1 0x40 MLOAD PUSH2 0x1DA SWAP2 SWAP1 PUSH2 0x1006 JUMP JUMPDEST PUSH1 0x40 MLOAD DUP1 SWAP2 SUB SWAP1 RETURN JUMPDEST CALLVALUE DUP1 ISZERO PUSH2 0x1EF JUMPI PUSH1 0x0 DUP1 REVERT JUMPDEST POP PUSH2 0x20A PUSH1 0x4 DUP1 CALLDATASIZE SUB DUP2 ADD SWAP1 PUSH2 0x205 SWAP2 SWAP1 PUSH2 0x1021 JUMP JUMPDEST PUSH2 0x7B1 JUMP JUMPDEST PUSH1 0x40 MLOAD PUSH2 0x217 SWAP2 SWAP1 PUSH2 0xEE8 JUMP JUMPDEST PUSH1 0x40 MLOAD DUP1 SWAP2 SUB SWAP1 RETURN JUMPDEST CALLVALUE DUP1 ISZERO PUSH2 0x22C JUMPI PUSH1 0x0 DUP1 REVERT JUMPDEST POP PUSH2 0x247 PUSH1 0x4 DUP1 CALLDATASIZE SUB DUP2 ADD SWAP1 PUSH2 0x242 SWAP2 SWAP1 PUSH2 0x1021 JUMP JUMPDEST PUSH2 0x7FA JUMP JUMPDEST PUSH1 0x40 MLOAD PUSH2 0x254 SWAP2 SWAP1 PUSH2 0xEE8 JUMP JUMPDEST PUSH1 0x40 MLOAD DUP1 SWAP2 SUB SWAP1 RETURN JUMPDEST CALLVALUE DUP1 ISZERO PUSH2 0x269 JUMPI PUSH1 0x0 DUP1 REVERT JUMPDEST POP PUSH2 0x284 PUSH1 0x4 DUP1 CALLDATASIZE SUB DUP2 ADD SWAP1 PUSH2 0x27F SWAP2 SWAP1 PUSH2 0xF6D JUMP JUMPDEST PUSH2 0x82D JUMP JUMPDEST PUSH1 0x40 MLOAD PUSH2 0x291 SWAP2 SWAP1 PUSH2 0xEE8 JUMP JUMPDEST PUSH1 0x40 MLOAD DUP1 SWAP2 SUB SWAP1 RETURN JUMPDEST CALLVALUE DUP1 ISZERO PUSH2 0x2A6 JUMPI PUSH1 0x0 DUP1 REVERT JUMPDEST POP PUSH2 0x2C1 PUSH1 0x4 DUP1 CALLDATASIZE SUB DUP2 ADD SWAP1 PUSH2 0x2BC SWAP2 SWAP1 PUSH2 0x1021 JUMP JUMPDEST PUSH2 0x8DC JUMP JUMPDEST PUSH1 0x40 MLOAD PUSH2 0x2CE SWAP2 SWAP1 PUSH2 0xEE8 JUMP JUMPDEST PUSH1 0x40 MLOAD DUP1 SWAP2 SUB SWAP1 RETURN JUMPDEST CALLVALUE DUP1 ISZERO PUSH2 0x2E3 JUMPI PUSH1 0x0 DUP1 REVERT JUMPDEST POP PUSH2 0x2FE PUSH1 0x4 DUP1 CALLDATASIZE SUB DUP2 ADD SWAP1 PUSH2 0x2F9 SWAP2 SWAP1 PUSH2 0x104E JUMP JUMPDEST PUSH2 0x925 JUMP JUMPDEST PUSH1 0x40 MLOAD PUSH2 0x30B SWAP2 SWAP1 PUSH2 0xEE8 JUMP JUMPDEST PUSH1 0x40 MLOAD DUP1 SWAP2 SUB SWAP1 RETURN JUMPDEST CALLVALUE DUP1 ISZERO PUSH2 0x320 JUMPI PUSH1 0x0 DUP1 REVERT JUMPDEST POP PUSH2 0x329 PUSH2 0x96E JUMP JUMPDEST PUSH1 0x40 MLOAD PUSH2 0x336 SWAP2 SWAP1 PUSH2 0xEE8 JUMP JUMPDEST PUSH1 0x40 MLOAD DUP1 SWAP2 SUB SWAP1 RETURN JUMPDEST PUSH1 0x0 CALLER SWAP1 POP SWAP1 JUMP JUMPDEST PUSH1 0x0 PUSH1 0x2 PUSH1 0x0 DUP4 PUSH20 0xFFFFFFFFFFFFFFFFFFFFFFFFFFFFFFFFFFFFFFFF AND PUSH20 0xFFFFFFFFFFFFFFFFFFFFFFFFFFFFFFFFFFFFFFFF AND DUP2 MSTORE PUSH1 0x20 ADD SWAP1 DUP2 MSTORE PUSH1 0x20 ADD PUSH1 0x0 KECCAK256 SLOAD GT PUSH2 0x3C9 JUMPI PUSH1 0x40 MLOAD PUSH32 0x8C379A000000000000000000000000000000000000000000000000000000000 DUP2 MSTORE PUSH1 0x4 ADD PUSH2 0x3C0 SWAP1 PUSH2 0x10FE JUMP JUMPDEST PUSH1 0x40 MLOAD DUP1 SWAP2 SUB SWAP1 REVERT JUMPDEST PUSH1 0x0 PUSH2 0x3D4 DUP3 PUSH2 0x7FA JUMP JUMPDEST SWAP1 POP PUSH1 0x0 DUP2 SUB PUSH2 0x419 JUMPI PUSH1 0x40 MLOAD PUSH32 0x8C379A000000000000000000000000000000000000000000000000000000000 DUP2 MSTORE PUSH1 0x4 ADD PUSH2 0x410 SWAP1 PUSH2 0x1190 JUMP JUMPDEST PUSH1 0x40 MLOAD DUP1 SWAP2 SUB SWAP1 REVERT JUMPDEST DUP1 PUSH1 0x1 PUSH1 0x0 DUP3 DUP3 SLOAD PUSH2 0x42B SWAP2 SWAP1 PUSH2 0x11DF JUMP JUMPDEST SWAP3 POP POP DUP2 SWAP1 SSTORE POP DUP1 PUSH1 0x3 PUSH1 0x0 DUP5 PUSH20 0xFFFFFFFFFFFFFFFFFFFFFFFFFFFFFFFFFFFFFFFF AND PUSH20 0xFFFFFFFFFFFFFFFFFFFFFFFFFFFFFFFFFFFFFFFF AND DUP2 MSTORE PUSH1 0x20 ADD SWAP1 DUP2 MSTORE PUSH1 0x20 ADD PUSH1 0x0 KECCAK256 PUSH1 0x0 DUP3 DUP3 SLOAD ADD SWAP3 POP POP DUP2 SWAP1 SSTORE POP PUSH2 0x489 DUP3 DUP3 PUSH2 0x978 JUMP JUMPDEST PUSH32 0xDF20FD1E76BC69D672E4814FAFB2C449BBA3A5369D8359ADF9E05E6FDE87B056 DUP3 DUP3 PUSH1 0x40 MLOAD PUSH2 0x4BA SWAP3 SWAP2 SWAP1 PUSH2 0x1272 JUMP JUMPDEST PUSH1 0x40 MLOAD DUP1 SWAP2 SUB SWAP1 LOG1 POP POP JUMP JUMPDEST PUSH1 0x0 DUP1 SLOAD SWAP1 POP SWAP1 JUMP JUMPDEST PUSH1 0x0 PUSH1 0x6 PUSH1 0x0 DUP5 PUSH20 0xFFFFFFFFFFFFFFFFFFFFFFFFFFFFFFFFFFFFFFFF AND PUSH20 0xFFFFFFFFFFFFFFFFFFFFFFFFFFFFFFFFFFFFFFFF AND DUP2 MSTORE PUSH1 0x20 ADD SWAP1 DUP2 MSTORE PUSH1 0x20 ADD PUSH1 0x0 KECCAK256 PUSH1 0x0 DUP4 PUSH20 0xFFFFFFFFFFFFFFFFFFFFFFFFFFFFFFFFFFFFFFFF AND PUSH20 0xFFFFFFFFFFFFFFFFFFFFFFFFFFFFFFFFFFFFFFFF AND DUP2 MSTORE PUSH1 0x20 ADD SWAP1 DUP2 MSTORE PUSH1 0x20 ADD PUSH1 0x0 KECCAK256 SLOAD SWAP1 POP SWAP3 SWAP2 POP POP JUMP JUMPDEST PUSH1 0x0 PUSH1 0x2 PUSH1 0x0 DUP4 PUSH20 0xFFFFFFFFFFFFFFFFFFFFFFFFFFFFFFFFFFFFFFFF AND PUSH20 0xFFFFFFFFFFFFFFFFFFFFFFFFFFFFFFFFFFFFFFFF AND DUP2 MSTORE PUSH1 0x20 ADD SWAP1 DUP2 MSTORE PUSH1 0x20 ADD PUSH1 0x0 KECCAK256 SLOAD GT PUSH2 0x5D8 JUMPI PUSH1 0x40 MLOAD PUSH32 0x8C379A000000000000000000000000000000000000000000000000000000000 DUP2 MSTORE PUSH1 0x4 ADD PUSH2 0x5CF SWAP1 PUSH2 0x10FE JUMP JUMPDEST PUSH1 0x40 MLOAD DUP1 SWAP2 SUB SWAP1 REVERT JUMPDEST PUSH1 0x0 PUSH2 0x5E4 DUP4 DUP4 PUSH2 0x82D JUMP JUMPDEST SWAP1 POP PUSH1 0x0 DUP2 SUB PUSH2 0x629 JUMPI PUSH1 0x40 MLOAD PUSH32 0x8C379A000000000000000000000000000000000000000000000000000000000 DUP2 MSTORE PUSH1 0x4 ADD PUSH2 0x620 SWAP1 PUSH2 0x1190 JUMP JUMPDEST PUSH1 0x40 MLOAD DUP1 SWAP2 SUB SWAP1 REVERT JUMPDEST DUP1 PUSH1 0x5 PUSH1 0x0 DUP6 PUSH20 0xFFFFFFFFFFFFFFFFFFFFFFFFFFFFFFFFFFFFFFFF AND PUSH20 0xFFFFFFFFFFFFFFFFFFFFFFFFFFFFFFFFFFFFFFFF AND DUP2 MSTORE PUSH1 0x20 ADD SWAP1 DUP2 MSTORE PUSH1 0x20 ADD PUSH1 0x0 KECCAK256 PUSH1 0x0 DUP3 DUP3 SLOAD PUSH2 0x678 SWAP2 SWAP1 PUSH2 0x11DF JUMP JUMPDEST SWAP3 POP POP DUP2 SWAP1 SSTORE POP DUP1 PUSH1 0x6 PUSH1 0x0 DUP6 PUSH20 0xFFFFFFFFFFFFFFFFFFFFFFFFFFFFFFFFFFFFFFFF AND PUSH20 0xFFFFFFFFFFFFFFFFFFFFFFFFFFFFFFFFFFFFFFFF AND DUP2 MSTORE PUSH1 0x20 ADD SWAP1 DUP2 MSTORE PUSH1 0x20 ADD PUSH1 0x0 KECCAK256 PUSH1 0x0 DUP5 PUSH20 0xFFFFFFFFFFFFFFFFFFFFFFFFFFFFFFFFFFFFFFFF AND PUSH20 0xFFFFFFFFFFFFFFFFFFFFFFFFFFFFFFFFFFFFFFFF AND DUP2 MSTORE PUSH1 0x20 ADD SWAP1 DUP2 MSTORE PUSH1 0x20 ADD PUSH1 0x0 KECCAK256 PUSH1 0x0 DUP3 DUP3 SLOAD ADD SWAP3 POP POP DUP2 SWAP1 SSTORE POP PUSH2 0x714 DUP4 DUP4 DUP4 PUSH2 0xA6C JUMP JUMPDEST DUP3 PUSH20 0xFFFFFFFFFFFFFFFFFFFFFFFFFFFFFFFFFFFFFFFF AND PUSH32 0x3BE5B7A71E84ED12875D241991C70855AC5817D847039E17A9D895C1CEB0F18A DUP4 DUP4 PUSH1 0x40 MLOAD PUSH2 0x75C SWAP3 SWAP2 SWAP1 PUSH2 0xE4F JUMP JUMPDEST PUSH1 0x40 MLOAD DUP1 SWAP2 SUB SWAP1 LOG2 POP POP POP JUMP JUMPDEST PUSH1 0x0 PUSH1 0x4 DUP3 DUP2 SLOAD DUP2 LT PUSH2 0x77F JUMPI PUSH2 0x77E PUSH2 0x129B JUMP JUMPDEST JUMPDEST SWAP1 PUSH1 0x0 MSTORE PUSH1 0x20 PUSH1 0x0 KECCAK256 ADD PUSH1 0x0 SWAP1 SLOAD SWAP1 PUSH2 0x100 EXP SWAP1 DIV PUSH20 0xFFFFFFFFFFFFFFFFFFFFFFFFFFFFFFFFFFFFFFFF AND SWAP1 POP SWAP2 SWAP1 POP JUMP JUMPDEST PUSH1 0x0 PUSH1 0x3 PUSH1 0x0 DUP4 PUSH20 0xFFFFFFFFFFFFFFFFFFFFFFFFFFFFFFFFFFFFFFFF AND PUSH20 0xFFFFFFFFFFFFFFFFFFFFFFFFFFFFFFFFFFFFFFFF AND DUP2 MSTORE PUSH1 0x20 ADD SWAP1 DUP2 MSTORE PUSH1 0x20 ADD PUSH1 0x0 KECCAK256 SLOAD SWAP1 POP SWAP2 SWAP1 POP JUMP JUMPDEST PUSH1 0x0 DUP1 PUSH2 0x805 PUSH2 0x96E JUMP JUMPDEST SELFBALANCE PUSH2 0x810 SWAP2 SWAP1 PUSH2 0x11DF JUMP JUMPDEST SWAP1 POP PUSH2 0x825 DUP4 DUP3 PUSH2 0x820 DUP7 PUSH2 0x7B1 JUMP JUMPDEST PUSH2 0xAF2 JUMP JUMPDEST SWAP2 POP POP SWAP2 SWAP1 POP JUMP JUMPDEST PUSH1 0x0 DUP1 PUSH2 0x839 DUP5 PUSH2 0x925 JUMP JUMPDEST DUP5 PUSH20 0xFFFFFFFFFFFFFFFFFFFFFFFFFFFFFFFFFFFFFFFF AND PUSH4 0x70A08231 ADDRESS PUSH1 0x40 MLOAD DUP3 PUSH4 0xFFFFFFFF AND PUSH1 0xE0 SHL DUP2 MSTORE PUSH1 0x4 ADD PUSH2 0x872 SWAP2 SWAP1 PUSH2 0x1006 JUMP JUMPDEST PUSH1 0x20 PUSH1 0x40 MLOAD DUP1 DUP4 SUB DUP2 DUP7 GAS STATICCALL ISZERO DUP1 ISZERO PUSH2 0x88F JUMPI RETURNDATASIZE PUSH1 0x0 DUP1 RETURNDATACOPY RETURNDATASIZE PUSH1 0x0 REVERT JUMPDEST POP POP POP POP PUSH1 0x40 MLOAD RETURNDATASIZE PUSH1 0x1F NOT PUSH1 0x1F DUP3 ADD AND DUP3 ADD DUP1 PUSH1 0x40 MSTORE POP DUP2 ADD SWAP1 PUSH2 0x8B3 SWAP2 SWAP1 PUSH2 0x12DF JUMP JUMPDEST PUSH2 0x8BD SWAP2 SWAP1 PUSH2 0x11DF JUMP JUMPDEST SWAP1 POP PUSH2 0x8D3 DUP4 DUP3 PUSH2 0x8CE DUP8 DUP8 PUSH2 0x4CF JUMP JUMPDEST PUSH2 0xAF2 JUMP JUMPDEST SWAP2 POP POP SWAP3 SWAP2 POP POP JUMP JUMPDEST PUSH1 0x0 PUSH1 0x2 PUSH1 0x0 DUP4 PUSH20 0xFFFFFFFFFFFFFFFFFFFFFFFFFFFFFFFFFFFFFFFF AND PUSH20 0xFFFFFFFFFFFFFFFFFFFFFFFFFFFFFFFFFFFFFFFF AND DUP2 MSTORE PUSH1 0x20 ADD SWAP1 DUP2 MSTORE PUSH1 0x20 ADD PUSH1 0x0 KECCAK256 SLOAD SWAP1 POP SWAP2 SWAP1 POP JUMP JUMPDEST PUSH1 0x0 PUSH1 0x5 PUSH1 0x0 DUP4 PUSH20 0xFFFFFFFFFFFFFFFFFFFFFFFFFFFFFFFFFFFFFFFF AND PUSH20 0xFFFFFFFFFFFFFFFFFFFFFFFFFFFFFFFFFFFFFFFF AND DUP2 MSTORE PUSH1 0x20 ADD SWAP1 DUP2 MSTORE PUSH1 0x20 ADD PUSH1 0x0 KECCAK256 SLOAD SWAP1 POP SWAP2 SWAP1 POP JUMP JUMPDEST PUSH1 0x0 PUSH1 0x1 SLOAD SWAP1 POP SWAP1 JUMP JUMPDEST DUP1 SELFBALANCE LT ISZERO PUSH2 0x9BB JUMPI PUSH1 0x40 MLOAD PUSH32 0x8C379A000000000000000000000000000000000000000000000000000000000 DUP2 MSTORE PUSH1 0x4 ADD PUSH2 0x9B2 SWAP1 PUSH2 0x1358 JUMP JUMPDEST PUSH1 0x40 MLOAD DUP1 SWAP2 SUB SWAP1 REVERT JUMPDEST PUSH1 0x0 DUP3 PUSH20 0xFFFFFFFFFFFFFFFFFFFFFFFFFFFFFFFFFFFFFFFF AND DUP3 PUSH1 0x40 MLOAD PUSH2 0x9E1 SWAP1 PUSH2 0x13A9 JUMP JUMPDEST PUSH1 0x0 PUSH1 0x40 MLOAD DUP1 DUP4 SUB DUP2 DUP6 DUP8 GAS CALL SWAP3 POP POP POP RETURNDATASIZE DUP1 PUSH1 0x0 DUP2 EQ PUSH2 0xA1E JUMPI PUSH1 0x40 MLOAD SWAP2 POP PUSH1 0x1F NOT PUSH1 0x3F RETURNDATASIZE ADD AND DUP3 ADD PUSH1 0x40 MSTORE RETURNDATASIZE DUP3 MSTORE RETURNDATASIZE PUSH1 0x0 PUSH1 0x20 DUP5 ADD RETURNDATACOPY PUSH2 0xA23 JUMP JUMPDEST PUSH1 0x60 SWAP2 POP JUMPDEST POP POP SWAP1 POP DUP1 PUSH2 0xA67 JUMPI PUSH1 0x40 MLOAD PUSH32 0x8C379A000000000000000000000000000000000000000000000000000000000 DUP2 MSTORE PUSH1 0x4 ADD PUSH2 0xA5E SWAP1 PUSH2 0x1430 JUMP JUMPDEST PUSH1 0x40 MLOAD DUP1 SWAP2 SUB SWAP1 REVERT JUMPDEST POP POP POP JUMP JUMPDEST PUSH2 0xAED DUP4 PUSH4 0xA9059CBB PUSH1 0xE0 SHL DUP5 DUP5 PUSH1 0x40 MLOAD PUSH1 0x24 ADD PUSH2 0xA8B SWAP3 SWAP2 SWAP1 PUSH2 0xE4F JUMP JUMPDEST PUSH1 0x40 MLOAD PUSH1 0x20 DUP2 DUP4 SUB SUB DUP2 MSTORE SWAP1 PUSH1 0x40 MSTORE SWAP1 PUSH28 0xFFFFFFFFFFFFFFFFFFFFFFFFFFFFFFFFFFFFFFFFFFFFFFFFFFFFFFFF NOT AND PUSH1 0x20 DUP3 ADD DUP1 MLOAD PUSH28 0xFFFFFFFFFFFFFFFFFFFFFFFFFFFFFFFFFFFFFFFFFFFFFFFFFFFFFFFF DUP4 DUP2 DUP4 AND OR DUP4 MSTORE POP POP POP POP PUSH2 0xB60 JUMP JUMPDEST POP POP POP JUMP JUMPDEST PUSH1 0x0 DUP2 PUSH1 0x0 SLOAD PUSH1 0x2 PUSH1 0x0 DUP8 PUSH20 0xFFFFFFFFFFFFFFFFFFFFFFFFFFFFFFFFFFFFFFFF AND PUSH20 0xFFFFFFFFFFFFFFFFFFFFFFFFFFFFFFFFFFFFFFFF AND DUP2 MSTORE PUSH1 0x20 ADD SWAP1 DUP2 MSTORE PUSH1 0x20 ADD PUSH1 0x0 KECCAK256 SLOAD DUP6 PUSH2 0xB43 SWAP2 SWAP1 PUSH2 0x1450 JUMP JUMPDEST PUSH2 0xB4D SWAP2 SWAP1 PUSH2 0x14C1 JUMP JUMPDEST PUSH2 0xB57 SWAP2 SWAP1 PUSH2 0x14F2 JUMP JUMPDEST SWAP1 POP SWAP4 SWAP3 POP POP POP JUMP JUMPDEST PUSH1 0x0 PUSH2 0xBC2 DUP3 PUSH1 0x40 MLOAD DUP1 PUSH1 0x40 ADD PUSH1 0x40 MSTORE DUP1 PUSH1 0x20 DUP2 MSTORE PUSH1 0x20 ADD PUSH32 0x5361666545524332303A206C6F772D6C6576656C2063616C6C206661696C6564 DUP2 MSTORE POP DUP6 PUSH20 0xFFFFFFFFFFFFFFFFFFFFFFFFFFFFFFFFFFFFFFFF AND PUSH2 0xC28 SWAP1 SWAP3 SWAP2 SWAP1 PUSH4 0xFFFFFFFF AND JUMP JUMPDEST SWAP1 POP PUSH1 0x0 DUP2 MLOAD EQ DUP1 PUSH2 0xBE4 JUMPI POP DUP1 DUP1 PUSH1 0x20 ADD SWAP1 MLOAD DUP2 ADD SWAP1 PUSH2 0xBE3 SWAP2 SWAP1 PUSH2 0x155E JUMP JUMPDEST JUMPDEST PUSH2 0xC23 JUMPI PUSH1 0x40 MLOAD PUSH32 0x8C379A000000000000000000000000000000000000000000000000000000000 DUP2 MSTORE PUSH1 0x4 ADD PUSH2 0xC1A SWAP1 PUSH2 0x15FD JUMP JUMPDEST PUSH1 0x40 MLOAD DUP1 SWAP2 SUB SWAP1 REVERT JUMPDEST POP POP POP JUMP JUMPDEST PUSH1 0x60 PUSH2 0xC37 DUP5 DUP5 PUSH1 0x0 DUP6 PUSH2 0xC40 JUMP JUMPDEST SWAP1 POP SWAP4 SWAP3 POP POP POP JUMP JUMPDEST PUSH1 0x60 DUP3 SELFBALANCE LT ISZERO PUSH2 0xC85 JUMPI PUSH1 0x40 MLOAD PUSH32 0x8C379A000000000000000000000000000000000000000000000000000000000 DUP2 MSTORE PUSH1 0x4 ADD PUSH2 0xC7C SWAP1 PUSH2 0x168F JUMP JUMPDEST PUSH1 0x40 MLOAD DUP1 SWAP2 SUB SWAP1 REVERT JUMPDEST PUSH1 0x0 DUP1 DUP7 PUSH20 0xFFFFFFFFFFFFFFFFFFFFFFFFFFFFFFFFFFFFFFFF AND DUP6 DUP8 PUSH1 0x40 MLOAD PUSH2 0xCAE SWAP2 SWAP1 PUSH2 0x1715 JUMP JUMPDEST PUSH1 0x0 PUSH1 0x40 MLOAD DUP1 DUP4 SUB DUP2 DUP6 DUP8 GAS CALL SWAP3 POP POP POP RETURNDATASIZE DUP1 PUSH1 0x0 DUP2 EQ PUSH2 0xCEB JUMPI PUSH1 0x40 MLOAD SWAP2 POP PUSH1 0x1F NOT PUSH1 0x3F RETURNDATASIZE ADD AND DUP3 ADD PUSH1 0x40 MSTORE RETURNDATASIZE DUP3 MSTORE RETURNDATASIZE PUSH1 0x0 PUSH1 0x20 DUP5 ADD RETURNDATACOPY PUSH2 0xCF0 JUMP JUMPDEST PUSH1 0x60 SWAP2 POP JUMPDEST POP SWAP2 POP SWAP2 POP PUSH2 0xD01 DUP8 DUP4 DUP4 DUP8 PUSH2 0xD0D JUMP JUMPDEST SWAP3 POP POP POP SWAP5 SWAP4 POP POP POP POP JUMP JUMPDEST PUSH1 0x60 DUP4 ISZERO PUSH2 0xD6F JUMPI PUSH1 0x0 DUP4 MLOAD SUB PUSH2 0xD67 JUMPI PUSH2 0xD27 DUP6 PUSH2 0xD82 JUMP JUMPDEST PUSH2 0xD66 JUMPI PUSH1 0x40 MLOAD PUSH32 0x8C379A000000000000000000000000000000000000000000000000000000000 DUP2 MSTORE PUSH1 0x4 ADD PUSH2 0xD5D SWAP1 PUSH2 0x1778 JUMP JUMPDEST PUSH1 0x40 MLOAD DUP1 SWAP2 SUB SWAP1 REVERT JUMPDEST JUMPDEST DUP3 SWAP1 POP PUSH2 0xD7A JUMP JUMPDEST PUSH2 0xD79 DUP4 DUP4 PUSH2 0xDA5 JUMP JUMPDEST JUMPDEST SWAP5 SWAP4 POP POP POP POP JUMP JUMPDEST PUSH1 0x0 DUP1 DUP3 PUSH20 0xFFFFFFFFFFFFFFFFFFFFFFFFFFFFFFFFFFFFFFFF AND EXTCODESIZE GT SWAP1 POP SWAP2 SWAP1 POP JUMP JUMPDEST PUSH1 0x0 DUP3 MLOAD GT ISZERO PUSH2 0xDB8 JUMPI DUP2 MLOAD DUP1 DUP4 PUSH1 0x20 ADD REVERT JUMPDEST DUP1 PUSH1 0x40 MLOAD PUSH32 0x8C379A000000000000000000000000000000000000000000000000000000000 DUP2 MSTORE PUSH1 0x4 ADD PUSH2 0xDEC SWAP2 SWAP1 PUSH2 0x17ED JUMP JUMPDEST PUSH1 0x40 MLOAD DUP1 SWAP2 SUB SWAP1 REVERT JUMPDEST PUSH1 0x0 PUSH20 0xFFFFFFFFFFFFFFFFFFFFFFFFFFFFFFFFFFFFFFFF DUP3 AND SWAP1 POP SWAP2 SWAP1 POP JUMP JUMPDEST PUSH1 0x0 PUSH2 0xE20 DUP3 PUSH2 0xDF5 JUMP JUMPDEST SWAP1 POP SWAP2 SWAP1 POP JUMP JUMPDEST PUSH2 0xE30 DUP2 PUSH2 0xE15 JUMP JUMPDEST DUP3 MSTORE POP POP JUMP JUMPDEST PUSH1 0x0 DUP2 SWAP1 POP SWAP2 SWAP1 POP JUMP JUMPDEST PUSH2 0xE49 DUP2 PUSH2 0xE36 JUMP JUMPDEST DUP3 MSTORE POP POP JUMP JUMPDEST PUSH1 0x0 PUSH1 0x40 DUP3 ADD SWAP1 POP PUSH2 0xE64 PUSH1 0x0 DUP4 ADD DUP6 PUSH2 0xE27 JUMP JUMPDEST PUSH2 0xE71 PUSH1 0x20 DUP4 ADD DUP5 PUSH2 0xE40 JUMP JUMPDEST SWAP4 SWAP3 POP POP POP JUMP JUMPDEST PUSH1 0x0 DUP1 REVERT JUMPDEST PUSH1 0x0 PUSH2 0xE88 DUP3 PUSH2 0xDF5 JUMP JUMPDEST SWAP1 POP SWAP2 SWAP1 POP JUMP JUMPDEST PUSH2 0xE98 DUP2 PUSH2 0xE7D JUMP JUMPDEST DUP2 EQ PUSH2 0xEA3 JUMPI PUSH1 0x0 DUP1 REVERT JUMPDEST POP JUMP JUMPDEST PUSH1 0x0 DUP2 CALLDATALOAD SWAP1 POP PUSH2 0xEB5 DUP2 PUSH2 0xE8F JUMP JUMPDEST SWAP3 SWAP2 POP POP JUMP JUMPDEST PUSH1 0x0 PUSH1 0x20 DUP3 DUP5 SUB SLT ISZERO PUSH2 0xED1 JUMPI PUSH2 0xED0 PUSH2 0xE78 JUMP JUMPDEST JUMPDEST PUSH1 0x0 PUSH2 0xEDF DUP5 DUP3 DUP6 ADD PUSH2 0xEA6 JUMP JUMPDEST SWAP2 POP POP SWAP3 SWAP2 POP POP JUMP JUMPDEST PUSH1 0x0 PUSH1 0x20 DUP3 ADD SWAP1 POP PUSH2 0xEFD PUSH1 0x0 DUP4 ADD DUP5 PUSH2 0xE40 JUMP JUMPDEST SWAP3 SWAP2 POP POP JUMP JUMPDEST PUSH1 0x0 PUSH2 0xF0E DUP3 PUSH2 0xE15 JUMP JUMPDEST SWAP1 POP SWAP2 SWAP1 POP JUMP JUMPDEST PUSH2 0xF1E DUP2 PUSH2 0xF03 JUMP JUMPDEST DUP2 EQ PUSH2 0xF29 JUMPI PUSH1 0x0 DUP1 REVERT JUMPDEST POP JUMP JUMPDEST PUSH1 0x0 DUP2 CALLDATALOAD SWAP1 POP PUSH2 0xF3B DUP2 PUSH2 0xF15 JUMP JUMPDEST SWAP3 SWAP2 POP POP JUMP JUMPDEST PUSH2 0xF4A DUP2 PUSH2 0xE15 JUMP JUMPDEST DUP2 EQ PUSH2 0xF55 JUMPI PUSH1 0x0 DUP1 REVERT JUMPDEST POP JUMP JUMPDEST PUSH1 0x0 DUP2 CALLDATALOAD SWAP1 POP PUSH2 0xF67 DUP2 PUSH2 0xF41 JUMP JUMPDEST SWAP3 SWAP2 POP POP JUMP JUMPDEST PUSH1 0x0 DUP1 PUSH1 0x40 DUP4 DUP6 SUB SLT ISZERO PUSH2 0xF84 JUMPI PUSH2 0xF83 PUSH2 0xE78 JUMP JUMPDEST JUMPDEST PUSH1 0x0 PUSH2 0xF92 DUP6 DUP3 DUP7 ADD PUSH2 0xF2C JUMP JUMPDEST SWAP3 POP POP PUSH1 0x20 PUSH2 0xFA3 DUP6 DUP3 DUP7 ADD PUSH2 0xF58 JUMP JUMPDEST SWAP2 POP POP SWAP3 POP SWAP3 SWAP1 POP JUMP JUMPDEST PUSH2 0xFB6 DUP2 PUSH2 0xE36 JUMP JUMPDEST DUP2 EQ PUSH2 0xFC1 JUMPI PUSH1 0x0 DUP1 REVERT JUMPDEST POP JUMP JUMPDEST PUSH1 0x0 DUP2 CALLDATALOAD SWAP1 POP PUSH2 0xFD3 DUP2 PUSH2 0xFAD JUMP JUMPDEST SWAP3 SWAP2 POP POP JUMP JUMPDEST PUSH1 0x0 PUSH1 0x20 DUP3 DUP5 SUB SLT ISZERO PUSH2 0xFEF JUMPI PUSH2 0xFEE PUSH2 0xE78 JUMP JUMPDEST JUMPDEST PUSH1 0x0 PUSH2 0xFFD DUP5 DUP3 DUP6 ADD PUSH2 0xFC4 JUMP JUMPDEST SWAP2 POP POP SWAP3 SWAP2 POP POP JUMP JUMPDEST PUSH1 0x0 PUSH1 0x20 DUP3 ADD SWAP1 POP PUSH2 0x101B PUSH1 0x0 DUP4 ADD DUP5 PUSH2 0xE27 JUMP JUMPDEST SWAP3 SWAP2 POP POP JUMP JUMPDEST PUSH1 0x0 PUSH1 0x20 DUP3 DUP5 SUB SLT ISZERO PUSH2 0x1037 JUMPI PUSH2 0x1036 PUSH2 0xE78 JUMP JUMPDEST JUMPDEST PUSH1 0x0 PUSH2 0x1045 DUP5 DUP3 DUP6 ADD PUSH2 0xF58 JUMP JUMPDEST SWAP2 POP POP SWAP3 SWAP2 POP POP JUMP JUMPDEST PUSH1 0x0 PUSH1 0x20 DUP3 DUP5 SUB SLT ISZERO PUSH2 0x1064 JUMPI PUSH2 0x1063 PUSH2 0xE78 JUMP JUMPDEST JUMPDEST PUSH1 0x0 PUSH2 0x1072 DUP5 DUP3 DUP6 ADD PUSH2 0xF2C JUMP JUMPDEST SWAP2 POP POP SWAP3 SWAP2 POP POP JUMP JUMPDEST PUSH1 0x0 DUP3 DUP3 MSTORE PUSH1 0x20 DUP3 ADD SWAP1 POP SWAP3 SWAP2 POP POP JUMP JUMPDEST PUSH32 0x5061796D656E7453706C69747465723A206163636F756E7420686173206E6F20 PUSH1 0x0 DUP3 ADD MSTORE PUSH32 0x7368617265730000000000000000000000000000000000000000000000000000 PUSH1 0x20 DUP3 ADD MSTORE POP JUMP JUMPDEST PUSH1 0x0 PUSH2 0x10E8 PUSH1 0x26 DUP4 PUSH2 0x107B JUMP JUMPDEST SWAP2 POP PUSH2 0x10F3 DUP3 PUSH2 0x108C JUMP JUMPDEST PUSH1 0x40 DUP3 ADD SWAP1 POP SWAP2 SWAP1 POP JUMP JUMPDEST PUSH1 0x0 PUSH1 0x20 DUP3 ADD SWAP1 POP DUP2 DUP2 SUB PUSH1 0x0 DUP4 ADD MSTORE PUSH2 0x1117 DUP2 PUSH2 0x10DB JUMP JUMPDEST SWAP1 POP SWAP2 SWAP1 POP JUMP JUMPDEST PUSH32 0x5061796D656E7453706C69747465723A206163636F756E74206973206E6F7420 PUSH1 0x0 DUP3 ADD MSTORE PUSH32 0x647565207061796D656E74000000000000000000000000000000000000000000 PUSH1 0x20 DUP3 ADD MSTORE POP JUMP JUMPDEST PUSH1 0x0 PUSH2 0x117A PUSH1 0x2B DUP4 PUSH2 0x107B JUMP JUMPDEST SWAP2 POP PUSH2 0x1185 DUP3 PUSH2 0x111E JUMP JUMPDEST PUSH1 0x40 DUP3 ADD SWAP1 POP SWAP2 SWAP1 POP JUMP JUMPDEST PUSH1 0x0 PUSH1 0x20 DUP3 ADD SWAP1 POP DUP2 DUP2 SUB PUSH1 0x0 DUP4 ADD MSTORE PUSH2 0x11A9 DUP2 PUSH2 0x116D JUMP JUMPDEST SWAP1 POP SWAP2 SWAP1 POP JUMP JUMPDEST PUSH32 0x4E487B7100000000000000000000000000000000000000000000000000000000 PUSH1 0x0 MSTORE PUSH1 0x11 PUSH1 0x4 MSTORE PUSH1 0x24 PUSH1 0x0 REVERT JUMPDEST PUSH1 0x0 PUSH2 0x11EA DUP3 PUSH2 0xE36 JUMP JUMPDEST SWAP2 POP PUSH2 0x11F5 DUP4 PUSH2 0xE36 JUMP JUMPDEST SWAP3 POP DUP3 DUP3 ADD SWAP1 POP DUP1 DUP3 GT ISZERO PUSH2 0x120D JUMPI PUSH2 0x120C PUSH2 0x11B0 JUMP JUMPDEST JUMPDEST SWAP3 SWAP2 POP POP JUMP JUMPDEST PUSH1 0x0 DUP2 SWAP1 POP SWAP2 SWAP1 POP JUMP JUMPDEST PUSH1 0x0 PUSH2 0x1238 PUSH2 0x1233 PUSH2 0x122E DUP5 PUSH2 0xDF5 JUMP JUMPDEST PUSH2 0x1213 JUMP JUMPDEST PUSH2 0xDF5 JUMP JUMPDEST SWAP1 POP SWAP2 SWAP1 POP JUMP JUMPDEST PUSH1 0x0 PUSH2 0x124A DUP3 PUSH2 0x121D JUMP JUMPDEST SWAP1 POP SWAP2 SWAP1 POP JUMP JUMPDEST PUSH1 0x0 PUSH2 0x125C DUP3 PUSH2 0x123F JUMP JUMPDEST SWAP1 POP SWAP2 SWAP1 POP JUMP JUMPDEST PUSH2 0x126C DUP2 PUSH2 0x1251 JUMP JUMPDEST DUP3 MSTORE POP POP JUMP JUMPDEST PUSH1 0x0 PUSH1 0x40 DUP3 ADD SWAP1 POP PUSH2 0x1287 PUSH1 0x0 DUP4 ADD DUP6 PUSH2 0x1263 JUMP JUMPDEST PUSH2 0x1294 PUSH1 0x20 DUP4 ADD DUP5 PUSH2 0xE40 JUMP JUMPDEST SWAP4 SWAP3 POP POP POP JUMP JUMPDEST PUSH32 0x4E487B7100000000000000000000000000000000000000000000000000000000 PUSH1 0x0 MSTORE PUSH1 0x32 PUSH1 0x4 MSTORE PUSH1 0x24 PUSH1 0x0 REVERT JUMPDEST PUSH1 0x0 DUP2 MLOAD SWAP1 POP PUSH2 0x12D9 DUP2 PUSH2 0xFAD JUMP JUMPDEST SWAP3 SWAP2 POP POP JUMP JUMPDEST PUSH1 0x0 PUSH1 0x20 DUP3 DUP5 SUB SLT ISZERO PUSH2 0x12F5 JUMPI PUSH2 0x12F4 PUSH2 0xE78 JUMP JUMPDEST JUMPDEST PUSH1 0x0 PUSH2 0x1303 DUP5 DUP3 DUP6 ADD PUSH2 0x12CA JUMP JUMPDEST SWAP2 POP POP SWAP3 SWAP2 POP POP JUMP JUMPDEST PUSH32 0x416464726573733A20696E73756666696369656E742062616C616E6365000000 PUSH1 0x0 DUP3 ADD MSTORE POP JUMP JUMPDEST PUSH1 0x0 PUSH2 0x1342 PUSH1 0x1D DUP4 PUSH2 0x107B JUMP JUMPDEST SWAP2 POP PUSH2 0x134D DUP3 PUSH2 0x130C JUMP JUMPDEST PUSH1 0x20 DUP3 ADD SWAP1 POP SWAP2 SWAP1 POP JUMP JUMPDEST PUSH1 0x0 PUSH1 0x20 DUP3 ADD SWAP1 POP DUP2 DUP2 SUB PUSH1 0x0 DUP4 ADD MSTORE PUSH2 0x1371 DUP2 PUSH2 0x1335 JUMP JUMPDEST SWAP1 POP SWAP2 SWAP1 POP JUMP JUMPDEST PUSH1 0x0 DUP2 SWAP1 POP SWAP3 SWAP2 POP POP JUMP JUMPDEST POP JUMP JUMPDEST PUSH1 0x0 PUSH2 0x1393 PUSH1 0x0 DUP4 PUSH2 0x1378 JUMP JUMPDEST SWAP2 POP PUSH2 0x139E DUP3 PUSH2 0x1383 JUMP JUMPDEST PUSH1 0x0 DUP3 ADD SWAP1 POP SWAP2 SWAP1 POP JUMP JUMPDEST PUSH1 0x0 PUSH2 0x13B4 DUP3 PUSH2 0x1386 JUMP JUMPDEST SWAP2 POP DUP2 SWAP1 POP SWAP2 SWAP1 POP JUMP JUMPDEST PUSH32 0x416464726573733A20756E61626C6520746F2073656E642076616C75652C2072 PUSH1 0x0 DUP3 ADD MSTORE PUSH32 0x6563697069656E74206D61792068617665207265766572746564000000000000 PUSH1 0x20 DUP3 ADD MSTORE POP JUMP JUMPDEST PUSH1 0x0 PUSH2 0x141A PUSH1 0x3A DUP4 PUSH2 0x107B JUMP JUMPDEST SWAP2 POP PUSH2 0x1425 DUP3 PUSH2 0x13BE JUMP JUMPDEST PUSH1 0x40 DUP3 ADD SWAP1 POP SWAP2 SWAP1 POP JUMP JUMPDEST PUSH1 0x0 PUSH1 0x20 DUP3 ADD SWAP1 POP DUP2 DUP2 SUB PUSH1 0x0 DUP4 ADD MSTORE PUSH2 0x1449 DUP2 PUSH2 0x140D JUMP JUMPDEST SWAP1 POP SWAP2 SWAP1 POP JUMP JUMPDEST PUSH1 0x0 PUSH2 0x145B DUP3 PUSH2 0xE36 JUMP JUMPDEST SWAP2 POP PUSH2 0x1466 DUP4 PUSH2 0xE36 JUMP JUMPDEST SWAP3 POP DUP3 DUP3 MUL PUSH2 0x1474 DUP2 PUSH2 0xE36 JUMP JUMPDEST SWAP2 POP DUP3 DUP3 DIV DUP5 EQ DUP4 ISZERO OR PUSH2 0x148B JUMPI PUSH2 0x148A PUSH2 0x11B0 JUMP JUMPDEST JUMPDEST POP SWAP3 SWAP2 POP POP JUMP JUMPDEST PUSH32 0x4E487B7100000000000000000000000000000000000000000000000000000000 PUSH1 0x0 MSTORE PUSH1 0x12 PUSH1 0x4 MSTORE PUSH1 0x24 PUSH1 0x0 REVERT JUMPDEST PUSH1 0x0 PUSH2 0x14CC DUP3 PUSH2 0xE36 JUMP JUMPDEST SWAP2 POP PUSH2 0x14D7 DUP4 PUSH2 0xE36 JUMP JUMPDEST SWAP3 POP DUP3 PUSH2 0x14E7 JUMPI PUSH2 0x14E6 PUSH2 0x1492 JUMP JUMPDEST JUMPDEST DUP3 DUP3 DIV SWAP1 POP SWAP3 SWAP2 POP POP JUMP JUMPDEST PUSH1 0x0 PUSH2 0x14FD DUP3 PUSH2 0xE36 JUMP JUMPDEST SWAP2 POP PUSH2 0x1508 DUP4 PUSH2 0xE36 JUMP JUMPDEST SWAP3 POP DUP3 DUP3 SUB SWAP1 POP DUP2 DUP2 GT ISZERO PUSH2 0x1520 JUMPI PUSH2 0x151F PUSH2 0x11B0 JUMP JUMPDEST JUMPDEST SWAP3 SWAP2 POP POP JUMP JUMPDEST PUSH1 0x0 DUP2 ISZERO ISZERO SWAP1 POP SWAP2 SWAP1 POP JUMP JUMPDEST PUSH2 0x153B DUP2 PUSH2 0x1526 JUMP JUMPDEST DUP2 EQ PUSH2 0x1546 JUMPI PUSH1 0x0 DUP1 REVERT JUMPDEST POP JUMP JUMPDEST PUSH1 0x0 DUP2 MLOAD SWAP1 POP PUSH2 0x1558 DUP2 PUSH2 0x1532 JUMP JUMPDEST SWAP3 SWAP2 POP POP JUMP JUMPDEST PUSH1 0x0 PUSH1 0x20 DUP3 DUP5 SUB SLT ISZERO PUSH2 0x1574 JUMPI PUSH2 0x1573 PUSH2 0xE78 JUMP JUMPDEST JUMPDEST PUSH1 0x0 PUSH2 0x1582 DUP5 DUP3 DUP6 ADD PUSH2 0x1549 JUMP JUMPDEST SWAP2 POP POP SWAP3 SWAP2 POP POP JUMP JUMPDEST PUSH32 0x5361666545524332303A204552433230206F7065726174696F6E20646964206E PUSH1 0x0 DUP3 ADD MSTORE PUSH32 0x6F74207375636365656400000000000000000000000000000000000000000000 PUSH1 0x20 DUP3 ADD MSTORE POP JUMP JUMPDEST PUSH1 0x0 PUSH2 0x15E7 PUSH1 0x2A DUP4 PUSH2 0x107B JUMP JUMPDEST SWAP2 POP PUSH2 0x15F2 DUP3 PUSH2 0x158B JUMP JUMPDEST PUSH1 0x40 DUP3 ADD SWAP1 POP SWAP2 SWAP1 POP JUMP JUMPDEST PUSH1 0x0 PUSH1 0x20 DUP3 ADD SWAP1 POP DUP2 DUP2 SUB PUSH1 0x0 DUP4 ADD MSTORE PUSH2 0x1616 DUP2 PUSH2 0x15DA JUMP JUMPDEST SWAP1 POP SWAP2 SWAP1 POP JUMP JUMPDEST PUSH32 0x416464726573733A20696E73756666696369656E742062616C616E636520666F PUSH1 0x0 DUP3 ADD MSTORE PUSH32 0x722063616C6C0000000000000000000000000000000000000000000000000000 PUSH1 0x20 DUP3 ADD MSTORE POP JUMP JUMPDEST PUSH1 0x0 PUSH2 0x1679 PUSH1 0x26 DUP4 PUSH2 0x107B JUMP JUMPDEST SWAP2 POP PUSH2 0x1684 DUP3 PUSH2 0x161D JUMP JUMPDEST PUSH1 0x40 DUP3 ADD SWAP1 POP SWAP2 SWAP1 POP JUMP JUMPDEST PUSH1 0x0 PUSH1 0x20 DUP3 ADD SWAP1 POP DUP2 DUP2 SUB PUSH1 0x0 DUP4 ADD MSTORE PUSH2 0x16A8 DUP2 PUSH2 0x166C JUMP JUMPDEST SWAP1 POP SWAP2 SWAP1 POP JUMP JUMPDEST PUSH1 0x0 DUP2 MLOAD SWAP1 POP SWAP2 SWAP1 POP JUMP JUMPDEST PUSH1 0x0 JUMPDEST DUP4 DUP2 LT ISZERO PUSH2 0x16D8 JUMPI DUP1 DUP3 ADD MLOAD DUP2 DUP5 ADD MSTORE PUSH1 0x20 DUP2 ADD SWAP1 POP PUSH2 0x16BD JUMP JUMPDEST PUSH1 0x0 DUP5 DUP5 ADD MSTORE POP POP POP POP JUMP JUMPDEST PUSH1 0x0 PUSH2 0x16EF DUP3 PUSH2 0x16AF JUMP JUMPDEST PUSH2 0x16F9 DUP2 DUP6 PUSH2 0x1378 JUMP JUMPDEST SWAP4 POP PUSH2 0x1709 DUP2 DUP6 PUSH1 0x20 DUP7 ADD PUSH2 0x16BA JUMP JUMPDEST DUP1 DUP5 ADD SWAP2 POP POP SWAP3 SWAP2 POP POP JUMP JUMPDEST PUSH1 0x0 PUSH2 0x1721 DUP3 DUP5 PUSH2 0x16E4 JUMP JUMPDEST SWAP2 POP DUP2 SWAP1 POP SWAP3 SWAP2 POP POP JUMP JUMPDEST PUSH32 0x416464726573733A2063616C6C20746F206E6F6E2D636F6E7472616374000000 PUSH1 0x0 DUP3 ADD MSTORE POP JUMP JUMPDEST PUSH1 0x0 PUSH2 0x1762 PUSH1 0x1D DUP4 PUSH2 0x107B JUMP JUMPDEST SWAP2 POP PUSH2 0x176D DUP3 PUSH2 0x172C JUMP JUMPDEST PUSH1 0x20 DUP3 ADD SWAP1 POP SWAP2 SWAP1 POP JUMP JUMPDEST PUSH1 0x0 PUSH1 0x20 DUP3 ADD SWAP1 POP DUP2 DUP2 SUB PUSH1 0x0 DUP4 ADD MSTORE PUSH2 0x1791 DUP2 PUSH2 0x1755 JUMP JUMPDEST SWAP1 POP SWAP2 SWAP1 POP JUMP JUMPDEST PUSH1 0x0 DUP2 MLOAD SWAP1 POP SWAP2 SWAP1 POP JUMP JUMPDEST PUSH1 0x0 PUSH1 0x1F NOT PUSH1 0x1F DUP4 ADD AND SWAP1 POP SWAP2 SWAP1 POP JUMP JUMPDEST PUSH1 0x0 PUSH2 0x17BF DUP3 PUSH2 0x1798 JUMP JUMPDEST PUSH2 0x17C9 DUP2 DUP6 PUSH2 0x107B JUMP JUMPDEST SWAP4 POP PUSH2 0x17D9 DUP2 DUP6 PUSH1 0x20 DUP7 ADD PUSH2 0x16BA JUMP JUMPDEST PUSH2 0x17E2 DUP2 PUSH2 0x17A3 JUMP JUMPDEST DUP5 ADD SWAP2 POP POP SWAP3 SWAP2 POP POP JUMP JUMPDEST PUSH1 0x0 PUSH1 0x20 DUP3 ADD SWAP1 POP DUP2 DUP2 SUB PUSH1 0x0 DUP4 ADD MSTORE PUSH2 0x1807 DUP2 DUP5 PUSH2 0x17B4 JUMP JUMPDEST SWAP1 POP SWAP3 SWAP2 POP POP JUMP INVALID LOG2 PUSH5 0x6970667358 0x22 SLT KECCAK256 0x2F BLOCKHASH XOR DUP3 DUP4 DIV 0xBF 0xB0 DUP8 0xC7 0xD7 CALLER GASLIMIT 0xAD 0xB0 0xCB 0xC5 0xB3 ISZERO SWAP7 XOR SLT 0xDB SHL SWAP6 0xCA 0xC 0xF8 0x23 SWAP16 CALLDATALOAD PUSH1 0x64 PUSH20 0x6F6C63430008180033A26469706673582212204D PUSH1 0xFD 0xC7 0xE1 0xB5 SWAP9 0xB3 CODECOPY DUP15 POP SWAP12 0xC6 PUSH11 0xA77D814C730806994646FA DUP11 0x2B 0xD DUP2 0xBC SWAP2 0xEF PUSH5 0x736F6C6343 STOP ADDMOD XOR STOP CALLER "},"methodIdentifiers":{"UintArray(uint256[])":"aa3482fa","evaluate()":"7daa9efc","evaluateAlgorithmicTests()":"b2e669a5","evaluateHeuristicTests()":"9c5e8771","getEvaluators()":"7e1cce0c","getIQR(uint256[])":"f345b4a7","populateEvaluators(uint256,uint256)":"b14275e6","rewardEvaluators()":"a8f69115","selectRandomEvaluators()":"a07955ad","sort()":"8cdc86a6","submitEvaluatorScore()":"eeba212c","submitOwnerScore()":"6a22b342"}}}}}