{"contracts/Lance.sol":{"Lance":{"abi":[{"inputs":[],"name":"createBid","outputs":[],"stateMutability":"nonpayable","type":"function"},{"inputs":[],"name":"createJob","outputs":[],"stateMutability":"nonpayable","type":"function"},{"inputs":[],"name":"evaluateJob","outputs":[],"stateMutability":"nonpayable","type":"function"},{"inputs":[],"name":"getJobBids","outputs":[],"stateMutability":"nonpayable","type":"function"},{"inputs":[],"name":"getJobPosts","outputs":[],"stateMutability":"nonpayable","type":"function"},{"inputs":[],"name":"getJobState","outputs":[],"stateMutability":"nonpayable","type":"function"},{"inputs":[],"name":"getSingleJob","outputs":[],"stateMutability":"nonpayable","type":"function"},{"inputs":[],"name":"getTestsLink","outputs":[],"stateMutability":"nonpayable","type":"function"},{"inputs":[],"name":"getUserJobPosts","outputs":[],"stateMutability":"nonpayable","type":"function"},{"inputs":[],"name":"submitEvaluatorScore","outputs":[],"stateMutability":"nonpayable","type":"function"},{"inputs":[],"name":"submitJob","outputs":[],"stateMutability":"nonpayable","type":"function"},{"inputs":[],"name":"submitSupervisorScore","outputs":[],"stateMutability":"nonpayable","type":"function"}],"evm":{"bytecode":{"linkReferences":{},"object":"608060405234801561001057600080fd5b5061017f806100206000396000f3fe608060405234801561001057600080fd5b50600436106100b45760003560e01c8063b2dddf5611610071578063b2dddf56146100f5578063bda84971146100ff578063c1f6878914610109578063c3d9378414610113578063de0a983b1461011d578063eeba212c14610127576100b4565b8063164576d4146100b95780634646fc58146100c35780634a4d0048146100cd5780634aa5800d146100d75780635b6b5710146100e157806383624074146100eb575b600080fd5b6100c1610131565b005b6100cb610133565b005b6100d5610135565b005b6100df610137565b005b6100e9610139565b005b6100f361013b565b005b6100fd61013d565b005b61010761013f565b005b610111610141565b005b61011b610143565b005b610125610145565b005b61012f610147565b005b565b565b565b565b565b565b565b565b565b565b565b56fea26469706673582212206b040074e717dc192d3d4c140ab1f257a19b72f096fe974b0c8a355d10a438f564736f6c63430008180033","opcodes":"PUSH1 0x80 PUSH1 0x40 MSTORE CALLVALUE DUP1 ISZERO PUSH2 0x10 JUMPI PUSH1 0x0 DUP1 REVERT JUMPDEST POP PUSH2 0x17F DUP1 PUSH2 0x20 PUSH1 0x0 CODECOPY PUSH1 0x0 RETURN INVALID PUSH1 0x80 PUSH1 0x40 MSTORE CALLVALUE DUP1 ISZERO PUSH2 0x10 JUMPI PUSH1 0x0 DUP1 REVERT JUMPDEST POP PUSH1 0x4 CALLDATASIZE LT PUSH2 0xB4 JUMPI PUSH1 0x0 CALLDATALOAD PUSH1 0xE0 SHR DUP1 PUSH4 0xB2DDDF56 GT PUSH2 0x71 JUMPI DUP1 PUSH4 0xB2DDDF56 EQ PUSH2 0xF5 JUMPI DUP1 PUSH4 0xBDA84971 EQ PUSH2 0xFF JUMPI DUP1 PUSH4 0xC1F68789 EQ PUSH2 0x109 JUMPI DUP1 PUSH4 0xC3D93784 EQ PUSH2 0x113 JUMPI DUP1 PUSH4 0xDE0A983B EQ PUSH2 0x11D JUMPI DUP1 PUSH4 0xEEBA212C EQ PUSH2 0x127 JUMPI PUSH2 0xB4 JUMP JUMPDEST DUP1 PUSH4 0x164576D4 EQ PUSH2 0xB9 JUMPI DUP1 PUSH4 0x4646FC58 EQ PUSH2 0xC3 JUMPI DUP1 PUSH4 0x4A4D0048 EQ PUSH2 0xCD JUMPI DUP1 PUSH4 0x4AA5800D EQ PUSH2 0xD7 JUMPI DUP1 PUSH4 0x5B6B5710 EQ PUSH2 0xE1 JUMPI DUP1 PUSH4 0x83624074 EQ PUSH2 0xEB JUMPI JUMPDEST PUSH1 0x0 DUP1 REVERT JUMPDEST PUSH2 0xC1 PUSH2 0x131 JUMP JUMPDEST STOP JUMPDEST PUSH2 0xCB PUSH2 0x133 JUMP JUMPDEST STOP JUMPDEST PUSH2 0xD5 PUSH2 0x135 JUMP JUMPDEST STOP JUMPDEST PUSH2 0xDF PUSH2 0x137 JUMP JUMPDEST STOP JUMPDEST PUSH2 0xE9 PUSH2 0x139 JUMP JUMPDEST STOP JUMPDEST PUSH2 0xF3 PUSH2 0x13B JUMP JUMPDEST STOP JUMPDEST PUSH2 0xFD PUSH2 0x13D JUMP JUMPDEST STOP JUMPDEST PUSH2 0x107 PUSH2 0x13F JUMP JUMPDEST STOP JUMPDEST PUSH2 0x111 PUSH2 0x141 JUMP JUMPDEST STOP JUMPDEST PUSH2 0x11B PUSH2 0x143 JUMP JUMPDEST STOP JUMPDEST PUSH2 0x125 PUSH2 0x145 JUMP JUMPDEST STOP JUMPDEST PUSH2 0x12F PUSH2 0x147 JUMP JUMPDEST STOP JUMPDEST JUMP JUMPDEST JUMP JUMPDEST JUMP JUMPDEST JUMP JUMPDEST JUMP JUMPDEST JUMP JUMPDEST JUMP JUMPDEST JUMP JUMPDEST JUMP JUMPDEST JUMP JUMPDEST JUMP JUMPDEST JUMP INVALID LOG2 PUSH5 0x6970667358 0x22 SLT KECCAK256 PUSH12 0x40074E717DC192D3D4C140A 0xB1 CALLCODE JUMPI LOG1 SWAP12 PUSH19 0xF096FE974B0C8A355D10A438F564736F6C6343 STOP ADDMOD XOR STOP CALLER "},"methodIdentifiers":{"createBid()":"83624074","createJob()":"5b6b5710","evaluateJob()":"c1f68789","getJobBids()":"b2dddf56","getJobPosts()":"164576d4","getJobState()":"4646fc58","getSingleJob()":"de0a983b","getTestsLink()":"4aa5800d","getUserJobPosts()":"c3d93784","submitEvaluatorScore()":"eeba212c","submitJob()":"4a4d0048","submitSupervisorScore()":"bda84971"}}}}}