{"contracts/Evaluation.sol":{"Evaluation":{"abi":[{"inputs":[{"internalType":"address","name":"evaluatorContractAddress","type":"address"}],"stateMutability":"nonpayable","type":"constructor"},{"inputs":[],"name":"evaluate","outputs":[],"stateMutability":"nonpayable","type":"function"},{"inputs":[],"name":"evaluateAlgorithmicTests","outputs":[],"stateMutability":"nonpayable","type":"function"},{"inputs":[],"name":"evaluateHeuristicTests","outputs":[],"stateMutability":"nonpayable","type":"function"},{"inputs":[],"name":"getEvaluators","outputs":[{"internalType":"address[]","name":"","type":"address[]"}],"stateMutability":"view","type":"function"},{"inputs":[{"internalType":"uint256","name":"seed","type":"uint256"},{"internalType":"uint256","name":"amount","type":"uint256"}],"name":"populateEvaluators","outputs":[],"stateMutability":"nonpayable","type":"function"},{"inputs":[],"name":"selectRandomEvaluators","outputs":[],"stateMutability":"nonpayable","type":"function"},{"inputs":[],"name":"submitEvaluatorScore","outputs":[],"stateMutability":"nonpayable","type":"function"},{"inputs":[],"name":"submitOwnerScore","outputs":[],"stateMutability":"nonpayable","type":"function"}],"evm":{"bytecode":{"linkReferences":{},"object":"6080604052604051806101600160405280600560ff168152602001600860ff168152602001600f60ff168152602001601a60ff168152602001600a60ff168152602001601260ff168152602001600360ff168152602001600c60ff168152602001600660ff168152602001600e60ff168152602001600b60ff16815250600490600b61008c92919061018a565b50604051806101600160405280600560ff168152602001600860ff168152602001600f60ff168152602001601a60ff168152602001600a60ff168152602001601260ff168152602001600360ff168152602001600c60ff168152602001600660ff168152602001600e60ff168152602001600b60ff16815250600590600b61011592919061018a565b5034801561012257600080fd5b5060405161099f38038061099f833981810160405281019061014491906102b3565b806000806101000a81548173ffffffffffffffffffffffffffffffffffffffff021916908373ffffffffffffffffffffffffffffffffffffffff160217905550506102e0565b82805482825590600052602060002090600f016010900481019282156102225791602002820160005b838211156101f257835183826101000a81548161ffff021916908360ff16021790555092602001926002016020816001010492830192600103026101b3565b80156102205782816101000a81549061ffff02191690556002016020816001010492830192600103026101f2565b505b50905061022f9190610233565b5090565b5b8082111561024c576000816000905550600101610234565b5090565b600080fd5b600073ffffffffffffffffffffffffffffffffffffffff82169050919050565b600061028082610255565b9050919050565b61029081610275565b811461029b57600080fd5b50565b6000815190506102ad81610287565b92915050565b6000602082840312156102c9576102c8610250565b5b60006102d78482850161029e565b91505092915050565b6106b0806102ef6000396000f3fe608060405234801561001057600080fd5b50600436106100885760003560e01c8063a07955ad1161005b578063a07955ad146100c9578063b14275e6146100d3578063b2e669a5146100ef578063eeba212c146100f957610088565b80636a22b3421461008d5780637daa9efc146100975780637e1cce0c146100a15780639c5e8771146100bf575b600080fd5b610095610103565b005b61009f610105565b005b6100a9610107565b6040516100b691906103c9565b60405180910390f35b6100c7610195565b005b6100d1610197565b005b6100ed60048036038101906100e89190610430565b610199565b005b6100f76102d5565b005b6101016102d7565b005b565b565b6060600180548060200260200160405190810160405280929190818152602001828054801561018b57602002820191906000526020600020905b8160009054906101000a900473ffffffffffffffffffffffffffffffffffffffff1673ffffffffffffffffffffffffffffffffffffffff1681526020019060010190808311610141575b5050505050905090565b565b565b60008060009054906101000a900473ffffffffffffffffffffffffffffffffffffffff1673ffffffffffffffffffffffffffffffffffffffff1663603da88184846040518363ffffffff1660e01b81526004016101f792919061047f565b6202710060405180830381865afa158015610216573d6000803e3d6000fd5b505050506040513d601f19601f8201168201806040525081019061023a919061061c565b905060005b828110156102cf5760018282611388811061025d5761025c61064b565b5b60200201519080600181540180825580915050600190039060005260206000200160009091909190916101000a81548173ffffffffffffffffffffffffffffffffffffffff021916908373ffffffffffffffffffffffffffffffffffffffff160217905550808060010191505061023f565b50505050565b565b565b600081519050919050565b600082825260208201905092915050565b6000819050602082019050919050565b600073ffffffffffffffffffffffffffffffffffffffff82169050919050565b600061033082610305565b9050919050565b61034081610325565b82525050565b60006103528383610337565b60208301905092915050565b6000602082019050919050565b6000610376826102d9565b61038081856102e4565b935061038b836102f5565b8060005b838110156103bc5781516103a38882610346565b97506103ae8361035e565b92505060018101905061038f565b5085935050505092915050565b600060208201905081810360008301526103e3818461036b565b905092915050565b6000604051905090565b600080fd5b6000819050919050565b61040d816103fa565b811461041857600080fd5b50565b60008135905061042a81610404565b92915050565b60008060408385031215610447576104466103f5565b5b60006104558582860161041b565b92505060206104668582860161041b565b9150509250929050565b610479816103fa565b82525050565b60006040820190506104946000830185610470565b6104a16020830184610470565b9392505050565b600080fd5b6000601f19601f8301169050919050565b7f4e487b7100000000000000000000000000000000000000000000000000000000600052604160045260246000fd5b6104f6826104ad565b810181811067ffffffffffffffff82111715610515576105146104be565b5b80604052505050565b60006105286103eb565b905061053482826104ed565b919050565b600067ffffffffffffffff821115610554576105536104be565b5b602082029050919050565b600080fd5b61056d81610325565b811461057857600080fd5b50565b60008151905061058a81610564565b92915050565b60006105a361059e84610539565b61051e565b905080602084028301858111156105bd576105bc61055f565b5b835b818110156105e657806105d2888261057b565b8452602084019350506020810190506105bf565b5050509392505050565b600082601f830112610605576106046104a8565b5b611388610613848285610590565b91505092915050565b6000620271008284031215610634576106336103f5565b5b6000610642848285016105f0565b91505092915050565b7f4e487b7100000000000000000000000000000000000000000000000000000000600052603260045260246000fdfea2646970667358221220b709231ca17dd97ec04b1c1d863c6975b207330897c316da3f846a7291a7de2964736f6c63430008180033","opcodes":"PUSH1 0x80 PUSH1 0x40 MSTORE PUSH1 0x40 MLOAD DUP1 PUSH2 0x160 ADD PUSH1 0x40 MSTORE DUP1 PUSH1 0x5 PUSH1 0xFF AND DUP2 MSTORE PUSH1 0x20 ADD PUSH1 0x8 PUSH1 0xFF AND DUP2 MSTORE PUSH1 0x20 ADD PUSH1 0xF PUSH1 0xFF AND DUP2 MSTORE PUSH1 0x20 ADD PUSH1 0x1A PUSH1 0xFF AND DUP2 MSTORE PUSH1 0x20 ADD PUSH1 0xA PUSH1 0xFF AND DUP2 MSTORE PUSH1 0x20 ADD PUSH1 0x12 PUSH1 0xFF AND DUP2 MSTORE PUSH1 0x20 ADD PUSH1 0x3 PUSH1 0xFF AND DUP2 MSTORE PUSH1 0x20 ADD PUSH1 0xC PUSH1 0xFF AND DUP2 MSTORE PUSH1 0x20 ADD PUSH1 0x6 PUSH1 0xFF AND DUP2 MSTORE PUSH1 0x20 ADD PUSH1 0xE PUSH1 0xFF AND DUP2 MSTORE PUSH1 0x20 ADD PUSH1 0xB PUSH1 0xFF AND DUP2 MSTORE POP PUSH1 0x4 SWAP1 PUSH1 0xB PUSH2 0x8C SWAP3 SWAP2 SWAP1 PUSH2 0x18A JUMP JUMPDEST POP PUSH1 0x40 MLOAD DUP1 PUSH2 0x160 ADD PUSH1 0x40 MSTORE DUP1 PUSH1 0x5 PUSH1 0xFF AND DUP2 MSTORE PUSH1 0x20 ADD PUSH1 0x8 PUSH1 0xFF AND DUP2 MSTORE PUSH1 0x20 ADD PUSH1 0xF PUSH1 0xFF AND DUP2 MSTORE PUSH1 0x20 ADD PUSH1 0x1A PUSH1 0xFF AND DUP2 MSTORE PUSH1 0x20 ADD PUSH1 0xA PUSH1 0xFF AND DUP2 MSTORE PUSH1 0x20 ADD PUSH1 0x12 PUSH1 0xFF AND DUP2 MSTORE PUSH1 0x20 ADD PUSH1 0x3 PUSH1 0xFF AND DUP2 MSTORE PUSH1 0x20 ADD PUSH1 0xC PUSH1 0xFF AND DUP2 MSTORE PUSH1 0x20 ADD PUSH1 0x6 PUSH1 0xFF AND DUP2 MSTORE PUSH1 0x20 ADD PUSH1 0xE PUSH1 0xFF AND DUP2 MSTORE PUSH1 0x20 ADD PUSH1 0xB PUSH1 0xFF AND DUP2 MSTORE POP PUSH1 0x5 SWAP1 PUSH1 0xB PUSH2 0x115 SWAP3 SWAP2 SWAP1 PUSH2 0x18A JUMP JUMPDEST POP CALLVALUE DUP1 ISZERO PUSH2 0x122 JUMPI PUSH1 0x0 DUP1 REVERT JUMPDEST POP PUSH1 0x40 MLOAD PUSH2 0x99F CODESIZE SUB DUP1 PUSH2 0x99F DUP4 CODECOPY DUP2 DUP2 ADD PUSH1 0x40 MSTORE DUP2 ADD SWAP1 PUSH2 0x144 SWAP2 SWAP1 PUSH2 0x2B3 JUMP JUMPDEST DUP1 PUSH1 0x0 DUP1 PUSH2 0x100 EXP DUP2 SLOAD DUP2 PUSH20 0xFFFFFFFFFFFFFFFFFFFFFFFFFFFFFFFFFFFFFFFF MUL NOT AND SWAP1 DUP4 PUSH20 0xFFFFFFFFFFFFFFFFFFFFFFFFFFFFFFFFFFFFFFFF AND MUL OR SWAP1 SSTORE POP POP PUSH2 0x2E0 JUMP JUMPDEST DUP3 DUP1 SLOAD DUP3 DUP3 SSTORE SWAP1 PUSH1 0x0 MSTORE PUSH1 0x20 PUSH1 0x0 KECCAK256 SWAP1 PUSH1 0xF ADD PUSH1 0x10 SWAP1 DIV DUP2 ADD SWAP3 DUP3 ISZERO PUSH2 0x222 JUMPI SWAP2 PUSH1 0x20 MUL DUP3 ADD PUSH1 0x0 JUMPDEST DUP4 DUP3 GT ISZERO PUSH2 0x1F2 JUMPI DUP4 MLOAD DUP4 DUP3 PUSH2 0x100 EXP DUP2 SLOAD DUP2 PUSH2 0xFFFF MUL NOT AND SWAP1 DUP4 PUSH1 0xFF AND MUL OR SWAP1 SSTORE POP SWAP3 PUSH1 0x20 ADD SWAP3 PUSH1 0x2 ADD PUSH1 0x20 DUP2 PUSH1 0x1 ADD DIV SWAP3 DUP4 ADD SWAP3 PUSH1 0x1 SUB MUL PUSH2 0x1B3 JUMP JUMPDEST DUP1 ISZERO PUSH2 0x220 JUMPI DUP3 DUP2 PUSH2 0x100 EXP DUP2 SLOAD SWAP1 PUSH2 0xFFFF MUL NOT AND SWAP1 SSTORE PUSH1 0x2 ADD PUSH1 0x20 DUP2 PUSH1 0x1 ADD DIV SWAP3 DUP4 ADD SWAP3 PUSH1 0x1 SUB MUL PUSH2 0x1F2 JUMP JUMPDEST POP JUMPDEST POP SWAP1 POP PUSH2 0x22F SWAP2 SWAP1 PUSH2 0x233 JUMP JUMPDEST POP SWAP1 JUMP JUMPDEST JUMPDEST DUP1 DUP3 GT ISZERO PUSH2 0x24C JUMPI PUSH1 0x0 DUP2 PUSH1 0x0 SWAP1 SSTORE POP PUSH1 0x1 ADD PUSH2 0x234 JUMP JUMPDEST POP SWAP1 JUMP JUMPDEST PUSH1 0x0 DUP1 REVERT JUMPDEST PUSH1 0x0 PUSH20 0xFFFFFFFFFFFFFFFFFFFFFFFFFFFFFFFFFFFFFFFF DUP3 AND SWAP1 POP SWAP2 SWAP1 POP JUMP JUMPDEST PUSH1 0x0 PUSH2 0x280 DUP3 PUSH2 0x255 JUMP JUMPDEST SWAP1 POP SWAP2 SWAP1 POP JUMP JUMPDEST PUSH2 0x290 DUP2 PUSH2 0x275 JUMP JUMPDEST DUP2 EQ PUSH2 0x29B JUMPI PUSH1 0x0 DUP1 REVERT JUMPDEST POP JUMP JUMPDEST PUSH1 0x0 DUP2 MLOAD SWAP1 POP PUSH2 0x2AD DUP2 PUSH2 0x287 JUMP JUMPDEST SWAP3 SWAP2 POP POP JUMP JUMPDEST PUSH1 0x0 PUSH1 0x20 DUP3 DUP5 SUB SLT ISZERO PUSH2 0x2C9 JUMPI PUSH2 0x2C8 PUSH2 0x250 JUMP JUMPDEST JUMPDEST PUSH1 0x0 PUSH2 0x2D7 DUP5 DUP3 DUP6 ADD PUSH2 0x29E JUMP JUMPDEST SWAP2 POP POP SWAP3 SWAP2 POP POP JUMP JUMPDEST PUSH2 0x6B0 DUP1 PUSH2 0x2EF PUSH1 0x0 CODECOPY PUSH1 0x0 RETURN INVALID PUSH1 0x80 PUSH1 0x40 MSTORE CALLVALUE DUP1 ISZERO PUSH2 0x10 JUMPI PUSH1 0x0 DUP1 REVERT JUMPDEST POP PUSH1 0x4 CALLDATASIZE LT PUSH2 0x88 JUMPI PUSH1 0x0 CALLDATALOAD PUSH1 0xE0 SHR DUP1 PUSH4 0xA07955AD GT PUSH2 0x5B JUMPI DUP1 PUSH4 0xA07955AD EQ PUSH2 0xC9 JUMPI DUP1 PUSH4 0xB14275E6 EQ PUSH2 0xD3 JUMPI DUP1 PUSH4 0xB2E669A5 EQ PUSH2 0xEF JUMPI DUP1 PUSH4 0xEEBA212C EQ PUSH2 0xF9 JUMPI PUSH2 0x88 JUMP JUMPDEST DUP1 PUSH4 0x6A22B342 EQ PUSH2 0x8D JUMPI DUP1 PUSH4 0x7DAA9EFC EQ PUSH2 0x97 JUMPI DUP1 PUSH4 0x7E1CCE0C EQ PUSH2 0xA1 JUMPI DUP1 PUSH4 0x9C5E8771 EQ PUSH2 0xBF JUMPI JUMPDEST PUSH1 0x0 DUP1 REVERT JUMPDEST PUSH2 0x95 PUSH2 0x103 JUMP JUMPDEST STOP JUMPDEST PUSH2 0x9F PUSH2 0x105 JUMP JUMPDEST STOP JUMPDEST PUSH2 0xA9 PUSH2 0x107 JUMP JUMPDEST PUSH1 0x40 MLOAD PUSH2 0xB6 SWAP2 SWAP1 PUSH2 0x3C9 JUMP JUMPDEST PUSH1 0x40 MLOAD DUP1 SWAP2 SUB SWAP1 RETURN JUMPDEST PUSH2 0xC7 PUSH2 0x195 JUMP JUMPDEST STOP JUMPDEST PUSH2 0xD1 PUSH2 0x197 JUMP JUMPDEST STOP JUMPDEST PUSH2 0xED PUSH1 0x4 DUP1 CALLDATASIZE SUB DUP2 ADD SWAP1 PUSH2 0xE8 SWAP2 SWAP1 PUSH2 0x430 JUMP JUMPDEST PUSH2 0x199 JUMP JUMPDEST STOP JUMPDEST PUSH2 0xF7 PUSH2 0x2D5 JUMP JUMPDEST STOP JUMPDEST PUSH2 0x101 PUSH2 0x2D7 JUMP JUMPDEST STOP JUMPDEST JUMP JUMPDEST JUMP JUMPDEST PUSH1 0x60 PUSH1 0x1 DUP1 SLOAD DUP1 PUSH1 0x20 MUL PUSH1 0x20 ADD PUSH1 0x40 MLOAD SWAP1 DUP2 ADD PUSH1 0x40 MSTORE DUP1 SWAP3 SWAP2 SWAP1 DUP2 DUP2 MSTORE PUSH1 0x20 ADD DUP3 DUP1 SLOAD DUP1 ISZERO PUSH2 0x18B JUMPI PUSH1 0x20 MUL DUP3 ADD SWAP2 SWAP1 PUSH1 0x0 MSTORE PUSH1 0x20 PUSH1 0x0 KECCAK256 SWAP1 JUMPDEST DUP2 PUSH1 0x0 SWAP1 SLOAD SWAP1 PUSH2 0x100 EXP SWAP1 DIV PUSH20 0xFFFFFFFFFFFFFFFFFFFFFFFFFFFFFFFFFFFFFFFF AND PUSH20 0xFFFFFFFFFFFFFFFFFFFFFFFFFFFFFFFFFFFFFFFF AND DUP2 MSTORE PUSH1 0x20 ADD SWAP1 PUSH1 0x1 ADD SWAP1 DUP1 DUP4 GT PUSH2 0x141 JUMPI JUMPDEST POP POP POP POP POP SWAP1 POP SWAP1 JUMP JUMPDEST JUMP JUMPDEST JUMP JUMPDEST PUSH1 0x0 DUP1 PUSH1 0x0 SWAP1 SLOAD SWAP1 PUSH2 0x100 EXP SWAP1 DIV PUSH20 0xFFFFFFFFFFFFFFFFFFFFFFFFFFFFFFFFFFFFFFFF AND PUSH20 0xFFFFFFFFFFFFFFFFFFFFFFFFFFFFFFFFFFFFFFFF AND PUSH4 0x603DA881 DUP5 DUP5 PUSH1 0x40 MLOAD DUP4 PUSH4 0xFFFFFFFF AND PUSH1 0xE0 SHL DUP2 MSTORE PUSH1 0x4 ADD PUSH2 0x1F7 SWAP3 SWAP2 SWAP1 PUSH2 0x47F JUMP JUMPDEST PUSH3 0x27100 PUSH1 0x40 MLOAD DUP1 DUP4 SUB DUP2 DUP7 GAS STATICCALL ISZERO DUP1 ISZERO PUSH2 0x216 JUMPI RETURNDATASIZE PUSH1 0x0 DUP1 RETURNDATACOPY RETURNDATASIZE PUSH1 0x0 REVERT JUMPDEST POP POP POP POP PUSH1 0x40 MLOAD RETURNDATASIZE PUSH1 0x1F NOT PUSH1 0x1F DUP3 ADD AND DUP3 ADD DUP1 PUSH1 0x40 MSTORE POP DUP2 ADD SWAP1 PUSH2 0x23A SWAP2 SWAP1 PUSH2 0x61C JUMP JUMPDEST SWAP1 POP PUSH1 0x0 JUMPDEST DUP3 DUP2 LT ISZERO PUSH2 0x2CF JUMPI PUSH1 0x1 DUP3 DUP3 PUSH2 0x1388 DUP2 LT PUSH2 0x25D JUMPI PUSH2 0x25C PUSH2 0x64B JUMP JUMPDEST JUMPDEST PUSH1 0x20 MUL ADD MLOAD SWAP1 DUP1 PUSH1 0x1 DUP2 SLOAD ADD DUP1 DUP3 SSTORE DUP1 SWAP2 POP POP PUSH1 0x1 SWAP1 SUB SWAP1 PUSH1 0x0 MSTORE PUSH1 0x20 PUSH1 0x0 KECCAK256 ADD PUSH1 0x0 SWAP1 SWAP2 SWAP1 SWAP2 SWAP1 SWAP2 PUSH2 0x100 EXP DUP2 SLOAD DUP2 PUSH20 0xFFFFFFFFFFFFFFFFFFFFFFFFFFFFFFFFFFFFFFFF MUL NOT AND SWAP1 DUP4 PUSH20 0xFFFFFFFFFFFFFFFFFFFFFFFFFFFFFFFFFFFFFFFF AND MUL OR SWAP1 SSTORE POP DUP1 DUP1 PUSH1 0x1 ADD SWAP2 POP POP PUSH2 0x23F JUMP JUMPDEST POP POP POP POP JUMP JUMPDEST JUMP JUMPDEST JUMP JUMPDEST PUSH1 0x0 DUP2 MLOAD SWAP1 POP SWAP2 SWAP1 POP JUMP JUMPDEST PUSH1 0x0 DUP3 DUP3 MSTORE PUSH1 0x20 DUP3 ADD SWAP1 POP SWAP3 SWAP2 POP POP JUMP JUMPDEST PUSH1 0x0 DUP2 SWAP1 POP PUSH1 0x20 DUP3 ADD SWAP1 POP SWAP2 SWAP1 POP JUMP JUMPDEST PUSH1 0x0 PUSH20 0xFFFFFFFFFFFFFFFFFFFFFFFFFFFFFFFFFFFFFFFF DUP3 AND SWAP1 POP SWAP2 SWAP1 POP JUMP JUMPDEST PUSH1 0x0 PUSH2 0x330 DUP3 PUSH2 0x305 JUMP JUMPDEST SWAP1 POP SWAP2 SWAP1 POP JUMP JUMPDEST PUSH2 0x340 DUP2 PUSH2 0x325 JUMP JUMPDEST DUP3 MSTORE POP POP JUMP JUMPDEST PUSH1 0x0 PUSH2 0x352 DUP4 DUP4 PUSH2 0x337 JUMP JUMPDEST PUSH1 0x20 DUP4 ADD SWAP1 POP SWAP3 SWAP2 POP POP JUMP JUMPDEST PUSH1 0x0 PUSH1 0x20 DUP3 ADD SWAP1 POP SWAP2 SWAP1 POP JUMP JUMPDEST PUSH1 0x0 PUSH2 0x376 DUP3 PUSH2 0x2D9 JUMP JUMPDEST PUSH2 0x380 DUP2 DUP6 PUSH2 0x2E4 JUMP JUMPDEST SWAP4 POP PUSH2 0x38B DUP4 PUSH2 0x2F5 JUMP JUMPDEST DUP1 PUSH1 0x0 JUMPDEST DUP4 DUP2 LT ISZERO PUSH2 0x3BC JUMPI DUP2 MLOAD PUSH2 0x3A3 DUP9 DUP3 PUSH2 0x346 JUMP JUMPDEST SWAP8 POP PUSH2 0x3AE DUP4 PUSH2 0x35E JUMP JUMPDEST SWAP3 POP POP PUSH1 0x1 DUP2 ADD SWAP1 POP PUSH2 0x38F JUMP JUMPDEST POP DUP6 SWAP4 POP POP POP POP SWAP3 SWAP2 POP POP JUMP JUMPDEST PUSH1 0x0 PUSH1 0x20 DUP3 ADD SWAP1 POP DUP2 DUP2 SUB PUSH1 0x0 DUP4 ADD MSTORE PUSH2 0x3E3 DUP2 DUP5 PUSH2 0x36B JUMP JUMPDEST SWAP1 POP SWAP3 SWAP2 POP POP JUMP JUMPDEST PUSH1 0x0 PUSH1 0x40 MLOAD SWAP1 POP SWAP1 JUMP JUMPDEST PUSH1 0x0 DUP1 REVERT JUMPDEST PUSH1 0x0 DUP2 SWAP1 POP SWAP2 SWAP1 POP JUMP JUMPDEST PUSH2 0x40D DUP2 PUSH2 0x3FA JUMP JUMPDEST DUP2 EQ PUSH2 0x418 JUMPI PUSH1 0x0 DUP1 REVERT JUMPDEST POP JUMP JUMPDEST PUSH1 0x0 DUP2 CALLDATALOAD SWAP1 POP PUSH2 0x42A DUP2 PUSH2 0x404 JUMP JUMPDEST SWAP3 SWAP2 POP POP JUMP JUMPDEST PUSH1 0x0 DUP1 PUSH1 0x40 DUP4 DUP6 SUB SLT ISZERO PUSH2 0x447 JUMPI PUSH2 0x446 PUSH2 0x3F5 JUMP JUMPDEST JUMPDEST PUSH1 0x0 PUSH2 0x455 DUP6 DUP3 DUP7 ADD PUSH2 0x41B JUMP JUMPDEST SWAP3 POP POP PUSH1 0x20 PUSH2 0x466 DUP6 DUP3 DUP7 ADD PUSH2 0x41B JUMP JUMPDEST SWAP2 POP POP SWAP3 POP SWAP3 SWAP1 POP JUMP JUMPDEST PUSH2 0x479 DUP2 PUSH2 0x3FA JUMP JUMPDEST DUP3 MSTORE POP POP JUMP JUMPDEST PUSH1 0x0 PUSH1 0x40 DUP3 ADD SWAP1 POP PUSH2 0x494 PUSH1 0x0 DUP4 ADD DUP6 PUSH2 0x470 JUMP JUMPDEST PUSH2 0x4A1 PUSH1 0x20 DUP4 ADD DUP5 PUSH2 0x470 JUMP JUMPDEST SWAP4 SWAP3 POP POP POP JUMP JUMPDEST PUSH1 0x0 DUP1 REVERT JUMPDEST PUSH1 0x0 PUSH1 0x1F NOT PUSH1 0x1F DUP4 ADD AND SWAP1 POP SWAP2 SWAP1 POP JUMP JUMPDEST PUSH32 0x4E487B7100000000000000000000000000000000000000000000000000000000 PUSH1 0x0 MSTORE PUSH1 0x41 PUSH1 0x4 MSTORE PUSH1 0x24 PUSH1 0x0 REVERT JUMPDEST PUSH2 0x4F6 DUP3 PUSH2 0x4AD JUMP JUMPDEST DUP2 ADD DUP2 DUP2 LT PUSH8 0xFFFFFFFFFFFFFFFF DUP3 GT OR ISZERO PUSH2 0x515 JUMPI PUSH2 0x514 PUSH2 0x4BE JUMP JUMPDEST JUMPDEST DUP1 PUSH1 0x40 MSTORE POP POP POP JUMP JUMPDEST PUSH1 0x0 PUSH2 0x528 PUSH2 0x3EB JUMP JUMPDEST SWAP1 POP PUSH2 0x534 DUP3 DUP3 PUSH2 0x4ED JUMP JUMPDEST SWAP2 SWAP1 POP JUMP JUMPDEST PUSH1 0x0 PUSH8 0xFFFFFFFFFFFFFFFF DUP3 GT ISZERO PUSH2 0x554 JUMPI PUSH2 0x553 PUSH2 0x4BE JUMP JUMPDEST JUMPDEST PUSH1 0x20 DUP3 MUL SWAP1 POP SWAP2 SWAP1 POP JUMP JUMPDEST PUSH1 0x0 DUP1 REVERT JUMPDEST PUSH2 0x56D DUP2 PUSH2 0x325 JUMP JUMPDEST DUP2 EQ PUSH2 0x578 JUMPI PUSH1 0x0 DUP1 REVERT JUMPDEST POP JUMP JUMPDEST PUSH1 0x0 DUP2 MLOAD SWAP1 POP PUSH2 0x58A DUP2 PUSH2 0x564 JUMP JUMPDEST SWAP3 SWAP2 POP POP JUMP JUMPDEST PUSH1 0x0 PUSH2 0x5A3 PUSH2 0x59E DUP5 PUSH2 0x539 JUMP JUMPDEST PUSH2 0x51E JUMP JUMPDEST SWAP1 POP DUP1 PUSH1 0x20 DUP5 MUL DUP4 ADD DUP6 DUP2 GT ISZERO PUSH2 0x5BD JUMPI PUSH2 0x5BC PUSH2 0x55F JUMP JUMPDEST JUMPDEST DUP4 JUMPDEST DUP2 DUP2 LT ISZERO PUSH2 0x5E6 JUMPI DUP1 PUSH2 0x5D2 DUP9 DUP3 PUSH2 0x57B JUMP JUMPDEST DUP5 MSTORE PUSH1 0x20 DUP5 ADD SWAP4 POP POP PUSH1 0x20 DUP2 ADD SWAP1 POP PUSH2 0x5BF JUMP JUMPDEST POP POP POP SWAP4 SWAP3 POP POP POP JUMP JUMPDEST PUSH1 0x0 DUP3 PUSH1 0x1F DUP4 ADD SLT PUSH2 0x605 JUMPI PUSH2 0x604 PUSH2 0x4A8 JUMP JUMPDEST JUMPDEST PUSH2 0x1388 PUSH2 0x613 DUP5 DUP3 DUP6 PUSH2 0x590 JUMP JUMPDEST SWAP2 POP POP SWAP3 SWAP2 POP POP JUMP JUMPDEST PUSH1 0x0 PUSH3 0x27100 DUP3 DUP5 SUB SLT ISZERO PUSH2 0x634 JUMPI PUSH2 0x633 PUSH2 0x3F5 JUMP JUMPDEST JUMPDEST PUSH1 0x0 PUSH2 0x642 DUP5 DUP3 DUP6 ADD PUSH2 0x5F0 JUMP JUMPDEST SWAP2 POP POP SWAP3 SWAP2 POP POP JUMP JUMPDEST PUSH32 0x4E487B7100000000000000000000000000000000000000000000000000000000 PUSH1 0x0 MSTORE PUSH1 0x32 PUSH1 0x4 MSTORE PUSH1 0x24 PUSH1 0x0 REVERT INVALID LOG2 PUSH5 0x6970667358 0x22 SLT KECCAK256 0xB7 MULMOD 0x23 SHR LOG1 PUSH30 0xD97EC04B1C1D863C6975B207330897C316DA3F846A7291A7DE2964736F6C PUSH4 0x43000818 STOP CALLER "},"methodIdentifiers":{"evaluate()":"7daa9efc","evaluateAlgorithmicTests()":"b2e669a5","evaluateHeuristicTests()":"9c5e8771","getEvaluators()":"7e1cce0c","populateEvaluators(uint256,uint256)":"b14275e6","selectRandomEvaluators()":"a07955ad","submitEvaluatorScore()":"eeba212c","submitOwnerScore()":"6a22b342"}}}}}