{
  "_format": "hh-sol-artifact-1",
  "contractName": "BlindAuction",
  "sourceName": "contracts/Vickery.sol",
  "abi": [
    {
      "inputs": [
        {
          "internalType": "uint256",
          "name": "biddingTime",
          "type": "uint256"
        },
        {
          "internalType": "uint256",
          "name": "revealTime",
          "type": "uint256"
        },
        {
          "internalType": "contract IERC20",
          "name": "bidToken_",
          "type": "address"
        },
        {
          "internalType": "address",
          "name": "lanceContractAddress",
          "type": "address"
        },
        {
          "internalType": "address payable",
          "name": "clientAddress_",
          "type": "address"
        },
        {
          "internalType": "bytes",
          "name": "jobIPFSHash_",
          "type": "bytes"
        },
        {
          "internalType": "uint256",
          "name": "decimals_",
          "type": "uint256"
        },
        {
          "internalType": "uint256",
          "name": "fees_",
          "type": "uint256"
        }
      ],
      "stateMutability": "nonpayable",
      "type": "constructor"
    },
    {
      "inputs": [],
      "name": "AuctionEndAlreadyCalled",
      "type": "error"
    },
    {
      "inputs": [
        {
          "internalType": "uint256",
          "name": "time",
          "type": "uint256"
        }
      ],
      "name": "TooEarly",
      "type": "error"
    },
    {
      "inputs": [
        {
          "internalType": "uint256",
          "name": "time",
          "type": "uint256"
        }
      ],
      "name": "TooLate",
      "type": "error"
    },
    {
      "anonymous": false,
      "inputs": [
        {
          "indexed": false,
          "internalType": "address",
          "name": "winner",
          "type": "address"
        },
        {
          "indexed": false,
          "internalType": "uint256",
          "name": "highestBid",
          "type": "uint256"
        }
      ],
      "name": "AuctionEnded",
      "type": "event"
    },
    {
      "anonymous": false,
      "inputs": [
        {
          "indexed": false,
          "internalType": "address",
          "name": "_from",
          "type": "address"
        },
        {
          "indexed": false,
          "internalType": "uint256",
          "name": "_amount",
          "type": "uint256"
        }
      ],
      "name": "TransferReceived",
      "type": "event"
    },
    {
      "anonymous": false,
      "inputs": [
        {
          "indexed": false,
          "internalType": "address",
          "name": "_from",
          "type": "address"
        },
        {
          "indexed": false,
          "internalType": "address",
          "name": "_destAddr",
          "type": "address"
        },
        {
          "indexed": false,
          "internalType": "uint256",
          "name": "_amount",
          "type": "uint256"
        }
      ],
      "name": "TransferSent",
      "type": "event"
    },
    {
      "inputs": [],
      "name": "auctionEnd",
      "outputs": [],
      "stateMutability": "nonpayable",
      "type": "function"
    },
    {
      "inputs": [
        {
          "internalType": "address",
          "name": "bidder",
          "type": "address"
        },
        {
          "internalType": "uint256",
          "name": "overbid",
          "type": "uint256"
        },
        {
          "internalType": "bytes32",
          "name": "blindedBid",
          "type": "bytes32"
        }
      ],
      "name": "bid",
      "outputs": [],
      "stateMutability": "nonpayable",
      "type": "function"
    },
    {
      "inputs": [
        {
          "internalType": "uint256",
          "name": "",
          "type": "uint256"
        }
      ],
      "name": "bidAmounts",
      "outputs": [
        {
          "internalType": "uint256",
          "name": "",
          "type": "uint256"
        }
      ],
      "stateMutability": "view",
      "type": "function"
    },
    {
      "inputs": [],
      "name": "biddingEnd",
      "outputs": [
        {
          "internalType": "uint256",
          "name": "",
          "type": "uint256"
        }
      ],
      "stateMutability": "view",
      "type": "function"
    },
    {
      "inputs": [
        {
          "internalType": "address",
          "name": "",
          "type": "address"
        },
        {
          "internalType": "uint256",
          "name": "",
          "type": "uint256"
        }
      ],
      "name": "bids",
      "outputs": [
        {
          "internalType": "bytes32",
          "name": "blindedBid",
          "type": "bytes32"
        },
        {
          "internalType": "uint256",
          "name": "deposit",
          "type": "uint256"
        }
      ],
      "stateMutability": "view",
      "type": "function"
    },
    {
      "inputs": [],
      "name": "clientAddress",
      "outputs": [
        {
          "internalType": "address",
          "name": "",
          "type": "address"
        }
      ],
      "stateMutability": "view",
      "type": "function"
    },
    {
      "inputs": [],
      "name": "decimals",
      "outputs": [
        {
          "internalType": "uint256",
          "name": "",
          "type": "uint256"
        }
      ],
      "stateMutability": "view",
      "type": "function"
    },
    {
      "inputs": [],
      "name": "ended",
      "outputs": [
        {
          "internalType": "bool",
          "name": "",
          "type": "bool"
        }
      ],
      "stateMutability": "view",
      "type": "function"
    },
    {
      "inputs": [],
      "name": "fees",
      "outputs": [
        {
          "internalType": "uint256",
          "name": "",
          "type": "uint256"
        }
      ],
      "stateMutability": "view",
      "type": "function"
    },
    {
      "inputs": [],
      "name": "freelancerAddress",
      "outputs": [
        {
          "internalType": "address",
          "name": "",
          "type": "address"
        }
      ],
      "stateMutability": "view",
      "type": "function"
    },
    {
      "inputs": [],
      "name": "highestBid",
      "outputs": [
        {
          "internalType": "uint256",
          "name": "",
          "type": "uint256"
        }
      ],
      "stateMutability": "view",
      "type": "function"
    },
    {
      "inputs": [],
      "name": "highestBidder",
      "outputs": [
        {
          "internalType": "address",
          "name": "",
          "type": "address"
        }
      ],
      "stateMutability": "view",
      "type": "function"
    },
    {
      "inputs": [],
      "name": "jobIPFSHash",
      "outputs": [
        {
          "internalType": "bytes",
          "name": "",
          "type": "bytes"
        }
      ],
      "stateMutability": "view",
      "type": "function"
    },
    {
      "inputs": [],
      "name": "lanceContract",
      "outputs": [
        {
          "internalType": "contract ILance",
          "name": "",
          "type": "address"
        }
      ],
      "stateMutability": "view",
      "type": "function"
    },
    {
      "inputs": [
        {
          "internalType": "uint256[]",
          "name": "values",
          "type": "uint256[]"
        },
        {
          "internalType": "bytes32[]",
          "name": "secrets",
          "type": "bytes32[]"
        },
        {
          "internalType": "address",
          "name": "bidder",
          "type": "address"
        }
      ],
      "name": "reveal",
      "outputs": [],
      "stateMutability": "nonpayable",
      "type": "function"
    },
    {
      "inputs": [],
      "name": "revealEnd",
      "outputs": [
        {
          "internalType": "uint256",
          "name": "",
          "type": "uint256"
        }
      ],
      "stateMutability": "view",
      "type": "function"
    },
    {
      "inputs": [],
      "name": "secondHighestBid",
      "outputs": [
        {
          "internalType": "uint256",
          "name": "",
          "type": "uint256"
        }
      ],
      "stateMutability": "view",
      "type": "function"
    },
    {
      "inputs": [],
      "name": "token",
      "outputs": [
        {
          "internalType": "contract IERC20",
          "name": "",
          "type": "address"
        }
      ],
      "stateMutability": "view",
      "type": "function"
    },
    {
      "inputs": [
        {
          "internalType": "address",
          "name": "bidder",
          "type": "address"
        }
      ],
      "name": "withdraw",
      "outputs": [],
      "stateMutability": "nonpayable",
      "type": "function"
    }
  ],
  "bytecode": "0x60806040523480156200001157600080fd5b506040516200145a3803806200145a8339810160408190526200003491620000f4565b600680546001600160a01b0319166001600160a01b0386161790556200005b88426200022f565b60008190556200006d9088906200022f565b600155600480546001600160a01b038089166001600160a01b0319928316179092556005805492881692909116919091179055600d620000ae8482620002e8565b50600e91909155600f5550620003b4945050505050565b6001600160a01b0381168114620000db57600080fd5b50565b634e487b7160e01b600052604160045260246000fd5b600080600080600080600080610100898b0312156200011257600080fd5b885197506020808a0151975060408a01516200012e81620000c5565b60608b01519097506200014181620000c5565b60808b01519096506200015481620000c5565b60a08b01519095506001600160401b03808211156200017257600080fd5b818c0191508c601f8301126200018757600080fd5b8151818111156200019c576200019c620000de565b604051601f8201601f19908116603f01168101908382118183101715620001c757620001c7620000de565b816040528281528f86848701011115620001e057600080fd5b600093505b82841015620002045784840186015181850187015292850192620001e5565b60009281019095019190915250505060c08a015160e0909a0151989b979a5095989497939692505050565b808201808211156200025157634e487b7160e01b600052601160045260246000fd5b92915050565b600181811c908216806200026c57607f821691505b6020821081036200028d57634e487b7160e01b600052602260045260246000fd5b50919050565b601f821115620002e3576000816000526020600020601f850160051c81016020861015620002be5750805b601f850160051c820191505b81811015620002df57828155600101620002ca565b5050505b505050565b81516001600160401b03811115620003045762000304620000de565b6200031c8162000315845462000257565b8462000293565b602080601f8311600181146200035457600084156200033b5750858301515b600019600386901b1c1916600185901b178555620002df565b600085815260208120601f198616915b82811015620003855788860151825594840194600190910190840162000364565b5085821015620003a45787850151600019600388901b60f8161c191681555b5050505050600190811b01905550565b61109680620003c46000396000f3fe608060405234801561001057600080fd5b50600436106101515760003560e01c806357ea94ba116100cd578063acb902f611610081578063d57bde7911610066578063d57bde7914610297578063d97d1ca7146102a0578063fc0c546a146102b357600080fd5b8063acb902f614610279578063b42f39f71461028257600080fd5b80639af1d35a116100b25780639af1d35a14610254578063a6e664771461025d578063a754807a1461026657600080fd5b806357ea94ba1461022e57806391f901571461024157600080fd5b80632a24f46c11610124578063313ce56711610109578063313ce567146101fb578063423b217f1461021257806351cff8d91461021b57600080fd5b80632a24f46c146101e05780632c2ab5ea146101e857600080fd5b806301495c1c14610156578063052857b81461018357806306a4e7cb1461019857806312fa6feb146101c3575b600080fd5b610169610164366004610cc3565b6102c6565b604080519283526020830191909152015b60405180910390f35b610196610191366004610d39565b610302565b005b6007546101ab906001600160a01b031681565b6040516001600160a01b03909116815260200161017a565b6002546101d09060ff1681565b604051901515815260200161017a565b6101966104e1565b6006546101ab906001600160a01b031681565b610204600e5481565b60405190815260200161017a565b61020460005481565b610196610229366004610dba565b6106b1565b61019661023c366004610dd5565b6106f7565b6009546101ab906001600160a01b031681565b610204600f5481565b61020460015481565b610204610274366004610e08565b610754565b610204600b5481565b61028a610775565b60405161017a9190610e21565b610204600a5481565b6005546101ab906001600160a01b031681565b6004546101ab906001600160a01b031681565b600860205281600052604060002081815481106102e257600080fd5b600091825260209091206002909102018054600190910154909250905082565b6001600160a01b03811660009081526008602052604090205484811461032757600080fd5b82811461033357600080fd5b60008060005b83811015610443576001600160a01b038516600090815260086020526040812080548390811061036b5761036b610e70565b906000526020600020906002020190506000808b8b8581811061039057610390610e70565b905060200201358a8a868181106103a9576103a9610e70565b905060200201359150915081816040516020016103d0929190918252602082015260400190565b604051602081830303815290604052805190602001208360000154146103f85750505061043b565b60018301546104079087610e9c565b60018401549096509450818510610434576104228883610803565b15610434576104318287610eaf565b95505b5050600090555b600101610339565b506104598461045484600f546108ce565b6108ef565b6005546040517fa04bc4820000000000000000000000000000000000000000000000000000000081526001600160a01b039091169063a04bc482906104a590600d908590600401610fa0565b600060405180830381600087803b1580156104bf57600080fd5b505af11580156104d3573d6000803e3d6000fd5b505050505050505050505050565b60025460ff161561051e576040517f61cfdcf800000000000000000000000000000000000000000000000000000000815260040160405180910390fd5b600954600a54604080516001600160a01b03909316835260208301919091527fdaec4582d5d9595688c8c98545fdd1c696d41c6aeaeb636737e84ed2f5c00eda910160405180910390a16005546040517f9892ecb60000000000000000000000000000000000000000000000000000000081526001600160a01b0390911690639892ecb6906105b590600d90600090600401610fa0565b600060405180830381600087803b1580156105cf57600080fd5b505af11580156105e3573d6000803e3d6000fd5b50506002805460ff19166001179055506105ff90506003610a9a565b600b819055600a5460009161061391610eaf565b60095490915061062c906001600160a01b0316826108ef565b6005546009546040517f7866dd070000000000000000000000000000000000000000000000000000000081526001600160a01b0392831692637866dd079261067c92911690600d90600401610fc2565b600060405180830381600087803b15801561069657600080fd5b505af11580156106aa573d6000803e3d6000fd5b5050505050565b6001600160a01b0381166000908152600c602052604090205480156106f3576001600160a01b0382166000908152600c60205260408120556106f382826108ef565b5050565b6001600160a01b038316600090815260086020908152604080832081518083019092528482528183018681528154600181810184559286529390942091516002909302909101918255915191015561074f8383610b02565b505050565b6003818154811061076457600080fd5b600091825260209091200154905081565b600d805461078290610ec2565b80601f01602080910402602001604051908101604052809291908181526020018280546107ae90610ec2565b80156107fb5780601f106107d0576101008083540402835291602001916107fb565b820191906000526020600020905b8154815290600101906020018083116107de57829003601f168201915b505050505081565b6003805460018101825560009182527fc2575a0e9e593c00f959f8c92f12db2869c3395a3b0502d05e2516446f71f85b01829055600a548211610848575060006108c8565b6009546001600160a01b03161561088c57600a546009546001600160a01b03166000908152600c602052604081208054909190610886908490610e9c565b90915550505b50600a819055600980547fffffffffffffffffffffffff0000000000000000000000000000000000000000166001600160a01b03841617905560015b92915050565b600e546000906108de8385610fec565b6108e89190611003565b9392505050565b600480546040516370a0823160e01b815230928101929092526000916001600160a01b03909116906370a0823190602401602060405180830381865afa15801561093d573d6000803e3d6000fd5b505050506040513d601f19601f820116820180604052508101906109619190611025565b9050808211156109b85760405162461bcd60e51b815260206004820152600e60248201527f62616c616e6365206973206c6f7700000000000000000000000000000000000060448201526064015b60405180910390fd5b600480546040517fa9059cbb0000000000000000000000000000000000000000000000000000000081526001600160a01b03868116938201939093526024810185905291169063a9059cbb906044016020604051808303816000875af1158015610a26573d6000803e3d6000fd5b505050506040513d601f19601f82011682018060405250810190610a4a919061103e565b50604080513081526001600160a01b03851660208201529081018390527ffda3a3e0e1479b43cb1c701f7576187f4c4ad80768d627387e00184302f7d88e906060015b60405180910390a1505050565b60008080805b8454811015610af2576000858281548110610abd57610abd610e70565b9060005260206000200154905080841015610ad6578093505b838114610ae95780831015610ae9578092505b50600101610aa0565b50806000036108e8575092915050565b600480546040516370a0823160e01b81526001600160a01b0385811693820193909352600092909116906370a0823190602401602060405180830381865afa158015610b52573d6000803e3d6000fd5b505050506040513d601f19601f82011682018060405250810190610b769190611025565b905080821115610bc85760405162461bcd60e51b815260206004820152600e60248201527f62616c616e6365206973206c6f7700000000000000000000000000000000000060448201526064016109af565b600480546040517f23b872dd0000000000000000000000000000000000000000000000000000000081526001600160a01b0386811693820193909352306024820152604481018590529116906323b872dd906064016020604051808303816000875af1158015610c3c573d6000803e3d6000fd5b505050506040513d601f19601f82011682018060405250810190610c60919061103e565b50604080516001600160a01b03851681523060208201529081018390527ffda3a3e0e1479b43cb1c701f7576187f4c4ad80768d627387e00184302f7d88e90606001610a8d565b80356001600160a01b0381168114610cbe57600080fd5b919050565b60008060408385031215610cd657600080fd5b610cdf83610ca7565b946020939093013593505050565b60008083601f840112610cff57600080fd5b50813567ffffffffffffffff811115610d1757600080fd5b6020830191508360208260051b8501011115610d3257600080fd5b9250929050565b600080600080600060608688031215610d5157600080fd5b853567ffffffffffffffff80821115610d6957600080fd5b610d7589838a01610ced565b90975095506020880135915080821115610d8e57600080fd5b50610d9b88828901610ced565b9094509250610dae905060408701610ca7565b90509295509295909350565b600060208284031215610dcc57600080fd5b6108e882610ca7565b600080600060608486031215610dea57600080fd5b610df384610ca7565b95602085013595506040909401359392505050565b600060208284031215610e1a57600080fd5b5035919050565b60006020808352835180602085015260005b81811015610e4f57858101830151858201604001528201610e33565b506000604082860101526040601f19601f8301168501019250505092915050565b634e487b7160e01b600052603260045260246000fd5b634e487b7160e01b600052601160045260246000fd5b808201808211156108c8576108c8610e86565b818103818111156108c8576108c8610e86565b600181811c90821680610ed657607f821691505b602082108103610ef657634e487b7160e01b600052602260045260246000fd5b50919050565b8054600090600181811c9080831680610f1657607f831692505b60208084108203610f3757634e487b7160e01b600052602260045260246000fd5b83885260208801828015610f525760018114610f6857610f93565b60ff198716825285151560051b82019750610f93565b60008981526020902060005b87811015610f8d57815484820152908601908401610f74565b83019850505b5050505050505092915050565b604081526000610fb36040830185610efc565b90508260208301529392505050565b6001600160a01b0383168152604060208201526000610fe46040830184610efc565b949350505050565b80820281158282048414176108c8576108c8610e86565b60008261102057634e487b7160e01b600052601260045260246000fd5b500490565b60006020828403121561103757600080fd5b5051919050565b60006020828403121561105057600080fd5b815180151581146108e857600080fdfea2646970667358221220444a7e9763c86e1f9a04138b5c0fa5fc35265b7be8410c090245ed2fe03ebf2a64736f6c63430008180033",
  "linkReferences": {},
  "deployedLinkReferences": {}
}