{
  "_format": "hh-sol-artifact-1",
  "contractName": "LanceToken",
  "sourceName": "contracts/LanceToken.sol",
  "abi": [
    {
      "inputs": [
        {
          "internalType": "address",
          "name": "signer1",
          "type": "address"
        },
        {
          "internalType": "address",
          "name": "signer2",
          "type": "address"
        },
        {
          "internalType": "address",
          "name": "signer3",
          "type": "address"
        }
      ],
      "stateMutability": "nonpayable",
      "type": "constructor"
    },
    {
      "inputs": [
        {
          "internalType": "uint256",
          "name": "increasedSupply",
          "type": "uint256"
        },
        {
          "internalType": "uint256",
          "name": "cap",
          "type": "uint256"
        }
      ],
      "name": "ERC20ExceededCap",
      "type": "error"
    },
    {
      "inputs": [
        {
          "internalType": "address",
          "name": "spender",
          "type": "address"
        },
        {
          "internalType": "uint256",
          "name": "allowance",
          "type": "uint256"
        },
        {
          "internalType": "uint256",
          "name": "needed",
          "type": "uint256"
        }
      ],
      "name": "ERC20InsufficientAllowance",
      "type": "error"
    },
    {
      "inputs": [
        {
          "internalType": "address",
          "name": "sender",
          "type": "address"
        },
        {
          "internalType": "uint256",
          "name": "balance",
          "type": "uint256"
        },
        {
          "internalType": "uint256",
          "name": "needed",
          "type": "uint256"
        }
      ],
      "name": "ERC20InsufficientBalance",
      "type": "error"
    },
    {
      "inputs": [
        {
          "internalType": "address",
          "name": "approver",
          "type": "address"
        }
      ],
      "name": "ERC20InvalidApprover",
      "type": "error"
    },
    {
      "inputs": [
        {
          "internalType": "uint256",
          "name": "cap",
          "type": "uint256"
        }
      ],
      "name": "ERC20InvalidCap",
      "type": "error"
    },
    {
      "inputs": [
        {
          "internalType": "address",
          "name": "receiver",
          "type": "address"
        }
      ],
      "name": "ERC20InvalidReceiver",
      "type": "error"
    },
    {
      "inputs": [
        {
          "internalType": "address",
          "name": "sender",
          "type": "address"
        }
      ],
      "name": "ERC20InvalidSender",
      "type": "error"
    },
    {
      "inputs": [
        {
          "internalType": "address",
          "name": "spender",
          "type": "address"
        }
      ],
      "name": "ERC20InvalidSpender",
      "type": "error"
    },
    {
      "anonymous": false,
      "inputs": [
        {
          "indexed": true,
          "internalType": "address",
          "name": "owner",
          "type": "address"
        },
        {
          "indexed": true,
          "internalType": "address",
          "name": "spender",
          "type": "address"
        },
        {
          "indexed": false,
          "internalType": "uint256",
          "name": "value",
          "type": "uint256"
        }
      ],
      "name": "Approval",
      "type": "event"
    },
    {
      "anonymous": false,
      "inputs": [
        {
          "indexed": true,
          "internalType": "address",
          "name": "from",
          "type": "address"
        },
        {
          "indexed": true,
          "internalType": "address",
          "name": "to",
          "type": "address"
        },
        {
          "indexed": false,
          "internalType": "uint256",
          "name": "value",
          "type": "uint256"
        }
      ],
      "name": "Transfer",
      "type": "event"
    },
    {
      "inputs": [
        {
          "internalType": "address",
          "name": "owner",
          "type": "address"
        },
        {
          "internalType": "address",
          "name": "spender",
          "type": "address"
        }
      ],
      "name": "allowance",
      "outputs": [
        {
          "internalType": "uint256",
          "name": "",
          "type": "uint256"
        }
      ],
      "stateMutability": "view",
      "type": "function"
    },
    {
      "inputs": [
        {
          "internalType": "address",
          "name": "spender",
          "type": "address"
        },
        {
          "internalType": "uint256",
          "name": "value",
          "type": "uint256"
        }
      ],
      "name": "approve",
      "outputs": [
        {
          "internalType": "bool",
          "name": "",
          "type": "bool"
        }
      ],
      "stateMutability": "nonpayable",
      "type": "function"
    },
    {
      "inputs": [
        {
          "internalType": "address",
          "name": "account",
          "type": "address"
        }
      ],
      "name": "balanceOf",
      "outputs": [
        {
          "internalType": "uint256",
          "name": "",
          "type": "uint256"
        }
      ],
      "stateMutability": "view",
      "type": "function"
    },
    {
      "inputs": [
        {
          "internalType": "uint256",
          "name": "value",
          "type": "uint256"
        }
      ],
      "name": "burn",
      "outputs": [],
      "stateMutability": "nonpayable",
      "type": "function"
    },
    {
      "inputs": [
        {
          "internalType": "address",
          "name": "account",
          "type": "address"
        },
        {
          "internalType": "uint256",
          "name": "value",
          "type": "uint256"
        }
      ],
      "name": "burnFrom",
      "outputs": [],
      "stateMutability": "nonpayable",
      "type": "function"
    },
    {
      "inputs": [],
      "name": "cap",
      "outputs": [
        {
          "internalType": "uint256",
          "name": "",
          "type": "uint256"
        }
      ],
      "stateMutability": "view",
      "type": "function"
    },
    {
      "inputs": [],
      "name": "contract_",
      "outputs": [
        {
          "internalType": "address",
          "name": "",
          "type": "address"
        }
      ],
      "stateMutability": "view",
      "type": "function"
    },
    {
      "inputs": [],
      "name": "decimals",
      "outputs": [
        {
          "internalType": "uint8",
          "name": "",
          "type": "uint8"
        }
      ],
      "stateMutability": "view",
      "type": "function"
    },
    {
      "inputs": [],
      "name": "name",
      "outputs": [
        {
          "internalType": "string",
          "name": "",
          "type": "string"
        }
      ],
      "stateMutability": "view",
      "type": "function"
    },
    {
      "inputs": [],
      "name": "owner",
      "outputs": [
        {
          "internalType": "address payable",
          "name": "",
          "type": "address"
        }
      ],
      "stateMutability": "view",
      "type": "function"
    },
    {
      "inputs": [
        {
          "internalType": "address",
          "name": "to",
          "type": "address"
        },
        {
          "internalType": "uint256",
          "name": "value",
          "type": "uint256"
        }
      ],
      "name": "pay",
      "outputs": [],
      "stateMutability": "nonpayable",
      "type": "function"
    },
    {
      "inputs": [],
      "name": "symbol",
      "outputs": [
        {
          "internalType": "string",
          "name": "",
          "type": "string"
        }
      ],
      "stateMutability": "view",
      "type": "function"
    },
    {
      "inputs": [],
      "name": "totalSupply",
      "outputs": [
        {
          "internalType": "uint256",
          "name": "",
          "type": "uint256"
        }
      ],
      "stateMutability": "view",
      "type": "function"
    },
    {
      "inputs": [
        {
          "internalType": "address",
          "name": "to",
          "type": "address"
        },
        {
          "internalType": "uint256",
          "name": "value",
          "type": "uint256"
        }
      ],
      "name": "transfer",
      "outputs": [
        {
          "internalType": "bool",
          "name": "",
          "type": "bool"
        }
      ],
      "stateMutability": "nonpayable",
      "type": "function"
    },
    {
      "inputs": [
        {
          "internalType": "address",
          "name": "from",
          "type": "address"
        },
        {
          "internalType": "address",
          "name": "to",
          "type": "address"
        },
        {
          "internalType": "uint256",
          "name": "value",
          "type": "uint256"
        }
      ],
      "name": "transferFrom",
      "outputs": [
        {
          "internalType": "bool",
          "name": "",
          "type": "bool"
        }
      ],
      "stateMutability": "nonpayable",
      "type": "function"
    }
  ],
  "bytecode": "0x60a0604052600680546001600160a01b031916301790553480156200002357600080fd5b50604051620010613803806200106183398101604081905262000046916200035b565b620000546012600a620004ba565b620000649063042c1d80620004d2565b6040518060400160405280600a8152602001692630b731b2aa37b5b2b760b11b815250604051806040016040528060038152602001624c4e4360e81b8152508160039081620000b4919062000592565b506004620000c3828262000592565b50505080600003620000f05760405163392e1e2760e01b8152600060048201526024015b60405180910390fd5b608052600580546001600160a01b031916331790556200011a83681043561a88293000006200014f565b6200012f8268056bc75e2d631000006200014f565b62000146816a01a784379d99db420000006200014f565b50505062000674565b6001600160a01b0382166200017b5760405163ec442f0560e01b815260006004820152602401620000e7565b62000189600083836200018d565b5050565b6200019a8383836200019f565b505050565b620001ac8383836200020b565b6001600160a01b0383166200019a576000620001c760805190565b90506000620001d560025490565b905081811115620002045760405163279e7e1560e21b81526004810182905260248101839052604401620000e7565b5050505050565b6001600160a01b0383166200023a5780600260008282546200022e91906200065e565b90915550620002ae9050565b6001600160a01b038316600090815260208190526040902054818110156200028f5760405163391434e360e21b81526001600160a01b03851660048201526024810182905260448101839052606401620000e7565b6001600160a01b03841660009081526020819052604090209082900390555b6001600160a01b038216620002cc57600280548290039055620002eb565b6001600160a01b03821660009081526020819052604090208054820190555b816001600160a01b0316836001600160a01b03167fddf252ad1be2c89b69c2b068fc378daa952ba7f163c4a11628f55a4df523b3ef836040516200033191815260200190565b60405180910390a3505050565b80516001600160a01b03811681146200035657600080fd5b919050565b6000806000606084860312156200037157600080fd5b6200037c846200033e565b92506200038c602085016200033e565b91506200039c604085016200033e565b90509250925092565b634e487b7160e01b600052601160045260246000fd5b600181815b80851115620003fc578160001904821115620003e057620003e0620003a5565b80851615620003ee57918102915b93841c9390800290620003c0565b509250929050565b6000826200041557506001620004b4565b816200042457506000620004b4565b81600181146200043d5760028114620004485762000468565b6001915050620004b4565b60ff8411156200045c576200045c620003a5565b50506001821b620004b4565b5060208310610133831016604e8410600b84101617156200048d575081810a620004b4565b620004998383620003bb565b8060001904821115620004b057620004b0620003a5565b0290505b92915050565b6000620004cb60ff84168362000404565b9392505050565b8082028115828204841417620004b457620004b4620003a5565b634e487b7160e01b600052604160045260246000fd5b600181811c908216806200051757607f821691505b6020821081036200053857634e487b7160e01b600052602260045260246000fd5b50919050565b601f8211156200019a576000816000526020600020601f850160051c81016020861015620005695750805b601f850160051c820191505b818110156200058a5782815560010162000575565b505050505050565b81516001600160401b03811115620005ae57620005ae620004ec565b620005c681620005bf845462000502565b846200053e565b602080601f831160018114620005fe5760008415620005e55750858301515b600019600386901b1c1916600185901b1785556200058a565b600085815260208120601f198616915b828110156200062f578886015182559484019460019091019084016200060e565b50858210156200064e5787850151600019600388901b60f8161c191681555b5050505050600190811b01905550565b80820180821115620004b457620004b4620003a5565b6080516109ca620006976000396000818161019c015261064c01526109ca6000f3fe608060405234801561001057600080fd5b50600436106100f55760003560e01c806342966c681161009757806395d89b411161006657806395d89b4114610224578063a9059cbb1461022c578063c40768761461023f578063dd62ed3e1461025257600080fd5b806342966c68146101c057806370a08231146101d557806379cc6790146101fe5780638da5cb5b1461021157600080fd5b806323b872dd116100d357806323b872dd1461014d578063313ce5671461016057806331e2a8481461016f578063355274ea1461019a57600080fd5b806306fdde03146100fa578063095ea7b31461011857806318160ddd1461013b575b600080fd5b61010261028b565b60405161010f91906107fa565b60405180910390f35b61012b610126366004610865565b61031d565b604051901515815260200161010f565b6002545b60405190815260200161010f565b61012b61015b36600461088f565b610337565b6040516012815260200161010f565b600654610182906001600160a01b031681565b6040516001600160a01b03909116815260200161010f565b7f000000000000000000000000000000000000000000000000000000000000000061013f565b6101d36101ce3660046108cb565b61035b565b005b61013f6101e33660046108e4565b6001600160a01b031660009081526020819052604090205490565b6101d361020c366004610865565b610368565b600554610182906001600160a01b031681565b610102610381565b61012b61023a366004610865565b610390565b6101d361024d366004610865565b61039e565b61013f610260366004610906565b6001600160a01b03918216600090815260016020908152604080832093909416825291909152205490565b60606003805461029a90610939565b80601f01602080910402602001604051908101604052809291908181526020018280546102c690610939565b80156103135780601f106102e857610100808354040283529160200191610313565b820191906000526020600020905b8154815290600101906020018083116102f657829003601f168201915b5050505050905090565b60003361032b8185856103a8565b60019150505b92915050565b6000336103458582856103ba565b610350858585610456565b506001949350505050565b61036533826104b5565b50565b6103738233836103ba565b61037d82826104b5565b5050565b60606004805461029a90610939565b60003361032b818585610456565b61037d82826104eb565b6103b58383836001610521565b505050565b6001600160a01b0383811660009081526001602090815260408083209386168352929052205460001981146104505781811015610441576040517ffb8f41b20000000000000000000000000000000000000000000000000000000081526001600160a01b038416600482015260248101829052604481018390526064015b60405180910390fd5b61045084848484036000610521565b50505050565b6001600160a01b03831661048057604051634b637e8f60e11b815260006004820152602401610438565b6001600160a01b0382166104aa5760405163ec442f0560e01b815260006004820152602401610438565b6103b5838383610628565b6001600160a01b0382166104df57604051634b637e8f60e11b815260006004820152602401610438565b61037d82600083610628565b6001600160a01b0382166105155760405163ec442f0560e01b815260006004820152602401610438565b61037d60008383610628565b6001600160a01b038416610564576040517fe602df0500000000000000000000000000000000000000000000000000000000815260006004820152602401610438565b6001600160a01b0383166105a7576040517f94280d6200000000000000000000000000000000000000000000000000000000815260006004820152602401610438565b6001600160a01b038085166000908152600160209081526040808320938716835292905220829055801561045057826001600160a01b0316846001600160a01b03167f8c5be1e5ebec7d5bd14f71427d1e84f3dd0314c0f7b2291e5b200ac8c7c3b9258460405161061a91815260200190565b60405180910390a350505050565b6103b58383836106398383836106b7565b6001600160a01b0383166103b5576002547f000000000000000000000000000000000000000000000000000000000000000090818111156106b0576040517f9e79f8540000000000000000000000000000000000000000000000000000000081526004810182905260248101839052604401610438565b5050505050565b6001600160a01b0383166106e25780600260008282546106d79190610973565b9091555061076d9050565b6001600160a01b0383166000908152602081905260409020548181101561074e576040517fe450d38c0000000000000000000000000000000000000000000000000000000081526001600160a01b03851660048201526024810182905260448101839052606401610438565b6001600160a01b03841660009081526020819052604090209082900390555b6001600160a01b038216610789576002805482900390556107a8565b6001600160a01b03821660009081526020819052604090208054820190555b816001600160a01b0316836001600160a01b03167fddf252ad1be2c89b69c2b068fc378daa952ba7f163c4a11628f55a4df523b3ef836040516107ed91815260200190565b60405180910390a3505050565b60006020808352835180602085015260005b818110156108285785810183015185820160400152820161080c565b506000604082860101526040601f19601f8301168501019250505092915050565b80356001600160a01b038116811461086057600080fd5b919050565b6000806040838503121561087857600080fd5b61088183610849565b946020939093013593505050565b6000806000606084860312156108a457600080fd5b6108ad84610849565b92506108bb60208501610849565b9150604084013590509250925092565b6000602082840312156108dd57600080fd5b5035919050565b6000602082840312156108f657600080fd5b6108ff82610849565b9392505050565b6000806040838503121561091957600080fd5b61092283610849565b915061093060208401610849565b90509250929050565b600181811c9082168061094d57607f821691505b60208210810361096d57634e487b7160e01b600052602260045260246000fd5b50919050565b8082018082111561033157634e487b7160e01b600052601160045260246000fdfea2646970667358221220d26cfc320028299c1aa368d9ae5e43b637f3aef48c9a09c3d1af4bc19a8e9eb364736f6c63430008180033",
  "linkReferences": {},
  "deployedLinkReferences": {}
}