{
  "_format": "hh-sol-artifact-1",
  "contractName": "LanceToken",
  "sourceName": "contracts/LanceToken.sol",
  "abi": [
    {
      "inputs": [],
      "stateMutability": "nonpayable",
      "type": "constructor"
    },
    {
      "inputs": [],
      "name": "InvalidShortString",
      "type": "error"
    },
    {
      "inputs": [
        {
          "internalType": "string",
          "name": "str",
          "type": "string"
        }
      ],
      "name": "StringTooLong",
      "type": "error"
    },
    {
      "anonymous": false,
      "inputs": [
        {
          "indexed": true,
          "internalType": "address",
          "name": "owner",
          "type": "address"
        },
        {
          "indexed": true,
          "internalType": "address",
          "name": "spender",
          "type": "address"
        },
        {
          "indexed": false,
          "internalType": "uint256",
          "name": "value",
          "type": "uint256"
        }
      ],
      "name": "Approval",
      "type": "event"
    },
    {
      "anonymous": false,
      "inputs": [
        {
          "indexed": true,
          "internalType": "address",
          "name": "delegator",
          "type": "address"
        },
        {
          "indexed": true,
          "internalType": "address",
          "name": "fromDelegate",
          "type": "address"
        },
        {
          "indexed": true,
          "internalType": "address",
          "name": "toDelegate",
          "type": "address"
        }
      ],
      "name": "DelegateChanged",
      "type": "event"
    },
    {
      "anonymous": false,
      "inputs": [
        {
          "indexed": true,
          "internalType": "address",
          "name": "delegate",
          "type": "address"
        },
        {
          "indexed": false,
          "internalType": "uint256",
          "name": "previousBalance",
          "type": "uint256"
        },
        {
          "indexed": false,
          "internalType": "uint256",
          "name": "newBalance",
          "type": "uint256"
        }
      ],
      "name": "DelegateVotesChanged",
      "type": "event"
    },
    {
      "anonymous": false,
      "inputs": [],
      "name": "EIP712DomainChanged",
      "type": "event"
    },
    {
      "anonymous": false,
      "inputs": [
        {
          "indexed": true,
          "internalType": "address",
          "name": "from",
          "type": "address"
        },
        {
          "indexed": true,
          "internalType": "address",
          "name": "to",
          "type": "address"
        },
        {
          "indexed": false,
          "internalType": "uint256",
          "name": "value",
          "type": "uint256"
        }
      ],
      "name": "Transfer",
      "type": "event"
    },
    {
      "inputs": [],
      "name": "CLOCK_MODE",
      "outputs": [
        {
          "internalType": "string",
          "name": "",
          "type": "string"
        }
      ],
      "stateMutability": "view",
      "type": "function"
    },
    {
      "inputs": [],
      "name": "DOMAIN_SEPARATOR",
      "outputs": [
        {
          "internalType": "bytes32",
          "name": "",
          "type": "bytes32"
        }
      ],
      "stateMutability": "view",
      "type": "function"
    },
    {
      "inputs": [
        {
          "internalType": "address",
          "name": "owner",
          "type": "address"
        },
        {
          "internalType": "address",
          "name": "spender",
          "type": "address"
        }
      ],
      "name": "allowance",
      "outputs": [
        {
          "internalType": "uint256",
          "name": "",
          "type": "uint256"
        }
      ],
      "stateMutability": "view",
      "type": "function"
    },
    {
      "inputs": [
        {
          "internalType": "address",
          "name": "spender",
          "type": "address"
        },
        {
          "internalType": "uint256",
          "name": "amount",
          "type": "uint256"
        }
      ],
      "name": "approve",
      "outputs": [
        {
          "internalType": "bool",
          "name": "",
          "type": "bool"
        }
      ],
      "stateMutability": "nonpayable",
      "type": "function"
    },
    {
      "inputs": [
        {
          "internalType": "address",
          "name": "account",
          "type": "address"
        }
      ],
      "name": "balanceOf",
      "outputs": [
        {
          "internalType": "uint256",
          "name": "",
          "type": "uint256"
        }
      ],
      "stateMutability": "view",
      "type": "function"
    },
    {
      "inputs": [
        {
          "internalType": "uint256",
          "name": "amount",
          "type": "uint256"
        }
      ],
      "name": "burn",
      "outputs": [],
      "stateMutability": "nonpayable",
      "type": "function"
    },
    {
      "inputs": [
        {
          "internalType": "address",
          "name": "account",
          "type": "address"
        },
        {
          "internalType": "uint256",
          "name": "amount",
          "type": "uint256"
        }
      ],
      "name": "burnFrom",
      "outputs": [],
      "stateMutability": "nonpayable",
      "type": "function"
    },
    {
      "inputs": [],
      "name": "cap",
      "outputs": [
        {
          "internalType": "uint256",
          "name": "",
          "type": "uint256"
        }
      ],
      "stateMutability": "view",
      "type": "function"
    },
    {
      "inputs": [
        {
          "internalType": "address",
          "name": "account",
          "type": "address"
        },
        {
          "internalType": "uint32",
          "name": "pos",
          "type": "uint32"
        }
      ],
      "name": "checkpoints",
      "outputs": [
        {
          "components": [
            {
              "internalType": "uint32",
              "name": "fromBlock",
              "type": "uint32"
            },
            {
              "internalType": "uint224",
              "name": "votes",
              "type": "uint224"
            }
          ],
          "internalType": "struct ERC20Votes.Checkpoint",
          "name": "",
          "type": "tuple"
        }
      ],
      "stateMutability": "view",
      "type": "function"
    },
    {
      "inputs": [],
      "name": "clock",
      "outputs": [
        {
          "internalType": "uint48",
          "name": "",
          "type": "uint48"
        }
      ],
      "stateMutability": "view",
      "type": "function"
    },
    {
      "inputs": [],
      "name": "contract_",
      "outputs": [
        {
          "internalType": "address",
          "name": "",
          "type": "address"
        }
      ],
      "stateMutability": "view",
      "type": "function"
    },
    {
      "inputs": [],
      "name": "decimals",
      "outputs": [
        {
          "internalType": "uint8",
          "name": "",
          "type": "uint8"
        }
      ],
      "stateMutability": "view",
      "type": "function"
    },
    {
      "inputs": [
        {
          "internalType": "address",
          "name": "spender",
          "type": "address"
        },
        {
          "internalType": "uint256",
          "name": "subtractedValue",
          "type": "uint256"
        }
      ],
      "name": "decreaseAllowance",
      "outputs": [
        {
          "internalType": "bool",
          "name": "",
          "type": "bool"
        }
      ],
      "stateMutability": "nonpayable",
      "type": "function"
    },
    {
      "inputs": [
        {
          "internalType": "address",
          "name": "delegatee",
          "type": "address"
        }
      ],
      "name": "delegate",
      "outputs": [],
      "stateMutability": "nonpayable",
      "type": "function"
    },
    {
      "inputs": [
        {
          "internalType": "address",
          "name": "delegatee",
          "type": "address"
        },
        {
          "internalType": "uint256",
          "name": "nonce",
          "type": "uint256"
        },
        {
          "internalType": "uint256",
          "name": "expiry",
          "type": "uint256"
        },
        {
          "internalType": "uint8",
          "name": "v",
          "type": "uint8"
        },
        {
          "internalType": "bytes32",
          "name": "r",
          "type": "bytes32"
        },
        {
          "internalType": "bytes32",
          "name": "s",
          "type": "bytes32"
        }
      ],
      "name": "delegateBySig",
      "outputs": [],
      "stateMutability": "nonpayable",
      "type": "function"
    },
    {
      "inputs": [
        {
          "internalType": "address",
          "name": "account",
          "type": "address"
        }
      ],
      "name": "delegates",
      "outputs": [
        {
          "internalType": "address",
          "name": "",
          "type": "address"
        }
      ],
      "stateMutability": "view",
      "type": "function"
    },
    {
      "inputs": [],
      "name": "eip712Domain",
      "outputs": [
        {
          "internalType": "bytes1",
          "name": "fields",
          "type": "bytes1"
        },
        {
          "internalType": "string",
          "name": "name",
          "type": "string"
        },
        {
          "internalType": "string",
          "name": "version",
          "type": "string"
        },
        {
          "internalType": "uint256",
          "name": "chainId",
          "type": "uint256"
        },
        {
          "internalType": "address",
          "name": "verifyingContract",
          "type": "address"
        },
        {
          "internalType": "bytes32",
          "name": "salt",
          "type": "bytes32"
        },
        {
          "internalType": "uint256[]",
          "name": "extensions",
          "type": "uint256[]"
        }
      ],
      "stateMutability": "view",
      "type": "function"
    },
    {
      "inputs": [
        {
          "internalType": "uint256",
          "name": "timepoint",
          "type": "uint256"
        }
      ],
      "name": "getPastTotalSupply",
      "outputs": [
        {
          "internalType": "uint256",
          "name": "",
          "type": "uint256"
        }
      ],
      "stateMutability": "view",
      "type": "function"
    },
    {
      "inputs": [
        {
          "internalType": "address",
          "name": "account",
          "type": "address"
        },
        {
          "internalType": "uint256",
          "name": "timepoint",
          "type": "uint256"
        }
      ],
      "name": "getPastVotes",
      "outputs": [
        {
          "internalType": "uint256",
          "name": "",
          "type": "uint256"
        }
      ],
      "stateMutability": "view",
      "type": "function"
    },
    {
      "inputs": [
        {
          "internalType": "address",
          "name": "account",
          "type": "address"
        }
      ],
      "name": "getVotes",
      "outputs": [
        {
          "internalType": "uint256",
          "name": "",
          "type": "uint256"
        }
      ],
      "stateMutability": "view",
      "type": "function"
    },
    {
      "inputs": [
        {
          "internalType": "address",
          "name": "spender",
          "type": "address"
        },
        {
          "internalType": "uint256",
          "name": "addedValue",
          "type": "uint256"
        }
      ],
      "name": "increaseAllowance",
      "outputs": [
        {
          "internalType": "bool",
          "name": "",
          "type": "bool"
        }
      ],
      "stateMutability": "nonpayable",
      "type": "function"
    },
    {
      "inputs": [],
      "name": "name",
      "outputs": [
        {
          "internalType": "string",
          "name": "",
          "type": "string"
        }
      ],
      "stateMutability": "view",
      "type": "function"
    },
    {
      "inputs": [
        {
          "internalType": "address",
          "name": "owner",
          "type": "address"
        }
      ],
      "name": "nonces",
      "outputs": [
        {
          "internalType": "uint256",
          "name": "",
          "type": "uint256"
        }
      ],
      "stateMutability": "view",
      "type": "function"
    },
    {
      "inputs": [
        {
          "internalType": "address",
          "name": "account",
          "type": "address"
        }
      ],
      "name": "numCheckpoints",
      "outputs": [
        {
          "internalType": "uint32",
          "name": "",
          "type": "uint32"
        }
      ],
      "stateMutability": "view",
      "type": "function"
    },
    {
      "inputs": [],
      "name": "owner",
      "outputs": [
        {
          "internalType": "address payable",
          "name": "",
          "type": "address"
        }
      ],
      "stateMutability": "view",
      "type": "function"
    },
    {
      "inputs": [
        {
          "internalType": "address",
          "name": "to",
          "type": "address"
        },
        {
          "internalType": "uint256",
          "name": "value",
          "type": "uint256"
        }
      ],
      "name": "pay",
      "outputs": [],
      "stateMutability": "nonpayable",
      "type": "function"
    },
    {
      "inputs": [
        {
          "internalType": "address",
          "name": "owner",
          "type": "address"
        },
        {
          "internalType": "address",
          "name": "spender",
          "type": "address"
        },
        {
          "internalType": "uint256",
          "name": "value",
          "type": "uint256"
        },
        {
          "internalType": "uint256",
          "name": "deadline",
          "type": "uint256"
        },
        {
          "internalType": "uint8",
          "name": "v",
          "type": "uint8"
        },
        {
          "internalType": "bytes32",
          "name": "r",
          "type": "bytes32"
        },
        {
          "internalType": "bytes32",
          "name": "s",
          "type": "bytes32"
        }
      ],
      "name": "permit",
      "outputs": [],
      "stateMutability": "nonpayable",
      "type": "function"
    },
    {
      "inputs": [],
      "name": "symbol",
      "outputs": [
        {
          "internalType": "string",
          "name": "",
          "type": "string"
        }
      ],
      "stateMutability": "view",
      "type": "function"
    },
    {
      "inputs": [],
      "name": "totalSupply",
      "outputs": [
        {
          "internalType": "uint256",
          "name": "",
          "type": "uint256"
        }
      ],
      "stateMutability": "view",
      "type": "function"
    },
    {
      "inputs": [
        {
          "internalType": "address",
          "name": "to",
          "type": "address"
        },
        {
          "internalType": "uint256",
          "name": "amount",
          "type": "uint256"
        }
      ],
      "name": "transfer",
      "outputs": [
        {
          "internalType": "bool",
          "name": "",
          "type": "bool"
        }
      ],
      "stateMutability": "nonpayable",
      "type": "function"
    },
    {
      "inputs": [
        {
          "internalType": "address",
          "name": "from",
          "type": "address"
        },
        {
          "internalType": "address",
          "name": "to",
          "type": "address"
        },
        {
          "internalType": "uint256",
          "name": "amount",
          "type": "uint256"
        }
      ],
      "name": "transferFrom",
      "outputs": [
        {
          "internalType": "bool",
          "name": "",
          "type": "bool"
        }
      ],
      "stateMutability": "nonpayable",
      "type": "function"
    }
  ],
  "bytecode": "0x610180604052600d80546001600160a01b031916301790553480156200002457600080fd5b506040518060400160405280600a8152602001692630b731b2aa37b5b2b760b11b81525080604051806040016040528060018152602001603160f81b815250620000736200021b60201b60201c565b6200008090600a620003af565b620000909063042c1d80620003c7565b6040518060400160405280600a8152602001692630b731b2aa37b5b2b760b11b815250604051806040016040528060038152602001624c4e4360e81b8152508160039081620000e0919062000488565b506004620000ef828262000488565b50505060008111620001485760405162461bcd60e51b815260206004820152601560248201527f45524332304361707065643a206361702069732030000000000000000000000060448201526064015b60405180910390fd5b6080526200015882600562000220565b610140526200016981600662000220565b61016052815160208084019190912061010052815190820120610120524660c052620001f96101005161012051604080517f8b73c3c69bb8fe3d512ecc4cf759cc79239f7b179b0ffacaa9a75d522b39400f60208201529081019290925260608201524660808201523060a082015260009060c00160405160208183030381529060405280519060200120905090565b60a05250503060e05250600c80546001600160a01b03191633179055620005ca565b601290565b60006020835110156200024057620002388362000259565b905062000253565b816200024d848262000488565b5060ff90505b92915050565b600080829050601f8151111562000287578260405163305a27a960e01b81526004016200013f919062000554565b80516200029482620005a5565b179392505050565b634e487b7160e01b600052601160045260246000fd5b600181815b80851115620002f3578160001904821115620002d757620002d76200029c565b80851615620002e557918102915b93841c9390800290620002b7565b509250929050565b6000826200030c5750600162000253565b816200031b5750600062000253565b81600181146200033457600281146200033f576200035f565b600191505062000253565b60ff8411156200035357620003536200029c565b50506001821b62000253565b5060208310610133831016604e8410600b841016171562000384575081810a62000253565b620003908383620002b2565b8060001904821115620003a757620003a76200029c565b029392505050565b6000620003c060ff841683620002fb565b9392505050565b80820281158282048414176200025357620002536200029c565b634e487b7160e01b600052604160045260246000fd5b600181811c908216806200040c57607f821691505b6020821081036200042d57634e487b7160e01b600052602260045260246000fd5b50919050565b601f82111562000483576000816000526020600020601f850160051c810160208610156200045e5750805b601f850160051c820191505b818110156200047f578281556001016200046a565b5050505b505050565b81516001600160401b03811115620004a457620004a4620003e1565b620004bc81620004b58454620003f7565b8462000433565b602080601f831160018114620004f45760008415620004db5750858301515b600019600386901b1c1916600185901b1785556200047f565b600085815260208120601f198616915b82811015620005255788860151825594840194600190910190840162000504565b5085821015620005445787850151600019600388901b60f8161c191681555b5050505050600190811b01905550565b60006020808352835180602085015260005b81811015620005845785810183015185820160400152820162000566565b506000604082860101526040601f19601f8301168501019250505092915050565b805160208083015191908110156200042d5760001960209190910360031b1b16919050565b60805160a05160c05160e051610100516101205161014051610160516125806200063760003960006107ee015260006107c3015260006111f8015260006111d00152600061112b015260006111550152600061117f01526000818161028c0152611f9b01526125806000f3fe608060405234801561001057600080fd5b50600436106101e55760003560e01c806370a082311161010f5780639ab24eb0116100a2578063c407687611610071578063c407687614610465578063d505accf14610478578063dd62ed3e1461048b578063f1127ed8146104c457600080fd5b80639ab24eb014610419578063a457c2d71461042c578063a9059cbb1461043f578063c3cda5201461045257600080fd5b80638da5cb5b116100de5780638da5cb5b146103cc5780638e539e8c146103df57806391ddadf4146103f257806395d89b411461041157600080fd5b806370a082311461036257806379cc67901461038b5780637ecebe001461039e57806384b0196e146103b157600080fd5b80633644e515116101875780634bf5d7e9116101565780634bf5d7e9146102f3578063587cde1e146102fb5780635c19a95c146103275780636fcfff451461033a57600080fd5b80633644e515146102b057806339509351146102b85780633a46b1a8146102cb57806342966c68146102de57600080fd5b806323b872dd116101c357806323b872dd1461023d578063313ce5671461025057806331e2a8481461025f578063355274ea1461028a57600080fd5b806306fdde03146101ea578063095ea7b31461020857806318160ddd1461022b575b600080fd5b6101f2610501565b6040516101ff91906121b2565b60405180910390f35b61021b6102163660046121e1565b610593565b60405190151581526020016101ff565b6002545b6040519081526020016101ff565b61021b61024b36600461220b565b6105ad565b604051601281526020016101ff565b600d54610272906001600160a01b031681565b6040516001600160a01b0390911681526020016101ff565b7f000000000000000000000000000000000000000000000000000000000000000061022f565b61022f6105d1565b61021b6102c63660046121e1565b6105e0565b61022f6102d93660046121e1565b61061f565b6102f16102ec366004612247565b6106ad565b005b6101f26106ba565b610272610309366004612260565b6001600160a01b039081166000908152600960205260409020541690565b6102f1610335366004612260565b610752565b61034d610348366004612260565b61075c565b60405163ffffffff90911681526020016101ff565b61022f610370366004612260565b6001600160a01b031660009081526020819052604090205490565b6102f16103993660046121e1565b61077e565b61022f6103ac366004612260565b610797565b6103b96107b5565b6040516101ff979695949392919061227b565b600c54610272906001600160a01b031681565b61022f6103ed366004612247565b61085a565b6103fa6108c5565b60405165ffffffffffff90911681526020016101ff565b6101f26108d0565b61022f610427366004612260565b6108df565b61021b61043a3660046121e1565b610961565b61021b61044d3660046121e1565b610a0b565b6102f1610460366004612341565b610a19565b6102f16104733660046121e1565b610b4f565b6102f1610486366004612399565b610b59565b61022f610499366004612403565b6001600160a01b03918216600090815260016020908152604080832093909416825291909152205490565b6104d76104d2366004612436565b610cbd565b60408051825163ffffffff1681526020928301516001600160e01b031692810192909252016101ff565b60606003805461051090612476565b80601f016020809104026020016040519081016040528092919081815260200182805461053c90612476565b80156105895780601f1061055e57610100808354040283529160200191610589565b820191906000526020600020905b81548152906001019060200180831161056c57829003601f168201915b5050505050905090565b6000336105a1818585610d41565b60019150505b92915050565b6000336105bb858285610e99565b6105c6858585610f2b565b506001949350505050565b60006105db61111e565b905090565b3360008181526001602090815260408083206001600160a01b03871684529091528120549091906105a1908290869061061a9087906124c0565b610d41565b60006106296108c5565b65ffffffffffff1682106106845760405162461bcd60e51b815260206004820152601960248201527f4552433230566f7465733a20667574757265206c6f6f6b75700000000000000060448201526064015b60405180910390fd5b6001600160a01b0383166000908152600a602052604090206106a69083611249565b9392505050565b6106b73382611332565b50565b6060436106c56108c5565b65ffffffffffff161461071a5760405162461bcd60e51b815260206004820152601d60248201527f4552433230566f7465733a2062726f6b656e20636c6f636b206d6f6465000000604482015260640161067b565b5060408051808201909152601d81527f6d6f64653d626c6f636b6e756d6265722666726f6d3d64656661756c74000000602082015290565b6106b7338261133c565b6001600160a01b0381166000908152600a60205260408120546105a7906113cd565b610789823383610e99565b6107938282611332565b5050565b6001600160a01b0381166000908152600760205260408120546105a7565b6000606080828080836107e97f0000000000000000000000000000000000000000000000000000000000000000600561144d565b6108147f0000000000000000000000000000000000000000000000000000000000000000600661144d565b604080516000808252602082019092527f0f000000000000000000000000000000000000000000000000000000000000009b939a50919850469750309650945092509050565b60006108646108c5565b65ffffffffffff1682106108ba5760405162461bcd60e51b815260206004820152601960248201527f4552433230566f7465733a20667574757265206c6f6f6b757000000000000000604482015260640161067b565b6105a7600b83611249565b60006105db436114f8565b60606004805461051090612476565b6001600160a01b0381166000908152600a6020526040812054801561094e576001600160a01b0383166000908152600a602052604090208054600019830190811061092c5761092c6124d3565b60009182526020909120015464010000000090046001600160e01b0316610951565b60005b6001600160e01b03169392505050565b3360008181526001602090815260408083206001600160a01b0387168452909152812054909190838110156109fe5760405162461bcd60e51b815260206004820152602560248201527f45524332303a2064656372656173656420616c6c6f77616e63652062656c6f7760448201527f207a65726f000000000000000000000000000000000000000000000000000000606482015260840161067b565b6105c68286868403610d41565b6000336105a1818585610f2b565b83421115610a695760405162461bcd60e51b815260206004820152601d60248201527f4552433230566f7465733a207369676e61747572652065787069726564000000604482015260640161067b565b604080517fe48329057bfd03d55e49b547132e39cffd9c1820ad7b9d4c5307691425d15adf60208201526001600160a01b038816918101919091526060810186905260808101859052600090610ae390610adb9060a00160405160208183030381529060405280519060200120611576565b8585856115be565b9050610aee816115e6565b8614610b3c5760405162461bcd60e51b815260206004820152601960248201527f4552433230566f7465733a20696e76616c6964206e6f6e636500000000000000604482015260640161067b565b610b46818861133c565b50505050505050565b610793828261160e565b83421115610ba95760405162461bcd60e51b815260206004820152601d60248201527f45524332305065726d69743a206578706972656420646561646c696e65000000604482015260640161067b565b60007f6e71edae12b1b97f4d1f60370fef10105fa2faae0126114a169c64845d6126c9888888610bd88c6115e6565b6040805160208101969096526001600160a01b0394851690860152929091166060840152608083015260a082015260c0810186905260e0016040516020818303038152906040528051906020012090506000610c3382611576565b90506000610c43828787876115be565b9050896001600160a01b0316816001600160a01b031614610ca65760405162461bcd60e51b815260206004820152601e60248201527f45524332305065726d69743a20696e76616c6964207369676e61747572650000604482015260640161067b565b610cb18a8a8a610d41565b50505050505050505050565b60408051808201909152600080825260208201526001600160a01b0383166000908152600a60205260409020805463ffffffff8416908110610d0157610d016124d3565b60009182526020918290206040805180820190915291015463ffffffff8116825264010000000090046001600160e01b0316918101919091529392505050565b6001600160a01b038316610dbc5760405162461bcd60e51b8152602060048201526024808201527f45524332303a20617070726f76652066726f6d20746865207a65726f2061646460448201527f7265737300000000000000000000000000000000000000000000000000000000606482015260840161067b565b6001600160a01b038216610e385760405162461bcd60e51b815260206004820152602260248201527f45524332303a20617070726f766520746f20746865207a65726f20616464726560448201527f7373000000000000000000000000000000000000000000000000000000000000606482015260840161067b565b6001600160a01b0383811660008181526001602090815260408083209487168084529482529182902085905590518481527f8c5be1e5ebec7d5bd14f71427d1e84f3dd0314c0f7b2291e5b200ac8c7c3b925910160405180910390a3505050565b6001600160a01b038381166000908152600160209081526040808320938616835292905220546000198114610f255781811015610f185760405162461bcd60e51b815260206004820152601d60248201527f45524332303a20696e73756666696369656e7420616c6c6f77616e6365000000604482015260640161067b565b610f258484848403610d41565b50505050565b6001600160a01b038316610fa75760405162461bcd60e51b815260206004820152602560248201527f45524332303a207472616e736665722066726f6d20746865207a65726f20616460448201527f6472657373000000000000000000000000000000000000000000000000000000606482015260840161067b565b6001600160a01b0382166110235760405162461bcd60e51b815260206004820152602360248201527f45524332303a207472616e7366657220746f20746865207a65726f206164647260448201527f6573730000000000000000000000000000000000000000000000000000000000606482015260840161067b565b6001600160a01b038316600090815260208190526040902054818110156110b25760405162461bcd60e51b815260206004820152602660248201527f45524332303a207472616e7366657220616d6f756e742065786365656473206260448201527f616c616e63650000000000000000000000000000000000000000000000000000606482015260840161067b565b6001600160a01b03848116600081815260208181526040808320878703905593871680835291849020805487019055925185815290927fddf252ad1be2c89b69c2b068fc378daa952ba7f163c4a11628f55a4df523b3ef910160405180910390a3610f2584848461161d565b6000306001600160a01b037f00000000000000000000000000000000000000000000000000000000000000001614801561117757507f000000000000000000000000000000000000000000000000000000000000000046145b156111a157507f000000000000000000000000000000000000000000000000000000000000000090565b6105db604080517f8b73c3c69bb8fe3d512ecc4cf759cc79239f7b179b0ffacaa9a75d522b39400f60208201527f0000000000000000000000000000000000000000000000000000000000000000918101919091527f000000000000000000000000000000000000000000000000000000000000000060608201524660808201523060a082015260009060c00160405160208183030381529060405280519060200120905090565b8154600090818160058111156112a357600061126484611628565b61126e90856124e9565b600088815260209020909150869082015463ffffffff161115611293578091506112a1565b61129e8160016124c0565b92505b505b808210156112f05760006112b78383611710565b600088815260209020909150869082015463ffffffff1611156112dc578091506112ea565b6112e78160016124c0565b92505b506112a3565b801561131c576000868152602090208101600019015464010000000090046001600160e01b031661131f565b60005b6001600160e01b03169695505050505050565b610793828261172b565b6001600160a01b038281166000818152600960208181526040808420805485845282862054949093528787167fffffffffffffffffffffffff00000000000000000000000000000000000000008416811790915590519190951694919391928592917f3134e8a2e6d97e929a7e54011ea5485d7d196dd5f0ba4d4ef95803e8e3fc257f9190a4610f25828483611743565b600063ffffffff8211156114495760405162461bcd60e51b815260206004820152602660248201527f53616665436173743a2076616c756520646f65736e27742066697420696e203360448201527f3220626974730000000000000000000000000000000000000000000000000000606482015260840161067b565b5090565b606060ff83146114675761146083611880565b90506105a7565b81805461147390612476565b80601f016020809104026020016040519081016040528092919081815260200182805461149f90612476565b80156114ec5780601f106114c1576101008083540402835291602001916114ec565b820191906000526020600020905b8154815290600101906020018083116114cf57829003601f168201915b505050505090506105a7565b600065ffffffffffff8211156114495760405162461bcd60e51b815260206004820152602660248201527f53616665436173743a2076616c756520646f65736e27742066697420696e203460448201527f3820626974730000000000000000000000000000000000000000000000000000606482015260840161067b565b60006105a761158361111e565b836040517f19010000000000000000000000000000000000000000000000000000000000008152600281019290925260228201526042902090565b60008060006115cf878787876118bf565b915091506115dc81611983565b5095945050505050565b6001600160a01b03811660009081526007602052604090208054600181018255905b50919050565b6107938282611ae8565b505050565b611618838383611b7f565b60008160000361163a57506000919050565b6000600161164784611bb1565b901c6001901b90506001818481611660576116606124fc565b048201901c90506001818481611678576116786124fc565b048201901c90506001818481611690576116906124fc565b048201901c905060018184816116a8576116a86124fc565b048201901c905060018184816116c0576116c06124fc565b048201901c905060018184816116d8576116d86124fc565b048201901c905060018184816116f0576116f06124fc565b048201901c90506106a68182858161170a5761170a6124fc565b04611c45565b600061171f6002848418612512565b6106a6908484166124c0565b6117358282611c5b565b610f25600b611dcb83611dd7565b816001600160a01b0316836001600160a01b0316141580156117655750600081115b15611618576001600160a01b038316156117f3576001600160a01b0383166000908152600a6020526040812081906117a090611dcb85611dd7565b91509150846001600160a01b03167fdec2bacdd2f05b59de34da9b523dff8be42e5e38e818c82fdb0bae774387a72483836040516117e8929190918252602082015260400190565b60405180910390a250505b6001600160a01b03821615611618576001600160a01b0382166000908152600a60205260408120819061182990611f4c85611dd7565b91509150836001600160a01b03167fdec2bacdd2f05b59de34da9b523dff8be42e5e38e818c82fdb0bae774387a7248383604051611871929190918252602082015260400190565b60405180910390a25050505050565b6060600061188d83611f58565b604080516020808252818301909252919250600091906020820181803683375050509182525060208101929092525090565b6000807f7fffffffffffffffffffffffffffffff5d576e7357a4501ddfe92f46681b20a08311156118f6575060009050600361197a565b6040805160008082526020820180845289905260ff881692820192909252606081018690526080810185905260019060a0016020604051602081039080840390855afa15801561194a573d6000803e3d6000fd5b5050604051601f1901519150506001600160a01b0381166119735760006001925092505061197a565b9150600090505b94509492505050565b600081600481111561199757611997612534565b0361199f5750565b60018160048111156119b3576119b3612534565b03611a005760405162461bcd60e51b815260206004820152601860248201527f45434453413a20696e76616c6964207369676e61747572650000000000000000604482015260640161067b565b6002816004811115611a1457611a14612534565b03611a615760405162461bcd60e51b815260206004820152601f60248201527f45434453413a20696e76616c6964207369676e6174757265206c656e67746800604482015260640161067b565b6003816004811115611a7557611a75612534565b036106b75760405162461bcd60e51b815260206004820152602260248201527f45434453413a20696e76616c6964207369676e6174757265202773272076616c60448201527f7565000000000000000000000000000000000000000000000000000000000000606482015260840161067b565b611af28282611f99565b6002546001600160e01b031015611b715760405162461bcd60e51b815260206004820152603060248201527f4552433230566f7465733a20746f74616c20737570706c79207269736b73206f60448201527f766572666c6f77696e6720766f74657300000000000000000000000000000000606482015260840161067b565b610f25600b611f4c83611dd7565b6001600160a01b0383811660009081526009602052604080822054858416835291205461161892918216911683611743565b600080608083901c15611bc657608092831c92015b604083901c15611bd857604092831c92015b602083901c15611bea57602092831c92015b601083901c15611bfc57601092831c92015b600883901c15611c0e57600892831c92015b600483901c15611c2057600492831c92015b600283901c15611c3257600292831c92015b600183901c156105a75760010192915050565b6000818310611c5457816106a6565b5090919050565b6001600160a01b038216611cd75760405162461bcd60e51b815260206004820152602160248201527f45524332303a206275726e2066726f6d20746865207a65726f2061646472657360448201527f7300000000000000000000000000000000000000000000000000000000000000606482015260840161067b565b6001600160a01b03821660009081526020819052604090205481811015611d665760405162461bcd60e51b815260206004820152602260248201527f45524332303a206275726e20616d6f756e7420657863656564732062616c616e60448201527f6365000000000000000000000000000000000000000000000000000000000000606482015260840161067b565b6001600160a01b0383166000818152602081815260408083208686039055600280548790039055518581529192917fddf252ad1be2c89b69c2b068fc378daa952ba7f163c4a11628f55a4df523b3ef910160405180910390a36116188360008461161d565b60006106a682846124e9565b82546000908190818115611e245760008781526020902082016000190160408051808201909152905463ffffffff8116825264010000000090046001600160e01b03166020820152611e39565b60408051808201909152600080825260208201525b905080602001516001600160e01b03169350611e5984868863ffffffff16565b9250600082118015611e835750611e6e6108c5565b65ffffffffffff16816000015163ffffffff16145b15611ec857611e9183612026565b60008881526020902083016000190180546001600160e01b03929092166401000000000263ffffffff909216919091179055611f42565b866040518060400160405280611eec611edf6108c5565b65ffffffffffff166113cd565b63ffffffff168152602001611f0086612026565b6001600160e01b0390811690915282546001810184556000938452602093849020835194909301519091166401000000000263ffffffff909316929092179101555b5050935093915050565b60006106a682846124c0565b600060ff8216601f8111156105a7576040517fb3512b0c00000000000000000000000000000000000000000000000000000000815260040160405180910390fd5b7f000000000000000000000000000000000000000000000000000000000000000081611fc460025490565b611fce91906124c0565b111561201c5760405162461bcd60e51b815260206004820152601960248201527f45524332304361707065643a2063617020657863656564656400000000000000604482015260640161067b565b61079382826120a5565b60006001600160e01b038211156114495760405162461bcd60e51b815260206004820152602760248201527f53616665436173743a2076616c756520646f65736e27742066697420696e203260448201527f3234206269747300000000000000000000000000000000000000000000000000606482015260840161067b565b6001600160a01b0382166120fb5760405162461bcd60e51b815260206004820152601f60248201527f45524332303a206d696e7420746f20746865207a65726f206164647265737300604482015260640161067b565b806002600082825461210d91906124c0565b90915550506001600160a01b038216600081815260208181526040808320805486019055518481527fddf252ad1be2c89b69c2b068fc378daa952ba7f163c4a11628f55a4df523b3ef910160405180910390a36107936000838361161d565b6000815180845260005b8181101561219257602081850181015186830182015201612176565b506000602082860101526020601f19601f83011685010191505092915050565b6020815260006106a6602083018461216c565b80356001600160a01b03811681146121dc57600080fd5b919050565b600080604083850312156121f457600080fd5b6121fd836121c5565b946020939093013593505050565b60008060006060848603121561222057600080fd5b612229846121c5565b9250612237602085016121c5565b9150604084013590509250925092565b60006020828403121561225957600080fd5b5035919050565b60006020828403121561227257600080fd5b6106a6826121c5565b7fff00000000000000000000000000000000000000000000000000000000000000881681526000602060e060208401526122b860e084018a61216c565b83810360408501526122ca818a61216c565b606085018990526001600160a01b038816608086015260a0850187905284810360c08601528551808252602080880193509091019060005b8181101561231e57835183529284019291840191600101612302565b50909c9b505050505050505050505050565b803560ff811681146121dc57600080fd5b60008060008060008060c0878903121561235a57600080fd5b612363876121c5565b9550602087013594506040870135935061237f60608801612330565b92506080870135915060a087013590509295509295509295565b600080600080600080600060e0888a0312156123b457600080fd5b6123bd886121c5565b96506123cb602089016121c5565b955060408801359450606088013593506123e760808901612330565b925060a0880135915060c0880135905092959891949750929550565b6000806040838503121561241657600080fd5b61241f836121c5565b915061242d602084016121c5565b90509250929050565b6000806040838503121561244957600080fd5b612452836121c5565b9150602083013563ffffffff8116811461246b57600080fd5b809150509250929050565b600181811c9082168061248a57607f821691505b60208210810361160857634e487b7160e01b600052602260045260246000fd5b634e487b7160e01b600052601160045260246000fd5b808201808211156105a7576105a76124aa565b634e487b7160e01b600052603260045260246000fd5b818103818111156105a7576105a76124aa565b634e487b7160e01b600052601260045260246000fd5b60008261252f57634e487b7160e01b600052601260045260246000fd5b500490565b634e487b7160e01b600052602160045260246000fdfea2646970667358221220e1ff81f63d6ae02b4c8befc156ca4aae58480672054a17db5b076aaca70eda4d64736f6c63430008180033",
  "linkReferences": {},
  "deployedLinkReferences": {}
}