{
  "_format": "hh-sol-artifact-1",
  "contractName": "BidToken",
  "sourceName": "contracts/BidToken.sol",
  "abi": [
    {
      "inputs": [],
      "stateMutability": "nonpayable",
      "type": "constructor"
    },
    {
      "anonymous": false,
      "inputs": [
        {
          "indexed": true,
          "internalType": "address",
          "name": "owner",
          "type": "address"
        },
        {
          "indexed": true,
          "internalType": "address",
          "name": "spender",
          "type": "address"
        },
        {
          "indexed": false,
          "internalType": "uint256",
          "name": "value",
          "type": "uint256"
        }
      ],
      "name": "Approval",
      "type": "event"
    },
    {
      "anonymous": false,
      "inputs": [
        {
          "indexed": true,
          "internalType": "address",
          "name": "from",
          "type": "address"
        },
        {
          "indexed": true,
          "internalType": "address",
          "name": "to",
          "type": "address"
        },
        {
          "indexed": false,
          "internalType": "uint256",
          "name": "value",
          "type": "uint256"
        }
      ],
      "name": "Transfer",
      "type": "event"
    },
    {
      "inputs": [
        {
          "internalType": "address",
          "name": "owner",
          "type": "address"
        },
        {
          "internalType": "address",
          "name": "spender",
          "type": "address"
        }
      ],
      "name": "allowance",
      "outputs": [
        {
          "internalType": "uint256",
          "name": "",
          "type": "uint256"
        }
      ],
      "stateMutability": "view",
      "type": "function"
    },
    {
      "inputs": [
        {
          "internalType": "address",
          "name": "spender",
          "type": "address"
        },
        {
          "internalType": "uint256",
          "name": "amount",
          "type": "uint256"
        }
      ],
      "name": "approve",
      "outputs": [
        {
          "internalType": "bool",
          "name": "",
          "type": "bool"
        }
      ],
      "stateMutability": "nonpayable",
      "type": "function"
    },
    {
      "inputs": [
        {
          "internalType": "address",
          "name": "account",
          "type": "address"
        }
      ],
      "name": "balanceOf",
      "outputs": [
        {
          "internalType": "uint256",
          "name": "",
          "type": "uint256"
        }
      ],
      "stateMutability": "view",
      "type": "function"
    },
    {
      "inputs": [
        {
          "internalType": "uint256",
          "name": "amount",
          "type": "uint256"
        }
      ],
      "name": "burn",
      "outputs": [],
      "stateMutability": "nonpayable",
      "type": "function"
    },
    {
      "inputs": [
        {
          "internalType": "address",
          "name": "account",
          "type": "address"
        },
        {
          "internalType": "uint256",
          "name": "amount",
          "type": "uint256"
        }
      ],
      "name": "burnFrom",
      "outputs": [],
      "stateMutability": "nonpayable",
      "type": "function"
    },
    {
      "inputs": [],
      "name": "cap",
      "outputs": [
        {
          "internalType": "uint256",
          "name": "",
          "type": "uint256"
        }
      ],
      "stateMutability": "view",
      "type": "function"
    },
    {
      "inputs": [],
      "name": "contract_",
      "outputs": [
        {
          "internalType": "address",
          "name": "",
          "type": "address"
        }
      ],
      "stateMutability": "view",
      "type": "function"
    },
    {
      "inputs": [],
      "name": "decimals",
      "outputs": [
        {
          "internalType": "uint8",
          "name": "",
          "type": "uint8"
        }
      ],
      "stateMutability": "view",
      "type": "function"
    },
    {
      "inputs": [
        {
          "internalType": "address",
          "name": "spender",
          "type": "address"
        },
        {
          "internalType": "uint256",
          "name": "subtractedValue",
          "type": "uint256"
        }
      ],
      "name": "decreaseAllowance",
      "outputs": [
        {
          "internalType": "bool",
          "name": "",
          "type": "bool"
        }
      ],
      "stateMutability": "nonpayable",
      "type": "function"
    },
    {
      "inputs": [
        {
          "internalType": "address",
          "name": "spender",
          "type": "address"
        },
        {
          "internalType": "uint256",
          "name": "addedValue",
          "type": "uint256"
        }
      ],
      "name": "increaseAllowance",
      "outputs": [
        {
          "internalType": "bool",
          "name": "",
          "type": "bool"
        }
      ],
      "stateMutability": "nonpayable",
      "type": "function"
    },
    {
      "inputs": [],
      "name": "name",
      "outputs": [
        {
          "internalType": "string",
          "name": "",
          "type": "string"
        }
      ],
      "stateMutability": "view",
      "type": "function"
    },
    {
      "inputs": [],
      "name": "owner",
      "outputs": [
        {
          "internalType": "address payable",
          "name": "",
          "type": "address"
        }
      ],
      "stateMutability": "view",
      "type": "function"
    },
    {
      "inputs": [
        {
          "internalType": "address",
          "name": "to",
          "type": "address"
        },
        {
          "internalType": "uint256",
          "name": "value",
          "type": "uint256"
        }
      ],
      "name": "pay",
      "outputs": [],
      "stateMutability": "nonpayable",
      "type": "function"
    },
    {
      "inputs": [],
      "name": "symbol",
      "outputs": [
        {
          "internalType": "string",
          "name": "",
          "type": "string"
        }
      ],
      "stateMutability": "view",
      "type": "function"
    },
    {
      "inputs": [],
      "name": "totalSupply",
      "outputs": [
        {
          "internalType": "uint256",
          "name": "",
          "type": "uint256"
        }
      ],
      "stateMutability": "view",
      "type": "function"
    },
    {
      "inputs": [
        {
          "internalType": "address",
          "name": "to",
          "type": "address"
        },
        {
          "internalType": "uint256",
          "name": "amount",
          "type": "uint256"
        }
      ],
      "name": "transfer",
      "outputs": [
        {
          "internalType": "bool",
          "name": "",
          "type": "bool"
        }
      ],
      "stateMutability": "nonpayable",
      "type": "function"
    },
    {
      "inputs": [
        {
          "internalType": "address",
          "name": "from",
          "type": "address"
        },
        {
          "internalType": "address",
          "name": "to",
          "type": "address"
        },
        {
          "internalType": "uint256",
          "name": "amount",
          "type": "uint256"
        }
      ],
      "name": "transferFrom",
      "outputs": [
        {
          "internalType": "bool",
          "name": "",
          "type": "bool"
        }
      ],
      "stateMutability": "nonpayable",
      "type": "function"
    }
  ],
  "bytecode": "0x60a0604052600680546001600160a01b031916301790553480156200002357600080fd5b50620000326012600a620003fc565b620000429063042c1d8062000414565b6040518060400160405280601281526020017121b430b4b73630b731b2a134b22a37b5b2b760711b8152506040518060400160405280600381526020016210d09560ea1b81525081600390816200009a9190620004d4565b506004620000a98282620004d4565b50505060008111620001025760405162461bcd60e51b815260206004820152601560248201527f45524332304361707065643a206361702069732030000000000000000000000060448201526064015b60405180910390fd5b608052600580546001600160a01b031916339081179091556200012a9063042c1d8062000130565b620005b6565b608051816200013e60025490565b6200014a9190620005a0565b11156200019a5760405162461bcd60e51b815260206004820152601960248201527f45524332304361707065643a20636170206578636565646564000000000000006044820152606401620000f9565b620001a68282620001aa565b5050565b60805181620001b860025490565b620001c49190620005a0565b1115620002145760405162461bcd60e51b815260206004820152601960248201527f45524332304361707065643a20636170206578636565646564000000000000006044820152606401620000f9565b620001a682826001600160a01b038216620002725760405162461bcd60e51b815260206004820152601f60248201527f45524332303a206d696e7420746f20746865207a65726f2061646472657373006044820152606401620000f9565b8060026000828254620002869190620005a0565b90915550506001600160a01b038216600081815260208181526040808320805486019055518481527fddf252ad1be2c89b69c2b068fc378daa952ba7f163c4a11628f55a4df523b3ef910160405180910390a3620001a6600083835b505050565b634e487b7160e01b600052601160045260246000fd5b600181815b808511156200033e578160001904821115620003225762000322620002e7565b808516156200033057918102915b93841c939080029062000302565b509250929050565b6000826200035757506001620003f6565b816200036657506000620003f6565b81600181146200037f57600281146200038a57620003aa565b6001915050620003f6565b60ff8411156200039e576200039e620002e7565b50506001821b620003f6565b5060208310610133831016604e8410600b8410161715620003cf575081810a620003f6565b620003db8383620002fd565b8060001904821115620003f257620003f2620002e7565b0290505b92915050565b60006200040d60ff84168362000346565b9392505050565b8082028115828204841417620003f657620003f6620002e7565b634e487b7160e01b600052604160045260246000fd5b600181811c908216806200045957607f821691505b6020821081036200047a57634e487b7160e01b600052602260045260246000fd5b50919050565b601f821115620002e2576000816000526020600020601f850160051c81016020861015620004ab5750805b601f850160051c820191505b81811015620004cc57828155600101620004b7565b505050505050565b81516001600160401b03811115620004f057620004f06200042e565b620005088162000501845462000444565b8462000480565b602080601f831160018114620005405760008415620005275750858301515b600019600386901b1c1916600185901b178555620004cc565b600085815260208120601f198616915b82811015620005715788860151825594840194600190910190840162000550565b5085821015620005905787850151600019600388901b60f8161c191681555b5050505050600190811b01905550565b80820180821115620003f657620003f6620002e7565b608051610dba620005e0600039600081816101c201528181610a1d0152610aa50152610dba6000f3fe608060405234801561001057600080fd5b506004361061011b5760003560e01c806342966c68116100b257806395d89b4111610081578063a9059cbb11610066578063a9059cbb14610278578063c40768761461028b578063dd62ed3e1461029e57600080fd5b806395d89b411461025d578063a457c2d71461026557600080fd5b806342966c68146101f957806370a082311461020e57806379cc6790146102375780638da5cb5b1461024a57600080fd5b8063313ce567116100ee578063313ce5671461018657806331e2a84814610195578063355274ea146101c057806339509351146101e657600080fd5b806306fdde0314610120578063095ea7b31461013e57806318160ddd1461016157806323b872dd14610173575b600080fd5b6101286102d7565b6040516101359190610bea565b60405180910390f35b61015161014c366004610c55565b610369565b6040519015158152602001610135565b6002545b604051908152602001610135565b610151610181366004610c7f565b610383565b60405160128152602001610135565b6006546101a8906001600160a01b031681565b6040516001600160a01b039091168152602001610135565b7f0000000000000000000000000000000000000000000000000000000000000000610165565b6101516101f4366004610c55565b6103a7565b61020c610207366004610cbb565b6103e6565b005b61016561021c366004610cd4565b6001600160a01b031660009081526020819052604090205490565b61020c610245366004610c55565b6103f3565b6005546101a8906001600160a01b031681565b61012861040c565b610151610273366004610c55565b61041b565b610151610286366004610c55565b6104ca565b61020c610299366004610c55565b6104d8565b6101656102ac366004610cf6565b6001600160a01b03918216600090815260016020908152604080832093909416825291909152205490565b6060600380546102e690610d29565b80601f016020809104026020016040519081016040528092919081815260200182805461031290610d29565b801561035f5780601f106103345761010080835404028352916020019161035f565b820191906000526020600020905b81548152906001019060200180831161034257829003601f168201915b5050505050905090565b6000336103778185856104e2565b60019150505b92915050565b60003361039185828561063b565b61039c8585856106cd565b506001949350505050565b3360008181526001602090815260408083206001600160a01b038716845290915281205490919061037790829086906103e1908790610d63565b6104e2565b6103f033826108ba565b50565b6103fe82338361063b565b61040882826108ba565b5050565b6060600480546102e690610d29565b3360008181526001602090815260408083206001600160a01b0387168452909152812054909190838110156104bd5760405162461bcd60e51b815260206004820152602560248201527f45524332303a2064656372656173656420616c6c6f77616e63652062656c6f7760448201527f207a65726f00000000000000000000000000000000000000000000000000000060648201526084015b60405180910390fd5b61039c82868684036104e2565b6000336103778185856106cd565b6104088282610a1b565b6001600160a01b03831661055d5760405162461bcd60e51b8152602060048201526024808201527f45524332303a20617070726f76652066726f6d20746865207a65726f2061646460448201527f726573730000000000000000000000000000000000000000000000000000000060648201526084016104b4565b6001600160a01b0382166105d95760405162461bcd60e51b815260206004820152602260248201527f45524332303a20617070726f766520746f20746865207a65726f20616464726560448201527f737300000000000000000000000000000000000000000000000000000000000060648201526084016104b4565b6001600160a01b0383811660008181526001602090815260408083209487168084529482529182902085905590518481527f8c5be1e5ebec7d5bd14f71427d1e84f3dd0314c0f7b2291e5b200ac8c7c3b92591015b60405180910390a3505050565b6001600160a01b0383811660009081526001602090815260408083209386168352929052205460001981146106c757818110156106ba5760405162461bcd60e51b815260206004820152601d60248201527f45524332303a20696e73756666696369656e7420616c6c6f77616e636500000060448201526064016104b4565b6106c784848484036104e2565b50505050565b6001600160a01b0383166107495760405162461bcd60e51b815260206004820152602560248201527f45524332303a207472616e736665722066726f6d20746865207a65726f20616460448201527f647265737300000000000000000000000000000000000000000000000000000060648201526084016104b4565b6001600160a01b0382166107c55760405162461bcd60e51b815260206004820152602360248201527f45524332303a207472616e7366657220746f20746865207a65726f206164647260448201527f657373000000000000000000000000000000000000000000000000000000000060648201526084016104b4565b6001600160a01b038316600090815260208190526040902054818110156108545760405162461bcd60e51b815260206004820152602660248201527f45524332303a207472616e7366657220616d6f756e742065786365656473206260448201527f616c616e6365000000000000000000000000000000000000000000000000000060648201526084016104b4565b6001600160a01b03848116600081815260208181526040808320878703905593871680835291849020805487019055925185815290927fddf252ad1be2c89b69c2b068fc378daa952ba7f163c4a11628f55a4df523b3ef910160405180910390a36106c7565b6001600160a01b0382166109365760405162461bcd60e51b815260206004820152602160248201527f45524332303a206275726e2066726f6d20746865207a65726f2061646472657360448201527f730000000000000000000000000000000000000000000000000000000000000060648201526084016104b4565b6001600160a01b038216600090815260208190526040902054818110156109c55760405162461bcd60e51b815260206004820152602260248201527f45524332303a206275726e20616d6f756e7420657863656564732062616c616e60448201527f636500000000000000000000000000000000000000000000000000000000000060648201526084016104b4565b6001600160a01b0383166000818152602081815260408083208686039055600280548790039055518581529192917fddf252ad1be2c89b69c2b068fc378daa952ba7f163c4a11628f55a4df523b3ef910161062e565b7f000000000000000000000000000000000000000000000000000000000000000081610a4660025490565b610a509190610d63565b1115610a9e5760405162461bcd60e51b815260206004820152601960248201527f45524332304361707065643a206361702065786365656465640000000000000060448201526064016104b4565b61040882827f000000000000000000000000000000000000000000000000000000000000000081610ace60025490565b610ad89190610d63565b1115610b265760405162461bcd60e51b815260206004820152601960248201527f45524332304361707065643a206361702065786365656465640000000000000060448201526064016104b4565b61040882826001600160a01b038216610b815760405162461bcd60e51b815260206004820152601f60248201527f45524332303a206d696e7420746f20746865207a65726f20616464726573730060448201526064016104b4565b8060026000828254610b939190610d63565b90915550506001600160a01b038216600081815260208181526040808320805486019055518481527fddf252ad1be2c89b69c2b068fc378daa952ba7f163c4a11628f55a4df523b3ef910160405180910390a35050565b60006020808352835180602085015260005b81811015610c1857858101830151858201604001528201610bfc565b506000604082860101526040601f19601f8301168501019250505092915050565b80356001600160a01b0381168114610c5057600080fd5b919050565b60008060408385031215610c6857600080fd5b610c7183610c39565b946020939093013593505050565b600080600060608486031215610c9457600080fd5b610c9d84610c39565b9250610cab60208501610c39565b9150604084013590509250925092565b600060208284031215610ccd57600080fd5b5035919050565b600060208284031215610ce657600080fd5b610cef82610c39565b9392505050565b60008060408385031215610d0957600080fd5b610d1283610c39565b9150610d2060208401610c39565b90509250929050565b600181811c90821680610d3d57607f821691505b602082108103610d5d57634e487b7160e01b600052602260045260246000fd5b50919050565b8082018082111561037d57634e487b7160e01b600052601160045260246000fdfea2646970667358221220d91914fc354da50e5210f0e65324ad8faef675611c58da2d1b127c7900845c6664736f6c63430008180033",
  "linkReferences": {},
  "deployedLinkReferences": {}
}