{
  "_format": "hh-sol-artifact-1",
  "contractName": "GetBlindedBid",
  "sourceName": "contracts/GetBlindedBid.sol",
  "abi": [
    {
      "inputs": [],
      "name": "deleteArr",
      "outputs": [],
      "stateMutability": "nonpayable",
      "type": "function"
    },
    {
      "inputs": [
        {
          "internalType": "int256",
          "name": "value1",
          "type": "int256"
        },
        {
          "internalType": "int256",
          "name": "value2",
          "type": "int256"
        }
      ],
      "name": "division",
      "outputs": [
        {
          "internalType": "int256",
          "name": "",
          "type": "int256"
        }
      ],
      "stateMutability": "pure",
      "type": "function"
    },
    {
      "inputs": [],
      "name": "getArray",
      "outputs": [
        {
          "internalType": "uint256[]",
          "name": "",
          "type": "uint256[]"
        }
      ],
      "stateMutability": "view",
      "type": "function"
    },
    {
      "inputs": [
        {
          "internalType": "uint256",
          "name": "value",
          "type": "uint256"
        },
        {
          "internalType": "bytes32",
          "name": "secret",
          "type": "bytes32"
        }
      ],
      "name": "getBlindedBid",
      "outputs": [
        {
          "internalType": "bytes32",
          "name": "",
          "type": "bytes32"
        }
      ],
      "stateMutability": "pure",
      "type": "function"
    },
    {
      "inputs": [
        {
          "internalType": "int256",
          "name": "value1",
          "type": "int256"
        },
        {
          "internalType": "int256",
          "name": "value2",
          "type": "int256"
        }
      ],
      "name": "subract",
      "outputs": [
        {
          "internalType": "int256",
          "name": "",
          "type": "int256"
        }
      ],
      "stateMutability": "pure",
      "type": "function"
    }
  ],
  "bytecode": "0x6101a060405260006080818152600160a052600260c052600360e05260046101005260056101205260066101405260076101605260086101805261004591906009610058565b5034801561005257600080fd5b506100bd565b828054828255906000526020600020908101928215610098579160200282015b82811115610098578251829060ff16905591602001919060010190610078565b506100a49291506100a8565b5090565b5b808211156100a457600081556001016100a9565b61036e806100cc6000396000f3fe608060405234801561001057600080fd5b50600436106100675760003560e01c80635fcdae49116100505780635fcdae49146100a55780638e780e66146100af578063d504ea1d146100e957600080fd5b806309b7cdda1461006c57806323f0ff3014610092575b600080fd5b61007f61007a3660046101fe565b6100fe565b6040519081526020015b60405180910390f35b61007f6100a03660046101fe565b610113565b6100ad61011f565b005b61007f6100bd3660046101fe565b604080516020808201949094528082019290925280518083038201815260609092019052805191012090565b6100f16101a6565b6040516100899190610220565b600061010a828461027a565b90505b92915050565b600061010a82846102d2565b600054600590811061013057600080fd5b60008054610140906001906102f9565b815481106101505761015061030c565b90600052602060002001546000828154811061016e5761016e61030c565b9060005260206000200181905550600080548061018d5761018d610322565b6001900381819060005260206000200160009055905550565b606060008054806020026020016040519081016040528092919081815260200182805480156101f457602002820191906000526020600020905b8154815260200190600101908083116101e0575b5050505050905090565b6000806040838503121561021157600080fd5b50508035926020909101359150565b6020808252825182820181905260009190848201906040850190845b818110156102585783518352928401929184019160010161023c565b50909695505050505050565b634e487b7160e01b600052601160045260246000fd5b60008261029757634e487b7160e01b600052601260045260246000fd5b7f80000000000000000000000000000000000000000000000000000000000000008214600019841416156102cd576102cd610264565b500590565b81810360008312801583831316838312821617156102f2576102f2610264565b5092915050565b8181038181111561010d5761010d610264565b634e487b7160e01b600052603260045260246000fd5b634e487b7160e01b600052603160045260246000fdfea26469706673582212201d968f9be5a5d9d0eb7963f4b226b1ef6f067f8ae111565a24018dc24d9d5fd264736f6c63430008180033",
  "linkReferences": {},
  "deployedLinkReferences": {}
}