{
  "_format": "hh-sol-artifact-1",
  "contractName": "GetBlindedBid",
  "sourceName": "contracts/GetBlindedBid.sol",
  "abi": [
    {
      "inputs": [],
      "name": "deleteArr",
      "outputs": [],
      "stateMutability": "nonpayable",
      "type": "function"
    },
    {
      "inputs": [
        {
          "internalType": "int256",
          "name": "value1",
          "type": "int256"
        },
        {
          "internalType": "int256",
          "name": "value2",
          "type": "int256"
        }
      ],
      "name": "division",
      "outputs": [
        {
          "internalType": "int256",
          "name": "",
          "type": "int256"
        }
      ],
      "stateMutability": "pure",
      "type": "function"
    },
    {
      "inputs": [],
      "name": "getArray",
      "outputs": [
        {
          "internalType": "uint256[]",
          "name": "",
          "type": "uint256[]"
        }
      ],
      "stateMutability": "view",
      "type": "function"
    },
    {
      "inputs": [
        {
          "internalType": "uint256",
          "name": "value",
          "type": "uint256"
        },
        {
          "internalType": "bytes32",
          "name": "secret",
          "type": "bytes32"
        }
      ],
      "name": "getBlindedBid",
      "outputs": [
        {
          "internalType": "bytes32",
          "name": "",
          "type": "bytes32"
        }
      ],
      "stateMutability": "pure",
      "type": "function"
    },
    {
      "inputs": [
        {
          "internalType": "int256",
          "name": "value1",
          "type": "int256"
        },
        {
          "internalType": "int256",
          "name": "value2",
          "type": "int256"
        }
      ],
      "name": "subract",
      "outputs": [
        {
          "internalType": "int256",
          "name": "",
          "type": "int256"
        }
      ],
      "stateMutability": "pure",
      "type": "function"
    }
  ],
  "bytecode": "0x6080604052604051806101200160405280600060ff168152602001600160ff168152602001600260ff168152602001600360ff168152602001600460ff168152602001600560ff168152602001600660ff168152602001600760ff168152602001600860ff16815250600090600961007892919061008b565b5034801561008557600080fd5b506100fa565b8280548282559060005260206000209081019282156100cc579160200282015b828111156100cb578251829060ff169055916020019190600101906100ab565b5b5090506100d991906100dd565b5090565b5b808211156100f65760008160009055506001016100de565b5090565b6106fb806101096000396000f3fe608060405234801561001057600080fd5b50600436106100575760003560e01c806309b7cdda1461005c57806323f0ff301461008c5780635fcdae49146100bc5780638e780e66146100c6578063d504ea1d146100f6575b600080fd5b6100766004803603810190610071919061029a565b610114565b60405161008391906102e9565b60405180910390f35b6100a660048036038101906100a1919061029a565b61012a565b6040516100b391906102e9565b60405180910390f35b6100c4610140565b005b6100e060048036038101906100db9190610370565b6101d4565b6040516100ed91906103bf565b60405180910390f35b6100fe610207565b60405161010b9190610498565b60405180910390f35b600081836101229190610518565b905092915050565b600081836101389190610582565b905092915050565b600060059050600080549050811061015757600080fd5b6000600160008054905061016b91906105c5565b8154811061017c5761017b6105f9565b5b90600052602060002001546000828154811061019b5761019a6105f9565b5b906000526020600020018190555060008054806101bb576101ba610628565b5b6001900381819060005260206000200160009055905550565b600082826040516020016101e9929190610699565b60405160208183030381529060405280519060200120905092915050565b6060600080548060200260200160405190810160405280929190818152602001828054801561025557602002820191906000526020600020905b815481526020019060010190808311610241575b5050505050905090565b600080fd5b6000819050919050565b61027781610264565b811461028257600080fd5b50565b6000813590506102948161026e565b92915050565b600080604083850312156102b1576102b061025f565b5b60006102bf85828601610285565b92505060206102d085828601610285565b9150509250929050565b6102e381610264565b82525050565b60006020820190506102fe60008301846102da565b92915050565b6000819050919050565b61031781610304565b811461032257600080fd5b50565b6000813590506103348161030e565b92915050565b6000819050919050565b61034d8161033a565b811461035857600080fd5b50565b60008135905061036a81610344565b92915050565b600080604083850312156103875761038661025f565b5b600061039585828601610325565b92505060206103a68582860161035b565b9150509250929050565b6103b98161033a565b82525050565b60006020820190506103d460008301846103b0565b92915050565b600081519050919050565b600082825260208201905092915050565b6000819050602082019050919050565b61040f81610304565b82525050565b60006104218383610406565b60208301905092915050565b6000602082019050919050565b6000610445826103da565b61044f81856103e5565b935061045a836103f6565b8060005b8381101561048b5781516104728882610415565b975061047d8361042d565b92505060018101905061045e565b5085935050505092915050565b600060208201905081810360008301526104b2818461043a565b905092915050565b7f4e487b7100000000000000000000000000000000000000000000000000000000600052601260045260246000fd5b7f4e487b7100000000000000000000000000000000000000000000000000000000600052601160045260246000fd5b600061052382610264565b915061052e83610264565b92508261053e5761053d6104ba565b5b600160000383147f800000000000000000000000000000000000000000000000000000000000000083141615610577576105766104e9565b5b828205905092915050565b600061058d82610264565b915061059883610264565b92508282039050818112600084121682821360008512151617156105bf576105be6104e9565b5b92915050565b60006105d082610304565b91506105db83610304565b92508282039050818111156105f3576105f26104e9565b5b92915050565b7f4e487b7100000000000000000000000000000000000000000000000000000000600052603260045260246000fd5b7f4e487b7100000000000000000000000000000000000000000000000000000000600052603160045260246000fd5b6000819050919050565b61067261066d82610304565b610657565b82525050565b6000819050919050565b61069361068e8261033a565b610678565b82525050565b60006106a58285610661565b6020820191506106b58284610682565b602082019150819050939250505056fea2646970667358221220db327f92727b0e714512be3f2aade7043877f984fe9db9b2a874604aab68ced664736f6c63430008180033",
  "linkReferences": {},
  "deployedLinkReferences": {}
}