{
  "_format": "hh-sol-artifact-1",
  "contractName": "Evaluation",
  "sourceName": "contracts/Evaluation.sol",
  "abi": [
    {
      "inputs": [
        {
          "internalType": "address",
          "name": "evaluatorContractAddress",
          "type": "address"
        },
        {
          "internalType": "contract IERC20",
          "name": "lanceToken_",
          "type": "address"
        },
        {
          "internalType": "contract IERC20",
          "name": "bidToken_",
          "type": "address"
        },
        {
          "internalType": "uint256",
          "name": "fees_",
          "type": "uint256"
        },
        {
          "internalType": "uint256",
          "name": "numberOfEvaluators_",
          "type": "uint256"
        },
        {
          "internalType": "uint256",
          "name": "decimals_",
          "type": "uint256"
        },
        {
          "internalType": "uint256",
          "name": "heuristicAllocation_",
          "type": "uint256"
        },
        {
          "internalType": "uint256",
          "name": "evaluatorAllocation_",
          "type": "uint256"
        },
        {
          "internalType": "uint256",
          "name": "sharesForMedian_",
          "type": "uint256"
        },
        {
          "internalType": "uint256",
          "name": "sharesForNonMedian_",
          "type": "uint256"
        }
      ],
      "stateMutability": "nonpayable",
      "type": "constructor"
    },
    {
      "inputs": [
        {
          "internalType": "uint256[]",
          "name": "_data",
          "type": "uint256[]"
        }
      ],
      "name": "UintArray",
      "outputs": [],
      "stateMutability": "nonpayable",
      "type": "function"
    },
    {
      "inputs": [],
      "name": "algorithmicAllocation",
      "outputs": [
        {
          "internalType": "uint256",
          "name": "",
          "type": "uint256"
        }
      ],
      "stateMutability": "view",
      "type": "function"
    },
    {
      "inputs": [],
      "name": "averageAlgo",
      "outputs": [
        {
          "internalType": "uint256",
          "name": "",
          "type": "uint256"
        }
      ],
      "stateMutability": "view",
      "type": "function"
    },
    {
      "inputs": [],
      "name": "averageHeuristic",
      "outputs": [
        {
          "internalType": "uint256",
          "name": "",
          "type": "uint256"
        }
      ],
      "stateMutability": "view",
      "type": "function"
    },
    {
      "inputs": [],
      "name": "clientAllocation",
      "outputs": [
        {
          "internalType": "uint256",
          "name": "",
          "type": "uint256"
        }
      ],
      "stateMutability": "view",
      "type": "function"
    },
    {
      "inputs": [],
      "name": "decimals",
      "outputs": [
        {
          "internalType": "uint256",
          "name": "",
          "type": "uint256"
        }
      ],
      "stateMutability": "view",
      "type": "function"
    },
    {
      "inputs": [],
      "name": "evaluate",
      "outputs": [],
      "stateMutability": "nonpayable",
      "type": "function"
    },
    {
      "inputs": [],
      "name": "evaluateAlgorithmicTests",
      "outputs": [
        {
          "internalType": "uint256",
          "name": "",
          "type": "uint256"
        }
      ],
      "stateMutability": "nonpayable",
      "type": "function"
    },
    {
      "inputs": [],
      "name": "evaluateHeuristicTests",
      "outputs": [
        {
          "internalType": "uint256",
          "name": "",
          "type": "uint256"
        }
      ],
      "stateMutability": "nonpayable",
      "type": "function"
    },
    {
      "inputs": [
        {
          "internalType": "uint256",
          "name": "",
          "type": "uint256"
        }
      ],
      "name": "evaluatorAlgorithmicScore",
      "outputs": [
        {
          "internalType": "uint256",
          "name": "",
          "type": "uint256"
        }
      ],
      "stateMutability": "view",
      "type": "function"
    },
    {
      "inputs": [],
      "name": "evaluatorAllocation",
      "outputs": [
        {
          "internalType": "uint256",
          "name": "",
          "type": "uint256"
        }
      ],
      "stateMutability": "view",
      "type": "function"
    },
    {
      "inputs": [
        {
          "internalType": "uint256",
          "name": "",
          "type": "uint256"
        }
      ],
      "name": "evaluatorHeuristicScore",
      "outputs": [
        {
          "internalType": "uint256",
          "name": "",
          "type": "uint256"
        }
      ],
      "stateMutability": "view",
      "type": "function"
    },
    {
      "inputs": [],
      "name": "evaluatorOverall",
      "outputs": [
        {
          "internalType": "uint256",
          "name": "",
          "type": "uint256"
        }
      ],
      "stateMutability": "view",
      "type": "function"
    },
    {
      "inputs": [],
      "name": "fees",
      "outputs": [
        {
          "internalType": "uint256",
          "name": "",
          "type": "uint256"
        }
      ],
      "stateMutability": "view",
      "type": "function"
    },
    {
      "inputs": [],
      "name": "getEvaluatorScores",
      "outputs": [
        {
          "internalType": "uint256[]",
          "name": "",
          "type": "uint256[]"
        },
        {
          "internalType": "uint256[]",
          "name": "",
          "type": "uint256[]"
        }
      ],
      "stateMutability": "view",
      "type": "function"
    },
    {
      "inputs": [],
      "name": "getEvaluators",
      "outputs": [
        {
          "internalType": "address[]",
          "name": "",
          "type": "address[]"
        }
      ],
      "stateMutability": "view",
      "type": "function"
    },
    {
      "inputs": [
        {
          "internalType": "uint256[]",
          "name": "arr",
          "type": "uint256[]"
        }
      ],
      "name": "getIQR",
      "outputs": [
        {
          "internalType": "uint256",
          "name": "",
          "type": "uint256"
        },
        {
          "internalType": "uint256",
          "name": "",
          "type": "uint256"
        }
      ],
      "stateMutability": "nonpayable",
      "type": "function"
    },
    {
      "inputs": [],
      "name": "heuristicAllocation",
      "outputs": [
        {
          "internalType": "uint256",
          "name": "",
          "type": "uint256"
        }
      ],
      "stateMutability": "view",
      "type": "function"
    },
    {
      "inputs": [],
      "name": "lowerIQRAlgo",
      "outputs": [
        {
          "internalType": "uint256",
          "name": "",
          "type": "uint256"
        }
      ],
      "stateMutability": "view",
      "type": "function"
    },
    {
      "inputs": [],
      "name": "lowerIQRHeuristic",
      "outputs": [
        {
          "internalType": "uint256",
          "name": "",
          "type": "uint256"
        }
      ],
      "stateMutability": "view",
      "type": "function"
    },
    {
      "inputs": [],
      "name": "maxStakeLosable",
      "outputs": [
        {
          "internalType": "uint256",
          "name": "",
          "type": "uint256"
        }
      ],
      "stateMutability": "view",
      "type": "function"
    },
    {
      "inputs": [],
      "name": "medianAlgorithmic",
      "outputs": [
        {
          "internalType": "uint256",
          "name": "",
          "type": "uint256"
        }
      ],
      "stateMutability": "view",
      "type": "function"
    },
    {
      "inputs": [],
      "name": "medianHeuristic",
      "outputs": [
        {
          "internalType": "uint256",
          "name": "",
          "type": "uint256"
        }
      ],
      "stateMutability": "view",
      "type": "function"
    },
    {
      "inputs": [],
      "name": "overallScore",
      "outputs": [
        {
          "internalType": "uint256",
          "name": "",
          "type": "uint256"
        }
      ],
      "stateMutability": "view",
      "type": "function"
    },
    {
      "inputs": [],
      "name": "ownerScore",
      "outputs": [
        {
          "internalType": "uint256",
          "name": "",
          "type": "uint256"
        }
      ],
      "stateMutability": "view",
      "type": "function"
    },
    {
      "inputs": [],
      "name": "ownerSubmitted",
      "outputs": [
        {
          "internalType": "bool",
          "name": "",
          "type": "bool"
        }
      ],
      "stateMutability": "view",
      "type": "function"
    },
    {
      "inputs": [
        {
          "internalType": "uint256",
          "name": "seed",
          "type": "uint256"
        },
        {
          "internalType": "uint256",
          "name": "amount",
          "type": "uint256"
        }
      ],
      "name": "populateEvaluators",
      "outputs": [],
      "stateMutability": "nonpayable",
      "type": "function"
    },
    {
      "inputs": [],
      "name": "rewardEvaluators",
      "outputs": [],
      "stateMutability": "nonpayable",
      "type": "function"
    },
    {
      "inputs": [],
      "name": "settle",
      "outputs": [],
      "stateMutability": "nonpayable",
      "type": "function"
    },
    {
      "inputs": [],
      "name": "sort",
      "outputs": [],
      "stateMutability": "nonpayable",
      "type": "function"
    },
    {
      "inputs": [
        {
          "internalType": "address",
          "name": "evaluator",
          "type": "address"
        },
        {
          "internalType": "uint256",
          "name": "algo_score",
          "type": "uint256"
        },
        {
          "internalType": "uint256",
          "name": "heuristic_score",
          "type": "uint256"
        }
      ],
      "name": "submitEvaluatorScore",
      "outputs": [],
      "stateMutability": "nonpayable",
      "type": "function"
    },
    {
      "inputs": [
        {
          "internalType": "address",
          "name": "owner",
          "type": "address"
        },
        {
          "internalType": "uint256",
          "name": "score",
          "type": "uint256"
        }
      ],
      "name": "submitOwnerScore",
      "outputs": [],
      "stateMutability": "nonpayable",
      "type": "function"
    },
    {
      "inputs": [],
      "name": "upperIQRAlgo",
      "outputs": [
        {
          "internalType": "uint256",
          "name": "",
          "type": "uint256"
        }
      ],
      "stateMutability": "view",
      "type": "function"
    },
    {
      "inputs": [],
      "name": "upperIQRHeuristic",
      "outputs": [
        {
          "internalType": "uint256",
          "name": "",
          "type": "uint256"
        }
      ],
      "stateMutability": "view",
      "type": "function"
    }
  ],
  "bytecode": "0x60806040523480156200001157600080fd5b5060405162003de838038062003de8833981016040819052620000349162000471565b600f80546001600160a01b03808d1661010002610100600160a81b031990921691909117909155602880548b83166001600160a01b03199182161790915560298054928b16929091169190911790556020879055856001600160401b03811115620000a357620000a36200050b565b604051908082528060200260200182016040528015620000cd578160200160208202803683370190505b508051620000e4916014916020909101906200033d565b50856001600160401b038111156200010057620001006200050b565b6040519080825280602002602001820160405280156200012a578160200160208202803683370190505b50805162000141916015916020909101906200033d565b50856001600160401b038111156200015d576200015d6200050b565b60405190808252806020026020018201604052801562000187578160200160208202803683370190505b5080516200019e916011916020909101906200038d565b506023859055602484905583620001b786606462000537565b620001c3919062000557565b60255560268390556023548390620001dd90606462000537565b620001e9919062000557565b602755602a829055602b819055620002046103e88762000214565b505050505050505050506200061f565b600f5460405163603da88160e01b8152600481018490526024810183905260009161010090046001600160a01b03169063603da881906044016202710060405180830381865afa1580156200026d573d6000803e3d6000fd5b505050506040513d601f19601f820116820180604052508101906200029391906200056d565b905060005b828110156200033757601082826113888110620002b957620002b962000609565b602090810291909101518254600181018455600093845291832090910180546001600160a01b0319166001600160a01b03909216919091179055819080848361138881106200030c576200030c62000609565b602090810291909101516001600160a01b031682528101919091526040016000205560010162000298565b50505050565b8280548282559060005260206000209081019282156200037b579160200282015b828111156200037b5782518255916020019190600101906200035e565b50620003899291506200042f565b5090565b82805482825590600052602060002090601f016020900481019282156200037b5791602002820160005b83821115620003f657835183826101000a81548160ff0219169083151502179055509260200192600101602081600001049283019260010302620003b7565b8015620004255782816101000a81549060ff0219169055600101602081600001049283019260010302620003f6565b5050620003899291505b5b8082111562000389576000815560010162000430565b6001600160a01b03811681146200045c57600080fd5b50565b80516200046c8162000446565b919050565b6000806000806000806000806000806101408b8d0312156200049257600080fd5b8a516200049f8162000446565b60208c0151909a50620004b28162000446565b60408c0151909950620004c58162000446565b8098505060608b0151965060808b0151955060a08b0151945060c08b0151935060e08b015192506101008b015191506101208b015190509295989b9194979a5092959850565b634e487b7160e01b600052604160045260246000fd5b634e487b7160e01b600052601160045260246000fd5b808202811582820484141762000551576200055162000521565b92915050565b8181038181111562000551576200055162000521565b6000620271008083850312156200058357600080fd5b83601f8401126200059357600080fd5b6040518181016001600160401b0381118282101715620005c357634e487b7160e01b600052604160045260246000fd5b604052908301908085831115620005d957600080fd5b845b83811015620005fe57620005ef816200045f565b825260209182019101620005db565b509095945050505050565b634e487b7160e01b600052603260045260246000fd5b6137b9806200062f6000396000f3fe60806040523480156200001157600080fd5b5060043610620002535760003560e01c806384b215a21162000142578063aaf7097511620000cc578063be3b20871162000097578063f345b4a7116200007a578063f345b4a71462000410578063f3761eae146200043d578063fa77c883146200045457600080fd5b8063be3b208714620003ef578063d27b863e14620003f957600080fd5b8063aaf7097514620003ba578063b14275e614620003c4578063b2e669a514620003db578063b9b311ea14620003e557600080fd5b80639c5e8771116200010d5780639c5e877114620003855780639d40fb48146200038f578063a8f691151462000399578063aa3482fa14620003a357600080fd5b806384b215a2146200035d5780638cdc86a614620003675780639a58a8d714620003715780639af1d35a146200037b57600080fd5b806345a3b74511620001e15780635aabe50511620001ac5780637daa9efc116200018f5780637daa9efc14620003305780637e1cce0c146200033a5780638370eeab146200035357600080fd5b80635aabe505146200030f5780636274ac81146200032657600080fd5b806345a3b74514620002e757806346241e2c14620002f15780634718768514620002fb578063590625bb146200030557600080fd5b80632123dec711620002225780632123dec714620002bf578063240245cf14620002c95780632eeca80214620002d3578063313ce56714620002dd57600080fd5b806303fd179b14620002585780630aea0851146200027b57806311da60b4146200029457806317e56e0214620002a0575b600080fd5b620002626200046b565b604051620002729291906200213c565b60405180910390f35b6200028560225481565b60405190815260200162000272565b6200029e62000522565b005b601354620002ae9060ff1681565b604051901515815260200162000272565b6200028560245481565b6200028560255481565b6200028560185481565b6200028560235481565b6200028560165481565b62000285601d5481565b62000285601a5481565b62000285601f5481565b6200029e6200032036600462002184565b6200089f565b62000285601c5481565b6200029e6200094c565b6200034462000b62565b604051620002729190620021f8565b6200028560125481565b62000285601b5481565b6200029e62000bc6565b6200028560265481565b6200028560205481565b6200028562000bfa565b6200028560195481565b6200029e62000cc6565b6200029e620003b436600462002257565b620013ea565b62000285601e5481565b6200029e620003d536600462002308565b6200149e565b62000285620015ed565b6200028560275481565b6200028560175481565b620002856200040a3660046200232b565b620016b2565b620004276200042136600462002257565b620016d4565b6040805192835260208301919091520162000272565b6200029e6200044e36600462002345565b60125550565b62000285620004653660046200232b565b6200186d565b6060806014601581805480602002602001604051908101604052809291908181526020018280548015620004bf57602002820191906000526020600020905b815481526020019060010190808311620004aa575b50505050509150808054806020026020016040519081016040528092919081815260200182805480156200051357602002820191906000526020600020905b815481526020019060010190808311620004fe575b50505050509050915091509091565b6040805160028082526060820183526000926020830190803683375050600d5482519293506001600160a01b03169183915060009062000566576200056662002374565b6001600160a01b039283166020918202929092010152600c548251911690829060019081106200059a576200059a62002374565b6001600160a01b03909216602092830291909101909101526000600f5460ff166005811115620005ce57620005ce6200238a565b036200064e5780620005e26006546200187e565b604051620005f09062002089565b620005fd929190620023a0565b604051809103906000f0801580156200061a573d6000803e3d6000fd5b506021805473ffffffffffffffffffffffffffffffffffffffff19166001600160a01b0392909216919091179055620007a5565b6001600f5460ff1660058111156200066a576200066a6200238a565b036200067e5780620005e26007546200187e565b6002600f5460ff1660058111156200069a576200069a6200238a565b03620006ae5780620005e26008546200187e565b6003600f5460ff166005811115620006ca57620006ca6200238a565b03620006de5780620005e26009546200187e565b6004600f5460ff166005811115620006fa57620006fa6200238a565b036200070e5780620005e2600a546200187e565b6005600f5460ff1660058111156200072a576200072a6200238a565b03620007a557806200073e600b546200187e565b6040516200074c9062002089565b62000759929190620023a0565b604051809103906000f08015801562000776573d6000803e3d6000fd5b506021805473ffffffffffffffffffffffffffffffffffffffff19166001600160a01b03929092169190911790555b602154600e54620007c0916001600160a01b031690620018e9565b602154602854600d5460405163122dd41160e21b81526001600160a01b03928316600482015290821660248201529116906348b7504490604401600060405180830381600087803b1580156200081557600080fd5b505af11580156200082a573d6000803e3d6000fd5b5050602154602854600c5460405163122dd41160e21b81526001600160a01b0392831660048201529082166024820152911692506348b750449150604401600060405180830381600087803b1580156200088357600080fd5b505af115801562000898573d6000803e3d6000fd5b5050505050565b6001600160a01b0383166000908152602081905260409020546014805484919083908110620008d257620008d262002374565b90600052602060002001819055508160158281548110620008f757620008f762002374565b90600052602060002001819055506001601182815481106200091d576200091d62002374565b90600052602060002090602091828204019190066101000a81548160ff02191690831515021790555050505050565b62000956620015ed565b601d556200096362000bfa565b601c556025546024546000916200098691620009809082620023cb565b62001a2c565b90506000620009a3602454602454602554620009809190620023cb565b9050620009b3601c548262001a54565b620009c183601d5462001a54565b620009cd9190620023cb565b601f55602754602654620009f691620009ed9162000980908290620023cb565b60125462001a54565b62000a1c62000a13602654602754602654620009809190620023cb565b601f5462001a54565b62000a289190620023cb565b601e81905560641080159062000a425750600154601e5410155b1562000a6357600f80546000919060ff19166001835b021790555062000b54565b600154601e5410801562000a7b5750600254601e5410155b1562000a9557600f80546001919060ff1916828062000a58565b600154601e5410801562000aad5750600354601e5410155b1562000ac857600f80546002919060ff191660018362000a58565b600154601e5410801562000ae05750600454601e5410155b1562000afb57600f80546003919060ff191660018362000a58565b600154601e5410801562000b135750600554601e5410155b1562000b2e57600f80546004919060ff191660018362000a58565b600554601e5410801562000b40575060015b1562000b5457600f805460ff191660051790555b62000b5e62000cc6565b5050565b6060601080548060200260200160405190810160405280929190818152602001828054801562000bbc57602002820191906000526020600020905b81546001600160a01b0316815260019091019060200180831162000b9d575b5050505050905090565b60005b602c5462000bda90600190620023e1565b81101562000bf75762000bed8162001a66565b5060010162000bc9565b50565b600062000c59601580548060200260200160405190810160405280929190818152602001828054801562000c4e57602002820191906000526020600020905b81548152602001906001019080831162000c39575b5050505050620016d4565b601b55601a55601580546040805160208084028201810190925282815262000cc1939092909183018282801562000cb057602002820191906000526020600020905b81548152602001906001019080831162000c9b575b5050505050601a54601b5462001b75565b905090565b60155460009067ffffffffffffffff81111562000ce75762000ce76200220d565b60405190808252806020026020018201604052801562000d11578160200160208202803683370190505b5060155490915060009067ffffffffffffffff81111562000d365762000d366200220d565b60405190808252806020026020018201604052801562000d60578160200160208202803683370190505b5060155490915060009067ffffffffffffffff81111562000d855762000d856200220d565b60405190808252806020026020018201604052801562000daf578160200160208202803683370190505b50905060005b60155481101562000f6a576010818154811062000dd65762000dd662002374565b9060005260206000200160009054906101000a90046001600160a01b031684828151811062000e095762000e0962002374565b60200260200101906001600160a01b031690816001600160a01b031681525050601a546015828154811062000e425762000e4262002374565b906000526020600020015411801562000e7c5750601b546015828154811062000e6f5762000e6f62002374565b9060005260206000200154105b1562000eee576016546015828154811062000e9b5762000e9b62002374565b90600052602060002001540362000ed657602a5483828151811062000ec45762000ec462002374565b60200260200101818152505062000f61565b602b5483828151811062000ec45762000ec462002374565b600183828151811062000f055762000f0562002374565b60200260200101818152505062000f3f6016546015838154811062000f2e5762000f2e62002374565b906000526020600020015462001c42565b82828151811062000f545762000f5462002374565b6020026020010181815250505b60010162000db5565b5060005b6014548110156200110d576018546014828154811062000f925762000f9262002374565b906000526020600020015411801562000fcc57506019546014828154811062000fbf5762000fbf62002374565b9060005260206000200154105b1562001104576017546014828154811062000feb5762000feb62002374565b9060005260206000200154036200104f57602a5483828151811062001014576200101462002374565b6020026020010151620010289190620023cb565b8382815181106200103d576200103d62002374565b60200260200101818152505062001104565b602b5483828151811062001067576200106762002374565b60200260200101516200107b9190620023cb565b83828151811062001090576200109062002374565b602002602001018181525050620010b96016546015838154811062000f2e5762000f2e62002374565b828281518110620010ce57620010ce62002374565b6020026020010151620010e29190620023cb565b828281518110620010f757620010f762002374565b6020026020010181815250505b60010162000f6e565b5060008383604051620011209062002089565b6200112d929190620023a0565b604051809103906000f0801580156200114a573d6000803e3d6000fd5b5090506200115b8160205462001c6d565b6200116981602054620018e9565b60005b8451811015620012ca5760285485516001600160a01b03808516926348b7504492911690889085908110620011a557620011a562002374565b60200260200101516040518363ffffffff1660e01b8152600401620011e09291906001600160a01b0392831681529116602082015260400190565b600060405180830381600087803b158015620011fb57600080fd5b505af115801562001210573d6000803e3d6000fd5b50505050816001600160a01b03166348b75044602960009054906101000a90046001600160a01b03168784815181106200124e576200124e62002374565b60200260200101516040518363ffffffff1660e01b8152600401620012899291906001600160a01b0392831681529116602082015260400190565b600060405180830381600087803b158015620012a457600080fd5b505af1158015620012b9573d6000803e3d6000fd5b5050600190920191506200116c9050565b5060005b82518110156200089857828181518110620012ed57620012ed62002374565b602002602001015160000362001304575050505050565b60006022548483815181106200131e576200131e62002374565b6020026020010151620013329190620023f7565b9050600f60019054906101000a90046001600160a01b03166001600160a01b031663f40d659d8784815181106200136d576200136d62002374565b6020026020010151836040518363ffffffff1660e01b8152600401620013a89291906001600160a01b03929092168252602082015260400190565b600060405180830381600087803b158015620013c357600080fd5b505af1158015620013d8573d6000803e3d6000fd5b505060019093019250620012ce915050565b805167ffffffffffffffff8111156200140757620014076200220d565b60405190808252806020026020018201604052801562001431578160200160208202803683370190505b5080516200144891602c9160209091019062002097565b5060005b815181101562000b5e578181815181106200146b576200146b62002374565b6020026020010151602c828154811062001489576200148962002374565b6000918252602090912001556001016200144c565b600f546040517f603da881000000000000000000000000000000000000000000000000000000008152600481018490526024810183905260009161010090046001600160a01b03169063603da881906044016202710060405180830381865afa15801562001510573d6000803e3d6000fd5b505050506040513d601f19601f8201168201806040525081019062001536919062002411565b905060005b82811015620015e7576010828261138881106200155c576200155c62002374565b6020908102919091015182546001810184556000938452918320909101805473ffffffffffffffffffffffffffffffffffffffff19166001600160a01b0390921691909117905581908084836113888110620015bc57620015bc62002374565b602090810291909101516001600160a01b03168252810191909152604001600020556001016200153b565b50505050565b60006200164a601480548060200260200160405190810160405280929190818152602001828054801562000c4e576020028201919060005260206000209081548152602001906001019080831162000c39575050505050620016d4565b601955601855601480546040805160208084028201810190925282815262000cc19390929091830182828015620016a157602002820191906000526020600020905b8154815260200190600101908083116200168c575b505050505060185460195462001b75565b60158181548110620016c357600080fd5b600091825260209091200154905081565b600080620016e283620013ea565b620016ec62000bc6565b60006200174b602c8054806020026020016040519081016040528092919081815260200182805480156200174057602002820191906000526020600020905b8154815260200190600101908083116200172b575b505050505062001d6b565b90506000620017ac602c805480602002602001604051908101604052809291908181526020018280548015620017a157602002820191906000526020600020905b8154815260200190600101908083116200178c575b505050505062001ec8565b90506000620017bb8362001f7b565b90506000620017ca8362001f7b565b90506000620017da8284620023e1565b905060006002620017ed836003620023f7565b620017f99190620024ba565b620018059085620023cb565b90506000600262001818846003620023f7565b620018249190620024ba565b84101562001835575060006200185f565b600262001844846003620023f7565b620018509190620024ba565b6200185c9085620023e1565b90505b999098509650505050505050565b60148181548110620016c357600080fd5b606080828160008151811062001898576200189862002374565b602002602001018181525050826023546064620018b69190620023f7565b620018c29190620023e1565b81600181518110620018d857620018d862002374565b602090810291909101015292915050565b6028546040516370a0823160e01b81523060048201526000916001600160a01b0316906370a0823190602401602060405180830381865afa15801562001933573d6000803e3d6000fd5b505050506040513d601f19601f82011682018060405250810190620019599190620024d1565b905080821115620019b15760405162461bcd60e51b815260206004820152600e60248201527f62616c616e6365206973206c6f7700000000000000000000000000000000000060448201526064015b60405180910390fd5b60285460405163a9059cbb60e01b81526001600160a01b038581166004830152602482018590529091169063a9059cbb906044015b6020604051808303816000875af115801562001a06573d6000803e3d6000fd5b505050506040513d601f19601f82011682018060405250810190620015e79190620024eb565b6000816023548462001a3f9190620023f7565b62001a4b9190620024ba565b90505b92915050565b60235460009062001a3f8385620023f7565b600081805b602c5481101562001acc57602c828154811062001a8c5762001a8c62002374565b9060005260206000200154602c828154811062001aad5762001aad62002374565b9060005260206000200154101562001ac3578091505b60010162001a6b565b5082810362001ade5750600092915050565b6000602c848154811062001af65762001af662002374565b90600052602060002001549050602c828154811062001b195762001b1962002374565b9060005260206000200154602c858154811062001b3a5762001b3a62002374565b906000526020600020018190555080602c838154811062001b5f5762001b5f62002374565b6000918252602090912001555060019392505050565b60008080805b865181101562001c1c578487828151811062001b9b5762001b9b62002374565b6020026020010151118062001bcb57508587828151811062001bc15762001bc162002374565b6020026020010151105b1562001be65762001bde826001620023cb565b915062001c13565b86818151811062001bfb5762001bfb62002374565b60200260200101518362001c109190620023cb565b92505b60010162001b7b565b5080865162001c2c9190620023e1565b62001c389083620024ba565b9695505050505050565b60008183111562001c615762001c598284620023e1565b905062001a4e565b62001c598383620023e1565b6029546040516370a0823160e01b81523060048201526000916001600160a01b0316906370a0823190602401602060405180830381865afa15801562001cb7573d6000803e3d6000fd5b505050506040513d601f19601f8201168201806040525081019062001cdd9190620024d1565b90508082111562001d315760405162461bcd60e51b815260206004820152600e60248201527f62616c616e6365206973206c6f770000000000000000000000000000000000006044820152606401620019a8565b60295460405163a9059cbb60e01b81526001600160a01b038581166004830152602482018590529091169063a9059cbb90604401620019e6565b606060006002835162001d7f9190620024ba565b905060008167ffffffffffffffff81111562001d9f5762001d9f6200220d565b60405190808252806020026020018201604052801562001dc9578160200160208202803683370190505b5090506002845162001ddc919062002516565b60000362001e4b57815b845181101562001e435784818151811062001e055762001e0562002374565b602002602001015182848362001e1c9190620023e1565b8151811062001e2f5762001e2f62002374565b602090810291909101015260010162001de6565b509392505050565b600062001e5a836001620023cb565b90505b845181101562001e435784818151811062001e7c5762001e7c62002374565b6020026020010151826001858462001e959190620023e1565b62001ea19190620023e1565b8151811062001eb45762001eb462002374565b602090810291909101015260010162001e5d565b606060006002835162001edc9190620024ba565b905060008167ffffffffffffffff81111562001efc5762001efc6200220d565b60405190808252806020026020018201604052801562001f26578160200160208202803683370190505b50905060005b8281101562001e435784818151811062001f4a5762001f4a62002374565b602002602001015182828151811062001f675762001f6762002374565b602090810291909101015260010162001f2c565b6000815160000362001f8f57506000919050565b62001f9a82620013ea565b62001fa462000bc6565b602c5462001fb59060029062002516565b6000036200204a57602c5460009062001fd190600290620024ba565b9050600062001fe2600183620023e1565b90506000602c838154811062001ffc5762001ffc62002374565b906000526020600020015490506000602c838154811062002021576200202162002374565b90600052602060002001549050600281836200203e9190620023cb565b62001c389190620024ba565b602c546000906200205e90600290620024ba565b9050602c818154811062002076576200207662002374565b9060005260206000200154915050919050565b611256806200252e83390190565b828054828255906000526020600020908101928215620020d5579160200282015b82811115620020d5578251825591602001919060010190620020b8565b50620020e3929150620020e7565b5090565b5b80821115620020e35760008155600101620020e8565b60008151808452602080850194506020840160005b83811015620021315781518752958201959082019060010162002113565b509495945050505050565b604081526000620021516040830185620020fe565b8281036020840152620021658185620020fe565b95945050505050565b6001600160a01b038116811462000bf757600080fd5b6000806000606084860312156200219a57600080fd5b8335620021a7816200216e565b95602085013595506040909401359392505050565b60008151808452602080850194506020840160005b83811015620021315781516001600160a01b031687529582019590820190600101620021d1565b60208152600062001a4b6020830184620021bc565b634e487b7160e01b600052604160045260246000fd5b604051601f8201601f1916810167ffffffffffffffff811182821017156200224f576200224f6200220d565b604052919050565b600060208083850312156200226b57600080fd5b823567ffffffffffffffff808211156200228457600080fd5b818501915085601f8301126200229957600080fd5b813581811115620022ae57620022ae6200220d565b8060051b9150620022c184830162002223565b8181529183018401918481019088841115620022dc57600080fd5b938501935b83851015620022fc57843582529385019390850190620022e1565b98975050505050505050565b600080604083850312156200231c57600080fd5b50508035926020909101359150565b6000602082840312156200233e57600080fd5b5035919050565b600080604083850312156200235957600080fd5b823562002366816200216e565b946020939093013593505050565b634e487b7160e01b600052603260045260246000fd5b634e487b7160e01b600052602160045260246000fd5b604081526000620021516040830185620021bc565b634e487b7160e01b600052601160045260246000fd5b8082018082111562001a4e5762001a4e620023b5565b8181038181111562001a4e5762001a4e620023b5565b808202811582820484141762001a4e5762001a4e620023b5565b6000620271008083850312156200242757600080fd5b83601f8401126200243757600080fd5b60405181810181811067ffffffffffffffff821117156200245c576200245c6200220d565b6040529083019080858311156200247257600080fd5b845b83811015620024995780516200248a816200216e565b82526020918201910162002474565b509095945050505050565b634e487b7160e01b600052601260045260246000fd5b600082620024cc57620024cc620024a4565b500490565b600060208284031215620024e457600080fd5b5051919050565b600060208284031215620024fe57600080fd5b815180151581146200250f57600080fd5b9392505050565b600082620025285762002528620024a4565b50069056fe60806040526040516200125638038062001256833981016040819052620000269162000426565b8051825114620000985760405162461bcd60e51b815260206004820152603260248201527f5061796d656e7453706c69747465723a2070617965657320616e6420736861726044820152710cae640d8cadccee8d040dad2e6dac2e8c6d60731b60648201526084015b60405180910390fd5b6000825111620000eb5760405162461bcd60e51b815260206004820152601a60248201527f5061796d656e7453706c69747465723a206e6f2070617965657300000000000060448201526064016200008f565b60005b82518110156200014b576200014283828151811062000111576200011162000504565b60200260200101518383815181106200012e576200012e62000504565b60200260200101516200015460201b60201c565b600101620000ee565b50505062000542565b6001600160a01b038216620001c15760405162461bcd60e51b815260206004820152602c60248201527f5061796d656e7453706c69747465723a206163636f756e74206973207468652060448201526b7a65726f206164647265737360a01b60648201526084016200008f565b60008111620002135760405162461bcd60e51b815260206004820152601d60248201527f5061796d656e7453706c69747465723a2073686172657320617265203000000060448201526064016200008f565b6001600160a01b038216600090815260026020526040902054156200028f5760405162461bcd60e51b815260206004820152602b60248201527f5061796d656e7453706c69747465723a206163636f756e7420616c726561647960448201526a206861732073686172657360a81b60648201526084016200008f565b60048054600181019091557f8a35acfbc15ff81a39ae7d344fd709f28e8600b4aa8c65c6b64bfe7fe36bd19b0180546001600160a01b0319166001600160a01b038416908117909155600090815260026020526040812082905554620002f79082906200051a565b600055604080516001600160a01b0384168152602081018390527f40c340f65e17194d14ddddb073d3c9f888e3cb52b5aae0c6c7706b4fbc905fac910160405180910390a15050565b634e487b7160e01b600052604160045260246000fd5b604051601f8201601f191681016001600160401b038111828210171562000381576200038162000340565b604052919050565b60006001600160401b03821115620003a557620003a562000340565b5060051b60200190565b600082601f830112620003c157600080fd5b81516020620003da620003d48362000389565b62000356565b8083825260208201915060208460051b870101935086841115620003fd57600080fd5b602086015b848110156200041b578051835291830191830162000402565b509695505050505050565b600080604083850312156200043a57600080fd5b82516001600160401b03808211156200045257600080fd5b818501915085601f8301126200046757600080fd5b815160206200047a620003d48362000389565b82815260059290921b840181019181810190898411156200049a57600080fd5b948201945b83861015620004d15785516001600160a01b0381168114620004c15760008081fd5b825294820194908201906200049f565b91880151919650909350505080821115620004eb57600080fd5b50620004fa85828601620003af565b9150509250929050565b634e487b7160e01b600052603260045260246000fd5b808201808211156200053c57634e487b7160e01b600052601160045260246000fd5b92915050565b610d0480620005526000396000f3fe6080604052600436106100c05760003560e01c80639852595c11610074578063ce7c2ac21161004e578063ce7c2ac214610242578063d79779b214610278578063e33b7de3146102ae57600080fd5b80639852595c146101cc578063a3f8eace14610202578063c45ac0501461022257600080fd5b8063406072a9116100a5578063406072a91461015457806348b75044146101745780638b83209b1461019457600080fd5b8063191655871461010e5780633a98ef391461013057600080fd5b36610109577f6ef95f06320e7a25a04a175ca677b7052bdd97131872c2192525a629f51be77033604080516001600160a01b0390921682523460208301520160405180910390a1005b600080fd5b34801561011a57600080fd5b5061012e610129366004610b26565b6102c3565b005b34801561013c57600080fd5b506000545b6040519081526020015b60405180910390f35b34801561016057600080fd5b5061014161016f366004610b43565b610432565b34801561018057600080fd5b5061012e61018f366004610b43565b61045f565b3480156101a057600080fd5b506101b46101af366004610b7c565b6105f3565b6040516001600160a01b03909116815260200161014b565b3480156101d857600080fd5b506101416101e7366004610b26565b6001600160a01b031660009081526003602052604090205490565b34801561020e57600080fd5b5061014161021d366004610b26565b610623565b34801561022e57600080fd5b5061014161023d366004610b43565b61066b565b34801561024e57600080fd5b5061014161025d366004610b26565b6001600160a01b031660009081526002602052604090205490565b34801561028457600080fd5b50610141610293366004610b26565b6001600160a01b031660009081526005602052604090205490565b3480156102ba57600080fd5b50600154610141565b6001600160a01b03811660009081526002602052604090205461033c5760405162461bcd60e51b815260206004820152602660248201527f5061796d656e7453706c69747465723a206163636f756e7420686173206e6f2060448201526573686172657360d01b60648201526084015b60405180910390fd5b600061034782610623565b9050806000036103ad5760405162461bcd60e51b815260206004820152602b60248201527f5061796d656e7453706c69747465723a206163636f756e74206973206e6f742060448201526a191d59481c185e5b595b9d60aa1b6064820152608401610333565b80600160008282546103bf9190610bab565b90915550506001600160a01b03821660009081526003602052604090208054820190556103ec828261072a565b604080516001600160a01b0384168152602081018390527fdf20fd1e76bc69d672e4814fafb2c449bba3a5369d8359adf9e05e6fde87b056910160405180910390a15050565b6001600160a01b038083166000908152600660209081526040808320938516835292905220545b92915050565b6001600160a01b0381166000908152600260205260409020546104d35760405162461bcd60e51b815260206004820152602660248201527f5061796d656e7453706c69747465723a206163636f756e7420686173206e6f2060448201526573686172657360d01b6064820152608401610333565b60006104df838361066b565b9050806000036105455760405162461bcd60e51b815260206004820152602b60248201527f5061796d656e7453706c69747465723a206163636f756e74206973206e6f742060448201526a191d59481c185e5b595b9d60aa1b6064820152608401610333565b6001600160a01b0383166000908152600560205260408120805483929061056d908490610bab565b90915550506001600160a01b0380841660009081526006602090815260408083209386168352929052208054820190556105a8838383610848565b604080516001600160a01b038481168252602082018490528516917f3be5b7a71e84ed12875d241991c70855ac5817d847039e17a9d895c1ceb0f18a910160405180910390a2505050565b60006004828154811061060857610608610bbe565b6000918252602090912001546001600160a01b031692915050565b60008061062f60015490565b6106399047610bab565b9050610664838261065f866001600160a01b031660009081526003602052604090205490565b6108c8565b9392505050565b6001600160a01b03821660009081526005602052604081205481906040517f70a082310000000000000000000000000000000000000000000000000000000081523060048201526001600160a01b038616906370a0823190602401602060405180830381865afa1580156106e3573d6000803e3d6000fd5b505050506040513d601f19601f820116820180604052508101906107079190610bd4565b6107119190610bab565b9050610722838261065f8787610432565b949350505050565b8047101561077a5760405162461bcd60e51b815260206004820152601d60248201527f416464726573733a20696e73756666696369656e742062616c616e63650000006044820152606401610333565b6000826001600160a01b03168260405160006040518083038185875af1925050503d80600081146107c7576040519150601f19603f3d011682016040523d82523d6000602084013e6107cc565b606091505b50509050806108435760405162461bcd60e51b815260206004820152603a60248201527f416464726573733a20756e61626c6520746f2073656e642076616c75652c207260448201527f6563697069656e74206d617920686176652072657665727465640000000000006064820152608401610333565b505050565b604080516001600160a01b038416602482015260448082018490528251808303909101815260649091019091526020810180517bffffffffffffffffffffffffffffffffffffffffffffffffffffffff167fa9059cbb00000000000000000000000000000000000000000000000000000000179052610843908490610903565b600080546001600160a01b0385168252600260205260408220548391906108ef9086610bed565b6108f99190610c04565b6107229190610c26565b6000610958826040518060400160405280602081526020017f5361666545524332303a206c6f772d6c6576656c2063616c6c206661696c6564815250856001600160a01b03166109eb9092919063ffffffff16565b90508051600014806109795750808060200190518101906109799190610c39565b6108435760405162461bcd60e51b815260206004820152602a60248201527f5361666545524332303a204552433230206f7065726174696f6e20646964206e60448201527f6f742073756363656564000000000000000000000000000000000000000000006064820152608401610333565b6060610722848460008585600080866001600160a01b03168587604051610a129190610c7f565b60006040518083038185875af1925050503d8060008114610a4f576040519150601f19603f3d011682016040523d82523d6000602084013e610a54565b606091505b5091509150610a6587838387610a70565b979650505050505050565b60608315610adf578251600003610ad8576001600160a01b0385163b610ad85760405162461bcd60e51b815260206004820152601d60248201527f416464726573733a2063616c6c20746f206e6f6e2d636f6e74726163740000006044820152606401610333565b5081610722565b6107228383815115610af45781518083602001fd5b8060405162461bcd60e51b81526004016103339190610c9b565b6001600160a01b0381168114610b2357600080fd5b50565b600060208284031215610b3857600080fd5b813561066481610b0e565b60008060408385031215610b5657600080fd5b8235610b6181610b0e565b91506020830135610b7181610b0e565b809150509250929050565b600060208284031215610b8e57600080fd5b5035919050565b634e487b7160e01b600052601160045260246000fd5b8082018082111561045957610459610b95565b634e487b7160e01b600052603260045260246000fd5b600060208284031215610be657600080fd5b5051919050565b808202811582820484141761045957610459610b95565b600082610c2157634e487b7160e01b600052601260045260246000fd5b500490565b8181038181111561045957610459610b95565b600060208284031215610c4b57600080fd5b8151801515811461066457600080fd5b60005b83811015610c76578181015183820152602001610c5e565b50506000910152565b60008251610c91818460208701610c5b565b9190910192915050565b6020815260008251806020840152610cba816040850160208701610c5b565b601f01601f1916919091016040019291505056fea2646970667358221220655457b4a5d5986410857a0c2a15cc7feaf5e7fd6dca5cf21666397b3ecb0d5564736f6c63430008180033a2646970667358221220c392b28c8655a7c6f4e3135fc5e64489792ebdbc729366c543ae18e33f564e5a64736f6c63430008180033",
  "linkReferences": {},
  "deployedLinkReferences": {}
}