{
  "_format": "hh-sol-artifact-1",
  "contractName": "Evaluation",
  "sourceName": "contracts/Evaluation.sol",
  "abi": [
    {
      "inputs": [
        {
          "internalType": "address",
          "name": "evaluatorContractAddress",
          "type": "address"
        },
        {
          "internalType": "address",
          "name": "lanceContractAddress",
          "type": "address"
        },
        {
          "internalType": "contract IERC20",
          "name": "lanceToken_",
          "type": "address"
        },
        {
          "internalType": "contract IERC20",
          "name": "bidToken_",
          "type": "address"
        },
        {
          "internalType": "uint256[20]",
          "name": "variables",
          "type": "uint256[20]"
        },
        {
          "internalType": "address",
          "name": "workerAddress_",
          "type": "address"
        },
        {
          "internalType": "address",
          "name": "clientAddress_",
          "type": "address"
        },
        {
          "internalType": "bytes",
          "name": "jobIPFS_",
          "type": "bytes"
        }
      ],
      "stateMutability": "nonpayable",
      "type": "constructor"
    },
    {
      "inputs": [
        {
          "internalType": "uint256[]",
          "name": "_data",
          "type": "uint256[]"
        }
      ],
      "name": "UintArray",
      "outputs": [],
      "stateMutability": "nonpayable",
      "type": "function"
    },
    {
      "inputs": [],
      "name": "algorithmicAllocation",
      "outputs": [
        {
          "internalType": "uint256",
          "name": "",
          "type": "uint256"
        }
      ],
      "stateMutability": "view",
      "type": "function"
    },
    {
      "inputs": [],
      "name": "averageAlgo",
      "outputs": [
        {
          "internalType": "uint256",
          "name": "",
          "type": "uint256"
        }
      ],
      "stateMutability": "view",
      "type": "function"
    },
    {
      "inputs": [],
      "name": "averageHeuristic",
      "outputs": [
        {
          "internalType": "uint256",
          "name": "",
          "type": "uint256"
        }
      ],
      "stateMutability": "view",
      "type": "function"
    },
    {
      "inputs": [],
      "name": "clientAllocation",
      "outputs": [
        {
          "internalType": "uint256",
          "name": "",
          "type": "uint256"
        }
      ],
      "stateMutability": "view",
      "type": "function"
    },
    {
      "inputs": [],
      "name": "decimals",
      "outputs": [
        {
          "internalType": "uint256",
          "name": "",
          "type": "uint256"
        }
      ],
      "stateMutability": "view",
      "type": "function"
    },
    {
      "inputs": [],
      "name": "evaluate",
      "outputs": [],
      "stateMutability": "nonpayable",
      "type": "function"
    },
    {
      "inputs": [],
      "name": "evaluateAlgorithmicTests",
      "outputs": [
        {
          "internalType": "uint256",
          "name": "",
          "type": "uint256"
        }
      ],
      "stateMutability": "nonpayable",
      "type": "function"
    },
    {
      "inputs": [],
      "name": "evaluateHeuristicTests",
      "outputs": [
        {
          "internalType": "uint256",
          "name": "",
          "type": "uint256"
        }
      ],
      "stateMutability": "nonpayable",
      "type": "function"
    },
    {
      "inputs": [
        {
          "internalType": "uint256",
          "name": "",
          "type": "uint256"
        }
      ],
      "name": "evaluatorAlgorithmicScore",
      "outputs": [
        {
          "internalType": "uint256",
          "name": "",
          "type": "uint256"
        }
      ],
      "stateMutability": "view",
      "type": "function"
    },
    {
      "inputs": [],
      "name": "evaluatorAllocation",
      "outputs": [
        {
          "internalType": "uint256",
          "name": "",
          "type": "uint256"
        }
      ],
      "stateMutability": "view",
      "type": "function"
    },
    {
      "inputs": [
        {
          "internalType": "uint256",
          "name": "",
          "type": "uint256"
        }
      ],
      "name": "evaluatorHeuristicScore",
      "outputs": [
        {
          "internalType": "uint256",
          "name": "",
          "type": "uint256"
        }
      ],
      "stateMutability": "view",
      "type": "function"
    },
    {
      "inputs": [],
      "name": "evaluatorOverall",
      "outputs": [
        {
          "internalType": "uint256",
          "name": "",
          "type": "uint256"
        }
      ],
      "stateMutability": "view",
      "type": "function"
    },
    {
      "inputs": [],
      "name": "fees",
      "outputs": [
        {
          "internalType": "uint256",
          "name": "",
          "type": "uint256"
        }
      ],
      "stateMutability": "view",
      "type": "function"
    },
    {
      "inputs": [],
      "name": "getEvaluatorScores",
      "outputs": [
        {
          "internalType": "uint256[]",
          "name": "",
          "type": "uint256[]"
        },
        {
          "internalType": "uint256[]",
          "name": "",
          "type": "uint256[]"
        }
      ],
      "stateMutability": "view",
      "type": "function"
    },
    {
      "inputs": [],
      "name": "getEvaluators",
      "outputs": [
        {
          "internalType": "address[]",
          "name": "",
          "type": "address[]"
        }
      ],
      "stateMutability": "view",
      "type": "function"
    },
    {
      "inputs": [
        {
          "internalType": "uint256[]",
          "name": "arr",
          "type": "uint256[]"
        }
      ],
      "name": "getIQR",
      "outputs": [
        {
          "internalType": "uint256",
          "name": "",
          "type": "uint256"
        },
        {
          "internalType": "uint256",
          "name": "",
          "type": "uint256"
        }
      ],
      "stateMutability": "nonpayable",
      "type": "function"
    },
    {
      "inputs": [],
      "name": "heuristicAllocation",
      "outputs": [
        {
          "internalType": "uint256",
          "name": "",
          "type": "uint256"
        }
      ],
      "stateMutability": "view",
      "type": "function"
    },
    {
      "inputs": [],
      "name": "lowerIQRAlgo",
      "outputs": [
        {
          "internalType": "uint256",
          "name": "",
          "type": "uint256"
        }
      ],
      "stateMutability": "view",
      "type": "function"
    },
    {
      "inputs": [],
      "name": "lowerIQRHeuristic",
      "outputs": [
        {
          "internalType": "uint256",
          "name": "",
          "type": "uint256"
        }
      ],
      "stateMutability": "view",
      "type": "function"
    },
    {
      "inputs": [],
      "name": "maxStakeLosable",
      "outputs": [
        {
          "internalType": "uint256",
          "name": "",
          "type": "uint256"
        }
      ],
      "stateMutability": "view",
      "type": "function"
    },
    {
      "inputs": [],
      "name": "medianAlgorithmic",
      "outputs": [
        {
          "internalType": "uint256",
          "name": "",
          "type": "uint256"
        }
      ],
      "stateMutability": "view",
      "type": "function"
    },
    {
      "inputs": [],
      "name": "medianHeuristic",
      "outputs": [
        {
          "internalType": "uint256",
          "name": "",
          "type": "uint256"
        }
      ],
      "stateMutability": "view",
      "type": "function"
    },
    {
      "inputs": [],
      "name": "overallScore",
      "outputs": [
        {
          "internalType": "uint256",
          "name": "",
          "type": "uint256"
        }
      ],
      "stateMutability": "view",
      "type": "function"
    },
    {
      "inputs": [],
      "name": "ownerScore",
      "outputs": [
        {
          "internalType": "uint256",
          "name": "",
          "type": "uint256"
        }
      ],
      "stateMutability": "view",
      "type": "function"
    },
    {
      "inputs": [],
      "name": "ownerSubmitted",
      "outputs": [
        {
          "internalType": "bool",
          "name": "",
          "type": "bool"
        }
      ],
      "stateMutability": "view",
      "type": "function"
    },
    {
      "inputs": [
        {
          "internalType": "uint256",
          "name": "seed",
          "type": "uint256"
        },
        {
          "internalType": "uint256",
          "name": "amount",
          "type": "uint256"
        }
      ],
      "name": "populateEvaluators",
      "outputs": [],
      "stateMutability": "nonpayable",
      "type": "function"
    },
    {
      "inputs": [],
      "name": "rewardEvaluators",
      "outputs": [],
      "stateMutability": "nonpayable",
      "type": "function"
    },
    {
      "inputs": [],
      "name": "settle",
      "outputs": [],
      "stateMutability": "nonpayable",
      "type": "function"
    },
    {
      "inputs": [],
      "name": "sort",
      "outputs": [],
      "stateMutability": "nonpayable",
      "type": "function"
    },
    {
      "inputs": [
        {
          "internalType": "address",
          "name": "evaluator",
          "type": "address"
        },
        {
          "internalType": "uint256",
          "name": "algo_score",
          "type": "uint256"
        },
        {
          "internalType": "uint256",
          "name": "heuristic_score",
          "type": "uint256"
        }
      ],
      "name": "submitEvaluatorScore",
      "outputs": [],
      "stateMutability": "nonpayable",
      "type": "function"
    },
    {
      "inputs": [
        {
          "internalType": "address",
          "name": "owner",
          "type": "address"
        },
        {
          "internalType": "uint256",
          "name": "score",
          "type": "uint256"
        }
      ],
      "name": "submitOwnerScore",
      "outputs": [],
      "stateMutability": "nonpayable",
      "type": "function"
    },
    {
      "inputs": [],
      "name": "upperIQRAlgo",
      "outputs": [
        {
          "internalType": "uint256",
          "name": "",
          "type": "uint256"
        }
      ],
      "stateMutability": "view",
      "type": "function"
    },
    {
      "inputs": [],
      "name": "upperIQRHeuristic",
      "outputs": [
        {
          "internalType": "uint256",
          "name": "",
          "type": "uint256"
        }
      ],
      "stateMutability": "view",
      "type": "function"
    }
  ],
  "bytecode": "0x60806040523480156200001157600080fd5b506040516200402c3803806200402c833981016040819052620000349162000593565b60148054610100600160a81b0319166101006001600160a01b038b81169190910291909117909155601580546001600160a01b03199081168a841617909155602e80548216898416179055602f8054909116918716919091179055835160265560208401516001600160401b03811115620000b357620000b362000491565b604051908082528060200260200182016040528015620000dd578160200160208202803683370190505b508051620000f491601a916020909101906200035d565b5060208401516001600160401b0381111562000114576200011462000491565b6040519080825280602002602001820160405280156200013e578160200160208202803683370190505b5080516200015591601b916020909101906200035d565b5060208401516001600160401b0381111562000175576200017562000491565b6040519080825280602002602001820160405280156200019f578160200160208202803683370190505b508051620001b691601791602090910190620003ad565b50604084015160298190556060850151602a81905590620001d9906064620006bd565b620001e59190620006d7565b602b556080840151602c81905560295462000202906064620006bd565b6200020e9190620006d7565b602d5560a084015160305560c084015160315560e0840151600f55610100840151600e556101208401516006556101408401516007556101608401516008556101808401516009556101a0840151600a556101c0840151600b556101e08401516001556102008401516002556102208401516003556102408401516004556102608401516005556032620002a382826200077e565b50600c80546001600160a01b038086166001600160a01b031992831617909255600d805492851692909116919091179055602654600f54620002e6919062000336565b601255602654600e54620002fb919062000336565b6013819055600e546200030f9190620006d7565b601055601254600f54620003249190620006d7565b601155506200086d9650505050505050565b602954600090620003488385620006bd565b6200035491906200084a565b90505b92915050565b8280548282559060005260206000209081019282156200039b579160200282015b828111156200039b5782518255916020019190600101906200037e565b50620003a99291506200044f565b5090565b82805482825590600052602060002090601f016020900481019282156200039b5791602002820160005b838211156200041657835183826101000a81548160ff0219169083151502179055509260200192600101602081600001049283019260010302620003d7565b8015620004455782816101000a81549060ff021916905560010160208160000104928301926001030262000416565b5050620003a99291505b5b80821115620003a9576000815560010162000450565b6001600160a01b03811681146200047c57600080fd5b50565b80516200048c8162000466565b919050565b634e487b7160e01b600052604160045260246000fd5b60405161028081016001600160401b0381118282101715620004cd57620004cd62000491565b60405290565b604051601f8201601f191681016001600160401b0381118282101715620004fe57620004fe62000491565b604052919050565b600082601f8301126200051857600080fd5b81516001600160401b0381111562000534576200053462000491565b60206200054a601f8301601f19168201620004d3565b82815285828487010111156200055f57600080fd5b60005b838110156200057f57858101830151828201840152820162000562565b506000928101909101919091529392505050565b600080600080600080600080610360898b031215620005b157600080fd5b8851620005be8162000466565b809850506020808a0151620005d38162000466565b60408b0151909850620005e68162000466565b60608b0151909750620005f98162000466565b9550609f8a018b136200060b57600080fd5b62000615620004a7565b806103008c018d8111156200062957600080fd5b60808d015b818110156200064757805184529284019284016200062e565b5081975062000656816200047f565b9650505050506200066b6103208a016200047f565b6103408a01519092506001600160401b038111156200068957600080fd5b620006978b828c0162000506565b9150509295985092959890939650565b634e487b7160e01b600052601160045260246000fd5b8082028115828204841417620003575762000357620006a7565b81810381811115620003575762000357620006a7565b600181811c908216806200070257607f821691505b6020821081036200072357634e487b7160e01b600052602260045260246000fd5b50919050565b601f82111562000779576000816000526020600020601f850160051c81016020861015620007545750805b601f850160051c820191505b81811015620007755782815560010162000760565b5050505b505050565b81516001600160401b038111156200079a576200079a62000491565b620007b281620007ab8454620006ed565b8462000729565b602080601f831160018114620007ea5760008415620007d15750858301515b600019600386901b1c1916600185901b17855562000775565b600085815260208120601f198616915b828110156200081b57888601518255948401946001909101908401620007fa565b50858210156200083a5787850151600019600388901b60f8161c191681555b5050505050600190811b01905550565b6000826200086857634e487b7160e01b600052601260045260246000fd5b500490565b6137af806200087d6000396000f3fe60806040523480156200001157600080fd5b5060043610620002535760003560e01c806384b215a21162000142578063aaf7097511620000cc578063be3b20871162000097578063f345b4a7116200007a578063f345b4a71462000410578063f3761eae146200043d578063fa77c883146200045457600080fd5b8063be3b208714620003ef578063d27b863e14620003f957600080fd5b8063aaf7097514620003ba578063b14275e614620003c4578063b2e669a514620003db578063b9b311ea14620003e557600080fd5b80639c5e8771116200010d5780639c5e877114620003855780639d40fb48146200038f578063a8f691151462000399578063aa3482fa14620003a357600080fd5b806384b215a2146200035d5780638cdc86a614620003675780639a58a8d714620003715780639af1d35a146200037b57600080fd5b806345a3b74511620001e15780635aabe50511620001ac5780637daa9efc116200018f5780637daa9efc14620003305780637e1cce0c146200033a5780638370eeab146200035357600080fd5b80635aabe505146200030f5780636274ac81146200032657600080fd5b806345a3b74514620002e757806346241e2c14620002f15780634718768514620002fb578063590625bb146200030557600080fd5b80632123dec711620002225780632123dec714620002bf578063240245cf14620002c95780632eeca80214620002d3578063313ce56714620002dd57600080fd5b806303fd179b14620002585780630aea0851146200027b57806311da60b4146200029457806317e56e0214620002a0575b600080fd5b620002626200046b565b6040516200027292919062002132565b60405180910390f35b6200028560285481565b60405190815260200162000272565b6200029e62000522565b005b601954620002ae9060ff1681565b604051901515815260200162000272565b62000285602a5481565b62000285602b5481565b62000285601e5481565b6200028560295481565b62000285601c5481565b6200028560235481565b6200028560205481565b6200028560255481565b6200029e620003203660046200217a565b6200089f565b6200028560225481565b6200029e6200094c565b6200034462000b62565b604051620002729190620021ee565b6200028560185481565b6200028560215481565b6200029e62000bc6565b62000285602c5481565b6200028560265481565b6200028562000bfa565b62000285601f5481565b6200029e62000cc6565b6200029e620003b43660046200224d565b620013e0565b6200028560245481565b6200029e620003d5366004620022fe565b62001494565b62000285620015e3565b62000285602d5481565b62000285601d5481565b620002856200040a36600462002321565b620016a8565b62000427620004213660046200224d565b620016ca565b6040805192835260208301919091520162000272565b6200029e6200044e3660046200233b565b60185550565b620002856200046536600462002321565b62001863565b606080601a601b81805480602002602001604051908101604052809291908181526020018280548015620004bf57602002820191906000526020600020905b815481526020019060010190808311620004aa575b50505050509150808054806020026020016040519081016040528092919081815260200182805480156200051357602002820191906000526020600020905b815481526020019060010190808311620004fe575b50505050509050915091509091565b6040805160028082526060820183526000926020830190803683375050600d5482519293506001600160a01b0316918391506000906200056657620005666200236a565b6001600160a01b039283166020918202929092010152600c548251911690829060019081106200059a576200059a6200236a565b6001600160a01b0390921660209283029190910190910152600060145460ff166005811115620005ce57620005ce62002380565b036200064e5780620005e260065462001874565b604051620005f0906200207f565b620005fd92919062002396565b604051809103906000f0801580156200061a573d6000803e3d6000fd5b506027805473ffffffffffffffffffffffffffffffffffffffff19166001600160a01b0392909216919091179055620007a5565b600160145460ff1660058111156200066a576200066a62002380565b036200067e5780620005e260075462001874565b600260145460ff1660058111156200069a576200069a62002380565b03620006ae5780620005e260085462001874565b600360145460ff166005811115620006ca57620006ca62002380565b03620006de5780620005e260095462001874565b600460145460ff166005811115620006fa57620006fa62002380565b036200070e5780620005e2600a5462001874565b600560145460ff1660058111156200072a576200072a62002380565b03620007a557806200073e600b5462001874565b6040516200074c906200207f565b6200075992919062002396565b604051809103906000f08015801562000776573d6000803e3d6000fd5b506027805473ffffffffffffffffffffffffffffffffffffffff19166001600160a01b03929092169190911790555b602754601054620007c0916001600160a01b031690620018df565b602754602e54600d5460405163122dd41160e21b81526001600160a01b03928316600482015290821660248201529116906348b7504490604401600060405180830381600087803b1580156200081557600080fd5b505af11580156200082a573d6000803e3d6000fd5b5050602754602e54600c5460405163122dd41160e21b81526001600160a01b0392831660048201529082166024820152911692506348b750449150604401600060405180830381600087803b1580156200088357600080fd5b505af115801562000898573d6000803e3d6000fd5b5050505050565b6001600160a01b038316600090815260208190526040902054601a805484919083908110620008d257620008d26200236a565b906000526020600020018190555081601b8281548110620008f757620008f76200236a565b90600052602060002001819055506001601782815481106200091d576200091d6200236a565b90600052602060002090602091828204019190066101000a81548160ff02191690831515021790555050505050565b62000956620015e3565b6023556200096362000bfa565b602255602b54602a546000916200098691620009809082620023c1565b62001a22565b90506000620009a3602a54602a54602b54620009809190620023c1565b9050620009b36022548262001a4a565b620009c18360235462001a4a565b620009cd9190620023c1565b602555602d54602c54620009f691620009ed9162000980908290620023c1565b60185462001a4a565b62000a1c62000a13602c54602d54602c54620009809190620023c1565b60255462001a4a565b62000a289190620023c1565b602481905560641080159062000a42575060015460245410155b1562000a6357601480546000919060ff19166001835b021790555062000b54565b60015460245410801562000a7b575060025460245410155b1562000a9557601480546001919060ff1916828062000a58565b60015460245410801562000aad575060035460245410155b1562000ac857601480546002919060ff191660018362000a58565b60015460245410801562000ae0575060045460245410155b1562000afb57601480546003919060ff191660018362000a58565b60015460245410801562000b13575060055460245410155b1562000b2e57601480546004919060ff191660018362000a58565b60055460245410801562000b40575060015b1562000b54576014805460ff191660051790555b62000b5e62000cc6565b5050565b6060601680548060200260200160405190810160405280929190818152602001828054801562000bbc57602002820191906000526020600020905b81546001600160a01b0316815260019091019060200180831162000b9d575b5050505050905090565b60005b60335462000bda90600190620023d7565b81101562000bf75762000bed8162001a5c565b5060010162000bc9565b50565b600062000c59601b80548060200260200160405190810160405280929190818152602001828054801562000c4e57602002820191906000526020600020905b81548152602001906001019080831162000c39575b5050505050620016ca565b6021556020908155601b8054604080518285028101850190915281815262000cc1939092919083018282801562000cb057602002820191906000526020600020905b81548152602001906001019080831162000c9b575b505050505060205460215462001b6b565b905090565b601b5460009067ffffffffffffffff81111562000ce75762000ce762002203565b60405190808252806020026020018201604052801562000d11578160200160208202803683370190505b50601b5490915060009067ffffffffffffffff81111562000d365762000d3662002203565b60405190808252806020026020018201604052801562000d60578160200160208202803683370190505b50601b5490915060009067ffffffffffffffff81111562000d855762000d8562002203565b60405190808252806020026020018201604052801562000daf578160200160208202803683370190505b50905060005b601b5481101562000f60576016818154811062000dd65762000dd66200236a565b9060005260206000200160009054906101000a90046001600160a01b031684828151811062000e095762000e096200236a565b6001600160a01b0390921660209283029190910182015254601b80548390811062000e385762000e386200236a565b906000526020600020015411801562000e725750602154601b828154811062000e655762000e656200236a565b9060005260206000200154105b1562000ee457601c54601b828154811062000e915762000e916200236a565b90600052602060002001540362000ecc5760305483828151811062000eba5762000eba6200236a565b60200260200101818152505062000f57565b60315483828151811062000eba5762000eba6200236a565b600183828151811062000efb5762000efb6200236a565b60200260200101818152505062000f35601c54601b838154811062000f245762000f246200236a565b906000526020600020015462001c38565b82828151811062000f4a5762000f4a6200236a565b6020026020010181815250505b60010162000db5565b5060005b601a548110156200110357601e54601a828154811062000f885762000f886200236a565b906000526020600020015411801562000fc25750601f54601a828154811062000fb55762000fb56200236a565b9060005260206000200154105b15620010fa57601d54601a828154811062000fe15762000fe16200236a565b90600052602060002001540362001045576030548382815181106200100a576200100a6200236a565b60200260200101516200101e9190620023c1565b8382815181106200103357620010336200236a565b602002602001018181525050620010fa565b6031548382815181106200105d576200105d6200236a565b6020026020010151620010719190620023c1565b8382815181106200108657620010866200236a565b602002602001018181525050620010af601c54601b838154811062000f245762000f246200236a565b828281518110620010c457620010c46200236a565b6020026020010151620010d89190620023c1565b828281518110620010ed57620010ed6200236a565b6020026020010181815250505b60010162000f64565b506000838360405162001116906200207f565b6200112392919062002396565b604051809103906000f08015801562001140573d6000803e3d6000fd5b509050620011518160115462001c63565b6200115f81601054620018df565b60005b8451811015620012c057602e5485516001600160a01b03808516926348b75044929116908890859081106200119b576200119b6200236a565b60200260200101516040518363ffffffff1660e01b8152600401620011d69291906001600160a01b0392831681529116602082015260400190565b600060405180830381600087803b158015620011f157600080fd5b505af115801562001206573d6000803e3d6000fd5b50505050816001600160a01b03166348b75044602f60009054906101000a90046001600160a01b03168784815181106200124457620012446200236a565b60200260200101516040518363ffffffff1660e01b81526004016200127f9291906001600160a01b0392831681529116602082015260400190565b600060405180830381600087803b1580156200129a57600080fd5b505af1158015620012af573d6000803e3d6000fd5b505060019092019150620011629050565b5060005b82518110156200089857828181518110620012e357620012e36200236a565b6020026020010151600003620012fa575050505050565b60006028548483815181106200131457620013146200236a565b6020026020010151620013289190620023ed565b9050601460019054906101000a90046001600160a01b03166001600160a01b031663f40d659d8784815181106200136357620013636200236a565b6020026020010151836040518363ffffffff1660e01b81526004016200139e9291906001600160a01b03929092168252602082015260400190565b600060405180830381600087803b158015620013b957600080fd5b505af1158015620013ce573d6000803e3d6000fd5b505060019093019250620012c4915050565b805167ffffffffffffffff811115620013fd57620013fd62002203565b60405190808252806020026020018201604052801562001427578160200160208202803683370190505b5080516200143e916033916020909101906200208d565b5060005b815181101562000b5e578181815181106200146157620014616200236a565b6020026020010151603382815481106200147f576200147f6200236a565b60009182526020909120015560010162001442565b6014546040517f603da881000000000000000000000000000000000000000000000000000000008152600481018490526024810183905260009161010090046001600160a01b03169063603da881906044016202710060405180830381865afa15801562001506573d6000803e3d6000fd5b505050506040513d601f19601f820116820180604052508101906200152c919062002407565b905060005b82811015620015dd576016828261138881106200155257620015526200236a565b6020908102919091015182546001810184556000938452918320909101805473ffffffffffffffffffffffffffffffffffffffff19166001600160a01b0390921691909117905581908084836113888110620015b257620015b26200236a565b602090810291909101516001600160a01b031682528101919091526040016000205560010162001531565b50505050565b600062001640601a80548060200260200160405190810160405280929190818152602001828054801562000c4e576020028201919060005260206000209081548152602001906001019080831162000c39575050505050620016ca565b601f55601e55601a80546040805160208084028201810190925282815262000cc193909290918301828280156200169757602002820191906000526020600020905b81548152602001906001019080831162001682575b5050505050601e54601f5462001b6b565b601b8181548110620016b957600080fd5b600091825260209091200154905081565b600080620016d883620013e0565b620016e262000bc6565b60006200174160338054806020026020016040519081016040528092919081815260200182805480156200173657602002820191906000526020600020905b81548152602001906001019080831162001721575b505050505062001d61565b90506000620017a260338054806020026020016040519081016040528092919081815260200182805480156200179757602002820191906000526020600020905b81548152602001906001019080831162001782575b505050505062001ebe565b90506000620017b18362001f71565b90506000620017c08362001f71565b90506000620017d08284620023d7565b905060006002620017e3836003620023ed565b620017ef9190620024b0565b620017fb9085620023c1565b9050600060026200180e846003620023ed565b6200181a9190620024b0565b8410156200182b5750600062001855565b60026200183a846003620023ed565b620018469190620024b0565b620018529085620023d7565b90505b999098509650505050505050565b601a8181548110620016b957600080fd5b60608082816000815181106200188e576200188e6200236a565b602002602001018181525050826029546064620018ac9190620023ed565b620018b89190620023d7565b81600181518110620018ce57620018ce6200236a565b602090810291909101015292915050565b602e546040516370a0823160e01b81523060048201526000916001600160a01b0316906370a0823190602401602060405180830381865afa15801562001929573d6000803e3d6000fd5b505050506040513d601f19601f820116820180604052508101906200194f9190620024c7565b905080821115620019a75760405162461bcd60e51b815260206004820152600e60248201527f62616c616e6365206973206c6f7700000000000000000000000000000000000060448201526064015b60405180910390fd5b602e5460405163a9059cbb60e01b81526001600160a01b038581166004830152602482018590529091169063a9059cbb906044015b6020604051808303816000875af1158015620019fc573d6000803e3d6000fd5b505050506040513d601f19601f82011682018060405250810190620015dd9190620024e1565b6000816029548462001a359190620023ed565b62001a419190620024b0565b90505b92915050565b60295460009062001a358385620023ed565b600081805b60335481101562001ac2576033828154811062001a825762001a826200236a565b90600052602060002001546033828154811062001aa35762001aa36200236a565b9060005260206000200154101562001ab9578091505b60010162001a61565b5082810362001ad45750600092915050565b60006033848154811062001aec5762001aec6200236a565b906000526020600020015490506033828154811062001b0f5762001b0f6200236a565b90600052602060002001546033858154811062001b305762001b306200236a565b9060005260206000200181905550806033838154811062001b555762001b556200236a565b6000918252602090912001555060019392505050565b60008080805b865181101562001c12578487828151811062001b915762001b916200236a565b6020026020010151118062001bc157508587828151811062001bb75762001bb76200236a565b6020026020010151105b1562001bdc5762001bd4826001620023c1565b915062001c09565b86818151811062001bf15762001bf16200236a565b60200260200101518362001c069190620023c1565b92505b60010162001b71565b5080865162001c229190620023d7565b62001c2e9083620024b0565b9695505050505050565b60008183111562001c575762001c4f8284620023d7565b905062001a44565b62001c4f8383620023d7565b602f546040516370a0823160e01b81523060048201526000916001600160a01b0316906370a0823190602401602060405180830381865afa15801562001cad573d6000803e3d6000fd5b505050506040513d601f19601f8201168201806040525081019062001cd39190620024c7565b90508082111562001d275760405162461bcd60e51b815260206004820152600e60248201527f62616c616e6365206973206c6f7700000000000000000000000000000000000060448201526064016200199e565b602f5460405163a9059cbb60e01b81526001600160a01b038581166004830152602482018590529091169063a9059cbb90604401620019dc565b606060006002835162001d759190620024b0565b905060008167ffffffffffffffff81111562001d955762001d9562002203565b60405190808252806020026020018201604052801562001dbf578160200160208202803683370190505b5090506002845162001dd291906200250c565b60000362001e4157815b845181101562001e395784818151811062001dfb5762001dfb6200236a565b602002602001015182848362001e129190620023d7565b8151811062001e255762001e256200236a565b602090810291909101015260010162001ddc565b509392505050565b600062001e50836001620023c1565b90505b845181101562001e395784818151811062001e725762001e726200236a565b6020026020010151826001858462001e8b9190620023d7565b62001e979190620023d7565b8151811062001eaa5762001eaa6200236a565b602090810291909101015260010162001e53565b606060006002835162001ed29190620024b0565b905060008167ffffffffffffffff81111562001ef25762001ef262002203565b60405190808252806020026020018201604052801562001f1c578160200160208202803683370190505b50905060005b8281101562001e395784818151811062001f405762001f406200236a565b602002602001015182828151811062001f5d5762001f5d6200236a565b602090810291909101015260010162001f22565b6000815160000362001f8557506000919050565b62001f9082620013e0565b62001f9a62000bc6565b60335462001fab906002906200250c565b600003620020405760335460009062001fc790600290620024b0565b9050600062001fd8600183620023d7565b905060006033838154811062001ff25762001ff26200236a565b906000526020600020015490506000603383815481106200201757620020176200236a565b9060005260206000200154905060028183620020349190620023c1565b62001c2e9190620024b0565b6033546000906200205490600290620024b0565b9050603381815481106200206c576200206c6200236a565b9060005260206000200154915050919050565b611256806200252483390190565b828054828255906000526020600020908101928215620020cb579160200282015b82811115620020cb578251825591602001919060010190620020ae565b50620020d9929150620020dd565b5090565b5b80821115620020d95760008155600101620020de565b60008151808452602080850194506020840160005b83811015620021275781518752958201959082019060010162002109565b509495945050505050565b604081526000620021476040830185620020f4565b82810360208401526200215b8185620020f4565b95945050505050565b6001600160a01b038116811462000bf757600080fd5b6000806000606084860312156200219057600080fd5b83356200219d8162002164565b95602085013595506040909401359392505050565b60008151808452602080850194506020840160005b83811015620021275781516001600160a01b031687529582019590820190600101620021c7565b60208152600062001a416020830184620021b2565b634e487b7160e01b600052604160045260246000fd5b604051601f8201601f1916810167ffffffffffffffff8111828210171562002245576200224562002203565b604052919050565b600060208083850312156200226157600080fd5b823567ffffffffffffffff808211156200227a57600080fd5b818501915085601f8301126200228f57600080fd5b813581811115620022a457620022a462002203565b8060051b9150620022b784830162002219565b8181529183018401918481019088841115620022d257600080fd5b938501935b83851015620022f257843582529385019390850190620022d7565b98975050505050505050565b600080604083850312156200231257600080fd5b50508035926020909101359150565b6000602082840312156200233457600080fd5b5035919050565b600080604083850312156200234f57600080fd5b82356200235c8162002164565b946020939093013593505050565b634e487b7160e01b600052603260045260246000fd5b634e487b7160e01b600052602160045260246000fd5b604081526000620021476040830185620021b2565b634e487b7160e01b600052601160045260246000fd5b8082018082111562001a445762001a44620023ab565b8181038181111562001a445762001a44620023ab565b808202811582820484141762001a445762001a44620023ab565b6000620271008083850312156200241d57600080fd5b83601f8401126200242d57600080fd5b60405181810181811067ffffffffffffffff8211171562002452576200245262002203565b6040529083019080858311156200246857600080fd5b845b838110156200248f578051620024808162002164565b8252602091820191016200246a565b509095945050505050565b634e487b7160e01b600052601260045260246000fd5b600082620024c257620024c26200249a565b500490565b600060208284031215620024da57600080fd5b5051919050565b600060208284031215620024f457600080fd5b815180151581146200250557600080fd5b9392505050565b6000826200251e576200251e6200249a565b50069056fe60806040526040516200125638038062001256833981016040819052620000269162000426565b8051825114620000985760405162461bcd60e51b815260206004820152603260248201527f5061796d656e7453706c69747465723a2070617965657320616e6420736861726044820152710cae640d8cadccee8d040dad2e6dac2e8c6d60731b60648201526084015b60405180910390fd5b6000825111620000eb5760405162461bcd60e51b815260206004820152601a60248201527f5061796d656e7453706c69747465723a206e6f2070617965657300000000000060448201526064016200008f565b60005b82518110156200014b576200014283828151811062000111576200011162000504565b60200260200101518383815181106200012e576200012e62000504565b60200260200101516200015460201b60201c565b600101620000ee565b50505062000542565b6001600160a01b038216620001c15760405162461bcd60e51b815260206004820152602c60248201527f5061796d656e7453706c69747465723a206163636f756e74206973207468652060448201526b7a65726f206164647265737360a01b60648201526084016200008f565b60008111620002135760405162461bcd60e51b815260206004820152601d60248201527f5061796d656e7453706c69747465723a2073686172657320617265203000000060448201526064016200008f565b6001600160a01b038216600090815260026020526040902054156200028f5760405162461bcd60e51b815260206004820152602b60248201527f5061796d656e7453706c69747465723a206163636f756e7420616c726561647960448201526a206861732073686172657360a81b60648201526084016200008f565b60048054600181019091557f8a35acfbc15ff81a39ae7d344fd709f28e8600b4aa8c65c6b64bfe7fe36bd19b0180546001600160a01b0319166001600160a01b038416908117909155600090815260026020526040812082905554620002f79082906200051a565b600055604080516001600160a01b0384168152602081018390527f40c340f65e17194d14ddddb073d3c9f888e3cb52b5aae0c6c7706b4fbc905fac910160405180910390a15050565b634e487b7160e01b600052604160045260246000fd5b604051601f8201601f191681016001600160401b038111828210171562000381576200038162000340565b604052919050565b60006001600160401b03821115620003a557620003a562000340565b5060051b60200190565b600082601f830112620003c157600080fd5b81516020620003da620003d48362000389565b62000356565b8083825260208201915060208460051b870101935086841115620003fd57600080fd5b602086015b848110156200041b578051835291830191830162000402565b509695505050505050565b600080604083850312156200043a57600080fd5b82516001600160401b03808211156200045257600080fd5b818501915085601f8301126200046757600080fd5b815160206200047a620003d48362000389565b82815260059290921b840181019181810190898411156200049a57600080fd5b948201945b83861015620004d15785516001600160a01b0381168114620004c15760008081fd5b825294820194908201906200049f565b91880151919650909350505080821115620004eb57600080fd5b50620004fa85828601620003af565b9150509250929050565b634e487b7160e01b600052603260045260246000fd5b808201808211156200053c57634e487b7160e01b600052601160045260246000fd5b92915050565b610d0480620005526000396000f3fe6080604052600436106100c05760003560e01c80639852595c11610074578063ce7c2ac21161004e578063ce7c2ac214610242578063d79779b214610278578063e33b7de3146102ae57600080fd5b80639852595c146101cc578063a3f8eace14610202578063c45ac0501461022257600080fd5b8063406072a9116100a5578063406072a91461015457806348b75044146101745780638b83209b1461019457600080fd5b8063191655871461010e5780633a98ef391461013057600080fd5b36610109577f6ef95f06320e7a25a04a175ca677b7052bdd97131872c2192525a629f51be77033604080516001600160a01b0390921682523460208301520160405180910390a1005b600080fd5b34801561011a57600080fd5b5061012e610129366004610b26565b6102c3565b005b34801561013c57600080fd5b506000545b6040519081526020015b60405180910390f35b34801561016057600080fd5b5061014161016f366004610b43565b610432565b34801561018057600080fd5b5061012e61018f366004610b43565b61045f565b3480156101a057600080fd5b506101b46101af366004610b7c565b6105f3565b6040516001600160a01b03909116815260200161014b565b3480156101d857600080fd5b506101416101e7366004610b26565b6001600160a01b031660009081526003602052604090205490565b34801561020e57600080fd5b5061014161021d366004610b26565b610623565b34801561022e57600080fd5b5061014161023d366004610b43565b61066b565b34801561024e57600080fd5b5061014161025d366004610b26565b6001600160a01b031660009081526002602052604090205490565b34801561028457600080fd5b50610141610293366004610b26565b6001600160a01b031660009081526005602052604090205490565b3480156102ba57600080fd5b50600154610141565b6001600160a01b03811660009081526002602052604090205461033c5760405162461bcd60e51b815260206004820152602660248201527f5061796d656e7453706c69747465723a206163636f756e7420686173206e6f2060448201526573686172657360d01b60648201526084015b60405180910390fd5b600061034782610623565b9050806000036103ad5760405162461bcd60e51b815260206004820152602b60248201527f5061796d656e7453706c69747465723a206163636f756e74206973206e6f742060448201526a191d59481c185e5b595b9d60aa1b6064820152608401610333565b80600160008282546103bf9190610bab565b90915550506001600160a01b03821660009081526003602052604090208054820190556103ec828261072a565b604080516001600160a01b0384168152602081018390527fdf20fd1e76bc69d672e4814fafb2c449bba3a5369d8359adf9e05e6fde87b056910160405180910390a15050565b6001600160a01b038083166000908152600660209081526040808320938516835292905220545b92915050565b6001600160a01b0381166000908152600260205260409020546104d35760405162461bcd60e51b815260206004820152602660248201527f5061796d656e7453706c69747465723a206163636f756e7420686173206e6f2060448201526573686172657360d01b6064820152608401610333565b60006104df838361066b565b9050806000036105455760405162461bcd60e51b815260206004820152602b60248201527f5061796d656e7453706c69747465723a206163636f756e74206973206e6f742060448201526a191d59481c185e5b595b9d60aa1b6064820152608401610333565b6001600160a01b0383166000908152600560205260408120805483929061056d908490610bab565b90915550506001600160a01b0380841660009081526006602090815260408083209386168352929052208054820190556105a8838383610848565b604080516001600160a01b038481168252602082018490528516917f3be5b7a71e84ed12875d241991c70855ac5817d847039e17a9d895c1ceb0f18a910160405180910390a2505050565b60006004828154811061060857610608610bbe565b6000918252602090912001546001600160a01b031692915050565b60008061062f60015490565b6106399047610bab565b9050610664838261065f866001600160a01b031660009081526003602052604090205490565b6108c8565b9392505050565b6001600160a01b03821660009081526005602052604081205481906040517f70a082310000000000000000000000000000000000000000000000000000000081523060048201526001600160a01b038616906370a0823190602401602060405180830381865afa1580156106e3573d6000803e3d6000fd5b505050506040513d601f19601f820116820180604052508101906107079190610bd4565b6107119190610bab565b9050610722838261065f8787610432565b949350505050565b8047101561077a5760405162461bcd60e51b815260206004820152601d60248201527f416464726573733a20696e73756666696369656e742062616c616e63650000006044820152606401610333565b6000826001600160a01b03168260405160006040518083038185875af1925050503d80600081146107c7576040519150601f19603f3d011682016040523d82523d6000602084013e6107cc565b606091505b50509050806108435760405162461bcd60e51b815260206004820152603a60248201527f416464726573733a20756e61626c6520746f2073656e642076616c75652c207260448201527f6563697069656e74206d617920686176652072657665727465640000000000006064820152608401610333565b505050565b604080516001600160a01b038416602482015260448082018490528251808303909101815260649091019091526020810180517bffffffffffffffffffffffffffffffffffffffffffffffffffffffff167fa9059cbb00000000000000000000000000000000000000000000000000000000179052610843908490610903565b600080546001600160a01b0385168252600260205260408220548391906108ef9086610bed565b6108f99190610c04565b6107229190610c26565b6000610958826040518060400160405280602081526020017f5361666545524332303a206c6f772d6c6576656c2063616c6c206661696c6564815250856001600160a01b03166109eb9092919063ffffffff16565b90508051600014806109795750808060200190518101906109799190610c39565b6108435760405162461bcd60e51b815260206004820152602a60248201527f5361666545524332303a204552433230206f7065726174696f6e20646964206e60448201527f6f742073756363656564000000000000000000000000000000000000000000006064820152608401610333565b6060610722848460008585600080866001600160a01b03168587604051610a129190610c7f565b60006040518083038185875af1925050503d8060008114610a4f576040519150601f19603f3d011682016040523d82523d6000602084013e610a54565b606091505b5091509150610a6587838387610a70565b979650505050505050565b60608315610adf578251600003610ad8576001600160a01b0385163b610ad85760405162461bcd60e51b815260206004820152601d60248201527f416464726573733a2063616c6c20746f206e6f6e2d636f6e74726163740000006044820152606401610333565b5081610722565b6107228383815115610af45781518083602001fd5b8060405162461bcd60e51b81526004016103339190610c9b565b6001600160a01b0381168114610b2357600080fd5b50565b600060208284031215610b3857600080fd5b813561066481610b0e565b60008060408385031215610b5657600080fd5b8235610b6181610b0e565b91506020830135610b7181610b0e565b809150509250929050565b600060208284031215610b8e57600080fd5b5035919050565b634e487b7160e01b600052601160045260246000fd5b8082018082111561045957610459610b95565b634e487b7160e01b600052603260045260246000fd5b600060208284031215610be657600080fd5b5051919050565b808202811582820484141761045957610459610b95565b600082610c2157634e487b7160e01b600052601260045260246000fd5b500490565b8181038181111561045957610459610b95565b600060208284031215610c4b57600080fd5b8151801515811461066457600080fd5b60005b83811015610c76578181015183820152602001610c5e565b50506000910152565b60008251610c91818460208701610c5b565b9190910192915050565b6020815260008251806020840152610cba816040850160208701610c5b565b601f01601f1916919091016040019291505056fea2646970667358221220aa4825edda0c4d7bedb65f28a8b700ce206904c03cf34448ce7db62f5518e3bc64736f6c63430008180033a2646970667358221220b91e9cd7395909717e45354bd1e716649a4e5f037a21760e1df0ca0e78a4c72c64736f6c63430008180033",
  "linkReferences": {},
  "deployedLinkReferences": {}
}