{
  "_format": "hh-sol-artifact-1",
  "contractName": "Evaluation",
  "sourceName": "contracts/Evaluation.sol",
  "abi": [
    {
      "inputs": [
        {
          "internalType": "address",
          "name": "evaluatorContractAddress",
          "type": "address"
        },
        {
          "internalType": "contract IERC20",
          "name": "lanceToken_",
          "type": "address"
        },
        {
          "internalType": "contract IERC20",
          "name": "bidToken_",
          "type": "address"
        },
        {
          "internalType": "uint256",
          "name": "fees_",
          "type": "uint256"
        }
      ],
      "stateMutability": "nonpayable",
      "type": "constructor"
    },
    {
      "inputs": [
        {
          "internalType": "uint256[]",
          "name": "_data",
          "type": "uint256[]"
        }
      ],
      "name": "UintArray",
      "outputs": [],
      "stateMutability": "nonpayable",
      "type": "function"
    },
    {
      "inputs": [],
      "name": "evaluate",
      "outputs": [],
      "stateMutability": "nonpayable",
      "type": "function"
    },
    {
      "inputs": [],
      "name": "evaluateAlgorithmicTests",
      "outputs": [
        {
          "internalType": "uint256",
          "name": "",
          "type": "uint256"
        }
      ],
      "stateMutability": "nonpayable",
      "type": "function"
    },
    {
      "inputs": [],
      "name": "evaluateHeuristicTests",
      "outputs": [
        {
          "internalType": "uint256",
          "name": "",
          "type": "uint256"
        }
      ],
      "stateMutability": "nonpayable",
      "type": "function"
    },
    {
      "inputs": [],
      "name": "getEvaluators",
      "outputs": [
        {
          "internalType": "address[]",
          "name": "",
          "type": "address[]"
        }
      ],
      "stateMutability": "view",
      "type": "function"
    },
    {
      "inputs": [
        {
          "internalType": "uint256[]",
          "name": "arr",
          "type": "uint256[]"
        }
      ],
      "name": "getIQR",
      "outputs": [
        {
          "internalType": "uint256",
          "name": "",
          "type": "uint256"
        },
        {
          "internalType": "uint256",
          "name": "",
          "type": "uint256"
        }
      ],
      "stateMutability": "nonpayable",
      "type": "function"
    },
    {
      "inputs": [
        {
          "internalType": "uint256",
          "name": "seed",
          "type": "uint256"
        },
        {
          "internalType": "uint256",
          "name": "amount",
          "type": "uint256"
        }
      ],
      "name": "populateEvaluators",
      "outputs": [],
      "stateMutability": "nonpayable",
      "type": "function"
    },
    {
      "inputs": [],
      "name": "rewardEvaluators",
      "outputs": [],
      "stateMutability": "nonpayable",
      "type": "function"
    },
    {
      "inputs": [],
      "name": "selectRandomEvaluators",
      "outputs": [],
      "stateMutability": "nonpayable",
      "type": "function"
    },
    {
      "inputs": [],
      "name": "sort",
      "outputs": [],
      "stateMutability": "nonpayable",
      "type": "function"
    },
    {
      "inputs": [],
      "name": "submitEvaluatorScore",
      "outputs": [],
      "stateMutability": "nonpayable",
      "type": "function"
    },
    {
      "inputs": [],
      "name": "submitOwnerScore",
      "outputs": [],
      "stateMutability": "nonpayable",
      "type": "function"
    }
  ],
  "bytecode": "0x60806040526040518061016001604052806101f461ffff16815260200161032061ffff1681526020016105dc61ffff168152602001610a2861ffff1681526020016103e861ffff16815260200161070861ffff16815260200161012c61ffff1681526020016104b061ffff16815260200161025861ffff16815260200161057861ffff16815260200161044c61ffff16815250600490600b620000a492919062000245565b50604051806101600160405280600560ff168152602001600860ff168152602001600f60ff168152602001601a60ff168152602001600a60ff168152602001601260ff168152602001600360ff168152602001600c60ff168152602001600660ff168152602001600e60ff168152602001600b60ff16815250600590600b6200012f9291906200029d565b506032600c556046600f55601e6010553480156200014c57600080fd5b5060405162004c0038038062004c008339818101604052810190620001729190620003fd565b836000806101000a81548173ffffffffffffffffffffffffffffffffffffffff021916908373ffffffffffffffffffffffffffffffffffffffff16021790555082600d60006101000a81548173ffffffffffffffffffffffffffffffffffffffff021916908373ffffffffffffffffffffffffffffffffffffffff16021790555081600e60006101000a81548173ffffffffffffffffffffffffffffffffffffffff021916908373ffffffffffffffffffffffffffffffffffffffff16021790555080600c81905550505050506200046f565b8280548282559060005260206000209081019282156200028a579160200282015b8281111562000289578251829061ffff1690559160200191906001019062000266565b5b509050620002999190620002f4565b5090565b828054828255906000526020600020908101928215620002e1579160200282015b82811115620002e0578251829060ff16905591602001919060010190620002be565b5b509050620002f09190620002f4565b5090565b5b808211156200030f576000816000905550600101620002f5565b5090565b600080fd5b600073ffffffffffffffffffffffffffffffffffffffff82169050919050565b6000620003458262000318565b9050919050565b620003578162000338565b81146200036357600080fd5b50565b60008151905062000377816200034c565b92915050565b60006200038a8262000338565b9050919050565b6200039c816200037d565b8114620003a857600080fd5b50565b600081519050620003bc8162000391565b92915050565b6000819050919050565b620003d781620003c2565b8114620003e357600080fd5b50565b600081519050620003f781620003cc565b92915050565b600080600080608085870312156200041a576200041962000313565b5b60006200042a8782880162000366565b94505060206200043d87828801620003ab565b93505060406200045087828801620003ab565b92505060606200046387828801620003e6565b91505092959194509250565b614781806200047f6000396000f3fe60806040523480156200001157600080fd5b5060043610620000c45760003560e01c8063a8f69115116200007b578063a8f69115146200013d578063aa3482fa1462000149578063b14275e61462000169578063b2e669a51462000189578063eeba212c14620001ab578063f345b4a714620001b757620000c4565b80636a22b34214620000c95780637daa9efc14620000d55780637e1cce0c14620000e15780638cdc86a614620001035780639c5e8771146200010f578063a07955ad1462000131575b600080fd5b620000d3620001ee565b005b620000df620001f0565b005b620000eb62000292565b604051620000fa919062001a98565b60405180910390f35b6200010d62000322565b005b620001196200035e565b60405162000128919062001ad7565b60405180910390f35b6200013b62000433565b005b6200014762000435565b005b62000167600480360381019062000161919062001cae565b62000ae0565b005b62000187600480360381019062000181919062001cff565b62000ba8565b005b6200019362000cee565b604051620001a2919062001ad7565b60405180910390f35b620001b562000dc3565b005b620001d56004803603810190620001cf919062001cae565b62000dc5565b604051620001e592919062001d46565b60405180910390f35b565b6000620001fc62000cee565b905060006200020a6200035e565b90506200024d6040518060400160405280601181526020017f4176657261676520416c676f2069733a200000000000000000000000000000008152508362000f6d565b6200028e6040518060400160405280601681526020017f41766572616765204865757269737469632069733a20000000000000000000008152508262000f6d565b5050565b606060018054806020026020016040519081016040528092919081815260200182805480156200031857602002820191906000526020600020905b8160009054906101000a900473ffffffffffffffffffffffffffffffffffffffff1673ffffffffffffffffffffffffffffffffffffffff1681526020019060010190808311620002cd575b5050505050905090565b60005b600160118054905062000339919062001da2565b8110156200035b576200034c816200100d565b50808060010191505062000325565b50565b6000620003bd6005805480602002602001604051908101604052809291908181526020018280548015620003b257602002820191906000526020600020905b8154815260200190600101908083116200039d575b505050505062000dc5565b600a6000600b60008491905055839190505550506200042e60058054806020026020016040519081016040528092919081815260200182805480156200042357602002820191906000526020600020905b8154815260200190600101908083116200040e575b505050505062001137565b905090565b565b600060058054905067ffffffffffffffff81111562000459576200045862001b1e565b5b604051908082528060200260200182016040528015620004885781602001602082028036833780820191505090505b509050600060058054905067ffffffffffffffff811115620004af57620004ae62001b1e565b5b604051908082528060200260200182016040528015620004de5781602001602082028036833780820191505090505b509050600060058054905067ffffffffffffffff81111562000505576200050462001b1e565b5b604051908082528060200260200182016040528015620005345781602001602082028036833780820191505090505b50905060005b6005805490508110156200073b57600181815481106200055f576200055e62001ddd565b5b9060005260206000200160009054906101000a900473ffffffffffffffffffffffffffffffffffffffff16848281518110620005a0576200059f62001ddd565b5b602002602001019073ffffffffffffffffffffffffffffffffffffffff16908173ffffffffffffffffffffffffffffffffffffffff1681525050600a5460058281548110620005f457620005f362001ddd565b5b90600052602060002001541180156200062f5750600b546005828154811062000622576200062162001ddd565b5b9060005260206000200154105b15620006b757600654600582815481106200064f576200064e62001ddd565b5b9060005260206000200154036200068b57600f5483828151811062000679576200067862001ddd565b5b602002602001018181525050620006b1565b601054838281518110620006a457620006a362001ddd565b5b6020026020010181815250505b6200072d565b6001838281518110620006cf57620006ce62001ddd565b5b6020026020010181815250506200070a60065460058381548110620006f957620006f862001ddd565b5b90600052602060002001546200119e565b82828151811062000720576200071f62001ddd565b5b6020026020010181815250505b80806001019150506200053a565b5060005b60048054905081101562000902576008546004828154811062000767576200076662001ddd565b5b9060005260206000200154118015620007a257506009546004828154811062000795576200079462001ddd565b5b9060005260206000200154105b15620008f45760075460048281548110620007c257620007c162001ddd565b5b9060005260206000200154036200082857600f54838281518110620007ec57620007eb62001ddd565b5b602002602001015162000800919062001e0c565b83828151811062000816576200081562001ddd565b5b602002602001018181525050620008f3565b60105483828151811062000841576200084062001ddd565b5b602002602001015162000855919062001e0c565b8382815181106200086b576200086a62001ddd565b5b602002602001018181525050620008a66006546005838154811062000895576200089462001ddd565b5b90600052602060002001546200119e565b828281518110620008bc57620008bb62001ddd565b5b6020026020010151620008d0919062001e0c565b828281518110620008e657620008e562001ddd565b5b6020026020010181815250505b5b80806001019150506200073f565b506000838360405162000915906200190b565b6200092292919062001f15565b604051809103906000f0801580156200093f573d6000803e3d6000fd5b5090506200095081600c54620011d6565b6200095e81600c546200136c565b60005b845181101562000ad9578173ffffffffffffffffffffffffffffffffffffffff166348b75044600d60009054906101000a900473ffffffffffffffffffffffffffffffffffffffff16878481518110620009c057620009bf62001ddd565b5b60200260200101516040518363ffffffff1660e01b8152600401620009e792919062001fcc565b600060405180830381600087803b15801562000a0257600080fd5b505af115801562000a17573d6000803e3d6000fd5b505050508173ffffffffffffffffffffffffffffffffffffffff166348b75044600e60009054906101000a900473ffffffffffffffffffffffffffffffffffffffff1687848151811062000a705762000a6f62001ddd565b5b60200260200101516040518363ffffffff1660e01b815260040162000a9792919062001fcc565b600060405180830381600087803b15801562000ab257600080fd5b505af115801562000ac7573d6000803e3d6000fd5b50505050808060010191505062000961565b5050505050565b805167ffffffffffffffff81111562000afe5762000afd62001b1e565b5b60405190808252806020026020018201604052801562000b2d5781602001602082028036833780820191505090505b506011908051906020019062000b4592919062001919565b5060005b815181101562000ba45781818151811062000b695762000b6862001ddd565b5b60200260200101516011828154811062000b885762000b8762001ddd565b5b9060005260206000200181905550808060010191505062000b49565b5050565b60008060009054906101000a900473ffffffffffffffffffffffffffffffffffffffff1673ffffffffffffffffffffffffffffffffffffffff1663603da88184846040518363ffffffff1660e01b815260040162000c0892919062001d46565b6202710060405180830381865afa15801562000c28573d6000803e3d6000fd5b505050506040513d601f19601f8201168201806040525081019062000c4e9190620020ef565b905060005b8281101562000ce85760018282611388811062000c755762000c7462001ddd565b5b60200201519080600181540180825580915050600190039060005260206000200160009091909190916101000a81548173ffffffffffffffffffffffffffffffffffffffff021916908373ffffffffffffffffffffffffffffffffffffffff160217905550808060010191505062000c53565b50505050565b600062000d4d600480548060200260200160405190810160405280929190818152602001828054801562000d4257602002820191906000526020600020905b81548152602001906001019080831162000d2d575b505050505062000dc5565b600860006009600084919050558391905055505062000dbe600480548060200260200160405190810160405280929190818152602001828054801562000db357602002820191906000526020600020905b81548152602001906001019080831162000d9e575b505050505062001137565b905090565b565b60008062000dd38362000ae0565b62000ddd62000322565b600062000e3c601180548060200260200160405190810160405280929190818152602001828054801562000e3157602002820191906000526020600020905b81548152602001906001019080831162000e1c575b505050505062001502565b9050600062000e9d601180548060200260200160405190810160405280929190818152602001828054801562000e9257602002820191906000526020600020905b81548152602001906001019080831162000e7d575b50505050506200168b565b9050600062000eac8362001798565b9050600062000ebb8362001798565b90506000818362000ecd919062001da2565b90506000600260038362000ee2919062002123565b62000eee91906200219d565b8462000efb919062001e0c565b90506000600260038462000f10919062002123565b62000f1c91906200219d565b84101562000f2e576000905062000f5b565b600260038462000f3f919062002123565b62000f4b91906200219d565b8462000f58919062001da2565b90505b80829850985050505050505050915091565b62001009828260405160240162000f869291906200225e565b6040516020818303038152906040527fb60e72cc000000000000000000000000000000000000000000000000000000007bffffffffffffffffffffffffffffffffffffffffffffffffffffffff19166020820180517bffffffffffffffffffffffffffffffffffffffffffffffffffffffff8381831617835250505050620018c0565b5050565b60008082905060008390505b6011805490508110156200108457601182815481106200103e576200103d62001ddd565b5b90600052602060002001546011828154811062001060576200105f62001ddd565b5b9060005260206000200154101562001076578091505b808060010191505062001019565b508281036200109857600091505062001132565b600060118481548110620010b157620010b062001ddd565b5b9060005260206000200154905060118281548110620010d557620010d462001ddd565b5b906000526020600020015460118581548110620010f757620010f662001ddd565b5b906000526020600020018190555080601183815481106200111d576200111c62001ddd565b5b90600052602060002001819055506001925050505b919050565b6000806000905060005b8351811015620011865783818151811062001161576200116062001ddd565b5b60200260200101518262001176919062001e0c565b9150808060010191505062001141565b508251816200119691906200219d565b915050919050565b600081831115620011bf578183620011b7919062001da2565b9050620011d0565b8282620011cd919062001da2565b90505b92915050565b6000600e60009054906101000a900473ffffffffffffffffffffffffffffffffffffffff1673ffffffffffffffffffffffffffffffffffffffff166370a08231306040518263ffffffff1660e01b815260040162001235919062002292565b602060405180830381865afa15801562001253573d6000803e3d6000fd5b505050506040513d601f19601f82011682018060405250810190620012799190620022c6565b905080821115620012c1576040517f08c379a0000000000000000000000000000000000000000000000000000000008152600401620012b89062002348565b60405180910390fd5b600e60009054906101000a900473ffffffffffffffffffffffffffffffffffffffff1673ffffffffffffffffffffffffffffffffffffffff1663a9059cbb84846040518363ffffffff1660e01b8152600401620013209291906200236a565b6020604051808303816000875af115801562001340573d6000803e3d6000fd5b505050506040513d601f19601f82011682018060405250810190620013669190620023d4565b50505050565b6000600d60009054906101000a900473ffffffffffffffffffffffffffffffffffffffff1673ffffffffffffffffffffffffffffffffffffffff166370a08231306040518263ffffffff1660e01b8152600401620013cb919062002292565b602060405180830381865afa158015620013e9573d6000803e3d6000fd5b505050506040513d601f19601f820116820180604052508101906200140f9190620022c6565b90508082111562001457576040517f08c379a00000000000000000000000000000000000000000000000000000000081526004016200144e9062002348565b60405180910390fd5b600d60009054906101000a900473ffffffffffffffffffffffffffffffffffffffff1673ffffffffffffffffffffffffffffffffffffffff1663a9059cbb84846040518363ffffffff1660e01b8152600401620014b69291906200236a565b6020604051808303816000875af1158015620014d6573d6000803e3d6000fd5b505050506040513d601f19601f82011682018060405250810190620014fc9190620023d4565b50505050565b60606000600283516200151691906200219d565b905060008167ffffffffffffffff81111562001537576200153662001b1e565b5b604051908082528060200260200182016040528015620015665781602001602082028036833780820191505090505b5090506000600285516200157b919062002406565b03620015f85760008290505b8451811015620015ec57848181518110620015a757620015a662001ddd565b5b6020026020010151828483620015be919062001da2565b81518110620015d257620015d162001ddd565b5b602002602001018181525050808060010191505062001587565b50809250505062001686565b600060018362001609919062001e0c565b90505b84518110156200167f578481815181106200162c576200162b62001ddd565b5b6020026020010151826001858462001645919062001da2565b62001651919062001da2565b8151811062001665576200166462001ddd565b5b60200260200101818152505080806001019150506200160c565b5080925050505b919050565b60606000600283516200169f91906200219d565b9050620016e26040518060400160405280600f81526020017f4172724c656e67746820697320257300000000000000000000000000000000008152508262000f6d565b60008167ffffffffffffffff81111562001701576200170062001b1e565b5b604051908082528060200260200182016040528015620017305781602001602082028036833780820191505090505b50905060005b828110156200178d5784818151811062001755576200175462001ddd565b5b602002602001015182828151811062001773576200177262001ddd565b5b602002602001018181525050808060010191505062001736565b508092505050919050565b600080825103620017ad5760009050620018bb565b620017b88262000ae0565b620017c262000322565b60006002601180549050620017d8919062002406565b036200187d5760006002601180549050620017f491906200219d565b9050600060018262001807919062001da2565b905060006011838154811062001822576200182162001ddd565b5b9060005260206000200154905060006011838154811062001848576200184762001ddd565b5b906000526020600020015490506002818362001865919062001e0c565b6200187191906200219d565b945050505050620018bb565b600060026011805490506200189391906200219d565b905060118181548110620018ac57620018ab62001ddd565b5b90600052602060002001549150505b919050565b620018db81620018d3620018de620018ff565b63ffffffff16565b50565b60006a636f6e736f6c652e6c6f679050600080835160208501845afa505050565b6200196b819050919050565b6122de806200246e83390190565b82805482825590600052602060002090810192821562001958579160200282015b82811115620019575782518255916020019190600101906200193a565b5b50905062001967919062001977565b5090565b620019756200243e565b565b5b808211156200199257600081600090555060010162001978565b5090565b600081519050919050565b600082825260208201905092915050565b6000819050602082019050919050565b600073ffffffffffffffffffffffffffffffffffffffff82169050919050565b6000620019ef82620019c2565b9050919050565b62001a0181620019e2565b82525050565b600062001a158383620019f6565b60208301905092915050565b6000602082019050919050565b600062001a3b8262001996565b62001a478185620019a1565b935062001a5483620019b2565b8060005b8381101562001a8b57815162001a6f888262001a07565b975062001a7c8362001a21565b92505060018101905062001a58565b5085935050505092915050565b6000602082019050818103600083015262001ab4818462001a2e565b905092915050565b6000819050919050565b62001ad18162001abc565b82525050565b600060208201905062001aee600083018462001ac6565b92915050565b6000604051905090565b600080fd5b600080fd5b600080fd5b6000601f19601f8301169050919050565b7f4e487b7100000000000000000000000000000000000000000000000000000000600052604160045260246000fd5b62001b588262001b0d565b810181811067ffffffffffffffff8211171562001b7a5762001b7962001b1e565b5b80604052505050565b600062001b8f62001af4565b905062001b9d828262001b4d565b919050565b600067ffffffffffffffff82111562001bc05762001bbf62001b1e565b5b602082029050602081019050919050565b600080fd5b62001be18162001abc565b811462001bed57600080fd5b50565b60008135905062001c018162001bd6565b92915050565b600062001c1e62001c188462001ba2565b62001b83565b9050808382526020820190506020840283018581111562001c445762001c4362001bd1565b5b835b8181101562001c71578062001c5c888262001bf0565b84526020840193505060208101905062001c46565b5050509392505050565b600082601f83011262001c935762001c9262001b08565b5b813562001ca584826020860162001c07565b91505092915050565b60006020828403121562001cc75762001cc662001afe565b5b600082013567ffffffffffffffff81111562001ce85762001ce762001b03565b5b62001cf68482850162001c7b565b91505092915050565b6000806040838503121562001d195762001d1862001afe565b5b600062001d298582860162001bf0565b925050602062001d3c8582860162001bf0565b9150509250929050565b600060408201905062001d5d600083018562001ac6565b62001d6c602083018462001ac6565b9392505050565b7f4e487b7100000000000000000000000000000000000000000000000000000000600052601160045260246000fd5b600062001daf8262001abc565b915062001dbc8362001abc565b925082820390508181111562001dd75762001dd662001d73565b5b92915050565b7f4e487b7100000000000000000000000000000000000000000000000000000000600052603260045260246000fd5b600062001e198262001abc565b915062001e268362001abc565b925082820190508082111562001e415762001e4062001d73565b5b92915050565b600081519050919050565b600082825260208201905092915050565b6000819050602082019050919050565b62001e7e8162001abc565b82525050565b600062001e92838362001e73565b60208301905092915050565b6000602082019050919050565b600062001eb88262001e47565b62001ec4818562001e52565b935062001ed18362001e63565b8060005b8381101562001f0857815162001eec888262001e84565b975062001ef98362001e9e565b92505060018101905062001ed5565b5085935050505092915050565b6000604082019050818103600083015262001f31818562001a2e565b9050818103602083015262001f47818462001eab565b90509392505050565b6000819050919050565b600062001f7b62001f7562001f6f84620019c2565b62001f50565b620019c2565b9050919050565b600062001f8f8262001f5a565b9050919050565b600062001fa38262001f82565b9050919050565b62001fb58162001f96565b82525050565b62001fc681620019e2565b82525050565b600060408201905062001fe3600083018562001faa565b62001ff2602083018462001fbb565b9392505050565b600067ffffffffffffffff82111562002017576200201662001b1e565b5b602082029050919050565b6200202d81620019e2565b81146200203957600080fd5b50565b6000815190506200204d8162002022565b92915050565b60006200206a620020648462001ff9565b62001b83565b9050806020840283018581111562002087576200208662001bd1565b5b835b81811015620020b457806200209f88826200203c565b84526020840193505060208101905062002089565b5050509392505050565b600082601f830112620020d657620020d562001b08565b5b611388620020e684828562002053565b91505092915050565b60006202710082840312156200210a576200210962001afe565b5b60006200211a84828501620020be565b91505092915050565b6000620021308262001abc565b91506200213d8362001abc565b92508282026200214d8162001abc565b9150828204841483151762002167576200216662001d73565b5b5092915050565b7f4e487b7100000000000000000000000000000000000000000000000000000000600052601260045260246000fd5b6000620021aa8262001abc565b9150620021b78362001abc565b925082620021ca57620021c96200216e565b5b828204905092915050565b600081519050919050565b600082825260208201905092915050565b60005b8381101562002211578082015181840152602081019050620021f4565b60008484015250505050565b60006200222a82620021d5565b620022368185620021e0565b935062002248818560208601620021f1565b620022538162001b0d565b840191505092915050565b600060408201905081810360008301526200227a81856200221d565b90506200228b602083018462001ac6565b9392505050565b6000602082019050620022a9600083018462001fbb565b92915050565b600081519050620022c08162001bd6565b92915050565b600060208284031215620022df57620022de62001afe565b5b6000620022ef84828501620022af565b91505092915050565b7f62616c616e6365206973206c6f77000000000000000000000000000000000000600082015250565b600062002330600e83620021e0565b91506200233d82620022f8565b602082019050919050565b60006020820190508181036000830152620023638162002321565b9050919050565b600060408201905062002381600083018562001fbb565b62002390602083018462001ac6565b9392505050565b60008115159050919050565b620023ae8162002397565b8114620023ba57600080fd5b50565b600081519050620023ce81620023a3565b92915050565b600060208284031215620023ed57620023ec62001afe565b5b6000620023fd84828501620023bd565b91505092915050565b6000620024138262001abc565b9150620024208362001abc565b9250826200243357620024326200216e565b5b828206905092915050565b7f4e487b7100000000000000000000000000000000000000000000000000000000600052605160045260246000fdfe6080604052604051620022de380380620022de83398181016040528101906200002991906200065f565b805182511462000070576040517f08c379a000000000000000000000000000000000000000000000000000000000815260040162000067906200076b565b60405180910390fd5b6000825111620000b7576040517f08c379a0000000000000000000000000000000000000000000000000000000008152600401620000ae90620007dd565b60405180910390fd5b60005b82518110156200011e5762000110838281518110620000de57620000dd620007ff565b5b6020026020010151838381518110620000fc57620000fb620007ff565b5b60200260200101516200012760201b60201c565b8080600101915050620000ba565b50505062000a89565b600073ffffffffffffffffffffffffffffffffffffffff168273ffffffffffffffffffffffffffffffffffffffff160362000199576040517f08c379a00000000000000000000000000000000000000000000000000000000081526004016200019090620008a4565b60405180910390fd5b60008111620001df576040517f08c379a0000000000000000000000000000000000000000000000000000000008152600401620001d69062000916565b60405180910390fd5b6000600260008473ffffffffffffffffffffffffffffffffffffffff1673ffffffffffffffffffffffffffffffffffffffff168152602001908152602001600020541462000264576040517f08c379a00000000000000000000000000000000000000000000000000000000081526004016200025b90620009ae565b60405180910390fd5b6004829080600181540180825580915050600190039060005260206000200160009091909190916101000a81548173ffffffffffffffffffffffffffffffffffffffff021916908373ffffffffffffffffffffffffffffffffffffffff16021790555080600260008473ffffffffffffffffffffffffffffffffffffffff1673ffffffffffffffffffffffffffffffffffffffff16815260200190815260200160002081905550806000546200031b9190620009ff565b6000819055507f40c340f65e17194d14ddddb073d3c9f888e3cb52b5aae0c6c7706b4fbc905fac82826040516200035492919062000a5c565b60405180910390a15050565b6000604051905090565b600080fd5b600080fd5b600080fd5b6000601f19601f8301169050919050565b7f4e487b7100000000000000000000000000000000000000000000000000000000600052604160045260246000fd5b620003c48262000379565b810181811067ffffffffffffffff82111715620003e657620003e56200038a565b5b80604052505050565b6000620003fb62000360565b9050620004098282620003b9565b919050565b600067ffffffffffffffff8211156200042c576200042b6200038a565b5b602082029050602081019050919050565b600080fd5b600073ffffffffffffffffffffffffffffffffffffffff82169050919050565b60006200046f8262000442565b9050919050565b620004818162000462565b81146200048d57600080fd5b50565b600081519050620004a18162000476565b92915050565b6000620004be620004b8846200040e565b620003ef565b90508083825260208201905060208402830185811115620004e457620004e36200043d565b5b835b81811015620005115780620004fc888262000490565b845260208401935050602081019050620004e6565b5050509392505050565b600082601f83011262000533576200053262000374565b5b815162000545848260208601620004a7565b91505092915050565b600067ffffffffffffffff8211156200056c576200056b6200038a565b5b602082029050602081019050919050565b6000819050919050565b62000592816200057d565b81146200059e57600080fd5b50565b600081519050620005b28162000587565b92915050565b6000620005cf620005c9846200054e565b620003ef565b90508083825260208201905060208402830185811115620005f557620005f46200043d565b5b835b818110156200062257806200060d8882620005a1565b845260208401935050602081019050620005f7565b5050509392505050565b600082601f83011262000644576200064362000374565b5b815162000656848260208601620005b8565b91505092915050565b600080604083850312156200067957620006786200036a565b5b600083015167ffffffffffffffff8111156200069a57620006996200036f565b5b620006a8858286016200051b565b925050602083015167ffffffffffffffff811115620006cc57620006cb6200036f565b5b620006da858286016200062c565b9150509250929050565b600082825260208201905092915050565b7f5061796d656e7453706c69747465723a2070617965657320616e64207368617260008201527f6573206c656e677468206d69736d617463680000000000000000000000000000602082015250565b600062000753603283620006e4565b91506200076082620006f5565b604082019050919050565b60006020820190508181036000830152620007868162000744565b9050919050565b7f5061796d656e7453706c69747465723a206e6f20706179656573000000000000600082015250565b6000620007c5601a83620006e4565b9150620007d2826200078d565b602082019050919050565b60006020820190508181036000830152620007f881620007b6565b9050919050565b7f4e487b7100000000000000000000000000000000000000000000000000000000600052603260045260246000fd5b7f5061796d656e7453706c69747465723a206163636f756e74206973207468652060008201527f7a65726f20616464726573730000000000000000000000000000000000000000602082015250565b60006200088c602c83620006e4565b915062000899826200082e565b604082019050919050565b60006020820190508181036000830152620008bf816200087d565b9050919050565b7f5061796d656e7453706c69747465723a20736861726573206172652030000000600082015250565b6000620008fe601d83620006e4565b91506200090b82620008c6565b602082019050919050565b600060208201905081810360008301526200093181620008ef565b9050919050565b7f5061796d656e7453706c69747465723a206163636f756e7420616c726561647960008201527f2068617320736861726573000000000000000000000000000000000000000000602082015250565b600062000996602b83620006e4565b9150620009a38262000938565b604082019050919050565b60006020820190508181036000830152620009c98162000987565b9050919050565b7f4e487b7100000000000000000000000000000000000000000000000000000000600052601160045260246000fd5b600062000a0c826200057d565b915062000a19836200057d565b925082820190508082111562000a345762000a33620009d0565b5b92915050565b62000a458162000462565b82525050565b62000a56816200057d565b82525050565b600060408201905062000a73600083018562000a3a565b62000a82602083018462000a4b565b9392505050565b6118458062000a996000396000f3fe6080604052600436106100a05760003560e01c80639852595c116100645780639852595c146101e3578063a3f8eace14610220578063c45ac0501461025d578063ce7c2ac21461029a578063d79779b2146102d7578063e33b7de314610314576100e7565b806319165587146100ec5780633a98ef3914610115578063406072a91461014057806348b750441461017d5780638b83209b146101a6576100e7565b366100e7577f6ef95f06320e7a25a04a175ca677b7052bdd97131872c2192525a629f51be7706100ce61033f565b346040516100dd929190610e4f565b60405180910390a1005b600080fd5b3480156100f857600080fd5b50610113600480360381019061010e9190610ebb565b610347565b005b34801561012157600080fd5b5061012a6104c6565b6040516101379190610ee8565b60405180910390f35b34801561014c57600080fd5b5061016760048036038101906101629190610f6d565b6104cf565b6040516101749190610ee8565b60405180910390f35b34801561018957600080fd5b506101a4600480360381019061019f9190610f6d565b610556565b005b3480156101b257600080fd5b506101cd60048036038101906101c89190610fd9565b610769565b6040516101da9190611006565b60405180910390f35b3480156101ef57600080fd5b5061020a60048036038101906102059190611021565b6107b1565b6040516102179190610ee8565b60405180910390f35b34801561022c57600080fd5b5061024760048036038101906102429190611021565b6107fa565b6040516102549190610ee8565b60405180910390f35b34801561026957600080fd5b50610284600480360381019061027f9190610f6d565b61082d565b6040516102919190610ee8565b60405180910390f35b3480156102a657600080fd5b506102c160048036038101906102bc9190611021565b6108dc565b6040516102ce9190610ee8565b60405180910390f35b3480156102e357600080fd5b506102fe60048036038101906102f9919061104e565b610925565b60405161030b9190610ee8565b60405180910390f35b34801561032057600080fd5b5061032961096e565b6040516103369190610ee8565b60405180910390f35b600033905090565b6000600260008373ffffffffffffffffffffffffffffffffffffffff1673ffffffffffffffffffffffffffffffffffffffff16815260200190815260200160002054116103c9576040517f08c379a00000000000000000000000000000000000000000000000000000000081526004016103c0906110fe565b60405180910390fd5b60006103d4826107fa565b905060008103610419576040517f08c379a000000000000000000000000000000000000000000000000000000000815260040161041090611190565b60405180910390fd5b806001600082825461042b91906111df565b9250508190555080600360008473ffffffffffffffffffffffffffffffffffffffff1673ffffffffffffffffffffffffffffffffffffffff168152602001908152602001600020600082825401925050819055506104898282610978565b7fdf20fd1e76bc69d672e4814fafb2c449bba3a5369d8359adf9e05e6fde87b05682826040516104ba929190611272565b60405180910390a15050565b60008054905090565b6000600660008473ffffffffffffffffffffffffffffffffffffffff1673ffffffffffffffffffffffffffffffffffffffff16815260200190815260200160002060008373ffffffffffffffffffffffffffffffffffffffff1673ffffffffffffffffffffffffffffffffffffffff16815260200190815260200160002054905092915050565b6000600260008373ffffffffffffffffffffffffffffffffffffffff1673ffffffffffffffffffffffffffffffffffffffff16815260200190815260200160002054116105d8576040517f08c379a00000000000000000000000000000000000000000000000000000000081526004016105cf906110fe565b60405180910390fd5b60006105e4838361082d565b905060008103610629576040517f08c379a000000000000000000000000000000000000000000000000000000000815260040161062090611190565b60405180910390fd5b80600560008573ffffffffffffffffffffffffffffffffffffffff1673ffffffffffffffffffffffffffffffffffffffff168152602001908152602001600020600082825461067891906111df565b9250508190555080600660008573ffffffffffffffffffffffffffffffffffffffff1673ffffffffffffffffffffffffffffffffffffffff16815260200190815260200160002060008473ffffffffffffffffffffffffffffffffffffffff1673ffffffffffffffffffffffffffffffffffffffff16815260200190815260200160002060008282540192505081905550610714838383610a6c565b8273ffffffffffffffffffffffffffffffffffffffff167f3be5b7a71e84ed12875d241991c70855ac5817d847039e17a9d895c1ceb0f18a838360405161075c929190610e4f565b60405180910390a2505050565b60006004828154811061077f5761077e61129b565b5b9060005260206000200160009054906101000a900473ffffffffffffffffffffffffffffffffffffffff169050919050565b6000600360008373ffffffffffffffffffffffffffffffffffffffff1673ffffffffffffffffffffffffffffffffffffffff168152602001908152602001600020549050919050565b60008061080561096e565b4761081091906111df565b90506108258382610820866107b1565b610af2565b915050919050565b60008061083984610925565b8473ffffffffffffffffffffffffffffffffffffffff166370a08231306040518263ffffffff1660e01b81526004016108729190611006565b602060405180830381865afa15801561088f573d6000803e3d6000fd5b505050506040513d601f19601f820116820180604052508101906108b391906112df565b6108bd91906111df565b90506108d383826108ce87876104cf565b610af2565b91505092915050565b6000600260008373ffffffffffffffffffffffffffffffffffffffff1673ffffffffffffffffffffffffffffffffffffffff168152602001908152602001600020549050919050565b6000600560008373ffffffffffffffffffffffffffffffffffffffff1673ffffffffffffffffffffffffffffffffffffffff168152602001908152602001600020549050919050565b6000600154905090565b804710156109bb576040517f08c379a00000000000000000000000000000000000000000000000000000000081526004016109b290611358565b60405180910390fd5b60008273ffffffffffffffffffffffffffffffffffffffff16826040516109e1906113a9565b60006040518083038185875af1925050503d8060008114610a1e576040519150601f19603f3d011682016040523d82523d6000602084013e610a23565b606091505b5050905080610a67576040517f08c379a0000000000000000000000000000000000000000000000000000000008152600401610a5e90611430565b60405180910390fd5b505050565b610aed8363a9059cbb60e01b8484604051602401610a8b929190610e4f565b604051602081830303815290604052907bffffffffffffffffffffffffffffffffffffffffffffffffffffffff19166020820180517bffffffffffffffffffffffffffffffffffffffffffffffffffffffff8381831617835250505050610b60565b505050565b600081600054600260008773ffffffffffffffffffffffffffffffffffffffff1673ffffffffffffffffffffffffffffffffffffffff1681526020019081526020016000205485610b439190611450565b610b4d91906114c1565b610b5791906114f2565b90509392505050565b6000610bc2826040518060400160405280602081526020017f5361666545524332303a206c6f772d6c6576656c2063616c6c206661696c65648152508573ffffffffffffffffffffffffffffffffffffffff16610c289092919063ffffffff16565b9050600081511480610be4575080806020019051810190610be3919061155e565b5b610c23576040517f08c379a0000000000000000000000000000000000000000000000000000000008152600401610c1a906115fd565b60405180910390fd5b505050565b6060610c378484600085610c40565b90509392505050565b606082471015610c85576040517f08c379a0000000000000000000000000000000000000000000000000000000008152600401610c7c9061168f565b60405180910390fd5b6000808673ffffffffffffffffffffffffffffffffffffffff168587604051610cae9190611715565b60006040518083038185875af1925050503d8060008114610ceb576040519150601f19603f3d011682016040523d82523d6000602084013e610cf0565b606091505b5091509150610d0187838387610d0d565b92505050949350505050565b60608315610d6f576000835103610d6757610d2785610d82565b610d66576040517f08c379a0000000000000000000000000000000000000000000000000000000008152600401610d5d90611778565b60405180910390fd5b5b829050610d7a565b610d798383610da5565b5b949350505050565b6000808273ffffffffffffffffffffffffffffffffffffffff163b119050919050565b600082511115610db85781518083602001fd5b806040517f08c379a0000000000000000000000000000000000000000000000000000000008152600401610dec91906117ed565b60405180910390fd5b600073ffffffffffffffffffffffffffffffffffffffff82169050919050565b6000610e2082610df5565b9050919050565b610e3081610e15565b82525050565b6000819050919050565b610e4981610e36565b82525050565b6000604082019050610e646000830185610e27565b610e716020830184610e40565b9392505050565b600080fd5b6000610e8882610df5565b9050919050565b610e9881610e7d565b8114610ea357600080fd5b50565b600081359050610eb581610e8f565b92915050565b600060208284031215610ed157610ed0610e78565b5b6000610edf84828501610ea6565b91505092915050565b6000602082019050610efd6000830184610e40565b92915050565b6000610f0e82610e15565b9050919050565b610f1e81610f03565b8114610f2957600080fd5b50565b600081359050610f3b81610f15565b92915050565b610f4a81610e15565b8114610f5557600080fd5b50565b600081359050610f6781610f41565b92915050565b60008060408385031215610f8457610f83610e78565b5b6000610f9285828601610f2c565b9250506020610fa385828601610f58565b9150509250929050565b610fb681610e36565b8114610fc157600080fd5b50565b600081359050610fd381610fad565b92915050565b600060208284031215610fef57610fee610e78565b5b6000610ffd84828501610fc4565b91505092915050565b600060208201905061101b6000830184610e27565b92915050565b60006020828403121561103757611036610e78565b5b600061104584828501610f58565b91505092915050565b60006020828403121561106457611063610e78565b5b600061107284828501610f2c565b91505092915050565b600082825260208201905092915050565b7f5061796d656e7453706c69747465723a206163636f756e7420686173206e6f2060008201527f7368617265730000000000000000000000000000000000000000000000000000602082015250565b60006110e860268361107b565b91506110f38261108c565b604082019050919050565b60006020820190508181036000830152611117816110db565b9050919050565b7f5061796d656e7453706c69747465723a206163636f756e74206973206e6f742060008201527f647565207061796d656e74000000000000000000000000000000000000000000602082015250565b600061117a602b8361107b565b91506111858261111e565b604082019050919050565b600060208201905081810360008301526111a98161116d565b9050919050565b7f4e487b7100000000000000000000000000000000000000000000000000000000600052601160045260246000fd5b60006111ea82610e36565b91506111f583610e36565b925082820190508082111561120d5761120c6111b0565b5b92915050565b6000819050919050565b600061123861123361122e84610df5565b611213565b610df5565b9050919050565b600061124a8261121d565b9050919050565b600061125c8261123f565b9050919050565b61126c81611251565b82525050565b60006040820190506112876000830185611263565b6112946020830184610e40565b9392505050565b7f4e487b7100000000000000000000000000000000000000000000000000000000600052603260045260246000fd5b6000815190506112d981610fad565b92915050565b6000602082840312156112f5576112f4610e78565b5b6000611303848285016112ca565b91505092915050565b7f416464726573733a20696e73756666696369656e742062616c616e6365000000600082015250565b6000611342601d8361107b565b915061134d8261130c565b602082019050919050565b6000602082019050818103600083015261137181611335565b9050919050565b600081905092915050565b50565b6000611393600083611378565b915061139e82611383565b600082019050919050565b60006113b482611386565b9150819050919050565b7f416464726573733a20756e61626c6520746f2073656e642076616c75652c207260008201527f6563697069656e74206d61792068617665207265766572746564000000000000602082015250565b600061141a603a8361107b565b9150611425826113be565b604082019050919050565b600060208201905081810360008301526114498161140d565b9050919050565b600061145b82610e36565b915061146683610e36565b925082820261147481610e36565b9150828204841483151761148b5761148a6111b0565b5b5092915050565b7f4e487b7100000000000000000000000000000000000000000000000000000000600052601260045260246000fd5b60006114cc82610e36565b91506114d783610e36565b9250826114e7576114e6611492565b5b828204905092915050565b60006114fd82610e36565b915061150883610e36565b92508282039050818111156115205761151f6111b0565b5b92915050565b60008115159050919050565b61153b81611526565b811461154657600080fd5b50565b60008151905061155881611532565b92915050565b60006020828403121561157457611573610e78565b5b600061158284828501611549565b91505092915050565b7f5361666545524332303a204552433230206f7065726174696f6e20646964206e60008201527f6f74207375636365656400000000000000000000000000000000000000000000602082015250565b60006115e7602a8361107b565b91506115f28261158b565b604082019050919050565b60006020820190508181036000830152611616816115da565b9050919050565b7f416464726573733a20696e73756666696369656e742062616c616e636520666f60008201527f722063616c6c0000000000000000000000000000000000000000000000000000602082015250565b600061167960268361107b565b91506116848261161d565b604082019050919050565b600060208201905081810360008301526116a88161166c565b9050919050565b600081519050919050565b60005b838110156116d85780820151818401526020810190506116bd565b60008484015250505050565b60006116ef826116af565b6116f98185611378565b93506117098185602086016116ba565b80840191505092915050565b600061172182846116e4565b915081905092915050565b7f416464726573733a2063616c6c20746f206e6f6e2d636f6e7472616374000000600082015250565b6000611762601d8361107b565b915061176d8261172c565b602082019050919050565b6000602082019050818103600083015261179181611755565b9050919050565b600081519050919050565b6000601f19601f8301169050919050565b60006117bf82611798565b6117c9818561107b565b93506117d98185602086016116ba565b6117e2816117a3565b840191505092915050565b6000602082019050818103600083015261180781846117b4565b90509291505056fea26469706673582212202f4018828304bfb087c7d73345adb0cbc5b315961812db1b95ca0cf8239f356064736f6c63430008180033a26469706673582212204d60fdc7e1b598b3398e509bc66aa77d814c730806994646fa8a2b0d81bc91ef64736f6c63430008180033",
  "linkReferences": {},
  "deployedLinkReferences": {}
}