{
  "_format": "hh-sol-artifact-1",
  "contractName": "EvaluatorContract",
  "sourceName": "contracts/Evaluator.sol",
  "abi": [
    {
      "inputs": [
        {
          "internalType": "contract IERC20",
          "name": "lanceToken_",
          "type": "address"
        },
        {
          "internalType": "uint256",
          "name": "stakeAmount_",
          "type": "uint256"
        }
      ],
      "stateMutability": "nonpayable",
      "type": "constructor"
    },
    {
      "anonymous": false,
      "inputs": [
        {
          "indexed": false,
          "internalType": "address",
          "name": "evaluatorAddress",
          "type": "address"
        }
      ],
      "name": "EvaluatorAdded",
      "type": "event"
    },
    {
      "anonymous": false,
      "inputs": [
        {
          "indexed": false,
          "internalType": "address",
          "name": "evaluatorAddress",
          "type": "address"
        }
      ],
      "name": "EvaluatorRemoved",
      "type": "event"
    },
    {
      "anonymous": false,
      "inputs": [
        {
          "indexed": false,
          "internalType": "address",
          "name": "evaluatorAddress",
          "type": "address"
        },
        {
          "indexed": false,
          "internalType": "uint256",
          "name": "decrement",
          "type": "uint256"
        }
      ],
      "name": "StakeDecreased",
      "type": "event"
    },
    {
      "anonymous": false,
      "inputs": [
        {
          "indexed": false,
          "internalType": "address",
          "name": "evaluatorAddress",
          "type": "address"
        },
        {
          "indexed": false,
          "internalType": "uint256",
          "name": "increment",
          "type": "uint256"
        }
      ],
      "name": "StakeIncreased",
      "type": "event"
    },
    {
      "anonymous": false,
      "inputs": [
        {
          "indexed": false,
          "internalType": "address",
          "name": "_from",
          "type": "address"
        },
        {
          "indexed": false,
          "internalType": "uint256",
          "name": "_amount",
          "type": "uint256"
        }
      ],
      "name": "TransferReceived",
      "type": "event"
    },
    {
      "anonymous": false,
      "inputs": [
        {
          "indexed": false,
          "internalType": "address",
          "name": "_from",
          "type": "address"
        },
        {
          "indexed": false,
          "internalType": "address",
          "name": "_destAddr",
          "type": "address"
        },
        {
          "indexed": false,
          "internalType": "uint256",
          "name": "_amount",
          "type": "uint256"
        }
      ],
      "name": "TransferSent",
      "type": "event"
    },
    {
      "inputs": [
        {
          "internalType": "address",
          "name": "evaluator",
          "type": "address"
        },
        {
          "internalType": "string",
          "name": "ipfs",
          "type": "string"
        }
      ],
      "name": "addEvaluator",
      "outputs": [],
      "stateMutability": "nonpayable",
      "type": "function"
    },
    {
      "inputs": [
        {
          "internalType": "uint256",
          "name": "",
          "type": "uint256"
        }
      ],
      "name": "availableEvaluators",
      "outputs": [
        {
          "internalType": "address",
          "name": "",
          "type": "address"
        }
      ],
      "stateMutability": "view",
      "type": "function"
    },
    {
      "inputs": [
        {
          "internalType": "address",
          "name": "evaluator",
          "type": "address"
        }
      ],
      "name": "checkEvaluatorRemoved",
      "outputs": [
        {
          "internalType": "bool",
          "name": "",
          "type": "bool"
        }
      ],
      "stateMutability": "view",
      "type": "function"
    },
    {
      "inputs": [
        {
          "internalType": "address",
          "name": "evaluator",
          "type": "address"
        },
        {
          "internalType": "uint256",
          "name": "decrement",
          "type": "uint256"
        }
      ],
      "name": "decreaseStake",
      "outputs": [],
      "stateMutability": "nonpayable",
      "type": "function"
    },
    {
      "inputs": [
        {
          "internalType": "address",
          "name": "",
          "type": "address"
        }
      ],
      "name": "evaluatorKeys",
      "outputs": [
        {
          "internalType": "uint256",
          "name": "",
          "type": "uint256"
        }
      ],
      "stateMutability": "view",
      "type": "function"
    },
    {
      "inputs": [
        {
          "internalType": "uint256",
          "name": "",
          "type": "uint256"
        }
      ],
      "name": "evaluators",
      "outputs": [
        {
          "internalType": "address",
          "name": "evaluatorAddress",
          "type": "address"
        },
        {
          "internalType": "uint256",
          "name": "evaluatorStake",
          "type": "uint256"
        },
        {
          "internalType": "string",
          "name": "ipfs",
          "type": "string"
        }
      ],
      "stateMutability": "view",
      "type": "function"
    },
    {
      "inputs": [],
      "name": "getAvailableEvaluators",
      "outputs": [
        {
          "internalType": "address[]",
          "name": "",
          "type": "address[]"
        }
      ],
      "stateMutability": "view",
      "type": "function"
    },
    {
      "inputs": [
        {
          "internalType": "uint256",
          "name": "key",
          "type": "uint256"
        }
      ],
      "name": "getEvaluatorAtIndex",
      "outputs": [
        {
          "components": [
            {
              "internalType": "address",
              "name": "evaluatorAddress",
              "type": "address"
            },
            {
              "internalType": "uint256",
              "name": "evaluatorStake",
              "type": "uint256"
            },
            {
              "internalType": "string",
              "name": "ipfs",
              "type": "string"
            }
          ],
          "internalType": "struct EvaluatorContract.Evaluator",
          "name": "",
          "type": "tuple"
        }
      ],
      "stateMutability": "view",
      "type": "function"
    },
    {
      "inputs": [
        {
          "internalType": "address",
          "name": "evaluator",
          "type": "address"
        }
      ],
      "name": "getEvaluatorKey",
      "outputs": [
        {
          "internalType": "uint256",
          "name": "",
          "type": "uint256"
        }
      ],
      "stateMutability": "view",
      "type": "function"
    },
    {
      "inputs": [],
      "name": "getEvaluators",
      "outputs": [
        {
          "components": [
            {
              "internalType": "address",
              "name": "evaluatorAddress",
              "type": "address"
            },
            {
              "internalType": "uint256",
              "name": "evaluatorStake",
              "type": "uint256"
            },
            {
              "internalType": "string",
              "name": "ipfs",
              "type": "string"
            }
          ],
          "internalType": "struct EvaluatorContract.Evaluator[]",
          "name": "",
          "type": "tuple[]"
        }
      ],
      "stateMutability": "view",
      "type": "function"
    },
    {
      "inputs": [
        {
          "internalType": "uint256",
          "name": "seed",
          "type": "uint256"
        },
        {
          "internalType": "uint256",
          "name": "number",
          "type": "uint256"
        }
      ],
      "name": "getRandomEvaluators",
      "outputs": [
        {
          "internalType": "address[5000]",
          "name": "",
          "type": "address[5000]"
        }
      ],
      "stateMutability": "view",
      "type": "function"
    },
    {
      "inputs": [
        {
          "internalType": "address",
          "name": "evaluator",
          "type": "address"
        },
        {
          "internalType": "uint256",
          "name": "increment",
          "type": "uint256"
        }
      ],
      "name": "increaseStake",
      "outputs": [],
      "stateMutability": "nonpayable",
      "type": "function"
    },
    {
      "inputs": [],
      "name": "lanceToken",
      "outputs": [
        {
          "internalType": "contract IERC20",
          "name": "",
          "type": "address"
        }
      ],
      "stateMutability": "view",
      "type": "function"
    },
    {
      "inputs": [
        {
          "internalType": "address",
          "name": "evaluator",
          "type": "address"
        },
        {
          "internalType": "uint256",
          "name": "decrement",
          "type": "uint256"
        }
      ],
      "name": "punishEvaluatorReduceStake",
      "outputs": [],
      "stateMutability": "nonpayable",
      "type": "function"
    },
    {
      "inputs": [
        {
          "internalType": "address",
          "name": "evaluator",
          "type": "address"
        }
      ],
      "name": "removeEvaluator",
      "outputs": [],
      "stateMutability": "nonpayable",
      "type": "function"
    },
    {
      "inputs": [
        {
          "internalType": "address",
          "name": "",
          "type": "address"
        }
      ],
      "name": "removedEvaluators",
      "outputs": [
        {
          "internalType": "bool",
          "name": "",
          "type": "bool"
        }
      ],
      "stateMutability": "view",
      "type": "function"
    },
    {
      "inputs": [],
      "name": "stakeAmount",
      "outputs": [
        {
          "internalType": "uint256",
          "name": "",
          "type": "uint256"
        }
      ],
      "stateMutability": "view",
      "type": "function"
    }
  ],
  "bytecode": "0x60806040523480156200001157600080fd5b50604051620027f7380380620027f7833981810160405281019062000037919062000140565b81600260006101000a81548173ffffffffffffffffffffffffffffffffffffffff021916908373ffffffffffffffffffffffffffffffffffffffff16021790555080600381905550505062000187565b600080fd5b600073ffffffffffffffffffffffffffffffffffffffff82169050919050565b6000620000b9826200008c565b9050919050565b6000620000cd82620000ac565b9050919050565b620000df81620000c0565b8114620000eb57600080fd5b50565b600081519050620000ff81620000d4565b92915050565b6000819050919050565b6200011a8162000105565b81146200012657600080fd5b50565b6000815190506200013a816200010f565b92915050565b600080604083850312156200015a576200015962000087565b5b60006200016a85828601620000ee565b92505060206200017d8582860162000129565b9150509250929050565b61266080620001976000396000f3fe608060405234801561001057600080fd5b506004361061010b5760003560e01c806370d2d81c116100a2578063ae0b1a7f11610071578063ae0b1a7f146102dc578063baa8808e1461030c578063c68410a11461032a578063e168afe314610348578063f40d659d1461037a5761010b565b806370d2d81c146102425780637da433a6146102725780637e1cce0c1461028e5780639aac386d146102ac5761010b565b80635d7e9467116100de5780635d7e9467146101a8578063603da881146101c457806360c7dc47146101f457806361d8b403146102125761010b565b806302d43376146101105780631a73ba011461014057806351d800511461015c578063549fb08614610178575b600080fd5b61012a6004803603810190610125919061187d565b610396565b60405161013791906118eb565b60405180910390f35b61015a60048036038101906101559190611932565b6103d5565b005b61017660048036038101906101719190611972565b6104a0565b005b610192600480360381019061018d9190611972565b610564565b60405161019f91906119ae565b60405180910390f35b6101c260048036038101906101bd9190611932565b6105ad565b005b6101de60048036038101906101d991906119c9565b610678565b6040516101eb9190611ab5565b60405180910390f35b6101fc610735565b60405161020991906119ae565b60405180910390f35b61022c60048036038101906102279190611972565b61073b565b6040516102399190611aed565b60405180910390f35b61025c6004803603810190610257919061187d565b61075b565b6040516102699190611bf7565b60405180910390f35b61028c60048036038101906102879190611c7e565b610889565b005b610296610a8e565b6040516102a39190611df0565b60405180910390f35b6102c660048036038101906102c19190611972565b610bdf565b6040516102d39190611aed565b60405180910390f35b6102f660048036038101906102f19190611972565b610c35565b60405161030391906119ae565b60405180910390f35b610314610c4d565b6040516103219190611ea9565b60405180910390f35b610332610cdb565b60405161033f9190611f2a565b60405180910390f35b610362600480360381019061035d919061187d565b610d01565b60405161037193929190611f8f565b60405180910390f35b610394600480360381019061038f9190611932565b610de3565b005b600081815481106103a657600080fd5b906000526020600020016000915054906101000a900473ffffffffffffffffffffffffffffffffffffffff1681565b6000600460008473ffffffffffffffffffffffffffffffffffffffff1673ffffffffffffffffffffffffffffffffffffffff16815260200190815260200160002054905060006001828154811061042f5761042e611fcd565b5b9060005260206000209060030201905082816001015461044f919061202b565b81600101819055506104618484610ea4565b7f700865370ffb2a65a2b0242e6a64b21ac907ed5ecd46c9cffc729c177b2b1c69848460405161049292919061205f565b60405180910390a150505050565b6000600460008373ffffffffffffffffffffffffffffffffffffffff1673ffffffffffffffffffffffffffffffffffffffff1681526020019081526020016000205490506000600182815481106104fa576104f9611fcd565b5b906000526020600020906003020190506000816001015490506000826001018190555061054b838360000160009054906101000a900473ffffffffffffffffffffffffffffffffffffffff16611068565b610554836114b7565b61055e8482610ea4565b50505050565b6000600460008373ffffffffffffffffffffffffffffffffffffffff1673ffffffffffffffffffffffffffffffffffffffff168152602001908152602001600020549050919050565b6000600460008473ffffffffffffffffffffffffffffffffffffffff1673ffffffffffffffffffffffffffffffffffffffff16815260200190815260200160002054905060006001828154811061060757610606611fcd565b5b9060005260206000209060030201905061062184846115be565b8281600101546106319190612088565b81600101819055507f8b0ed825817a2e696c9a931715af4609fc60e1701f09c89ee7645130e937eb2d848460405161066a92919061205f565b60405180910390a150505050565b610680611784565b610688611784565b60005b8381101561072a57600081815481106106a7576106a6611fcd565b5b9060005260206000200160009054906101000a900473ffffffffffffffffffffffffffffffffffffffff16828261138881106106e6576106e5611fcd565b5b602002019073ffffffffffffffffffffffffffffffffffffffff16908173ffffffffffffffffffffffffffffffffffffffff1681525050808060010191505061068b565b508091505092915050565b60035481565b60056020528060005260406000206000915054906101000a900460ff1681565b6107636117a9565b6001828154811061077757610776611fcd565b5b90600052602060002090600302016040518060600160405290816000820160009054906101000a900473ffffffffffffffffffffffffffffffffffffffff1673ffffffffffffffffffffffffffffffffffffffff1673ffffffffffffffffffffffffffffffffffffffff16815260200160018201548152602001600282018054610800906120eb565b80601f016020809104026020016040519081016040528092919081815260200182805461082c906120eb565b80156108795780601f1061084e57610100808354040283529160200191610879565b820191906000526020600020905b81548152906001019060200180831161085c57829003601f168201915b5050505050815250509050919050565b610895836003546115be565b60006001805490509050600160405180606001604052808673ffffffffffffffffffffffffffffffffffffffff168152602001600354815260200185858080601f016020809104026020016040519081016040528093929190818152602001838380828437600081840152601f19601f82011690508083019250505050505050815250908060018154018082558091505060019003906000526020600020906003020160009091909190915060008201518160000160006101000a81548173ffffffffffffffffffffffffffffffffffffffff021916908373ffffffffffffffffffffffffffffffffffffffff1602179055506020820151816001015560408201518160020190816109a791906122ed565b5050506000849080600181540180825580915050600190039060005260206000200160009091909190916101000a81548173ffffffffffffffffffffffffffffffffffffffff021916908373ffffffffffffffffffffffffffffffffffffffff16021790555080600460008673ffffffffffffffffffffffffffffffffffffffff1673ffffffffffffffffffffffffffffffffffffffff168152602001908152602001600020819055507f0a62f64a6600f18fa3c7ea0f4e8a35adbf9d686c6c202f02cd79188f0571a0c284604051610a8091906118eb565b60405180910390a150505050565b60606001805480602002602001604051908101604052809291908181526020016000905b82821015610bd657838290600052602060002090600302016040518060600160405290816000820160009054906101000a900473ffffffffffffffffffffffffffffffffffffffff1673ffffffffffffffffffffffffffffffffffffffff1673ffffffffffffffffffffffffffffffffffffffff16815260200160018201548152602001600282018054610b45906120eb565b80601f0160208091040260200160405190810160405280929190818152602001828054610b71906120eb565b8015610bbe5780601f10610b9357610100808354040283529160200191610bbe565b820191906000526020600020905b815481529060010190602001808311610ba157829003601f168201915b50505050508152505081526020019060010190610ab2565b50505050905090565b6000600560008373ffffffffffffffffffffffffffffffffffffffff1673ffffffffffffffffffffffffffffffffffffffff16815260200190815260200160002060009054906101000a900460ff169050919050565b60046020528060005260406000206000915090505481565b60606000805480602002602001604051908101604052809291908181526020018280548015610cd157602002820191906000526020600020905b8160009054906101000a900473ffffffffffffffffffffffffffffffffffffffff1673ffffffffffffffffffffffffffffffffffffffff1681526020019060010190808311610c87575b5050505050905090565b600260009054906101000a900473ffffffffffffffffffffffffffffffffffffffff1681565b60018181548110610d1157600080fd5b90600052602060002090600302016000915090508060000160009054906101000a900473ffffffffffffffffffffffffffffffffffffffff1690806001015490806002018054610d60906120eb565b80601f0160208091040260200160405190810160405280929190818152602001828054610d8c906120eb565b8015610dd95780601f10610dae57610100808354040283529160200191610dd9565b820191906000526020600020905b815481529060010190602001808311610dbc57829003601f168201915b5050505050905083565b6000600460008473ffffffffffffffffffffffffffffffffffffffff1673ffffffffffffffffffffffffffffffffffffffff168152602001908152602001600020549050600060018281548110610e3d57610e3c611fcd565b5b90600052602060002090600302019050828160010154610e5d919061202b565b81600101819055507f700865370ffb2a65a2b0242e6a64b21ac907ed5ecd46c9cffc729c177b2b1c698484604051610e9692919061205f565b60405180910390a150505050565b6000600260009054906101000a900473ffffffffffffffffffffffffffffffffffffffff1673ffffffffffffffffffffffffffffffffffffffff166370a08231306040518263ffffffff1660e01b8152600401610f0191906118eb565b602060405180830381865afa158015610f1e573d6000803e3d6000fd5b505050506040513d601f19601f82011682018060405250810190610f4291906123d4565b905080821115610f87576040517f08c379a0000000000000000000000000000000000000000000000000000000008152600401610f7e9061244d565b60405180910390fd5b600260009054906101000a900473ffffffffffffffffffffffffffffffffffffffff1673ffffffffffffffffffffffffffffffffffffffff1663a9059cbb84846040518363ffffffff1660e01b8152600401610fe492919061205f565b6020604051808303816000875af1158015611003573d6000803e3d6000fd5b505050506040513d601f19601f820116820180604052508101906110279190612499565b507ffda3a3e0e1479b43cb1c701f7576187f4c4ad80768d627387e00184302f7d88e30848460405161105b939291906124c6565b60405180910390a1505050565b600180549050821061107957600080fd5b6000600180808054905061108d919061202b565b8154811061109e5761109d611fcd565b5b90600052602060002090600302016040518060600160405290816000820160009054906101000a900473ffffffffffffffffffffffffffffffffffffffff1673ffffffffffffffffffffffffffffffffffffffff1673ffffffffffffffffffffffffffffffffffffffff16815260200160018201548152602001600282018054611127906120eb565b80601f0160208091040260200160405190810160405280929190818152602001828054611153906120eb565b80156111a05780601f10611175576101008083540402835291602001916111a0565b820191906000526020600020905b81548152906001019060200180831161118357829003601f168201915b505050505081525050905060018080805490506111bd919061202b565b815481106111ce576111cd611fcd565b5b9060005260206000209060030201600184815481106111f0576111ef611fcd565b5b90600052602060002090600302016000820160009054906101000a900473ffffffffffffffffffffffffffffffffffffffff168160000160006101000a81548173ffffffffffffffffffffffffffffffffffffffff021916908373ffffffffffffffffffffffffffffffffffffffff16021790555060018201548160010155600282018160020190816112839190612513565b509050506001805480611299576112986125fb565b5b6001900381819060005260206000209060030201600080820160006101000a81549073ffffffffffffffffffffffffffffffffffffffff021916905560018201600090556002820160006112ed91906117e0565b5050905560008160000151905083600460008373ffffffffffffffffffffffffffffffffffffffff1673ffffffffffffffffffffffffffffffffffffffff168152602001908152602001600020819055506001600560008573ffffffffffffffffffffffffffffffffffffffff1673ffffffffffffffffffffffffffffffffffffffff16815260200190815260200160002060006101000a81548160ff02191690831515021790555060018054905084036113a95750506114b3565b60006001856113b89190612088565b90505b6001805490508110156114af576000600182815481106113de576113dd611fcd565b5b906000526020600020906003020160000160009054906101000a900473ffffffffffffffffffffffffffffffffffffffff1690506001600460008373ffffffffffffffffffffffffffffffffffffffff1673ffffffffffffffffffffffffffffffffffffffff1681526020019081526020016000205461145e919061202b565b600460008373ffffffffffffffffffffffffffffffffffffffff1673ffffffffffffffffffffffffffffffffffffffff168152602001908152602001600020819055505080806001019150506113bb565b5050505b5050565b60008054905081106114c857600080fd5b600060016000805490506114dc919061202b565b815481106114ed576114ec611fcd565b5b9060005260206000200160009054906101000a900473ffffffffffffffffffffffffffffffffffffffff166000828154811061152c5761152b611fcd565b5b9060005260206000200160006101000a81548173ffffffffffffffffffffffffffffffffffffffff021916908373ffffffffffffffffffffffffffffffffffffffff1602179055506000805480611586576115856125fb565b5b6001900381819060005260206000200160006101000a81549073ffffffffffffffffffffffffffffffffffffffff0219169055905550565b6000600260009054906101000a900473ffffffffffffffffffffffffffffffffffffffff1673ffffffffffffffffffffffffffffffffffffffff166370a08231846040518263ffffffff1660e01b815260040161161b91906118eb565b602060405180830381865afa158015611638573d6000803e3d6000fd5b505050506040513d601f19601f8201168201806040525081019061165c91906123d4565b9050808211156116a1576040517f08c379a00000000000000000000000000000000000000000000000000000000081526004016116989061244d565b60405180910390fd5b600260009054906101000a900473ffffffffffffffffffffffffffffffffffffffff1673ffffffffffffffffffffffffffffffffffffffff166323b872dd8430856040518463ffffffff1660e01b8152600401611700939291906124c6565b6020604051808303816000875af115801561171f573d6000803e3d6000fd5b505050506040513d601f19601f820116820180604052508101906117439190612499565b507ffda3a3e0e1479b43cb1c701f7576187f4c4ad80768d627387e00184302f7d88e833084604051611777939291906124c6565b60405180910390a1505050565b6040518062027100016040528061138890602082028036833780820191505090505090565b6040518060600160405280600073ffffffffffffffffffffffffffffffffffffffff16815260200160008152602001606081525090565b5080546117ec906120eb565b6000825580601f106117fe575061181d565b601f01602090049060005260206000209081019061181c9190611820565b5b50565b5b80821115611839576000816000905550600101611821565b5090565b600080fd5b600080fd5b6000819050919050565b61185a81611847565b811461186557600080fd5b50565b60008135905061187781611851565b92915050565b6000602082840312156118935761189261183d565b5b60006118a184828501611868565b91505092915050565b600073ffffffffffffffffffffffffffffffffffffffff82169050919050565b60006118d5826118aa565b9050919050565b6118e5816118ca565b82525050565b600060208201905061190060008301846118dc565b92915050565b61190f816118ca565b811461191a57600080fd5b50565b60008135905061192c81611906565b92915050565b600080604083850312156119495761194861183d565b5b60006119578582860161191d565b925050602061196885828601611868565b9150509250929050565b6000602082840312156119885761198761183d565b5b60006119968482850161191d565b91505092915050565b6119a881611847565b82525050565b60006020820190506119c3600083018461199f565b92915050565b600080604083850312156119e0576119df61183d565b5b60006119ee85828601611868565b92505060206119ff85828601611868565b9150509250929050565b60006113889050919050565b600081905092915050565b6000819050919050565b611a33816118ca565b82525050565b6000611a458383611a2a565b60208301905092915050565b6000602082019050919050565b611a6781611a09565b611a718184611a15565b9250611a7c82611a20565b8060005b83811015611aad578151611a948782611a39565b9650611a9f83611a51565b925050600181019050611a80565b505050505050565b60006202710082019050611acc6000830184611a5e565b92915050565b60008115159050919050565b611ae781611ad2565b82525050565b6000602082019050611b026000830184611ade565b92915050565b611b1181611847565b82525050565b600081519050919050565b600082825260208201905092915050565b60005b83811015611b51578082015181840152602081019050611b36565b60008484015250505050565b6000601f19601f8301169050919050565b6000611b7982611b17565b611b838185611b22565b9350611b93818560208601611b33565b611b9c81611b5d565b840191505092915050565b6000606083016000830151611bbf6000860182611a2a565b506020830151611bd26020860182611b08565b5060408301518482036040860152611bea8282611b6e565b9150508091505092915050565b60006020820190508181036000830152611c118184611ba7565b905092915050565b600080fd5b600080fd5b600080fd5b60008083601f840112611c3e57611c3d611c19565b5b8235905067ffffffffffffffff811115611c5b57611c5a611c1e565b5b602083019150836001820283011115611c7757611c76611c23565b5b9250929050565b600080600060408486031215611c9757611c9661183d565b5b6000611ca58682870161191d565b935050602084013567ffffffffffffffff811115611cc657611cc5611842565b5b611cd286828701611c28565b92509250509250925092565b600081519050919050565b600082825260208201905092915050565b6000819050602082019050919050565b6000606083016000830151611d226000860182611a2a565b506020830151611d356020860182611b08565b5060408301518482036040860152611d4d8282611b6e565b9150508091505092915050565b6000611d668383611d0a565b905092915050565b6000602082019050919050565b6000611d8682611cde565b611d908185611ce9565b935083602082028501611da285611cfa565b8060005b85811015611dde5784840389528151611dbf8582611d5a565b9450611dca83611d6e565b925060208a01995050600181019050611da6565b50829750879550505050505092915050565b60006020820190508181036000830152611e0a8184611d7b565b905092915050565b600081519050919050565b600082825260208201905092915050565b6000819050602082019050919050565b6000602082019050919050565b6000611e5682611e12565b611e608185611e1d565b9350611e6b83611e2e565b8060005b83811015611e9c578151611e838882611a39565b9750611e8e83611e3e565b925050600181019050611e6f565b5085935050505092915050565b60006020820190508181036000830152611ec38184611e4b565b905092915050565b6000819050919050565b6000611ef0611eeb611ee6846118aa565b611ecb565b6118aa565b9050919050565b6000611f0282611ed5565b9050919050565b6000611f1482611ef7565b9050919050565b611f2481611f09565b82525050565b6000602082019050611f3f6000830184611f1b565b92915050565b600082825260208201905092915050565b6000611f6182611b17565b611f6b8185611f45565b9350611f7b818560208601611b33565b611f8481611b5d565b840191505092915050565b6000606082019050611fa460008301866118dc565b611fb1602083018561199f565b8181036040830152611fc38184611f56565b9050949350505050565b7f4e487b7100000000000000000000000000000000000000000000000000000000600052603260045260246000fd5b7f4e487b7100000000000000000000000000000000000000000000000000000000600052601160045260246000fd5b600061203682611847565b915061204183611847565b925082820390508181111561205957612058611ffc565b5b92915050565b600060408201905061207460008301856118dc565b612081602083018461199f565b9392505050565b600061209382611847565b915061209e83611847565b92508282019050808211156120b6576120b5611ffc565b5b92915050565b7f4e487b7100000000000000000000000000000000000000000000000000000000600052602260045260246000fd5b6000600282049050600182168061210357607f821691505b602082108103612116576121156120bc565b5b50919050565b7f4e487b7100000000000000000000000000000000000000000000000000000000600052604160045260246000fd5b60008190508160005260206000209050919050565b60006020601f8301049050919050565b600082821b905092915050565b6000600883026121ad7fffffffffffffffffffffffffffffffffffffffffffffffffffffffffffffffff82612170565b6121b78683612170565b95508019841693508086168417925050509392505050565b60006121ea6121e56121e084611847565b611ecb565b611847565b9050919050565b6000819050919050565b612204836121cf565b612218612210826121f1565b84845461217d565b825550505050565b600090565b61222d612220565b6122388184846121fb565b505050565b5b8181101561225c57612251600082612225565b60018101905061223e565b5050565b601f8211156122a1576122728161214b565b61227b84612160565b8101602085101561228a578190505b61229e61229685612160565b83018261223d565b50505b505050565b600082821c905092915050565b60006122c4600019846008026122a6565b1980831691505092915050565b60006122dd83836122b3565b9150826002028217905092915050565b6122f682611b17565b67ffffffffffffffff81111561230f5761230e61211c565b5b61231982546120eb565b612324828285612260565b600060209050601f8311600181146123575760008415612345578287015190505b61234f85826122d1565b8655506123b7565b601f1984166123658661214b565b60005b8281101561238d57848901518255600182019150602085019450602081019050612368565b868310156123aa57848901516123a6601f8916826122b3565b8355505b6001600288020188555050505b505050505050565b6000815190506123ce81611851565b92915050565b6000602082840312156123ea576123e961183d565b5b60006123f8848285016123bf565b91505092915050565b7f62616c616e6365206973206c6f77000000000000000000000000000000000000600082015250565b6000612437600e83611f45565b915061244282612401565b602082019050919050565b600060208201905081810360008301526124668161242a565b9050919050565b61247681611ad2565b811461248157600080fd5b50565b6000815190506124938161246d565b92915050565b6000602082840312156124af576124ae61183d565b5b60006124bd84828501612484565b91505092915050565b60006060820190506124db60008301866118dc565b6124e860208301856118dc565b6124f5604083018461199f565b949350505050565b60008154905061250c816120eb565b9050919050565b8181036125215750506125f9565b61252a826124fd565b67ffffffffffffffff8111156125435761254261211c565b5b61254d82546120eb565b612558828285612260565b6000601f8311600181146125875760008415612575578287015490505b61257f85826122d1565b8655506125f2565b601f1984166125958761214b565b96506125a08661214b565b60005b828110156125c8578489015482556001820191506001850194506020810190506125a3565b868310156125e557848901546125e1601f8916826122b3565b8355505b6001600288020188555050505b5050505050505b565b7f4e487b7100000000000000000000000000000000000000000000000000000000600052603160045260246000fdfea26469706673582212200ea3e09def1572993c96ff22fc7ea83e7bd07eadb7cdcfb618a1fbfccafdd35664736f6c63430008180033",
  "linkReferences": {},
  "deployedLinkReferences": {}
}