{
  "_format": "hh-sol-artifact-1",
  "contractName": "BidToken",
  "sourceName": "contracts/BidToken.sol",
  "abi": [
    {
      "inputs": [
        {
          "internalType": "address",
          "name": "signer1",
          "type": "address"
        },
        {
          "internalType": "address",
          "name": "signer2",
          "type": "address"
        },
        {
          "internalType": "address",
          "name": "signer3",
          "type": "address"
        }
      ],
      "stateMutability": "nonpayable",
      "type": "constructor"
    },
    {
      "inputs": [
        {
          "internalType": "uint256",
          "name": "increasedSupply",
          "type": "uint256"
        },
        {
          "internalType": "uint256",
          "name": "cap",
          "type": "uint256"
        }
      ],
      "name": "ERC20ExceededCap",
      "type": "error"
    },
    {
      "inputs": [
        {
          "internalType": "address",
          "name": "spender",
          "type": "address"
        },
        {
          "internalType": "uint256",
          "name": "allowance",
          "type": "uint256"
        },
        {
          "internalType": "uint256",
          "name": "needed",
          "type": "uint256"
        }
      ],
      "name": "ERC20InsufficientAllowance",
      "type": "error"
    },
    {
      "inputs": [
        {
          "internalType": "address",
          "name": "sender",
          "type": "address"
        },
        {
          "internalType": "uint256",
          "name": "balance",
          "type": "uint256"
        },
        {
          "internalType": "uint256",
          "name": "needed",
          "type": "uint256"
        }
      ],
      "name": "ERC20InsufficientBalance",
      "type": "error"
    },
    {
      "inputs": [
        {
          "internalType": "address",
          "name": "approver",
          "type": "address"
        }
      ],
      "name": "ERC20InvalidApprover",
      "type": "error"
    },
    {
      "inputs": [
        {
          "internalType": "uint256",
          "name": "cap",
          "type": "uint256"
        }
      ],
      "name": "ERC20InvalidCap",
      "type": "error"
    },
    {
      "inputs": [
        {
          "internalType": "address",
          "name": "receiver",
          "type": "address"
        }
      ],
      "name": "ERC20InvalidReceiver",
      "type": "error"
    },
    {
      "inputs": [
        {
          "internalType": "address",
          "name": "sender",
          "type": "address"
        }
      ],
      "name": "ERC20InvalidSender",
      "type": "error"
    },
    {
      "inputs": [
        {
          "internalType": "address",
          "name": "spender",
          "type": "address"
        }
      ],
      "name": "ERC20InvalidSpender",
      "type": "error"
    },
    {
      "anonymous": false,
      "inputs": [
        {
          "indexed": true,
          "internalType": "address",
          "name": "owner",
          "type": "address"
        },
        {
          "indexed": true,
          "internalType": "address",
          "name": "spender",
          "type": "address"
        },
        {
          "indexed": false,
          "internalType": "uint256",
          "name": "value",
          "type": "uint256"
        }
      ],
      "name": "Approval",
      "type": "event"
    },
    {
      "anonymous": false,
      "inputs": [
        {
          "indexed": true,
          "internalType": "address",
          "name": "from",
          "type": "address"
        },
        {
          "indexed": true,
          "internalType": "address",
          "name": "to",
          "type": "address"
        },
        {
          "indexed": false,
          "internalType": "uint256",
          "name": "value",
          "type": "uint256"
        }
      ],
      "name": "Transfer",
      "type": "event"
    },
    {
      "inputs": [
        {
          "internalType": "address",
          "name": "owner",
          "type": "address"
        },
        {
          "internalType": "address",
          "name": "spender",
          "type": "address"
        }
      ],
      "name": "allowance",
      "outputs": [
        {
          "internalType": "uint256",
          "name": "",
          "type": "uint256"
        }
      ],
      "stateMutability": "view",
      "type": "function"
    },
    {
      "inputs": [
        {
          "internalType": "address",
          "name": "spender",
          "type": "address"
        },
        {
          "internalType": "uint256",
          "name": "value",
          "type": "uint256"
        }
      ],
      "name": "approve",
      "outputs": [
        {
          "internalType": "bool",
          "name": "",
          "type": "bool"
        }
      ],
      "stateMutability": "nonpayable",
      "type": "function"
    },
    {
      "inputs": [
        {
          "internalType": "address",
          "name": "account",
          "type": "address"
        }
      ],
      "name": "balanceOf",
      "outputs": [
        {
          "internalType": "uint256",
          "name": "",
          "type": "uint256"
        }
      ],
      "stateMutability": "view",
      "type": "function"
    },
    {
      "inputs": [
        {
          "internalType": "uint256",
          "name": "value",
          "type": "uint256"
        }
      ],
      "name": "burn",
      "outputs": [],
      "stateMutability": "nonpayable",
      "type": "function"
    },
    {
      "inputs": [
        {
          "internalType": "address",
          "name": "account",
          "type": "address"
        },
        {
          "internalType": "uint256",
          "name": "value",
          "type": "uint256"
        }
      ],
      "name": "burnFrom",
      "outputs": [],
      "stateMutability": "nonpayable",
      "type": "function"
    },
    {
      "inputs": [],
      "name": "cap",
      "outputs": [
        {
          "internalType": "uint256",
          "name": "",
          "type": "uint256"
        }
      ],
      "stateMutability": "view",
      "type": "function"
    },
    {
      "inputs": [],
      "name": "contract_",
      "outputs": [
        {
          "internalType": "address",
          "name": "",
          "type": "address"
        }
      ],
      "stateMutability": "view",
      "type": "function"
    },
    {
      "inputs": [],
      "name": "decimals",
      "outputs": [
        {
          "internalType": "uint8",
          "name": "",
          "type": "uint8"
        }
      ],
      "stateMutability": "view",
      "type": "function"
    },
    {
      "inputs": [],
      "name": "name",
      "outputs": [
        {
          "internalType": "string",
          "name": "",
          "type": "string"
        }
      ],
      "stateMutability": "view",
      "type": "function"
    },
    {
      "inputs": [],
      "name": "owner",
      "outputs": [
        {
          "internalType": "address payable",
          "name": "",
          "type": "address"
        }
      ],
      "stateMutability": "view",
      "type": "function"
    },
    {
      "inputs": [],
      "name": "symbol",
      "outputs": [
        {
          "internalType": "string",
          "name": "",
          "type": "string"
        }
      ],
      "stateMutability": "view",
      "type": "function"
    },
    {
      "inputs": [],
      "name": "totalSupply",
      "outputs": [
        {
          "internalType": "uint256",
          "name": "",
          "type": "uint256"
        }
      ],
      "stateMutability": "view",
      "type": "function"
    },
    {
      "inputs": [
        {
          "internalType": "address",
          "name": "to",
          "type": "address"
        },
        {
          "internalType": "uint256",
          "name": "value",
          "type": "uint256"
        }
      ],
      "name": "transfer",
      "outputs": [
        {
          "internalType": "bool",
          "name": "",
          "type": "bool"
        }
      ],
      "stateMutability": "nonpayable",
      "type": "function"
    },
    {
      "inputs": [
        {
          "internalType": "address",
          "name": "from",
          "type": "address"
        },
        {
          "internalType": "address",
          "name": "to",
          "type": "address"
        },
        {
          "internalType": "uint256",
          "name": "value",
          "type": "uint256"
        }
      ],
      "name": "transferFrom",
      "outputs": [
        {
          "internalType": "bool",
          "name": "",
          "type": "bool"
        }
      ],
      "stateMutability": "nonpayable",
      "type": "function"
    }
  ],
  "bytecode": "0x60a060405230600660006101000a81548173ffffffffffffffffffffffffffffffffffffffff021916908373ffffffffffffffffffffffffffffffffffffffff1602179055503480156200005257600080fd5b5060405162001f4238038062001f4283398181016040528101906200007891906200062c565b620000886200020e60201b60201c565b600a62000096919062000822565b63042c1d80620000a7919062000873565b6040518060400160405280601281526020017f436861696e6c616e6365426964546f6b656e00000000000000000000000000008152506040518060400160405280600381526020017f4342540000000000000000000000000000000000000000000000000000000000815250816003908162000124919062000b2e565b50806004908162000136919062000b2e565b50505060008103620001825760006040517f392e1e2700000000000000000000000000000000000000000000000000000000815260040162000179919062000c58565b60405180910390fd5b80608081815250505033600560006101000a81548173ffffffffffffffffffffffffffffffffffffffff021916908373ffffffffffffffffffffffffffffffffffffffff160217905550620001df83601e6200021760201b60201c565b620001f282600a6200021760201b60201c565b620002058160146200021760201b60201c565b50505062000d76565b60006012905090565b600073ffffffffffffffffffffffffffffffffffffffff168273ffffffffffffffffffffffffffffffffffffffff16036200028c5760006040517fec442f0500000000000000000000000000000000000000000000000000000000815260040162000283919062000c86565b60405180910390fd5b620002a060008383620002a460201b60201c565b5050565b620002b7838383620002bc60201b60201c565b505050565b620002cf8383836200037e60201b60201c565b600073ffffffffffffffffffffffffffffffffffffffff168373ffffffffffffffffffffffffffffffffffffffff16036200037957600062000316620005ae60201b60201c565b905060006200032a620005b860201b60201c565b905081811115620003765780826040517f9e79f8540000000000000000000000000000000000000000000000000000000081526004016200036d92919062000cb4565b60405180910390fd5b50505b505050565b600073ffffffffffffffffffffffffffffffffffffffff168373ffffffffffffffffffffffffffffffffffffffff1603620003d4578060026000828254620003c7919062000ce1565b92505081905550620004aa565b60008060008573ffffffffffffffffffffffffffffffffffffffff1673ffffffffffffffffffffffffffffffffffffffff1681526020019081526020016000205490508181101562000463578381836040517fe450d38c0000000000000000000000000000000000000000000000000000000081526004016200045a9392919062000d1c565b60405180910390fd5b8181036000808673ffffffffffffffffffffffffffffffffffffffff1673ffffffffffffffffffffffffffffffffffffffff16815260200190815260200160002081905550505b600073ffffffffffffffffffffffffffffffffffffffff168273ffffffffffffffffffffffffffffffffffffffff1603620004f5578060026000828254039250508190555062000542565b806000808473ffffffffffffffffffffffffffffffffffffffff1673ffffffffffffffffffffffffffffffffffffffff168152602001908152602001600020600082825401925050819055505b8173ffffffffffffffffffffffffffffffffffffffff168373ffffffffffffffffffffffffffffffffffffffff167fddf252ad1be2c89b69c2b068fc378daa952ba7f163c4a11628f55a4df523b3ef83604051620005a1919062000d59565b60405180910390a3505050565b6000608051905090565b6000600254905090565b600080fd5b600073ffffffffffffffffffffffffffffffffffffffff82169050919050565b6000620005f482620005c7565b9050919050565b6200060681620005e7565b81146200061257600080fd5b50565b6000815190506200062681620005fb565b92915050565b600080600060608486031215620006485762000647620005c2565b5b6000620006588682870162000615565b93505060206200066b8682870162000615565b92505060406200067e8682870162000615565b9150509250925092565b7f4e487b7100000000000000000000000000000000000000000000000000000000600052601160045260246000fd5b60008160011c9050919050565b6000808291508390505b60018511156200071657808604811115620006ee57620006ed62000688565b5b6001851615620006fe5780820291505b80810290506200070e85620006b7565b9450620006ce565b94509492505050565b60008262000731576001905062000804565b8162000741576000905062000804565b81600181146200075a576002811462000765576200079b565b600191505062000804565b60ff8411156200077a576200077962000688565b5b8360020a91508482111562000794576200079362000688565b5b5062000804565b5060208310610133831016604e8410600b8410161715620007d55782820a905083811115620007cf57620007ce62000688565b5b62000804565b620007e48484846001620006c4565b92509050818404811115620007fe57620007fd62000688565b5b81810290505b9392505050565b6000819050919050565b600060ff82169050919050565b60006200082f826200080b565b91506200083c8362000815565b92506200086b7fffffffffffffffffffffffffffffffffffffffffffffffffffffffffffffffff84846200071f565b905092915050565b600062000880826200080b565b91506200088d836200080b565b92508282026200089d816200080b565b91508282048414831517620008b757620008b662000688565b5b5092915050565b600081519050919050565b7f4e487b7100000000000000000000000000000000000000000000000000000000600052604160045260246000fd5b7f4e487b7100000000000000000000000000000000000000000000000000000000600052602260045260246000fd5b600060028204905060018216806200094057607f821691505b602082108103620009565762000955620008f8565b5b50919050565b60008190508160005260206000209050919050565b60006020601f8301049050919050565b600082821b905092915050565b600060088302620009c07fffffffffffffffffffffffffffffffffffffffffffffffffffffffffffffffff8262000981565b620009cc868362000981565b95508019841693508086168417925050509392505050565b6000819050919050565b600062000a0f62000a0962000a03846200080b565b620009e4565b6200080b565b9050919050565b6000819050919050565b62000a2b83620009ee565b62000a4362000a3a8262000a16565b8484546200098e565b825550505050565b600090565b62000a5a62000a4b565b62000a6781848462000a20565b505050565b5b8181101562000a8f5762000a8360008262000a50565b60018101905062000a6d565b5050565b601f82111562000ade5762000aa8816200095c565b62000ab38462000971565b8101602085101562000ac3578190505b62000adb62000ad28562000971565b83018262000a6c565b50505b505050565b600082821c905092915050565b600062000b036000198460080262000ae3565b1980831691505092915050565b600062000b1e838362000af0565b9150826002028217905092915050565b62000b3982620008be565b67ffffffffffffffff81111562000b555762000b54620008c9565b5b62000b61825462000927565b62000b6e82828562000a93565b600060209050601f83116001811462000ba6576000841562000b91578287015190505b62000b9d858262000b10565b86555062000c0d565b601f19841662000bb6866200095c565b60005b8281101562000be05784890151825560018201915060208501945060208101905062000bb9565b8683101562000c00578489015162000bfc601f89168262000af0565b8355505b6001600288020188555050505b505050505050565b6000819050919050565b600062000c4062000c3a62000c348462000c15565b620009e4565b6200080b565b9050919050565b62000c528162000c1f565b82525050565b600060208201905062000c6f600083018462000c47565b92915050565b62000c8081620005e7565b82525050565b600060208201905062000c9d600083018462000c75565b92915050565b62000cae816200080b565b82525050565b600060408201905062000ccb600083018562000ca3565b62000cda602083018462000ca3565b9392505050565b600062000cee826200080b565b915062000cfb836200080b565b925082820190508082111562000d165762000d1562000688565b5b92915050565b600060608201905062000d33600083018662000c75565b62000d42602083018562000ca3565b62000d51604083018462000ca3565b949350505050565b600060208201905062000d70600083018462000ca3565b92915050565b6080516111b062000d92600039600061040a01526111b06000f3fe608060405234801561001057600080fd5b50600436106100ea5760003560e01c806342966c681161008c5780638da5cb5b116100665780638da5cb5b1461024d57806395d89b411461026b578063a9059cbb14610289578063dd62ed3e146102b9576100ea565b806342966c68146101e557806370a082311461020157806379cc679014610231576100ea565b806323b872dd116100c857806323b872dd1461015b578063313ce5671461018b57806331e2a848146101a9578063355274ea146101c7576100ea565b806306fdde03146100ef578063095ea7b31461010d57806318160ddd1461013d575b600080fd5b6100f76102e9565b6040516101049190610d72565b60405180910390f35b61012760048036038101906101229190610e2d565b61037b565b6040516101349190610e88565b60405180910390f35b61014561039e565b6040516101529190610eb2565b60405180910390f35b61017560048036038101906101709190610ecd565b6103a8565b6040516101829190610e88565b60405180910390f35b6101936103d7565b6040516101a09190610f3c565b60405180910390f35b6101b16103e0565b6040516101be9190610f66565b60405180910390f35b6101cf610406565b6040516101dc9190610eb2565b60405180910390f35b6101ff60048036038101906101fa9190610f81565b61042e565b005b61021b60048036038101906102169190610fae565b610442565b6040516102289190610eb2565b60405180910390f35b61024b60048036038101906102469190610e2d565b61048a565b005b6102556104aa565b6040516102629190610ffc565b60405180910390f35b6102736104d0565b6040516102809190610d72565b60405180910390f35b6102a3600480360381019061029e9190610e2d565b610562565b6040516102b09190610e88565b60405180910390f35b6102d360048036038101906102ce9190611017565b610585565b6040516102e09190610eb2565b60405180910390f35b6060600380546102f890611086565b80601f016020809104026020016040519081016040528092919081815260200182805461032490611086565b80156103715780601f1061034657610100808354040283529160200191610371565b820191906000526020600020905b81548152906001019060200180831161035457829003601f168201915b5050505050905090565b60008061038661060c565b9050610393818585610614565b600191505092915050565b6000600254905090565b6000806103b361060c565b90506103c0858285610626565b6103cb8585856106ba565b60019150509392505050565b60006012905090565b600660009054906101000a900473ffffffffffffffffffffffffffffffffffffffff1681565b60007f0000000000000000000000000000000000000000000000000000000000000000905090565b61043f61043961060c565b826107ae565b50565b60008060008373ffffffffffffffffffffffffffffffffffffffff1673ffffffffffffffffffffffffffffffffffffffff168152602001908152602001600020549050919050565b61049c8261049661060c565b83610626565b6104a682826107ae565b5050565b600560009054906101000a900473ffffffffffffffffffffffffffffffffffffffff1681565b6060600480546104df90611086565b80601f016020809104026020016040519081016040528092919081815260200182805461050b90611086565b80156105585780601f1061052d57610100808354040283529160200191610558565b820191906000526020600020905b81548152906001019060200180831161053b57829003601f168201915b5050505050905090565b60008061056d61060c565b905061057a8185856106ba565b600191505092915050565b6000600160008473ffffffffffffffffffffffffffffffffffffffff1673ffffffffffffffffffffffffffffffffffffffff16815260200190815260200160002060008373ffffffffffffffffffffffffffffffffffffffff1673ffffffffffffffffffffffffffffffffffffffff16815260200190815260200160002054905092915050565b600033905090565b6106218383836001610830565b505050565b60006106328484610585565b90507fffffffffffffffffffffffffffffffffffffffffffffffffffffffffffffffff81146106b457818110156106a4578281836040517ffb8f41b200000000000000000000000000000000000000000000000000000000815260040161069b939291906110b7565b60405180910390fd5b6106b384848484036000610830565b5b50505050565b600073ffffffffffffffffffffffffffffffffffffffff168373ffffffffffffffffffffffffffffffffffffffff160361072c5760006040517f96c6fd1e0000000000000000000000000000000000000000000000000000000081526004016107239190610f66565b60405180910390fd5b600073ffffffffffffffffffffffffffffffffffffffff168273ffffffffffffffffffffffffffffffffffffffff160361079e5760006040517fec442f050000000000000000000000000000000000000000000000000000000081526004016107959190610f66565b60405180910390fd5b6107a9838383610a07565b505050565b600073ffffffffffffffffffffffffffffffffffffffff168273ffffffffffffffffffffffffffffffffffffffff16036108205760006040517f96c6fd1e0000000000000000000000000000000000000000000000000000000081526004016108179190610f66565b60405180910390fd5b61082c82600083610a07565b5050565b600073ffffffffffffffffffffffffffffffffffffffff168473ffffffffffffffffffffffffffffffffffffffff16036108a25760006040517fe602df050000000000000000000000000000000000000000000000000000000081526004016108999190610f66565b60405180910390fd5b600073ffffffffffffffffffffffffffffffffffffffff168373ffffffffffffffffffffffffffffffffffffffff16036109145760006040517f94280d6200000000000000000000000000000000000000000000000000000000815260040161090b9190610f66565b60405180910390fd5b81600160008673ffffffffffffffffffffffffffffffffffffffff1673ffffffffffffffffffffffffffffffffffffffff16815260200190815260200160002060008573ffffffffffffffffffffffffffffffffffffffff1673ffffffffffffffffffffffffffffffffffffffff168152602001908152602001600020819055508015610a01578273ffffffffffffffffffffffffffffffffffffffff168473ffffffffffffffffffffffffffffffffffffffff167f8c5be1e5ebec7d5bd14f71427d1e84f3dd0314c0f7b2291e5b200ac8c7c3b925846040516109f89190610eb2565b60405180910390a35b50505050565b610a12838383610a17565b505050565b610a22838383610abd565b600073ffffffffffffffffffffffffffffffffffffffff168373ffffffffffffffffffffffffffffffffffffffff1603610ab8576000610a60610406565b90506000610a6c61039e565b905081811115610ab55780826040517f9e79f854000000000000000000000000000000000000000000000000000000008152600401610aac9291906110ee565b60405180910390fd5b50505b505050565b600073ffffffffffffffffffffffffffffffffffffffff168373ffffffffffffffffffffffffffffffffffffffff1603610b0f578060026000828254610b039190611146565b92505081905550610be2565b60008060008573ffffffffffffffffffffffffffffffffffffffff1673ffffffffffffffffffffffffffffffffffffffff16815260200190815260200160002054905081811015610b9b578381836040517fe450d38c000000000000000000000000000000000000000000000000000000008152600401610b92939291906110b7565b60405180910390fd5b8181036000808673ffffffffffffffffffffffffffffffffffffffff1673ffffffffffffffffffffffffffffffffffffffff16815260200190815260200160002081905550505b600073ffffffffffffffffffffffffffffffffffffffff168273ffffffffffffffffffffffffffffffffffffffff1603610c2b5780600260008282540392505081905550610c78565b806000808473ffffffffffffffffffffffffffffffffffffffff1673ffffffffffffffffffffffffffffffffffffffff168152602001908152602001600020600082825401925050819055505b8173ffffffffffffffffffffffffffffffffffffffff168373ffffffffffffffffffffffffffffffffffffffff167fddf252ad1be2c89b69c2b068fc378daa952ba7f163c4a11628f55a4df523b3ef83604051610cd59190610eb2565b60405180910390a3505050565b600081519050919050565b600082825260208201905092915050565b60005b83811015610d1c578082015181840152602081019050610d01565b60008484015250505050565b6000601f19601f8301169050919050565b6000610d4482610ce2565b610d4e8185610ced565b9350610d5e818560208601610cfe565b610d6781610d28565b840191505092915050565b60006020820190508181036000830152610d8c8184610d39565b905092915050565b600080fd5b600073ffffffffffffffffffffffffffffffffffffffff82169050919050565b6000610dc482610d99565b9050919050565b610dd481610db9565b8114610ddf57600080fd5b50565b600081359050610df181610dcb565b92915050565b6000819050919050565b610e0a81610df7565b8114610e1557600080fd5b50565b600081359050610e2781610e01565b92915050565b60008060408385031215610e4457610e43610d94565b5b6000610e5285828601610de2565b9250506020610e6385828601610e18565b9150509250929050565b60008115159050919050565b610e8281610e6d565b82525050565b6000602082019050610e9d6000830184610e79565b92915050565b610eac81610df7565b82525050565b6000602082019050610ec76000830184610ea3565b92915050565b600080600060608486031215610ee657610ee5610d94565b5b6000610ef486828701610de2565b9350506020610f0586828701610de2565b9250506040610f1686828701610e18565b9150509250925092565b600060ff82169050919050565b610f3681610f20565b82525050565b6000602082019050610f516000830184610f2d565b92915050565b610f6081610db9565b82525050565b6000602082019050610f7b6000830184610f57565b92915050565b600060208284031215610f9757610f96610d94565b5b6000610fa584828501610e18565b91505092915050565b600060208284031215610fc457610fc3610d94565b5b6000610fd284828501610de2565b91505092915050565b6000610fe682610d99565b9050919050565b610ff681610fdb565b82525050565b60006020820190506110116000830184610fed565b92915050565b6000806040838503121561102e5761102d610d94565b5b600061103c85828601610de2565b925050602061104d85828601610de2565b9150509250929050565b7f4e487b7100000000000000000000000000000000000000000000000000000000600052602260045260246000fd5b6000600282049050600182168061109e57607f821691505b6020821081036110b1576110b0611057565b5b50919050565b60006060820190506110cc6000830186610f57565b6110d96020830185610ea3565b6110e66040830184610ea3565b949350505050565b60006040820190506111036000830185610ea3565b6111106020830184610ea3565b9392505050565b7f4e487b7100000000000000000000000000000000000000000000000000000000600052601160045260246000fd5b600061115182610df7565b915061115c83610df7565b925082820190508082111561117457611173611117565b5b9291505056fea264697066735822122087882f72ff7f6ec26f47be94186f02349ebcba2aacae4a02562fa00a1b57ccef64736f6c63430008180033",
  "linkReferences": {},
  "deployedLinkReferences": {}
}