{
  "_format": "hh-sol-artifact-1",
  "contractName": "EvaluatorContract",
  "sourceName": "contracts/Evaluator.sol",
  "abi": [
    {
      "inputs": [
        {
          "internalType": "contract IERC20",
          "name": "lanceToken_",
          "type": "address"
        },
        {
          "internalType": "uint256",
          "name": "stakeAmount_",
          "type": "uint256"
        }
      ],
      "stateMutability": "nonpayable",
      "type": "constructor"
    },
    {
      "anonymous": false,
      "inputs": [
        {
          "indexed": false,
          "internalType": "address",
          "name": "evaluatorAddress",
          "type": "address"
        }
      ],
      "name": "EvaluatorAdded",
      "type": "event"
    },
    {
      "anonymous": false,
      "inputs": [
        {
          "indexed": false,
          "internalType": "address",
          "name": "evaluatorAddress",
          "type": "address"
        }
      ],
      "name": "EvaluatorRemoved",
      "type": "event"
    },
    {
      "anonymous": false,
      "inputs": [
        {
          "indexed": false,
          "internalType": "address",
          "name": "evaluatorAddress",
          "type": "address"
        },
        {
          "indexed": false,
          "internalType": "uint256",
          "name": "decrement",
          "type": "uint256"
        }
      ],
      "name": "StakeDecreased",
      "type": "event"
    },
    {
      "anonymous": false,
      "inputs": [
        {
          "indexed": false,
          "internalType": "address",
          "name": "evaluatorAddress",
          "type": "address"
        },
        {
          "indexed": false,
          "internalType": "uint256",
          "name": "increment",
          "type": "uint256"
        }
      ],
      "name": "StakeIncreased",
      "type": "event"
    },
    {
      "anonymous": false,
      "inputs": [
        {
          "indexed": false,
          "internalType": "address",
          "name": "_from",
          "type": "address"
        },
        {
          "indexed": false,
          "internalType": "uint256",
          "name": "_amount",
          "type": "uint256"
        }
      ],
      "name": "TransferReceived",
      "type": "event"
    },
    {
      "anonymous": false,
      "inputs": [
        {
          "indexed": false,
          "internalType": "address",
          "name": "_from",
          "type": "address"
        },
        {
          "indexed": false,
          "internalType": "address",
          "name": "_destAddr",
          "type": "address"
        },
        {
          "indexed": false,
          "internalType": "uint256",
          "name": "_amount",
          "type": "uint256"
        }
      ],
      "name": "TransferSent",
      "type": "event"
    },
    {
      "inputs": [
        {
          "internalType": "address",
          "name": "evaluator",
          "type": "address"
        },
        {
          "internalType": "string",
          "name": "ipfs",
          "type": "string"
        }
      ],
      "name": "addEvaluator",
      "outputs": [],
      "stateMutability": "nonpayable",
      "type": "function"
    },
    {
      "inputs": [
        {
          "internalType": "uint256",
          "name": "",
          "type": "uint256"
        }
      ],
      "name": "availableEvaluators",
      "outputs": [
        {
          "internalType": "address",
          "name": "",
          "type": "address"
        }
      ],
      "stateMutability": "view",
      "type": "function"
    },
    {
      "inputs": [
        {
          "internalType": "address",
          "name": "evaluator",
          "type": "address"
        }
      ],
      "name": "checkEvaluatorRemoved",
      "outputs": [
        {
          "internalType": "bool",
          "name": "",
          "type": "bool"
        }
      ],
      "stateMutability": "view",
      "type": "function"
    },
    {
      "inputs": [
        {
          "internalType": "address",
          "name": "evaluator",
          "type": "address"
        },
        {
          "internalType": "uint256",
          "name": "decrement",
          "type": "uint256"
        }
      ],
      "name": "decreaseStake",
      "outputs": [],
      "stateMutability": "nonpayable",
      "type": "function"
    },
    {
      "inputs": [
        {
          "internalType": "address",
          "name": "",
          "type": "address"
        }
      ],
      "name": "evaluatorKeys",
      "outputs": [
        {
          "internalType": "uint256",
          "name": "",
          "type": "uint256"
        }
      ],
      "stateMutability": "view",
      "type": "function"
    },
    {
      "inputs": [
        {
          "internalType": "uint256",
          "name": "",
          "type": "uint256"
        }
      ],
      "name": "evaluators",
      "outputs": [
        {
          "internalType": "address",
          "name": "evaluatorAddress",
          "type": "address"
        },
        {
          "internalType": "uint256",
          "name": "evaluatorStake",
          "type": "uint256"
        },
        {
          "internalType": "string",
          "name": "ipfs",
          "type": "string"
        }
      ],
      "stateMutability": "view",
      "type": "function"
    },
    {
      "inputs": [
        {
          "internalType": "uint256",
          "name": "randomValue",
          "type": "uint256"
        },
        {
          "internalType": "uint256",
          "name": "n",
          "type": "uint256"
        }
      ],
      "name": "expand",
      "outputs": [
        {
          "internalType": "uint256[]",
          "name": "expandedValues",
          "type": "uint256[]"
        }
      ],
      "stateMutability": "pure",
      "type": "function"
    },
    {
      "inputs": [],
      "name": "getAvailableEvaluators",
      "outputs": [
        {
          "internalType": "address[]",
          "name": "",
          "type": "address[]"
        }
      ],
      "stateMutability": "view",
      "type": "function"
    },
    {
      "inputs": [
        {
          "internalType": "uint256",
          "name": "key",
          "type": "uint256"
        }
      ],
      "name": "getEvaluatorAtIndex",
      "outputs": [
        {
          "components": [
            {
              "internalType": "address",
              "name": "evaluatorAddress",
              "type": "address"
            },
            {
              "internalType": "uint256",
              "name": "evaluatorStake",
              "type": "uint256"
            },
            {
              "internalType": "string",
              "name": "ipfs",
              "type": "string"
            }
          ],
          "internalType": "struct EvaluatorContract.Evaluator",
          "name": "",
          "type": "tuple"
        }
      ],
      "stateMutability": "view",
      "type": "function"
    },
    {
      "inputs": [
        {
          "internalType": "address",
          "name": "evaluator",
          "type": "address"
        }
      ],
      "name": "getEvaluatorKey",
      "outputs": [
        {
          "internalType": "uint256",
          "name": "",
          "type": "uint256"
        }
      ],
      "stateMutability": "view",
      "type": "function"
    },
    {
      "inputs": [],
      "name": "getEvaluators",
      "outputs": [
        {
          "components": [
            {
              "internalType": "address",
              "name": "evaluatorAddress",
              "type": "address"
            },
            {
              "internalType": "uint256",
              "name": "evaluatorStake",
              "type": "uint256"
            },
            {
              "internalType": "string",
              "name": "ipfs",
              "type": "string"
            }
          ],
          "internalType": "struct EvaluatorContract.Evaluator[]",
          "name": "",
          "type": "tuple[]"
        }
      ],
      "stateMutability": "view",
      "type": "function"
    },
    {
      "inputs": [
        {
          "internalType": "uint256",
          "name": "seed",
          "type": "uint256"
        },
        {
          "internalType": "uint256",
          "name": "number",
          "type": "uint256"
        }
      ],
      "name": "getRandomEvaluators",
      "outputs": [
        {
          "internalType": "address[5000]",
          "name": "",
          "type": "address[5000]"
        }
      ],
      "stateMutability": "view",
      "type": "function"
    },
    {
      "inputs": [
        {
          "internalType": "address",
          "name": "evaluator",
          "type": "address"
        },
        {
          "internalType": "uint256",
          "name": "increment",
          "type": "uint256"
        }
      ],
      "name": "increaseStake",
      "outputs": [],
      "stateMutability": "nonpayable",
      "type": "function"
    },
    {
      "inputs": [],
      "name": "lanceToken",
      "outputs": [
        {
          "internalType": "contract IERC20",
          "name": "",
          "type": "address"
        }
      ],
      "stateMutability": "view",
      "type": "function"
    },
    {
      "inputs": [
        {
          "internalType": "address",
          "name": "evaluator",
          "type": "address"
        },
        {
          "internalType": "uint256",
          "name": "decrement",
          "type": "uint256"
        }
      ],
      "name": "punishEvaluatorReduceStake",
      "outputs": [],
      "stateMutability": "nonpayable",
      "type": "function"
    },
    {
      "inputs": [
        {
          "internalType": "address",
          "name": "evaluator",
          "type": "address"
        }
      ],
      "name": "removeEvaluator",
      "outputs": [],
      "stateMutability": "nonpayable",
      "type": "function"
    },
    {
      "inputs": [
        {
          "internalType": "address",
          "name": "",
          "type": "address"
        }
      ],
      "name": "removedEvaluators",
      "outputs": [
        {
          "internalType": "bool",
          "name": "",
          "type": "bool"
        }
      ],
      "stateMutability": "view",
      "type": "function"
    },
    {
      "inputs": [],
      "name": "stakeAmount",
      "outputs": [
        {
          "internalType": "uint256",
          "name": "",
          "type": "uint256"
        }
      ],
      "stateMutability": "view",
      "type": "function"
    }
  ],
  "bytecode": "0x608060405234801561001057600080fd5b50604051611a49380380611a4983398101604081905261002f91610058565b600280546001600160a01b0319166001600160a01b039390931692909217909155600355610092565b6000806040838503121561006b57600080fd5b82516001600160a01b038116811461008257600080fd5b6020939093015192949293505050565b6119a8806100a16000396000f3fe608060405234801561001057600080fd5b50600436106101365760003560e01c80637da433a6116100b2578063ae0b1a7f11610081578063c68410a111610066578063c68410a114610302578063e168afe314610315578063f40d659d1461033757600080fd5b8063ae0b1a7f146102cd578063baa8808e146102ed57600080fd5b80637da433a6146102595780637e1cce0c1461026c578063874b3afc146102815780639aac386d146102a157600080fd5b80635d7e94671161010957806360c7dc47116100ee57806360c7dc47146101fd57806361d8b4031461020657806370d2d81c1461023957600080fd5b80635d7e9467146101ca578063603da881146101dd57600080fd5b806302d433761461013b5780631a73ba011461016b57806351d8005114610180578063549fb08614610193575b600080fd5b61014e610149366004611369565b61034a565b6040516001600160a01b0390911681526020015b60405180910390f35b61017e61017936600461139e565b610374565b005b61017e61018e3660046113c8565b61041c565b6101bc6101a13660046113c8565b6001600160a01b031660009081526004602052604090205490565b604051908152602001610162565b61017e6101d836600461139e565b610497565b6101f06101eb3660046113ea565b610535565b604051610162919061140c565b6101bc60035481565b6102296102143660046113c8565b60056020526000908152604090205460ff1681565b6040519015158152602001610162565b61024c610247366004611369565b6105ee565b60405161016291906114c9565b61017e6102673660046114dc565b610708565b61027461085f565b604051610162919061155f565b61029461028f3660046113ea565b610970565b60405161016291906115c3565b6102296102af3660046113c8565b6001600160a01b031660009081526005602052604090205460ff1690565b6101bc6102db3660046113c8565b60046020526000908152604090205481565b6102f5610a1b565b6040516101629190611607565b60025461014e906001600160a01b031681565b610328610323366004611369565b610a7d565b60405161016293929190611648565b61017e61034536600461139e565b610b46565b6000818154811061035a57600080fd5b6000918252602090912001546001600160a01b0316905081565b6001600160a01b03821660009081526004602052604081205460018054919291839081106103a4576103a4611679565b906000526020600020906003020190508281600101546103c491906116a5565b60018201556103d38484610c2e565b604080516001600160a01b0386168152602081018590527f700865370ffb2a65a2b0242e6a64b21ac907ed5ecd46c9cffc729c177b2b1c6991015b60405180910390a150505050565b6001600160a01b038116600090815260046020526040812054600180549192918390811061044c5761044c611679565b60009182526020822060016003909202019081018054929055805490925061047e9084906001600160a01b0316610dd2565b6104878361109f565b6104918482610c2e565b50505050565b6001600160a01b03821660009081526004602052604081205460018054919291839081106104c7576104c7611679565b906000526020600020906003020190506104e18484611154565b8281600101546104f191906116b8565b6001820155604080516001600160a01b0386168152602081018590527f8b0ed825817a2e696c9a931715af4609fc60e1701f09c89ee7645130e937eb2d910161040e565b61053d6112f2565b6105456112f2565b60005b838110156105e4576000805460408051602081018990529081018490526060016040516020818303038152906040528051906020012060001c61058b91906116cb565b9050600081815481106105a0576105a0611679565b6000918252602090912001546001600160a01b0316838361138881106105c8576105c8611679565b6001600160a01b03909216602092909202015250600101610548565b5090505b92915050565b604080516060808201835260008083526020830152918101919091526001828154811061061d5761061d611679565b90600052602060002090600302016040518060600160405290816000820160009054906101000a90046001600160a01b03166001600160a01b03166001600160a01b031681526020016001820154815260200160028201805461067f906116ed565b80601f01602080910402602001604051908101604052809291908181526020018280546106ab906116ed565b80156106f85780601f106106cd576101008083540402835291602001916106f8565b820191906000526020600020905b8154815290600101906020018083116106db57829003601f168201915b5050505050815250509050919050565b61071483600354611154565b6000600180549050905060016040518060600160405280866001600160a01b03168152602001600354815260200185858080601f0160208091040260200160405190810160405280939291908181526020018383808284376000920182905250939094525050835460018082018655948252602091829020845160039092020180546001600160a01b0319166001600160a01b03909216919091178155908301519381019390935550604081015190919060028201906107d4908261178e565b5050600080546001810182557f290decd9548b62a8d60345a988386fc84ba6bc95484008f6362f93160ef3e5630180546001600160a01b0319166001600160a01b0388169081179091558082526004602090815260409283902085905591519081527f0a62f64a6600f18fa3c7ea0f4e8a35adbf9d686c6c202f02cd79188f0571a0c292500161040e565b60606001805480602002602001604051908101604052809291908181526020016000905b82821015610967576000848152602090819020604080516060810182526003860290920180546001600160a01b03168352600181015493830193909352600283018054929392918401916108d6906116ed565b80601f0160208091040260200160405190810160405280929190818152602001828054610902906116ed565b801561094f5780601f106109245761010080835404028352916020019161094f565b820191906000526020600020905b81548152906001019060200180831161093257829003601f168201915b50505050508152505081526020019060010190610883565b50505050905090565b60608167ffffffffffffffff81111561098b5761098b611727565b6040519080825280602002602001820160405280156109b4578160200160208202803683370190505b50905060005b82811015610a145760408051602081018690529081018290526060016040516020818303038152906040528051906020012060001c828281518110610a0157610a01611679565b60209081029190910101526001016109ba565b5092915050565b60606000805480602002602001604051908101604052809291908181526020018280548015610a7357602002820191906000526020600020905b81546001600160a01b03168152600190910190602001808311610a55575b5050505050905090565b60018181548110610a8d57600080fd5b60009182526020909120600390910201805460018201546002830180546001600160a01b039093169450909291610ac3906116ed565b80601f0160208091040260200160405190810160405280929190818152602001828054610aef906116ed565b8015610b3c5780601f10610b1157610100808354040283529160200191610b3c565b820191906000526020600020905b815481529060010190602001808311610b1f57829003601f168201915b5050505050905083565b6001600160a01b0382166000908152600460205260408120546001805491929183908110610b7657610b76611679565b9060005260206000209060030201905080600101548310610bda57600060018201819055604080516001600160a01b038716815260208101929092527f700865370ffb2a65a2b0242e6a64b21ac907ed5ecd46c9cffc729c177b2b1c69910161040e565b828160010154610bea91906116a5565b6001820155604080516001600160a01b0386168152602081018590527f700865370ffb2a65a2b0242e6a64b21ac907ed5ecd46c9cffc729c177b2b1c69910161040e565b6002546040516370a0823160e01b81523060048201526000916001600160a01b0316906370a0823190602401602060405180830381865afa158015610c77573d6000803e3d6000fd5b505050506040513d601f19601f82011682018060405250810190610c9b919061184e565b905080821115610cf25760405162461bcd60e51b815260206004820152600e60248201527f62616c616e6365206973206c6f7700000000000000000000000000000000000060448201526064015b60405180910390fd5b6002546040517fa9059cbb0000000000000000000000000000000000000000000000000000000081526001600160a01b038581166004830152602482018590529091169063a9059cbb906044016020604051808303816000875af1158015610d5e573d6000803e3d6000fd5b505050506040513d601f19601f82011682018060405250810190610d829190611867565b50604080513081526001600160a01b03851660208201529081018390527ffda3a3e0e1479b43cb1c701f7576187f4c4ad80768d627387e00184302f7d88e906060015b60405180910390a1505050565b6001548210610de057600080fd5b6001805460009190610df39082906116a5565b81548110610e0357610e03611679565b90600052602060002090600302016040518060600160405290816000820160009054906101000a90046001600160a01b03166001600160a01b03166001600160a01b0316815260200160018201548152602001600282018054610e65906116ed565b80601f0160208091040260200160405190810160405280929190818152602001828054610e91906116ed565b8015610ede5780601f10610eb357610100808354040283529160200191610ede565b820191906000526020600020905b815481529060010190602001808311610ec157829003601f168201915b50505050508152505090506001808080549050610efb91906116a5565b81548110610f0b57610f0b611679565b906000526020600020906003020160018481548110610f2c57610f2c611679565b60009182526020909120825460039092020180546001600160a01b0319166001600160a01b0390921691909117815560018083015490820155600280820190610f7790840182611889565b509050506001805480610f8c57610f8c61195c565b60008281526020812060036000199093019283020180546001600160a01b03191681556001810182905590610fc46002830182611313565b5050905580516001600160a01b03808216600090815260046020908152604080832088905592861682526005905220805460ff1916600190811790915554840361100e5750505050565b600061101b8560016116b8565b90505b6001548110156110985760006001828154811061103d5761103d611679565b600091825260208083206003909202909101546001600160a01b03168083526004909152604090912054909150611076906001906116a5565b6001600160a01b0390911660009081526004602052604090205560010161101e565b5050505050565b60005481106110ad57600080fd5b600080546110bd906001906116a5565b815481106110cd576110cd611679565b600091825260208220015481546001600160a01b039091169190839081106110f7576110f7611679565b6000918252602082200180546001600160a01b0319166001600160a01b03939093169290921790915580548061112f5761112f61195c565b600082815260209020810160001990810180546001600160a01b031916905501905550565b6002546040516370a0823160e01b81526001600160a01b03848116600483015260009216906370a0823190602401602060405180830381865afa15801561119f573d6000803e3d6000fd5b505050506040513d601f19601f820116820180604052508101906111c3919061184e565b9050808211156112155760405162461bcd60e51b815260206004820152600e60248201527f62616c616e6365206973206c6f770000000000000000000000000000000000006044820152606401610ce9565b6002546040517f23b872dd0000000000000000000000000000000000000000000000000000000081526001600160a01b03858116600483015230602483015260448201859052909116906323b872dd906064016020604051808303816000875af1158015611287573d6000803e3d6000fd5b505050506040513d601f19601f820116820180604052508101906112ab9190611867565b50604080516001600160a01b03851681523060208201529081018390527ffda3a3e0e1479b43cb1c701f7576187f4c4ad80768d627387e00184302f7d88e90606001610dc5565b60405180620271000160405280611388906020820280368337509192915050565b50805461131f906116ed565b6000825580601f1061132f575050565b601f01602090049060005260206000209081019061134d9190611350565b50565b5b808211156113655760008155600101611351565b5090565b60006020828403121561137b57600080fd5b5035919050565b80356001600160a01b038116811461139957600080fd5b919050565b600080604083850312156113b157600080fd5b6113ba83611382565b946020939093013593505050565b6000602082840312156113da57600080fd5b6113e382611382565b9392505050565b600080604083850312156113fd57600080fd5b50508035926020909101359150565b620271008101818360005b6113888110156114405781516001600160a01b0316835260209283019290910190600101611417565b50505092915050565b6000815180845260005b8181101561146f57602081850181015186830182015201611453565b506000602082860101526020601f19601f83011685010191505092915050565b6001600160a01b0381511682526020810151602083015260006040820151606060408501526114c16060850182611449565b949350505050565b6020815260006113e3602083018461148f565b6000806000604084860312156114f157600080fd5b6114fa84611382565b9250602084013567ffffffffffffffff8082111561151757600080fd5b818601915086601f83011261152b57600080fd5b81358181111561153a57600080fd5b87602082850101111561154c57600080fd5b6020830194508093505050509250925092565b600060208083016020845280855180835260408601915060408160051b87010192506020870160005b828110156115b657603f198886030184526115a485835161148f565b94509285019290850190600101611588565b5092979650505050505050565b6020808252825182820181905260009190848201906040850190845b818110156115fb578351835292840192918401916001016115df565b50909695505050505050565b6020808252825182820181905260009190848201906040850190845b818110156115fb5783516001600160a01b031683529284019291840191600101611623565b6001600160a01b03841681528260208201526060604082015260006116706060830184611449565b95945050505050565b634e487b7160e01b600052603260045260246000fd5b634e487b7160e01b600052601160045260246000fd5b818103818111156105e8576105e861168f565b808201808211156105e8576105e861168f565b6000826116e857634e487b7160e01b600052601260045260246000fd5b500690565b600181811c9082168061170157607f821691505b60208210810361172157634e487b7160e01b600052602260045260246000fd5b50919050565b634e487b7160e01b600052604160045260246000fd5b601f821115611789576000816000526020600020601f850160051c810160208610156117665750805b601f850160051c820191505b8181101561178557828155600101611772565b5050505b505050565b815167ffffffffffffffff8111156117a8576117a8611727565b6117bc816117b684546116ed565b8461173d565b602080601f8311600181146117f157600084156117d95750858301515b600019600386901b1c1916600185901b178555611785565b600085815260208120601f198616915b8281101561182057888601518255948401946001909101908401611801565b508582101561183e5787850151600019600388901b60f8161c191681555b5050505050600190811b01905550565b60006020828403121561186057600080fd5b5051919050565b60006020828403121561187957600080fd5b815180151581146113e357600080fd5b818103611894575050565b61189e82546116ed565b67ffffffffffffffff8111156118b6576118b6611727565b6118c4816117b684546116ed565b6000601f8211600181146118f857600083156118e05750848201545b600019600385901b1c1916600184901b178455611098565b600085815260209020601f19841690600086815260209020845b838110156119325782860154825560019586019590910190602001611912565b508583101561183e5793015460001960f8600387901b161c19169092555050600190811b01905550565b634e487b7160e01b600052603160045260246000fdfea26469706673582212203ca44286d10ea95ea14720b22f9db7776219cbf0c6bcca3a8132830b5fb90b9864736f6c63430008180033",
  "linkReferences": {},
  "deployedLinkReferences": {}
}