{
  "_format": "hh-sol-artifact-1",
  "contractName": "EvaluatorContract",
  "sourceName": "contracts/Evaluator.sol",
  "abi": [
    {
      "inputs": [
        {
          "internalType": "contract IERC20",
          "name": "lanceToken_",
          "type": "address"
        },
        {
          "internalType": "uint256",
          "name": "stakeAmount_",
          "type": "uint256"
        }
      ],
      "stateMutability": "nonpayable",
      "type": "constructor"
    },
    {
      "anonymous": false,
      "inputs": [
        {
          "indexed": false,
          "internalType": "address",
          "name": "evaluatorAddress",
          "type": "address"
        }
      ],
      "name": "EvaluatorAdded",
      "type": "event"
    },
    {
      "anonymous": false,
      "inputs": [
        {
          "indexed": false,
          "internalType": "address",
          "name": "evaluatorAddress",
          "type": "address"
        }
      ],
      "name": "EvaluatorRemoved",
      "type": "event"
    },
    {
      "anonymous": false,
      "inputs": [
        {
          "indexed": false,
          "internalType": "address",
          "name": "evaluatorAddress",
          "type": "address"
        },
        {
          "indexed": false,
          "internalType": "uint256",
          "name": "decrement",
          "type": "uint256"
        }
      ],
      "name": "StakeDecreased",
      "type": "event"
    },
    {
      "anonymous": false,
      "inputs": [
        {
          "indexed": false,
          "internalType": "address",
          "name": "evaluatorAddress",
          "type": "address"
        },
        {
          "indexed": false,
          "internalType": "uint256",
          "name": "increment",
          "type": "uint256"
        }
      ],
      "name": "StakeIncreased",
      "type": "event"
    },
    {
      "anonymous": false,
      "inputs": [
        {
          "indexed": false,
          "internalType": "address",
          "name": "_from",
          "type": "address"
        },
        {
          "indexed": false,
          "internalType": "uint256",
          "name": "_amount",
          "type": "uint256"
        }
      ],
      "name": "TransferReceived",
      "type": "event"
    },
    {
      "anonymous": false,
      "inputs": [
        {
          "indexed": false,
          "internalType": "address",
          "name": "_from",
          "type": "address"
        },
        {
          "indexed": false,
          "internalType": "address",
          "name": "_destAddr",
          "type": "address"
        },
        {
          "indexed": false,
          "internalType": "uint256",
          "name": "_amount",
          "type": "uint256"
        }
      ],
      "name": "TransferSent",
      "type": "event"
    },
    {
      "inputs": [
        {
          "internalType": "address",
          "name": "evaluator",
          "type": "address"
        },
        {
          "internalType": "string",
          "name": "ipfs",
          "type": "string"
        }
      ],
      "name": "addEvaluator",
      "outputs": [],
      "stateMutability": "nonpayable",
      "type": "function"
    },
    {
      "inputs": [
        {
          "internalType": "uint256",
          "name": "",
          "type": "uint256"
        }
      ],
      "name": "availableEvaluators",
      "outputs": [
        {
          "internalType": "address",
          "name": "",
          "type": "address"
        }
      ],
      "stateMutability": "view",
      "type": "function"
    },
    {
      "inputs": [
        {
          "internalType": "address",
          "name": "evaluator",
          "type": "address"
        }
      ],
      "name": "checkEvaluatorRemoved",
      "outputs": [
        {
          "internalType": "bool",
          "name": "",
          "type": "bool"
        }
      ],
      "stateMutability": "view",
      "type": "function"
    },
    {
      "inputs": [
        {
          "internalType": "address",
          "name": "evaluator",
          "type": "address"
        },
        {
          "internalType": "uint256",
          "name": "decrement",
          "type": "uint256"
        }
      ],
      "name": "decreaseStake",
      "outputs": [],
      "stateMutability": "nonpayable",
      "type": "function"
    },
    {
      "inputs": [
        {
          "internalType": "address",
          "name": "",
          "type": "address"
        }
      ],
      "name": "evaluatorKeys",
      "outputs": [
        {
          "internalType": "uint256",
          "name": "",
          "type": "uint256"
        }
      ],
      "stateMutability": "view",
      "type": "function"
    },
    {
      "inputs": [
        {
          "internalType": "uint256",
          "name": "",
          "type": "uint256"
        }
      ],
      "name": "evaluators",
      "outputs": [
        {
          "internalType": "address",
          "name": "evaluatorAddress",
          "type": "address"
        },
        {
          "internalType": "uint256",
          "name": "evaluatorStake",
          "type": "uint256"
        },
        {
          "internalType": "string",
          "name": "ipfs",
          "type": "string"
        }
      ],
      "stateMutability": "view",
      "type": "function"
    },
    {
      "inputs": [],
      "name": "getAvailableEvaluators",
      "outputs": [
        {
          "internalType": "address[]",
          "name": "",
          "type": "address[]"
        }
      ],
      "stateMutability": "view",
      "type": "function"
    },
    {
      "inputs": [
        {
          "internalType": "uint256",
          "name": "key",
          "type": "uint256"
        }
      ],
      "name": "getEvaluatorAtIndex",
      "outputs": [
        {
          "components": [
            {
              "internalType": "address",
              "name": "evaluatorAddress",
              "type": "address"
            },
            {
              "internalType": "uint256",
              "name": "evaluatorStake",
              "type": "uint256"
            },
            {
              "internalType": "string",
              "name": "ipfs",
              "type": "string"
            }
          ],
          "internalType": "struct EvaluatorContract.Evaluator",
          "name": "",
          "type": "tuple"
        }
      ],
      "stateMutability": "view",
      "type": "function"
    },
    {
      "inputs": [
        {
          "internalType": "address",
          "name": "evaluator",
          "type": "address"
        }
      ],
      "name": "getEvaluatorKey",
      "outputs": [
        {
          "internalType": "uint256",
          "name": "",
          "type": "uint256"
        }
      ],
      "stateMutability": "view",
      "type": "function"
    },
    {
      "inputs": [],
      "name": "getEvaluators",
      "outputs": [
        {
          "components": [
            {
              "internalType": "address",
              "name": "evaluatorAddress",
              "type": "address"
            },
            {
              "internalType": "uint256",
              "name": "evaluatorStake",
              "type": "uint256"
            },
            {
              "internalType": "string",
              "name": "ipfs",
              "type": "string"
            }
          ],
          "internalType": "struct EvaluatorContract.Evaluator[]",
          "name": "",
          "type": "tuple[]"
        }
      ],
      "stateMutability": "view",
      "type": "function"
    },
    {
      "inputs": [
        {
          "internalType": "uint256",
          "name": "seed",
          "type": "uint256"
        },
        {
          "internalType": "uint256",
          "name": "number",
          "type": "uint256"
        }
      ],
      "name": "getRandomEvaluators",
      "outputs": [
        {
          "internalType": "address[5000]",
          "name": "",
          "type": "address[5000]"
        }
      ],
      "stateMutability": "view",
      "type": "function"
    },
    {
      "inputs": [
        {
          "internalType": "address",
          "name": "evaluator",
          "type": "address"
        },
        {
          "internalType": "uint256",
          "name": "increment",
          "type": "uint256"
        }
      ],
      "name": "increaseStake",
      "outputs": [],
      "stateMutability": "nonpayable",
      "type": "function"
    },
    {
      "inputs": [],
      "name": "lanceToken",
      "outputs": [
        {
          "internalType": "contract IERC20",
          "name": "",
          "type": "address"
        }
      ],
      "stateMutability": "view",
      "type": "function"
    },
    {
      "inputs": [
        {
          "internalType": "address",
          "name": "evaluator",
          "type": "address"
        },
        {
          "internalType": "uint256",
          "name": "decrement",
          "type": "uint256"
        }
      ],
      "name": "punishEvaluatorReduceStake",
      "outputs": [],
      "stateMutability": "nonpayable",
      "type": "function"
    },
    {
      "inputs": [
        {
          "internalType": "address",
          "name": "evaluator",
          "type": "address"
        }
      ],
      "name": "removeEvaluator",
      "outputs": [],
      "stateMutability": "nonpayable",
      "type": "function"
    },
    {
      "inputs": [
        {
          "internalType": "address",
          "name": "",
          "type": "address"
        }
      ],
      "name": "removedEvaluators",
      "outputs": [
        {
          "internalType": "bool",
          "name": "",
          "type": "bool"
        }
      ],
      "stateMutability": "view",
      "type": "function"
    },
    {
      "inputs": [],
      "name": "stakeAmount",
      "outputs": [
        {
          "internalType": "uint256",
          "name": "",
          "type": "uint256"
        }
      ],
      "stateMutability": "view",
      "type": "function"
    }
  ],
  "bytecode": "0x608060405234801561001057600080fd5b506040516118cb3803806118cb83398101604081905261002f91610058565b600280546001600160a01b0319166001600160a01b039390931692909217909155600355610092565b6000806040838503121561006b57600080fd5b82516001600160a01b038116811461008257600080fd5b6020939093015192949293505050565b61182a806100a16000396000f3fe608060405234801561001057600080fd5b506004361061011b5760003560e01c806370d2d81c116100b2578063ae0b1a7f11610081578063c68410a111610066578063c68410a1146102c7578063e168afe3146102da578063f40d659d146102fc57600080fd5b8063ae0b1a7f14610292578063baa8808e146102b257600080fd5b806370d2d81c1461021e5780637da433a61461023e5780637e1cce0c146102515780639aac386d1461026657600080fd5b80635d7e9467116100ee5780635d7e9467146101af578063603da881146101c257806360c7dc47146101e257806361d8b403146101eb57600080fd5b806302d43376146101205780631a73ba011461015057806351d8005114610165578063549fb08614610178575b600080fd5b61013361012e366004611245565b61030f565b6040516001600160a01b0390911681526020015b60405180910390f35b61016361015e36600461127a565b610339565b005b6101636101733660046112a4565b6103e1565b6101a16101863660046112a4565b6001600160a01b031660009081526004602052604090205490565b604051908152602001610147565b6101636101bd36600461127a565b61045c565b6101d56101d03660046112c6565b6104fa565b60405161014791906112e8565b6101a160035481565b61020e6101f93660046112a4565b60056020526000908152604090205460ff1681565b6040519015158152602001610147565b61023161022c366004611245565b610575565b60405161014791906113a5565b61016361024c3660046113b8565b61068f565b6102596107e6565b604051610147919061143b565b61020e6102743660046112a4565b6001600160a01b031660009081526005602052604090205460ff1690565b6101a16102a03660046112a4565b60046020526000908152604090205481565b6102ba6108f7565b604051610147919061149f565b600254610133906001600160a01b031681565b6102ed6102e8366004611245565b610959565b604051610147939291906114ec565b61016361030a36600461127a565b610a22565b6000818154811061031f57600080fd5b6000918252602090912001546001600160a01b0316905081565b6001600160a01b03821660009081526004602052604081205460018054919291839081106103695761036961151d565b906000526020600020906003020190508281600101546103899190611549565b60018201556103988484610b0a565b604080516001600160a01b0386168152602081018590527f700865370ffb2a65a2b0242e6a64b21ac907ed5ecd46c9cffc729c177b2b1c6991015b60405180910390a150505050565b6001600160a01b03811660009081526004602052604081205460018054919291839081106104115761041161151d565b6000918252602082206001600390920201908101805492905580549092506104439084906001600160a01b0316610cae565b61044c83610f7b565b6104568482610b0a565b50505050565b6001600160a01b038216600090815260046020526040812054600180549192918390811061048c5761048c61151d565b906000526020600020906003020190506104a68484611030565b8281600101546104b6919061155c565b6001820155604080516001600160a01b0386168152602081018590527f8b0ed825817a2e696c9a931715af4609fc60e1701f09c89ee7645130e937eb2d91016103d3565b6105026111ce565b61050a6111ce565b60005b8381101561056b57600081815481106105285761052861151d565b6000918252602090912001546001600160a01b0316828261138881106105505761055061151d565b6001600160a01b03909216602092909202015260010161050d565b5090505b92915050565b60408051606080820183526000808352602083015291810191909152600182815481106105a4576105a461151d565b90600052602060002090600302016040518060600160405290816000820160009054906101000a90046001600160a01b03166001600160a01b03166001600160a01b03168152602001600182015481526020016002820180546106069061156f565b80601f01602080910402602001604051908101604052809291908181526020018280546106329061156f565b801561067f5780601f106106545761010080835404028352916020019161067f565b820191906000526020600020905b81548152906001019060200180831161066257829003601f168201915b5050505050815250509050919050565b61069b83600354611030565b6000600180549050905060016040518060600160405280866001600160a01b03168152602001600354815260200185858080601f0160208091040260200160405190810160405280939291908181526020018383808284376000920182905250939094525050835460018082018655948252602091829020845160039092020180546001600160a01b0319166001600160a01b039092169190911781559083015193810193909355506040810151909190600282019061075b9082611610565b5050600080546001810182557f290decd9548b62a8d60345a988386fc84ba6bc95484008f6362f93160ef3e5630180546001600160a01b0319166001600160a01b0388169081179091558082526004602090815260409283902085905591519081527f0a62f64a6600f18fa3c7ea0f4e8a35adbf9d686c6c202f02cd79188f0571a0c29250016103d3565b60606001805480602002602001604051908101604052809291908181526020016000905b828210156108ee576000848152602090819020604080516060810182526003860290920180546001600160a01b031683526001810154938301939093526002830180549293929184019161085d9061156f565b80601f01602080910402602001604051908101604052809291908181526020018280546108899061156f565b80156108d65780601f106108ab576101008083540402835291602001916108d6565b820191906000526020600020905b8154815290600101906020018083116108b957829003601f168201915b5050505050815250508152602001906001019061080a565b50505050905090565b6060600080548060200260200160405190810160405280929190818152602001828054801561094f57602002820191906000526020600020905b81546001600160a01b03168152600190910190602001808311610931575b5050505050905090565b6001818154811061096957600080fd5b60009182526020909120600390910201805460018201546002830180546001600160a01b03909316945090929161099f9061156f565b80601f01602080910402602001604051908101604052809291908181526020018280546109cb9061156f565b8015610a185780601f106109ed57610100808354040283529160200191610a18565b820191906000526020600020905b8154815290600101906020018083116109fb57829003601f168201915b5050505050905083565b6001600160a01b0382166000908152600460205260408120546001805491929183908110610a5257610a5261151d565b9060005260206000209060030201905080600101548310610ab657600060018201819055604080516001600160a01b038716815260208101929092527f700865370ffb2a65a2b0242e6a64b21ac907ed5ecd46c9cffc729c177b2b1c6991016103d3565b828160010154610ac69190611549565b6001820155604080516001600160a01b0386168152602081018590527f700865370ffb2a65a2b0242e6a64b21ac907ed5ecd46c9cffc729c177b2b1c6991016103d3565b6002546040516370a0823160e01b81523060048201526000916001600160a01b0316906370a0823190602401602060405180830381865afa158015610b53573d6000803e3d6000fd5b505050506040513d601f19601f82011682018060405250810190610b7791906116d0565b905080821115610bce5760405162461bcd60e51b815260206004820152600e60248201527f62616c616e6365206973206c6f7700000000000000000000000000000000000060448201526064015b60405180910390fd5b6002546040517fa9059cbb0000000000000000000000000000000000000000000000000000000081526001600160a01b038581166004830152602482018590529091169063a9059cbb906044016020604051808303816000875af1158015610c3a573d6000803e3d6000fd5b505050506040513d601f19601f82011682018060405250810190610c5e91906116e9565b50604080513081526001600160a01b03851660208201529081018390527ffda3a3e0e1479b43cb1c701f7576187f4c4ad80768d627387e00184302f7d88e906060015b60405180910390a1505050565b6001548210610cbc57600080fd5b6001805460009190610ccf908290611549565b81548110610cdf57610cdf61151d565b90600052602060002090600302016040518060600160405290816000820160009054906101000a90046001600160a01b03166001600160a01b03166001600160a01b0316815260200160018201548152602001600282018054610d419061156f565b80601f0160208091040260200160405190810160405280929190818152602001828054610d6d9061156f565b8015610dba5780601f10610d8f57610100808354040283529160200191610dba565b820191906000526020600020905b815481529060010190602001808311610d9d57829003601f168201915b50505050508152505090506001808080549050610dd79190611549565b81548110610de757610de761151d565b906000526020600020906003020160018481548110610e0857610e0861151d565b60009182526020909120825460039092020180546001600160a01b0319166001600160a01b0390921691909117815560018083015490820155600280820190610e539084018261170b565b509050506001805480610e6857610e686117de565b60008281526020812060036000199093019283020180546001600160a01b03191681556001810182905590610ea060028301826111ef565b5050905580516001600160a01b03808216600090815260046020908152604080832088905592861682526005905220805460ff19166001908117909155548403610eea5750505050565b6000610ef785600161155c565b90505b600154811015610f7457600060018281548110610f1957610f1961151d565b600091825260208083206003909202909101546001600160a01b03168083526004909152604090912054909150610f5290600190611549565b6001600160a01b03909116600090815260046020526040902055600101610efa565b5050505050565b6000548110610f8957600080fd5b60008054610f9990600190611549565b81548110610fa957610fa961151d565b600091825260208220015481546001600160a01b03909116919083908110610fd357610fd361151d565b6000918252602082200180546001600160a01b0319166001600160a01b03939093169290921790915580548061100b5761100b6117de565b600082815260209020810160001990810180546001600160a01b031916905501905550565b6002546040516370a0823160e01b81526001600160a01b03848116600483015260009216906370a0823190602401602060405180830381865afa15801561107b573d6000803e3d6000fd5b505050506040513d601f19601f8201168201806040525081019061109f91906116d0565b9050808211156110f15760405162461bcd60e51b815260206004820152600e60248201527f62616c616e6365206973206c6f770000000000000000000000000000000000006044820152606401610bc5565b6002546040517f23b872dd0000000000000000000000000000000000000000000000000000000081526001600160a01b03858116600483015230602483015260448201859052909116906323b872dd906064016020604051808303816000875af1158015611163573d6000803e3d6000fd5b505050506040513d601f19601f8201168201806040525081019061118791906116e9565b50604080516001600160a01b03851681523060208201529081018390527ffda3a3e0e1479b43cb1c701f7576187f4c4ad80768d627387e00184302f7d88e90606001610ca1565b60405180620271000160405280611388906020820280368337509192915050565b5080546111fb9061156f565b6000825580601f1061120b575050565b601f016020900490600052602060002090810190611229919061122c565b50565b5b80821115611241576000815560010161122d565b5090565b60006020828403121561125757600080fd5b5035919050565b80356001600160a01b038116811461127557600080fd5b919050565b6000806040838503121561128d57600080fd5b6112968361125e565b946020939093013593505050565b6000602082840312156112b657600080fd5b6112bf8261125e565b9392505050565b600080604083850312156112d957600080fd5b50508035926020909101359150565b620271008101818360005b61138881101561131c5781516001600160a01b03168352602092830192909101906001016112f3565b50505092915050565b6000815180845260005b8181101561134b5760208185018101518683018201520161132f565b506000602082860101526020601f19601f83011685010191505092915050565b6001600160a01b03815116825260208101516020830152600060408201516060604085015261139d6060850182611325565b949350505050565b6020815260006112bf602083018461136b565b6000806000604084860312156113cd57600080fd5b6113d68461125e565b9250602084013567ffffffffffffffff808211156113f357600080fd5b818601915086601f83011261140757600080fd5b81358181111561141657600080fd5b87602082850101111561142857600080fd5b6020830194508093505050509250925092565b600060208083016020845280855180835260408601915060408160051b87010192506020870160005b8281101561149257603f1988860301845261148085835161136b565b94509285019290850190600101611464565b5092979650505050505050565b6020808252825182820181905260009190848201906040850190845b818110156114e05783516001600160a01b0316835292840192918401916001016114bb565b50909695505050505050565b6001600160a01b03841681528260208201526060604082015260006115146060830184611325565b95945050505050565b634e487b7160e01b600052603260045260246000fd5b634e487b7160e01b600052601160045260246000fd5b8181038181111561056f5761056f611533565b8082018082111561056f5761056f611533565b600181811c9082168061158357607f821691505b6020821081036115a357634e487b7160e01b600052602260045260246000fd5b50919050565b634e487b7160e01b600052604160045260246000fd5b601f82111561160b576000816000526020600020601f850160051c810160208610156115e85750805b601f850160051c820191505b81811015611607578281556001016115f4565b5050505b505050565b815167ffffffffffffffff81111561162a5761162a6115a9565b61163e81611638845461156f565b846115bf565b602080601f831160018114611673576000841561165b5750858301515b600019600386901b1c1916600185901b178555611607565b600085815260208120601f198616915b828110156116a257888601518255948401946001909101908401611683565b50858210156116c05787850151600019600388901b60f8161c191681555b5050505050600190811b01905550565b6000602082840312156116e257600080fd5b5051919050565b6000602082840312156116fb57600080fd5b815180151581146112bf57600080fd5b818103611716575050565b611720825461156f565b67ffffffffffffffff811115611738576117386115a9565b61174681611638845461156f565b6000601f82116001811461177a57600083156117625750848201545b600019600385901b1c1916600184901b178455610f74565b600085815260209020601f19841690600086815260209020845b838110156117b45782860154825560019586019590910190602001611794565b50858310156116c05793015460001960f8600387901b161c19169092555050600190811b01905550565b634e487b7160e01b600052603160045260246000fdfea2646970667358221220474e76bd44d0e05ba6da563a5bdafa63f43af92fc5701f402c616d170d009d6164736f6c63430008180033",
  "linkReferences": {},
  "deployedLinkReferences": {}
}