{
  "_format": "hh-sol-artifact-1",
  "contractName": "BlindAuction",
  "sourceName": "contracts/Vickery.sol",
  "abi": [
    {
      "inputs": [
        {
          "internalType": "uint256",
          "name": "biddingTime",
          "type": "uint256"
        },
        {
          "internalType": "uint256",
          "name": "revealTime",
          "type": "uint256"
        },
        {
          "internalType": "contract IERC20",
          "name": "bidToken_",
          "type": "address"
        }
      ],
      "stateMutability": "nonpayable",
      "type": "constructor"
    },
    {
      "inputs": [],
      "name": "AuctionEndAlreadyCalled",
      "type": "error"
    },
    {
      "inputs": [
        {
          "internalType": "uint256",
          "name": "time",
          "type": "uint256"
        }
      ],
      "name": "TooEarly",
      "type": "error"
    },
    {
      "inputs": [
        {
          "internalType": "uint256",
          "name": "time",
          "type": "uint256"
        }
      ],
      "name": "TooLate",
      "type": "error"
    },
    {
      "anonymous": false,
      "inputs": [
        {
          "indexed": false,
          "internalType": "address",
          "name": "winner",
          "type": "address"
        },
        {
          "indexed": false,
          "internalType": "uint256",
          "name": "highestBid",
          "type": "uint256"
        }
      ],
      "name": "AuctionEnded",
      "type": "event"
    },
    {
      "anonymous": false,
      "inputs": [
        {
          "indexed": false,
          "internalType": "address",
          "name": "_from",
          "type": "address"
        },
        {
          "indexed": false,
          "internalType": "uint256",
          "name": "_amount",
          "type": "uint256"
        }
      ],
      "name": "TransferReceived",
      "type": "event"
    },
    {
      "anonymous": false,
      "inputs": [
        {
          "indexed": false,
          "internalType": "address",
          "name": "_from",
          "type": "address"
        },
        {
          "indexed": false,
          "internalType": "address",
          "name": "_destAddr",
          "type": "address"
        },
        {
          "indexed": false,
          "internalType": "uint256",
          "name": "_amount",
          "type": "uint256"
        }
      ],
      "name": "TransferSent",
      "type": "event"
    },
    {
      "inputs": [],
      "name": "auctionEnd",
      "outputs": [],
      "stateMutability": "nonpayable",
      "type": "function"
    },
    {
      "inputs": [
        {
          "internalType": "address",
          "name": "bidder",
          "type": "address"
        },
        {
          "internalType": "uint256",
          "name": "overbid",
          "type": "uint256"
        },
        {
          "internalType": "bytes32",
          "name": "blindedBid",
          "type": "bytes32"
        }
      ],
      "name": "bid",
      "outputs": [],
      "stateMutability": "nonpayable",
      "type": "function"
    },
    {
      "inputs": [
        {
          "internalType": "uint256",
          "name": "",
          "type": "uint256"
        }
      ],
      "name": "bidAmounts",
      "outputs": [
        {
          "internalType": "uint256",
          "name": "",
          "type": "uint256"
        }
      ],
      "stateMutability": "view",
      "type": "function"
    },
    {
      "inputs": [],
      "name": "biddingEnd",
      "outputs": [
        {
          "internalType": "uint256",
          "name": "",
          "type": "uint256"
        }
      ],
      "stateMutability": "view",
      "type": "function"
    },
    {
      "inputs": [
        {
          "internalType": "address",
          "name": "",
          "type": "address"
        },
        {
          "internalType": "uint256",
          "name": "",
          "type": "uint256"
        }
      ],
      "name": "bids",
      "outputs": [
        {
          "internalType": "bytes32",
          "name": "blindedBid",
          "type": "bytes32"
        },
        {
          "internalType": "uint256",
          "name": "deposit",
          "type": "uint256"
        }
      ],
      "stateMutability": "view",
      "type": "function"
    },
    {
      "inputs": [],
      "name": "ended",
      "outputs": [
        {
          "internalType": "bool",
          "name": "",
          "type": "bool"
        }
      ],
      "stateMutability": "view",
      "type": "function"
    },
    {
      "inputs": [],
      "name": "highestBid",
      "outputs": [
        {
          "internalType": "uint256",
          "name": "",
          "type": "uint256"
        }
      ],
      "stateMutability": "view",
      "type": "function"
    },
    {
      "inputs": [],
      "name": "highestBidder",
      "outputs": [
        {
          "internalType": "address",
          "name": "",
          "type": "address"
        }
      ],
      "stateMutability": "view",
      "type": "function"
    },
    {
      "inputs": [
        {
          "internalType": "uint256[]",
          "name": "values",
          "type": "uint256[]"
        },
        {
          "internalType": "bytes32[]",
          "name": "secrets",
          "type": "bytes32[]"
        },
        {
          "internalType": "address",
          "name": "bidder",
          "type": "address"
        }
      ],
      "name": "reveal",
      "outputs": [],
      "stateMutability": "nonpayable",
      "type": "function"
    },
    {
      "inputs": [],
      "name": "revealEnd",
      "outputs": [
        {
          "internalType": "uint256",
          "name": "",
          "type": "uint256"
        }
      ],
      "stateMutability": "view",
      "type": "function"
    },
    {
      "inputs": [],
      "name": "secondHighestBid",
      "outputs": [
        {
          "internalType": "uint256",
          "name": "",
          "type": "uint256"
        }
      ],
      "stateMutability": "view",
      "type": "function"
    },
    {
      "inputs": [],
      "name": "token",
      "outputs": [
        {
          "internalType": "contract IERC20",
          "name": "",
          "type": "address"
        }
      ],
      "stateMutability": "view",
      "type": "function"
    },
    {
      "inputs": [
        {
          "internalType": "address",
          "name": "bidder",
          "type": "address"
        }
      ],
      "name": "withdraw",
      "outputs": [],
      "stateMutability": "nonpayable",
      "type": "function"
    }
  ],
  "bytecode": "0x60806040523480156200001157600080fd5b506040516200162a3803806200162a833981810160405281019062000037919062000164565b8242620000459190620001ef565b600081905550816000546200005b9190620001ef565b60018190555080600460006101000a81548173ffffffffffffffffffffffffffffffffffffffff021916908373ffffffffffffffffffffffffffffffffffffffff1602179055505050506200022a565b600080fd5b6000819050919050565b620000c581620000b0565b8114620000d157600080fd5b50565b600081519050620000e581620000ba565b92915050565b600073ffffffffffffffffffffffffffffffffffffffff82169050919050565b60006200011882620000eb565b9050919050565b60006200012c826200010b565b9050919050565b6200013e816200011f565b81146200014a57600080fd5b50565b6000815190506200015e8162000133565b92915050565b60008060006060848603121562000180576200017f620000ab565b5b60006200019086828701620000d4565b9350506020620001a386828701620000d4565b9250506040620001b6868287016200014d565b9150509250925092565b7f4e487b7100000000000000000000000000000000000000000000000000000000600052601160045260246000fd5b6000620001fc82620000b0565b91506200020983620000b0565b9250828201905080821115620002245762000223620001c0565b5b92915050565b6113f0806200023a6000396000f3fe608060405234801561001057600080fd5b50600436106100cf5760003560e01c806357ea94ba1161008c578063a754807a11610066578063a754807a146101db578063acb902f61461020b578063d57bde7914610229578063fc0c546a14610247576100cf565b806357ea94ba1461018357806391f901571461019f578063a6e66477146101bd576100cf565b806301495c1c146100d4578063052857b81461010557806312fa6feb146101215780632a24f46c1461013f578063423b217f1461014957806351cff8d914610167575b600080fd5b6100ee60048036038101906100e99190610d5f565b610265565b6040516100fc929190610dc7565b60405180910390f35b61011f600480360381019061011a9190610eab565b6102a6565b005b610129610461565b6040516101369190610f5b565b60405180910390f35b610147610474565b005b610151610586565b60405161015e9190610f76565b60405180910390f35b610181600480360381019061017c9190610f91565b61058c565b005b61019d60048036038101906101989190610fea565b61062d565b005b6101a76106cf565b6040516101b4919061104c565b60405180910390f35b6101c56106f5565b6040516101d29190610f76565b60405180910390f35b6101f560048036038101906101f09190611067565b6106fb565b6040516102029190610f76565b60405180910390f35b61021361071f565b6040516102209190610f76565b60405180910390f35b610231610725565b60405161023e9190610f76565b60405180910390f35b61024f61072b565b60405161025c91906110f3565b60405180910390f35b6005602052816000526040600020818154811061028157600080fd5b9060005260206000209060020201600091509150508060000154908060010154905082565b6000600560008373ffffffffffffffffffffffffffffffffffffffff1673ffffffffffffffffffffffffffffffffffffffff1681526020019081526020016000208054905090508086869050146102fc57600080fd5b80848490501461030b57600080fd5b600080600090505b8281101561044d576000600560008673ffffffffffffffffffffffffffffffffffffffff1673ffffffffffffffffffffffffffffffffffffffff168152602001908152602001600020828154811061036e5761036d61110e565b5b906000526020600020906002020190506000808a8a858181106103945761039361110e565b5b905060200201358989868181106103ae576103ad61110e565b5b905060200201359150915081816040516020016103cc92919061117f565b604051602081830303815290604052805190602001208360000154146103f457505050610440565b82600101548561040491906111da565b9450818360010154106104305761041b8783610751565b1561042f57818561042c919061120e565b94505b5b6000801b83600001819055505050505b8080600101915050610313565b5061045883826108b2565b50505050505050565b600260009054906101000a900460ff1681565b600260009054906101000a900460ff16156104bb576040517f61cfdcf800000000000000000000000000000000000000000000000000000000815260040160405180910390fd5b7fdaec4582d5d9595688c8c98545fdd1c696d41c6aeaeb636737e84ed2f5c00eda600660009054906101000a900473ffffffffffffffffffffffffffffffffffffffff16600754604051610510929190611242565b60405180910390a16001600260006101000a81548160ff02191690831515021790555061053d6003610a76565b6008819055506000600854600754610555919061120e565b9050610583600660009054906101000a900473ffffffffffffffffffffffffffffffffffffffff16826108b2565b50565b60005481565b6000600960008373ffffffffffffffffffffffffffffffffffffffff1673ffffffffffffffffffffffffffffffffffffffff1681526020019081526020016000205490506000811115610629576000600960008473ffffffffffffffffffffffffffffffffffffffff1673ffffffffffffffffffffffffffffffffffffffff1681526020019081526020016000208190555061062882826108b2565b5b5050565b600560008473ffffffffffffffffffffffffffffffffffffffff1673ffffffffffffffffffffffffffffffffffffffff1681526020019081526020016000206040518060400160405280838152602001848152509080600181540180825580915050600190039060005260206000209060020201600090919091909150600082015181600001556020820151816001015550506106ca8383610afb565b505050565b600660009054906101000a900473ffffffffffffffffffffffffffffffffffffffff1681565b60015481565b6003818154811061070b57600080fd5b906000526020600020016000915090505481565b60085481565b60075481565b600460009054906101000a900473ffffffffffffffffffffffffffffffffffffffff1681565b60006003829080600181540180825580915050600190039060005260206000200160009091909190915055600754821161078e57600090506108ac565b600073ffffffffffffffffffffffffffffffffffffffff16600660009054906101000a900473ffffffffffffffffffffffffffffffffffffffff1673ffffffffffffffffffffffffffffffffffffffff161461085f5760075460096000600660009054906101000a900473ffffffffffffffffffffffffffffffffffffffff1673ffffffffffffffffffffffffffffffffffffffff1673ffffffffffffffffffffffffffffffffffffffff168152602001908152602001600020600082825461085791906111da565b925050819055505b8160078190555082600660006101000a81548173ffffffffffffffffffffffffffffffffffffffff021916908373ffffffffffffffffffffffffffffffffffffffff160217905550600190505b92915050565b6000600460009054906101000a900473ffffffffffffffffffffffffffffffffffffffff1673ffffffffffffffffffffffffffffffffffffffff166370a08231306040518263ffffffff1660e01b815260040161090f919061104c565b602060405180830381865afa15801561092c573d6000803e3d6000fd5b505050506040513d601f19601f820116820180604052508101906109509190611280565b905080821115610995576040517f08c379a000000000000000000000000000000000000000000000000000000000815260040161098c9061130a565b60405180910390fd5b600460009054906101000a900473ffffffffffffffffffffffffffffffffffffffff1673ffffffffffffffffffffffffffffffffffffffff1663a9059cbb84846040518363ffffffff1660e01b81526004016109f2929190611242565b6020604051808303816000875af1158015610a11573d6000803e3d6000fd5b505050506040513d601f19601f82011682018060405250810190610a359190611356565b507ffda3a3e0e1479b43cb1c701f7576187f4c4ad80768d627387e00184302f7d88e308484604051610a6993929190611383565b60405180910390a1505050565b600080600090506000805b8480549050811015610add576000858281548110610aa257610aa161110e565b5b9060005260206000200154905080841015610abb578093505b838114610acf5780831015610ace578092505b5b508080600101915050610a81565b5060008103610af0578192505050610af6565b80925050505b919050565b6000600460009054906101000a900473ffffffffffffffffffffffffffffffffffffffff1673ffffffffffffffffffffffffffffffffffffffff166370a08231846040518263ffffffff1660e01b8152600401610b58919061104c565b602060405180830381865afa158015610b75573d6000803e3d6000fd5b505050506040513d601f19601f82011682018060405250810190610b999190611280565b905080821115610bde576040517f08c379a0000000000000000000000000000000000000000000000000000000008152600401610bd59061130a565b60405180910390fd5b600460009054906101000a900473ffffffffffffffffffffffffffffffffffffffff1673ffffffffffffffffffffffffffffffffffffffff166323b872dd8430856040518463ffffffff1660e01b8152600401610c3d93929190611383565b6020604051808303816000875af1158015610c5c573d6000803e3d6000fd5b505050506040513d601f19601f82011682018060405250810190610c809190611356565b507ffda3a3e0e1479b43cb1c701f7576187f4c4ad80768d627387e00184302f7d88e833084604051610cb493929190611383565b60405180910390a1505050565b600080fd5b600080fd5b600073ffffffffffffffffffffffffffffffffffffffff82169050919050565b6000610cf682610ccb565b9050919050565b610d0681610ceb565b8114610d1157600080fd5b50565b600081359050610d2381610cfd565b92915050565b6000819050919050565b610d3c81610d29565b8114610d4757600080fd5b50565b600081359050610d5981610d33565b92915050565b60008060408385031215610d7657610d75610cc1565b5b6000610d8485828601610d14565b9250506020610d9585828601610d4a565b9150509250929050565b6000819050919050565b610db281610d9f565b82525050565b610dc181610d29565b82525050565b6000604082019050610ddc6000830185610da9565b610de96020830184610db8565b9392505050565b600080fd5b600080fd5b600080fd5b60008083601f840112610e1557610e14610df0565b5b8235905067ffffffffffffffff811115610e3257610e31610df5565b5b602083019150836020820283011115610e4e57610e4d610dfa565b5b9250929050565b60008083601f840112610e6b57610e6a610df0565b5b8235905067ffffffffffffffff811115610e8857610e87610df5565b5b602083019150836020820283011115610ea457610ea3610dfa565b5b9250929050565b600080600080600060608688031215610ec757610ec6610cc1565b5b600086013567ffffffffffffffff811115610ee557610ee4610cc6565b5b610ef188828901610dff565b9550955050602086013567ffffffffffffffff811115610f1457610f13610cc6565b5b610f2088828901610e55565b93509350506040610f3388828901610d14565b9150509295509295909350565b60008115159050919050565b610f5581610f40565b82525050565b6000602082019050610f706000830184610f4c565b92915050565b6000602082019050610f8b6000830184610db8565b92915050565b600060208284031215610fa757610fa6610cc1565b5b6000610fb584828501610d14565b91505092915050565b610fc781610d9f565b8114610fd257600080fd5b50565b600081359050610fe481610fbe565b92915050565b60008060006060848603121561100357611002610cc1565b5b600061101186828701610d14565b935050602061102286828701610d4a565b925050604061103386828701610fd5565b9150509250925092565b61104681610ceb565b82525050565b6000602082019050611061600083018461103d565b92915050565b60006020828403121561107d5761107c610cc1565b5b600061108b84828501610d4a565b91505092915050565b6000819050919050565b60006110b96110b46110af84610ccb565b611094565b610ccb565b9050919050565b60006110cb8261109e565b9050919050565b60006110dd826110c0565b9050919050565b6110ed816110d2565b82525050565b600060208201905061110860008301846110e4565b92915050565b7f4e487b7100000000000000000000000000000000000000000000000000000000600052603260045260246000fd5b6000819050919050565b61115861115382610d29565b61113d565b82525050565b6000819050919050565b61117961117482610d9f565b61115e565b82525050565b600061118b8285611147565b60208201915061119b8284611168565b6020820191508190509392505050565b7f4e487b7100000000000000000000000000000000000000000000000000000000600052601160045260246000fd5b60006111e582610d29565b91506111f083610d29565b9250828201905080821115611208576112076111ab565b5b92915050565b600061121982610d29565b915061122483610d29565b925082820390508181111561123c5761123b6111ab565b5b92915050565b6000604082019050611257600083018561103d565b6112646020830184610db8565b9392505050565b60008151905061127a81610d33565b92915050565b60006020828403121561129657611295610cc1565b5b60006112a48482850161126b565b91505092915050565b600082825260208201905092915050565b7f62616c616e6365206973206c6f77000000000000000000000000000000000000600082015250565b60006112f4600e836112ad565b91506112ff826112be565b602082019050919050565b60006020820190508181036000830152611323816112e7565b9050919050565b61133381610f40565b811461133e57600080fd5b50565b6000815190506113508161132a565b92915050565b60006020828403121561136c5761136b610cc1565b5b600061137a84828501611341565b91505092915050565b6000606082019050611398600083018661103d565b6113a5602083018561103d565b6113b26040830184610db8565b94935050505056fea2646970667358221220579755eeeddbaa3e8b63e8598633389c43f82c27b2e2ab0e2eee3961c1fca63b64736f6c63430008180033",
  "linkReferences": {},
  "deployedLinkReferences": {}
}